:03000000020034C7
:0303B7000200033E
:030003000203BA3B
:1003BA007581499003047401F0A280900304E0243B
:1003CA00FF92809003007410F07427A3F07400A3C6
:1003DA00F0A3F0900300E0FCA3E0FDA3E0FEA3E09D
:1003EA00FF1CBCFF091DBDFF051EBEFF011FEC4D12
:1003FA004E4F60030203EB9003047400F0A2809056
:10040A000304E024FF92809003007410F07427A381
:10041A00F07400A3F0A3F0900300E0FCA3E0FDA3B6
:10042A00E0FEA3E0FF1CBCFF091DBDFF051EBEFFC9
:0F043A00011FEC4D4E4F600302042F0203BD2241
:0600470090030874FFF0B5
:10044900AFF0AE83E582900309F0EEA3F0EFA3F0DD
:10045900900309E0FDA3E0FEA3E0FF8D828E838F68
:10046900F0125B55AE82AF838E828F8322AFF0AEDE
:1004790083E582900311F0EEA3F0EFA3F090030C53
:10048900E0FDA3E0FEA3E0FF900317EDF0EEA3F07B
:10049900EFA3F0900311E0FDA3E0FEA3E0FF9003BA
:1004A90014EDF0EEA3F0EFA3F0900317E0FDA3E045
:1004B900FEA3E0FF900314E0FAA3E0FBA3E0FC90A5
:1004C900030FE0F53AA3E0F53BA83AA93B153A74C6
:1004D900FFB53A02153BE84970030205078D828E84
:1004E900838FF0125B6DF9A3AD82AE838A828B8311
:1004F9008CF0E9125A01A3AA82AB830204D29003B9
:1005090014EAF0EBA3F0ECA3F0900314E0FDA3E0F0
:10051900FEA3E0FF8D828E838FF022AFF0AE83E5DC
:100529008290031FF0EEA3F0EFA3F090031AE0FD11
:10053900A3E0FEA3E0FF90031DE0FBA3E0FC1BBBCF
:10054900FF011C900325EB2DF0EC3EA3F0EFA3F087
:1005590090031FE0FDA3E0FEA3E0FF900322EDF06E
:10056900EEA3F0EFA3F0900325E0FDA3E0FEA3E0E6
:10057900FF900322E0FAA3E0FBA3E0FC90031DE057
:10058900F53AA3E0F53BA83AA93B153A74FFB53A09
:1005990002153BE84970030205C48D828E838FF0F2
:1005A900125B6DF91DBDFF011E8A828B838CF0E9F8
:1005B900125A01A3AA82AB8302058F900322EAF0A3
:1005C900EBA3F0ECA3F0900322E0FDA3E0FEA3E08F
:1005D900FF8D828E838FF022AFF0AE83E582900388
:1005E9002AF0EEA3F0EFA3F0900328E0FEA3E0FFCA
:1005F9008E828F8312202AAD82AE83AFF090032DB5
:10060900EDF0EEA3F0EFA3F0ED4E70030206529069
:10061900032DE0FDA3E0FEA3E0FF90032AE0FAA387
:10062900E0FBA3E0FC900328E0F8A3E0F990030CB9
:10063900EAF0EBA3F0ECA3F090030FE8F0E9A3F0E4
:100649008D828E838FF012047690032DE0FDA3E056
:10065900FEA3E0FF8D828E838FF022AFF0AE83E59B
:1006690082900335F0EEA3F0EFA3F0900335E0FD9F
:10067900A3E0FEA3E0FF900338EDF0EEA3F0EFA3B3
:10068900F0900330E0FDA3E0FEA3E0FF90033BED13
:10069900F0EEA3F0EFA3F0900338E0FDA3E0FEA392
:1006A900E0FF90033BE0FAA3E0FBA3E0FC900333F7
:1006B900E0F53AA3E0F53BA83AA93B153A74FFB532
:1006C9003A02153BE84970030206FF8D828E838F3B
:1006D900F0125B6DF9A3AD82AE838A828B838CF0B5
:1006E900125B6DF8A3AA82AB83E9B500030206C0C9
:1006F90075820002070275820122AFF0AE83E5829E
:10070900900341F0EEA3F0EFA3F0900341E0FDA3C5
:10071900E0FEA3E0FF90033EE0FC90033FE0FAA374
:10072900E0FB901214ECF0901215EAF0EBA3F08DB7
:10073900828E838FF012579AAD82AE83AFF08D828D
:100749008E838FF022AFF0AE83E582900344F0EE02
:10075900A3F0EFA3F0900344E0FDA3E0FEA3E0FFC4
:100769008D828E838FF0125B6DFC7B000DBD0001C5
:100779000E8D828E838FF0125B6DFD7F008D077D5C
:1007890000ED2CFCEF3BFB8C828B8322AFF0AE8318
:10079900E582900348F0EEA3F0EFA3F0900347E061
:1007A900FFBF02028003020804900348E0FDA3E0B2
:1007B900FEA3E0FF8D828E838FF0125B6DFC8C01AE
:1007C9007A007B007C000DBD00010E8D828E838F27
:1007D900F0125B6DFD8D007D007E007F008E078D20
:1007E9000688057800E829F9ED3AFAEE3BFBEF3C7B
:1007F900FC89828A838BF0EC02098A900347E0FF27
:10080900BF0302800302089B900348E0FDA3E0FEBA
:10081900A3E0FF8D828E838FF0125B6DFC8C3A759D
:100829003B00753C00753D0074012DF874003EFBDA
:100839008F0488828B838CF0125B6DF87C007B00BF
:100849007A008B028C0388047800E8253AF8EC35A5
:100859003BFCEB353CFBEA353DFA74022DFD740097
:100869003EFE8D828E838FF0125B6DFD8D017D00C2
:100879007E007F008D0789067D007900E928F8ED63
:100889003CFCEE3BFBEF3AFA88828C838BF0EA0260
:10089900098A900347E0FFBF0402800302096890B8
:1008A9000348E0FDA3E0FEA3E0FF8D828E838FF075
:1008B900125B6DFC8C3A753B00753C00753D00740C
:1008C900012DF874003EFB8F0488828B838CF01213
:1008D9005B6DF87C007B007A008B028C03880478BE
:1008E90000E8253AF53AEC353BF53BEB353CF53C70
:1008F900EA353DF53D74022DF974003EFB8F0489FC
:10090900828B838CF0125B6DF97C007B007A008C02
:100919000289037C007900E9253AF9EC353BFCEBC7
:10092900353CFBEA353DFA74032DFD74003EFE8D1E
:10093900828E838FF0125B6DFD8D007D007E007FBE
:1009490000880778007D007E00E829F9ED3CFCEE7F
:100959003BFBEF3AFA89828C838BF0EA02098A9091
:100969000348E0FDA3E0FEA3E0FF8D828E838FF0B4
:10097900125B6DFD7F007E007C008D828F838EF07F
:10098900EC22AF82AE83ADF0FC90034FEFF0EEA303
:10099900F0EDA3F0ECA3F09003537400F090035D25
:1009A900F0900367F090034BE0FDA3E0FEA3E0FFA6
:1009B9008D828E838FF07400125A0190034EE0FFEE
:1009C900BF0A028003020D1C90034FE0FCA3E0FD67
:1009D900A3E0FEA3E0FF9011F97410F07427A3F0CF
:1009E9007400A3F0A3F08C828D838EF0EFC007C052
:1009F90006C005C0041254F5A882A983AAF0FBD049
:100A090004D005D006D007900371E8F0E9A3F0906F
:100A190012087410F07427A3F07400A3F0A3F08CEB
:100A2900828D838EF0EFC007C006C005C004125640
:100A39008FA882A983AAF0FBD004D005D006D007DD
:100A49009011F97410F07427A3F07400A3F0A3F0C7
:100A5900888289838AF0EBC007C006C005C00412EA
:100A690054F5A882A983AAF0FBD004D005D006D0FA
:100A790007900373E8F0E9A3F09012087400F0748A
:100A8900E1A3F074F5A3F07405A3F08C828D838E35
:100A9900F0EF12568FAC82AD83AEF0FF900375EC88
:100AA900F0EDA3F0EC4D7003020AD7900375E0FE58
:100AB900A3E0FF90121E7467F07403A3F07400A3FF
:100AC900F0901221740AF08E828F831259179003C5
:100AD90073E0FEA3E0FFEE4F7003020B099003736E
:100AE900E0FEA3E0FF90121E745DF07403A3F0749E
:100AF90000A3F0901221740AF08E828F8312591785
:100B0900900371E0FEA3E0FFEE4F7003020B3B90F0
:100B19000371E0FEA3E0FF90121E7453F07403A367
:100B2900F07400A3F0901221740AF08E828F831260
:100B39005917900375E0FEA3E0FFEE4F7003020B17
:100B4900EA90034BE0FDA3E0FEA3E0FF90120274DC
:100B590067F07403A3F07400A3F08D828E838FF085
:100B69001256369003777400F090034BE0FDA3E032
:100B7900FEA3E0FF900377E0FC75825D7583037542
:100B8900F000C007C006C005C004125B55AA82ABBD
:100B990083D004D005D006D0077404C39AFA740030
:100BA9009BFB8C007900C3E89AE99B4003020BEA9E
:100BB9008D018E028F03901224748DF0745BA3F063
:100BC9007480A3F089828A838BF0C007C006C005B0
:100BD900C004125993D004D005D006D0070C020BDB
:100BE9008290034BE0FDA3E0FEA3E0FF9012247482
:100BF9005DF07403A3F07400A3F08D828E838FF0EF
:100C0900125993900375E0FEA3E0FFEE4F600302D3
:100C19000C2A900373E0FEA3E0FFEE4F7003020C71
:100C2900A89003777400F090034BE0FDA3E0FEA3C6
:100C3900E0FF900377E0FC75825375830375F0003C
:100C4900C007C006C005C004125B55AA82AB83D099
:100C590004D005D006D0077404C39AFA74009BFB2C
:100C69008C007900C3E89AE99B4003020CA88D0126
:100C79008E028F03901224748DF0745BA3F074803C
:100C8900A3F089828A838BF0C007C006C005C0041F
:100C9900125993D004D005D006D0070C020C40900D
:100CA900034BE0FDA3E0FEA3E0FF9012247453F090
:100CB9007403A3F07400A3F08D828E838FF0125910
:100CC90093900375E0FEA3E0FFEE4F6003020ECFA1
:100CD900900373E0FEA3E0FFEE4F6003020ECF9096
:100CE9000371E0FEA3E0FFEE4F6003020ECF900315
:100CF9004BE0FDA3E0FEA3E0FF901202748DF074B7
:100D09005BA3F07480A3F08D828E838FF012563628
:100D1900020ECF90034EE0FFBF10028003020EC304
:100D290090034FE0FCA3E0FDA3E0FEA3E0FF8C00ED
:100D39008D017A007B00900371E8F0E9A3F08E043D
:100D49008F05900373ECF0EDA3F0EC4D7003020DE9
:100D59007D900373E0FEA3E0FF90121E745DF074B2
:100D690003A3F07400A3F09012217410F08E828F07
:100D790083125917900371E0FEA3E0FFEE4F700351
:100D8900020DAF900371E0FEA3E0FF90121E7453B1
:100D9900F07403A3F07400A3F09012217410F08E84
:100DA900828F83125917900373E0FEA3E0FFEE4F81
:100DB9007003020E5E90034BE0FDA3E0FEA3E0FF8B
:100DC900901202745DF07403A3F07400A3F08D8295
:100DD9008E838FF01256369003777400F090034B90
:100DE900E0FDA3E0FEA3E0FF900377E0FC758253EA
:100DF90075830375F000C007C006C005C004125B07
:100E090055AA82AB83D004D005D006D0077404C399
:100E19009AFA74009BFB8C007900C3E89AE99B401D
:100E290003020E5E8D018E028F03901224748DF0E1
:100E3900745BA3F07480A3F089828A838BF0C00766
:100E4900C006C005C004125993D004D005D006D0FD
:100E5900070C020DF690034BE0FDA3E0FEA3E0FFB3
:100E69009012247453F07403A3F07400A3F08D82DC
:100E79008E838FF0125993900373E0FEA3E0FFEE87
:100E89004F6003020ECF900371E0FEA3E0FFEE4F27
:100E99006003020ECF90034BE0FDA3E0FEA3E0FF49
:100EA900901202748DF0745BA3F07480A3F08D82AC
:100EB9008E838FF0125636020ECF7582007583002D
:100EC90075F000020EE090034BE0FDA3E0FEA3E005
:100ED900FF8D828E838FF02222AF83E58290037883
:100EE900F0EFA3F0900378E0FEA3E0FFEE4F60037C
:100EF900020F0875820075830075F000020FA59036
:100F09000378E0FEA3E0FF74062EFE74003FFF8E17
:100F1900828F8312202AAD82AE83AFF090037AEDDF
:100F2900F0EEA3F0EFA3F0ED4E7003020F9C9003D7
:100F39007AE0FDA3E0FEA3E0FF8D828E838FF0743B
:100F490000125A01A3125A01A3125A0174032DFA6D
:100F590074003EFB8F04900378E0F8A3E0F98A82DD
:100F69008B838CF0E8125A01A3E9125A0174052DFA
:100F7900FA74003EFB8F048A828B838CF074FF1213
:100F89005A0174062DFD74003EFE8D828E838FF00A
:100F9900020FA575820075830075F00022AFF0AECF
:100FA90083E58290037DF0EEA3F0EFA3F090037D3B
:100FB900E0FDA3E0FEA3E0FFED4E6003020FCE7556
:100FC900820502101690037DE0FDA3E0FEA3E0FF79
:100FD90074FF2DFD74FF3EFE8D828E838FF0125BB0
:100FE9006DFDBDFF03020FF7758204021016900311
:100FF9007DE0FDA3E0FEA3E0FFED24FAFDEE34FF62
:10100900FE8D828E838FF012237675820022E5820F
:10101900900383F0E0FF900380E0FCA3E0FDA3E0F0
:10102900FE900388ECF0EDA3F0EEA3F090038B742F
:1010390000F08F82121073AF828F8222E5829003B3
:1010490087F0E0FF900384E0FCA3E0FDA3E0FE90BD
:101059000388ECF0EDA3F0EEA3F090038B7401F09C
:101069008F82121073AF828F8222E58290038CF0F7
:10107900900388E0FDA3E0FEA3E0FFED4E600302CC
:1010890010917582050211B690038CE0FF905B996F
:10109900E493FEC3EF9E50030210BE900388E0FD67
:1010A900A3E0FEA3E0FF8D828E838FF0120FA67559
:1010B90082030211B6900388E0FDA3E0FEA3E0FFDE
:1010C900ED24FAFDEE34FFFE8D828E838FF0125BE4
:1010D9006DFDA3125B6DFEA3125B6DFFED4E600308
:1010E90002110F900388E0FDA3E0FEA3E0FF74FF67
:1010F9002DFD74FF3EFE8D828E838FF0125B6DFD98
:10110900BDFF03021129900388E0FDA3E0FEA3E0DF
:10111900FF8D828E838FF0120FA67582050211B69C
:10112900900388E0FDA3E0FEA3E0FF74FF2DFD74AA
:10113900FF3EFE90038CE0FC8D828E838FF0EC12D3
:101149005A0190038BE0FFBF0102800302117D90D9
:101159000388E0FDA3E0FEA3E0FF9003AFEDF0EE0E
:10116900A3F0EFA3F075820575830375F0001216DD
:101179009D02119F900388E0FDA3E0FEA3E0FF908C
:10118900039EEDF0EEA3F0EFA3F0758205758303DE
:1011990075F00012142990038CE0FF9003CB7400C2
:1011A900F07480A3F08F821219D875820022E5822B
:1011B90090038DF09003917400F0A3F0A3F09003D5
:1011C90094F0A3F0A3F0900397A2AFE433F0C2AF79
:1011D900900305E0FDA3E0FEA3E0FF90038EEDF090
:1011E900EEA3F0EFA3F090038DE0FF90038EE0FCF7
:1011F900A3E0FDA3E0FEEC4D70030212B190038E53
:10120900E0FCA3E0FDA3E0FE74FF2CFC74FF3DFDB0
:101219008C828D838EF0125B6DFCECB50702800326
:10122900021254900394E0FCA3E0FDA3E0FEEC4D10
:1012390060030212B190038EE0FCA3E0FDA3E0FE7F
:10124900900394ECF0EDA3F0EEA3F0900394E0FC8E
:10125900A3E0FDA3E0FEEC4D600302127C90038E37
:10126900E0FCA3E0FDA3E0FE900391ECF0EDA3F018
:10127900EEA3F090038EE0FCA3E0FDA3E0FEEC24D6
:10128900FAFCED34FFFD8C828D838EF0125B6DFCD0
:10129900A3125B6DFDA3125B6DFE90038EECF0ED66
:1012A900A3F0EEA3F00211F490038EE0FDA3E0FE9B
:1012B900A3E0FFED4E70030212DA90038DE0FF9078
:1012C90003CB7400F07480A3F08F821219D8021234
:1012D900EE90038DE0FF9003CE7400F07480A3F0CC
:1012E9008F82121A3F900394E0FDA3E0FEA3E0FF72
:1012F900ED4E7003021338900394E0FDA3E0FEA3C2
:10130900E0FF900391E0FAA3E0FBA3E0FC9003B5B2
:10131900EDF0EEA3F0EFA3F09003B8EAF0EBA3F041
:10132900ECA3F075820575830375F00012172C90F4
:101339000397E0FFEF24FF92AF900394E0FDA3E051
:10134900FEA3E0FF8D828E838FF022E582900399C0
:10135900F090039DA2AFE433F0C2AF900305E0FD26
:10136900A3E0FEA3E0FF90039AEDF0EEA3F0EFA354
:10137900F0900398E0FF900399E0FE90039AE0FB58
:10138900A3E0FCA3E0FDEB4C700302140D90039A5B
:10139900E0FBA3E0FCA3E0FD74FF2BFB74FF3CFC26
:1013A9008B828C838DF0125B6DFBEBB5060280039B
:1013B9000213D890039AE0FBA3E0FCA3E0FD8B8223
:1013C9008C838DF0125B6DFBEBB5070302140D9056
:1013D900039AE0FBA3E0FCA3E0FDEB24FAFBEC3469
:1013E900FFFC8B828C838DF0125B6DFBA3125B6D0E
:1013F900FCA3125B6DFD90039AEBF0ECA3F0EDA357
:10140900F002138490039DE0FFEF24FF92AF900355
:101419009AE0FDA3E0FEA3E0FF8D828E838FF02288
:10142900AFF0AE83E5829003A1F0EEA3F0EFA3F055
:101439009003A7A2AFE433F0C2AF90039EE0FDA3EF
:10144900E0FEA3E0FFED24FAFDEE34FFFE8D828E6F
:10145900838FF07400125A01A3125A01A3125A0180
:101469009003A1E0FDA3E0FEA3E0FF8D828E838FB0
:10147900F0125B6DFDA3125B6DFEA3125B6DFFEDB8
:101489004E60030214BC9003A1E0FDA3E0FEA3E0BB
:10149900FF90039EE0FAA3E0FBA3E0FC8D828E831C
:1014A9008FF0EA125A01A3EB125A01A3EC125A0166
:1014B9000215909003A1E0FDA3E0FEA3E0FF8D8259
:1014C9008E838FF0125B6DFDA3125B6DFEA3125B21
:1014D9006DFF9003A4EDF0EEA3F0EFA3F09003A449
:1014E900E0FDA3E0FEA3E0FFED24FAFDEE34FFFEEC
:1014F9008D828E838FF0125B6DFDA3125B6DFEA34F
:10150900125B6DFF7400C0E0C0E0C0E08D828E8385
:101519008FF0120006158115811581700302155E81
:101529009003A4E0FDA3E0FEA3E0FFED24FAFDEEA5
:1015390034FFFE8D828E838FF0125B6DFDA3125BEB
:101549006DFEA3125B6DFF9003A4EDF0EEA3F0EF27
:10155900A3F00214E69003A4E0FDA3E0FEA3E0FFDC
:10156900ED24FAFDEE34FFFE90039EE0FAA3E0FBC2
:10157900A3E0FC8D828E838FF0EA125A01A3EB124D
:101589005A01A3EC125A019003A7E0FFEF24FF923E
:10159900AF22AFF0AE83E5829003A8F0EEA3F0EF9F
:1015A900A3F09003AB7400F0A3F0A3F09003AEA2F4
:1015B900AFE433F0C2AF9003A8E0FDA3E0FEA3E0DF
:1015C900FF8D828E838FF0125B6DFDA3125B6DFE22
:1015D900A3125B6DFFED4E70030216819003A8E024
:1015E900F53AA3E0F53BA3E0F53C853A82853B83D8
:1015F900853CF0125B6DFAA3125B6DFBA3125B6D68
:10160900FC9003ABEAF0EBA3F0ECA3F08A008B01AA
:101619008C07E824FAF8E934FFF9888289838FF086
:10162900125B6DF8A3125B6DF9A3125B6DFF853A2E
:1016390082853B83853CF0E8125A01A3E9125A01DD
:10164900A3EF125A018A058B068C07ED24FAFDEEE9
:1016590034FFFE8D828E838FF07400125A01A3121B
:101669005A01A3125A01142AFA74FF3BFB8A828B8E
:10167900838CF074FF125A019003AEE0FFEF24FF50
:1016890092AF9003ABE0FDA3E0FEA3E0FF8D828E55
:10169900838FF022AFF0AE83E5829003B2F0EEA320
:1016A900F0EFA3F0A2AFE433F53AC2AF9003AFE095
:1016B900FCA3E0FDA3E0FE8C018D028E03E924FA70
:1016C900F53BEA34FFF53C8B3D9003B2E0F53EA3D0
:1016D900E0F53FA3E0F540853E82853F838540F0F4
:1016E900125B6DF9A3125B6DFAA3125B6DFF853B6B
:1016F90082853C83853DF0E9125A01A3EA125A0119
:10170900A3EF125A01853E82853F838540F0EC1292
:101719005A01A3ED125A01A3EE125A01E53A24FF28
:1017290092AF22AFF0AE83E5829003BBF0EEA3F057
:10173900EFA3F09003BEA2AFE433F0C2AF9003BBB6
:10174900E0FDA3E0FEA3E0FF8D828E838FF0125BA4
:101759006DFDA3125B6DFEA3125B6DFF9003B5E0F7
:10176900FAA3E0FBA3E0FCC005C006C0078A828B90
:10177900838CF01200061581158115817002800392
:101789000217D59003BBE0FDA3E0FEA3E0FF9003A1
:10179900B5E0FAA3E0FBA3E0FCEA24FAFAEB34FF94
:1017A900FB8A828B838CF0125B6DFAA3125B6DFB53
:1017B900A3125B6DFC8D828E838FF0EA125A01A30E
:1017C900EB125A01A3EC125A010218239003B8E054
:1017D900FDA3E0FEA3E0FFED24FAFDEE34FFFE9049
:1017E90003B5E0FAA3E0FBA3E0FCEA24FAFAEB3440
:1017F900FFFB8A828B838CF0125B6DFAA3125B6DFF
:10180900FBA3125B6DFC8D828E838FF0EA125A0165
:10181900A3EB125A01A3EC125A019003B5E0FDA300
:10182900E0FEA3E0FF8D028E038F04EA24FAFAEBAF
:1018390034FFFB8A828B838CF07400125A01A31245
:101849005A01A3125A01142DFD74FF3EFE8D828E9A
:10185900838FF074FF125A019003BEE0FFEF24FF5B
:1018690092AF22AFF0AE83E5829003C3F0EEA3F00E
:10187900EFA3F09003C97400F09003CAA2AFE43358
:10188900F0C2AF9003C3E0FDA3E0FEA3E0FF8D82A9
:101899008E838FF0125B6DFDA3125B6DFEA3125B4D
:1018A9006DFFED4E60030218E59003C3E0FDA3E070
:1018B900FEA3E0FF9003BFE0FAA3E0FBA3E0FC8DE9
:1018C900828E838FF0EA125A01A3EB125A01A3EC1C
:1018D900125A019003C97401F00219C69003C3E0BA
:1018E900FDA3E0FEA3E0FF8D828E838FF0125B6D76
:1018F900FDA3125B6DFEA3125B6DFF9003C6EDF0B5
:10190900EEA3F0EFA3F09003C2E014F0E0FF900320
:10191900C6E0FCA3E0FDA3E0FEEC24FAFCED34FFF5
:10192900FD8C828D838EF0125B6DFCA3125B6DFDC5
:10193900A3125B6DFEEC4D7003021981EF70030277
:1019490019819003C6E0FCA3E0FDA3E0FEEC24FAB4
:10195900FCED34FFFD8C828D838EF0125B6DFCA350
:10196900125B6DFDA3125B6DFE9003C6ECF0EDA357
:10197900F0EEA3F01F0219179003C2EFF0E0FFEF9A
:1019890070030219C69003C6E0FDA3E0FEA3E0FFC1
:10199900ED24FAFDEE34FFFE9003BFE0FAA3E0FB6D
:1019A900A3E0FC8D828E838FF0EA125A01A3EB1219
:1019B9005A01A3EC125A019003C97401F09003CAA9
:1019C900E0FFEF24FF92AF9003C9E0FF8F8222E589
:1019D900829003CDF0E0FF905B99E493FEC3EF9E04
:1019E9004003021A3B901077E0FDA3E0FEA3E0FF5D
:1019F9009003CDE0FCEC75F002A42DFDEE35F0FE70
:101A09008D828E838FF0125B6DFBA3125B6DFC9050
:101A190003CBE0F9A3E0FAE94203EA42048D828E9E
:101A2900838FF0EB125A01A3EC125A01758200025E
:101A39001A3E75820322E5829003D0F0E0FF905BA5
:101A490099E493FEC3EF9E4003021AB4A2AFE433B4
:101A5900FFC2AF901077E0FCA3E0FDA3E0FE900386
:101A6900D0E0FBEB75F002A42CFCED35F0FD8C8287
:101A79008D838EF0125B6DFAA3125B6DFB9003CE22
:101A8900E0F8A3E0F9E8F4F8E9F4F9E85202E952D8
:101A9900038C828D838EF0EA125A01A3EB125A014C
:101AA900EF24FF92AF758200021AB775820322757F
:101AB900820022E5829003D3F0E0FFBFFF0280039A
:101AC900021AD4D2AF758200021AD775820722E5AD
:101AD900829003D4F0E0FFBFFF028003021AF0C234
:101AE900AF758200021AF375820722121FB39003A1
:101AF900057400F0A3F0A3F012240C12305C758277
:101B09000022121B12021B0B229003D57400F01243
:101B190030D79003D5E0FF901077E0FCA3E0FDA358
:101B2900E0FEEF75F002A42CFCED35F0FD8C828D02
:101B3900838EF0125B6DFCA3125B6DFDEC4D6003AF
:101B4900021B5B0F905B99E493FEC3EF9E50030267
:101B59001B209003D5EFF0E0FF905B99E493FEC35F
:101B6900EF9E4003021C2C901077E0FDA3E0FEA33A
:101B7900E0FF9003D5E0FCEC75F002A4FAABF0EAC3
:101B89002DFDEB3EFE8D828E838FF0125B6DF8A3E7
:101B9900125B6DF99003D6E8F0E9A3F08D828E838C
:101BA9008FF07400125A01A3125A01900308ECF045
:101BB900EA248FF582EB345BF583E493FEA3E49387
:101BC900FFC003C0029003D6E0C0E0A3E0C0E0126A
:101BD9001BDE021BE5C006C0078C8222AE82AF83E2
:101BE90015811581D002D00390030874FFF090107D
:101BF90077E0F9A3E0FCA3E0FDEA29F9EB3CFC89D5
:101C0900828C838DF0125B6DFAA3125B6DFBEA4245
:101C190006EB420789828C838DF0EE125A01A3EFFD
:101C2900125A0122AFF0AE83E5829003DCF0EEA3F5
:101C3900F0EFA3F09003DCE0F53AA3E0F53BA3E075
:101C4900F53C9003D8E0F9A3E0FAA3E0FBA3E0FC9C
:101C590089007D007E007F00853A82853B83853C33
:101C6900F0E8125A019003DC7401253AF07400354A
:101C79003BA3F0E53CA3F09003DCE0F53AA3E0F5E3
:101C89003BA3E0F53C8A007D007E007F00853A8217
:101C9900853B83853CF0E8125A019003DC740125E9
:101CA9003AF07400353BA3F0E53CA3F09003DCE087
:101CB900F53AA3E0F53BA3E0F53C8B007D007E00FF
:101CC9007F00853A82853B83853CF0E8125A019072
:101CD90003DC7401253AF07400353BA3F0E53CA31D
:101CE900F09003DCE0FDA3E0FEA3E0FF8C017C00A3
:101CF9007B007A008D828E838FF0E9125A0190035E
:101D0900DC74012DF074003EA3F0EFA3F09003DC26
:101D1900E0FDA3E0FEA3E0FF8D828E838FF022AF6A
:101D2900F0AE83E5829003E3F0EEA3F0EFA3F09029
:101D390003E3E0F53AA3E0F53BA3E0F53C9003DFCC
:101D4900E0F9A3E0FAA3E0FBA3E0FC89007D007EB3
:101D5900007F00853A82853B83853CF0E8125A0171
:101D69009003E37401253AF07400353BA3F0E53C98
:101D7900A3F09003E3E0F53AA3E0F53BA3E0F53CDB
:101D89008A007D007E007F00853A82853B83853C01
:101D9900F0E8125A019003E37401253AF074003512
:101DA9003BA3F0E53CA3F09003E3E0FDA3E0FEA331
:101DB900E0FF8B017C007B007A008D828E838FF09F
:101DC900E9125A019003E374012DF074003EA3F067
:101DD900EFA3F09003E3E0FDA3E0FEA3E0FF8D8213
:101DE9008E838FF022AFF0AE83E5829003E8F0EEA8
:101DF900A3F0EFA3F09003E8E0FDA3E0FEA3E0FF6A
:101E0900ED4E6003021E16758200021E6B9003EBF5
:101E19007400F09003E8E0FDA3E0FEA3E0FF900367
:101E2900E6E0FC9003E7E0FB9003EBE0FAC3EA9BF2
:101E39004003021E68C003EA2DF874003EF98F03BF
:101E4900888289838BF0125B6DF8E8B50405D003AD
:101E5900021E64D003758200021E6B0A021E3675CB
:0B1E6900820122900308E0FF8F82221C
:025B8D003000E6
:10004D009003ED7400F09003EE7442F09003EF74A2
:10005D0058F09003F0742DF09003F17464F0900358
:10006D00F2F09003F3F09003F404F09003F5746252
:10007D00F09003F67475F09003F77467F09003F841
:10008D00742DF09003F9746EF09003FA04F0900360
:10009D00FB7464F09003FC04F09003FD7400F09089
:1000AD0004037468F0741FA3F09004057400F0A3AA
:0100BD00F052
:101E7400E582900407F0E0FF9003ECEFF090040893
:101E84007401F090115BF090115C7408F07404A379
:101E9400F07400A3F07582057583031243607582A4
:101EA400FF7583FF75F0FF74FF124B839003ECE022
:101EB400FF9003CB7401F07400A3F08F821219D841
:101EC40022C01D85811DE51D24FCF8E620E00302E7
:101ED4001F1975820375830475F0001248869003F8
:101EE400ECE0FF90103D7402F07400A3F090103FFA
:101EF4007488F07413A3F07400A3F0A3F08F82121B
:101F04002754E51D24FCF8740166FE0886078E82BA
:101F14008F83021F65E51D24FCF8E620E103021F00
:101F24005F9003ECE0FF90103D7402F07400A3F0A6
:101F340090103F7488F07413A3F07400A3F0A3F01E
:101F44008F82122754121FB2E51D24FCF874026616
:101F5400FE0886078E828F83021F65758200758353
:101F640000D01D22E582900409F0E0FFC374069FAF
:101F74005003021FA7EF2F2F901F8073021FA70289
:101F84001F95021F98021F9E021FA1021F9B021F82
:101F9400A4021FA7021FA7021FA7021FA7021FA7B1
:101FA400021FA7900409E0FF9003EDEFF0222290B6
:101FB40010087400F0A3F090100A740AF07404A3DB
:101FC400F07400A3F090040A7448F07402A3F09033
:101FD4000652F07480A3F090065474B4F07409A30C
:101FE400F02275820175830012202AAD82AE83AF80
:101FF400F0A2AFE433FCC2AFED24FEF9EE34FFFAF5
:102004008F0390100AE9F0EAA3F0EBA3F08D828E1F
:10201400838FF0C004122376D00490100D7401F065
:10202400EC24FF92AF22AF83E58290100EF0EFA371
:10203400F09010107400F0A3F0A3F0901016F0903C
:10204400100EE0FEA3E0FF90100E74022EF0740058
:102054003FA3F090100DE0FFEF7003022076901084
:102064000EE0FEA3E0FFC374109E74009F500302B1
:10207400208F90100AE0FDA3E0FEA3E0FF90101370
:10208400EDF0EEA3F0EFA3F002209D901013745432
:10209400F07406A3F07400A3F090100EE0FEA3E029
:1020A400FF901013E0FBA3E0FCA3E0FD0BBB0001D9
:1020B4000C8B828C838DF0125B6D20E7030220CDA4
:1020C4009010167400F00221C6901016E0FDED7019
:1020D40003022184901010E0FBA3E0FCA3E0FD8B3D
:1020E4003A8C3B8D3C8B008C018D02888289838ADB
:1020F400F0125B6DF53DA3125B6D547FF53E9010BD
:1021040013E0F8A3E0F9A3E0FA888289838AF01245
:102114005B6DF53FA3125B6D547FF540A83FAA4069
:10212400E8253DF8EA353EFA853A82853B83853CCD
:10213400F0E500125A01A3EA547FC0F0C0E0125B3C
:102144006DD0F0548045F0D0F0125A018B828C830C
:102154008DF0125B6DFBA3125B6D547FFCC3EB9E91
:10216400EC9F50030221C6901010E0FBA3E0FCA3F7
:10217400E0FD901013EBF0ECA3F0EDA3F0022224A9
:10218400901013E0FBA3E0FCA3E0FD8B828C838D15
:10219400F0125B6DFBA3125B6D547FFCC3EB9EECF2
:1021A4009F40030222249010167401F0901013E053
:1021B400FBA3E0FCA3E0FD901010EBF0ECA3F0ED2A
:1021C400A3F0901013E0FBA3E0FCA3E0FD8B008CD4
:1021D400018D028B828C838DF0125B6DFBA3125BED
:1021E4006D547FFCEB28F8EC39F9901013E8F0E912
:1021F400A3F0EAA3F0901013E0FBA3E0FCA3E0FD3E
:102204008B828C838DF0125B6DFBA3125B6DFCEBF8
:102214004C60030220A59010137400F0A3F0A3F007
:10222400901013E0FDA3E0FEA3E0FFED4E70030267
:102234002363901013E0FDA3E0FEA3E0FF8D828EE4
:10224400838FF0125B6DFDA3125B6D547FFE9010C3
:102254000EE0FCA3E0FFEDC39CFDEE9FFE90101783
:10226400EDF0EEA3F0C3ED9404EE940050030222CB
:10227400C9901013E0FDA3E0FEA3E0FF8D028E03DE
:102284008F0490100EE0F8A3E0F9E82AFAE93BFB8A
:102294008A3A8B3B8C3C901017E0FBA3E0FC853A18
:1022A40082853B83853CF0EB125A01A3EC125A0160
:1022B4004301808D828E838FF0E8125A01A3E912C4
:1022C4005A010222E7901013E0FDA3E0FEA3E0FF11
:1022D4000DBD00010E8D828E838FF0125B6D4480E4
:1022E400125A0190100DE0FFEF7003022357901073
:1022F4000AE0FDA3E0FEA3E0FF901013E0FAA3E0E0
:10230400FBA3E0FCC002C003C0048D828E838FF067
:10231400120006158115811581700280030223576E
:10232400901013E0FDA3E0FEA3E0FF8D028E038F67
:10233400048D828E838FF0125B6DFDA3125B6D544E
:102344007FFEED2AFAEE3BFB90100AEAF0EBA3F0D5
:10235400ECA3F0901013E02402F0A3E03400F0C3E7
:10236400901013E0FDA3E0FEA3E0FF8D828E838F27
:10237400F022AFF0AE83E582901019F0EEA3F0EFF7
:10238400A3F0901019E0FDA3E0FEA3E0FFED24FE0E
:10239400FAEE34FFFB8F0490101CEAF0EBA3F0EC90
:1023A400A3F090101FA2AFE433F0C2AF74FF2DFD71
:1023B40074FF3EFE8D828E838FF0125B6D547F120C
:1023C4005A0190100AE0FDA3E0FEA3E0FFC005C09F
:1023D40006C0078A828B838CF01200061581158152
:1023E4001581400302240190101CE0FDA3E0FEA32C
:1023F400E0FF90100AEDF0EEA3F0EFA3F090101FB1
:10240400E0FFEF24FF92AF229010237400F0A3F0BA
:10241400A3F0A3F022E58290102DF0E0FF901027A6
:10242400E0FDA3E0FE901034EDF0EEA3F08F8212F5
:102434002642AD82AE83AFF090102EEDF0EEA3F005
:10244400EFA3F0ED4E700302249890102EE0FDA34C
:10245400E0FEA3E0FF74032DF51074003EF5118F28
:1024640012901029E0F8A3E0F9A3E0FBA3E0FC85B7
:1024740010828511838512F0E8125A01A3E9125AD9
:1024840001A3EB125A01A3EC125A018D828E838FA1
:10249400F002264175820E75830012202AAD82AEA9
:1024A40083AFF090102EEDF0EEA3F0EFA3F0ED4E1D
:1024B400700302263890102EE0FDA3E0FEA3E0FF97
:1024C40074072DFA74003EFB8F04901027E0F8A3E4
:1024D400E0F98A828B838CF0E8125A01A3E9125A3C
:1024E4000174092DFA74003EFB8F0490102DE0F95D
:1024F4008A828B838CF0E9125A0174032DF51074CF
:10250400003EF5118F12901029E0F8A3E0F9A3E042
:10251400FBA3E0FC8510828511838512F0E8125A32
:1025240001A3E9125A01A3EB125A01A3EC125A01B6
:102534008D828E838FF07400125A01A3125A01A364
:10254400125A01740A2DFD74003EFE8D828E838F13
:10255400F07400125A01A3125A01A3125A01A312D1
:102564005A01901020E0FDA3E0FEA3E0FFED4E60D1
:102574000302259190102EE0FDA3E0FEA3E0FF905E
:102584001020EDF0EEA3F0EFA3F00226249010202B
:10259400E0FDA3E0FEA3E0FF901031EDF0EEA3F028
:1025A400EFA3F0901031E0FDA3E0FEA3E0FF8D82E5
:1025B4008E838FF0125B6DFDA3125B6DFEA3125B25
:1025C4006DFFED4E70030225FA901031E0FDA3E09B
:1025D400FEA3E0FF8D828E838FF0125B6DFDA3124C
:1025E4005B6DFEA3125B6DFF901031EDF0EEA3F076
:1025F400EFA3F00225A7901031E0FDA3E0FEA3E0D5
:10260400FF90102EE0FAA3E0FBA3E0FC8D828E8302
:102614008FF0EA125A01A3EB125A01A3EC125A01E9
:1026240090102EE0FDA3E0FEA3E0FF8D828E838F49
:10263400F002264175820075830075F00022E58260
:10264400901036F0901020E0FDA3E0FEA3E0FF9090
:102654001037EDF0EEA3F0EFA3F0901036E0FF900A
:102664001034E0FDA3E0FE901037E0FAA3E0FBA3F2
:10267400E0FCEA4B70030226FD901037E0FAA3E079
:10268400FBA3E0FC74072AFA74003BFB8A828B8369
:102694008CF0125B6DFAA3125B6DFBEAB50506EBD9
:1026A400B5060280030226D0901037E0FAA3E0FBBF
:1026B400A3E0FC74092AFA74003BFB8A828B838CA6
:1026C400F0125B6DFAEAB507030226FD901037E0BD
:1026D400FAA3E0FBA3E0FC8A828B838CF0125B6D8F
:1026E400FAA3125B6DFBA3125B6DFC901037EAF04A
:1026F400EBA3F0ECA3F002266B901037E0FDA3E00F
:10270400FEA3E0FF8D828E838FF022AFF0AE83E5CF
:102714008290103AF0EEA3F0EFA3F090103AE0FDAF
:10272400A3E0FEA3E0FFED4E700302275390103A9E
:10273400E0FDA3E0FEA3E0FF74072DFD74003EFE60
:102744008D828E838FF07400125A01A3125A0122D3
:10275400E582901043F0C3901043E0FF90103DE0F9
:10276400FDA3E0FE90103FE0F9A3E0FAA3E0FBA391
:10277400E0FC901027EDF0EEA3F0901029E9F0EAC8
:10278400A3F0EBA3F0ECA3F08F82122419AD82AE78
:1027940083AFF0ED4E70030227A37F000227A57FCD
:1027A400088F8222E58290104AF090104BA2AFE489
:1027B40033F0C2AF90104AE0FF901044E0FDA3E074
:1027C400FE901046E0F9A3E0FAA3E0FBA3E0FC903E
:1027D4001027EDF0EEA3F0901029E9F0EAA3F0EB56
:1027E400A3F0ECA3F08F82122419AD82AE83AFF074
:1027F40090104CEDF0EEA3F0EFA3F0ED4E70030259
:10280400284090104CE0FDA3E0FEA3E0FF740A2DE5
:10281400FD74003EFE901046E0F9A3E0FAA3E0FB4D
:10282400A3E0FC8D828E838FF0E9125A01A3EA1291
:102834005A01A3EB125A01A3EC125A0190104BE077
:10284400FFEF24FF92AF90104CE0FDA3E0FEA3E065
:10285400FFED4E70030228617F000228637F088F1A
:102864008222E582901051F0901052A2AFE433F02E
:10287400C2AF901051E0FF90104FE0FDA3E0FE9036
:102884001034EDF0EEA3F08F82122642AD82AE83B7
:10289400AFF0901053EDF0EEA3F0EFA3F0ED4E7017
:1028A400030228BC901053E0FDA3E0FEA3E0FF8DDB
:1028B400828E838FF012270F901052E0FFEF24FFD7
:1028C40092AF901053E0FDA3E0FEA3E0FFED4E7045
:1028D400030228DD7F000228DF7F068F8222E58243
:1028E400901058F090105A7400F0A3F0A3F0A3F0E5
:1028F400901059A2AFE433F0C2AF901058E0FF90AB
:102904001056E0FDA3E0FE901034EDF0EEA3F08F3E
:1029140082122642AD82AE83AFF090105EEDF0EEEF
:10292400A3F0EFA3F0ED4E700302296A90105EE06D
:10293400FDA3E0FEA3E0FF74032DFD74003EFE8DB5
:10294400828E838FF0125B6DFDA3125B6DFEA3126A
:102954005B6DFFA3125B6DFC90105AEDF0EEA3F0DB
:10296400EFA3F0ECA3F0901059E0FFEF24FF92AF37
:1029740090105AE0FCA3E0FDA3E0FEA3E0FF8C82EC
:102984008D838EF0EF229010627400F0901061A29B
:10299400AFE433F0C2AF901020E0FDA3E0FEA3E06B
:1029A400FF901063EDF0EEA3F0EFA3F0901062E05F
:1029B400FF901063E0FCA3E0FDA3E0FEEC4D700388
:1029C4000229F50F901063E0FCA3E0FDA3E0FE8C68
:1029D400828D838EF0125B6DFCA3125B6DFDA312DE
:1029E4005B6DFE901063ECF0EDA3F0EEA3F0022912
:1029F400B5901062EFF0901061E0FFEF24FF92AF0A
:102A0400901062E0FF8F8222AF82AE83ADF0FC9023
:102A14001066EFF0EEA3F0EDA3F0ECA3F0901066D7
:102A2400E0FCA3E0FDA3E0FEA3E0FF901070ECF057
:102A3400EDA3F0EEA3F0EFA3F0901023E0F8A3E0F1
:102A4400F9A3E0FAA3E0FB901023EC28F0ED39A3FE
:102A5400F0EE3AA3F0EF3BA3F0901020E0FDA3E0EA
:102A6400FEA3E0FFED4E7003023045901020E0FD20
:102A7400A3E0FEA3E0FF90106AEDF0EEA3F0EFA355
:102A8400F090106D7400F0A3F0A3F090106AE0FDD4
:102A9400A3E0FEA3E0FFED4E7003023045901074F6
:102AA4007400F0A3F0A3F0901072E0FEA3E0FFEE38
:102AB4004F6003022C00901071E06003022C009020
:102AC400106AE0FDA3E0FEA3E0FF74032DFD740093
:102AD4003EFE8D828E838FF0125B6DFD901070E050
:102AE400FFC3ED9F5003022B2090106AE0FDA3E08A
:102AF400FEA3E0FF74032DFD74003EFE901070E011
:102B0400FC8D828E838FF0125B6DFBEBC39CFC8D7E
:102B1400828E838FF0EC125A01022CDD90106AE051
:102B2400FDA3E0FEA3E0FF74032DFD74003EFE8DC3
:102B3400828E838FF0125B6DFDA3125B6DFEA31278
:102B44005B6DFFA3125B6DFC901070E0F8A3E0F9DD
:102B5400A3E0FAA3E0FBC3E89DE99EEA9FEB9C4057
:102B640003022BD390106AE0FDA3E0FEA3E0FF7400
:102B7400032DFD74003EFE8D828E838FF0125B6DFB
:102B8400F513A3125B6DF514A3125B6DF515A31277
:102B94005B6DF516901070E0F8A3E0FAA3E0FBA3D8
:102BA400E0FCE513C398F8E5149AFAE5159BFBE5F8
:102BB400169CFC8D828E838FF0E8125A01A3EA12D0
:102BC4005A01A3EB125A01A3EC125A01022CDD9014
:102BD400106AE0FDA3E0FEA3E0FF74032DFD740082
:102BE4003EFE8D828E838FF07400125A01A3125A16
:102BF40001A3125A01A3125A01022CDD90106AE0BB
:102C0400FDA3E0FEA3E0FF74032DFD74003EFE8DE2
:102C1400828E838FF0125B6DFDA3125B6DFEA31297
:102C24005B6DFFA3125B6DFC901070E0F8A3E0F9FC
:102C3400A3E0FAA3E0FBC3E89DE99EEA9FEB9C4076
:102C440003022CB390106AE0FDA3E0FEA3E0FF743E
:102C5400032DFD74003EFE8D828E838FF0125B6D1A
:102C6400F513A3125B6DF514A3125B6DF515A31296
:102C74005B6DF516901070E0F8A3E0FAA3E0FBA3F7
:102C8400E0FCE513C398F8E5149AFAE5159BFBE517
:102C9400169CFC8D828E838FF0E8125A01A3EA12EF
:102CA4005A01A3EB125A01A3EC125A01022CDD9033
:102CB400106AE0FDA3E0FEA3E0FF74032DFD7400A1
:102CC4003EFE8D828E838FF07400125A01A3125A35
:102CD40001A3125A01A3125A0190106AE0FDA3E065
:102CE400FEA3E0FF74032DFD74003EFE8D828E83EF
:102CF4008FF0125B6DFDA3125B6DFEED4E6003025F
:102D04002E2290106AE0FDA3E0FEA3E0FF74052DDF
:102D1400FD74003EFE8D828E838FF0125B6DFDA3E9
:102D2400125B6DFEED4E6003022E2290106AE0FDF0
:102D3400A3E0FEA3E0FF740A2DFD74003EFE8D8225
:102D44008E838FF0125B6DFDA3125B6DFEA3125B8D
:102D54006DFFA3125B6DFCED4E4F4C7003022E22EF
:102D640090106AE0FDA3E0FEA3E0FF74072DFD745C
:102D7400003EFE8D828E838FF0125B6DFDA3125B8D
:102D84006DFEED4E7003022E2290106AE0FDA3E06A
:102D9400FEA3E0FF74092DFA74003EFB8F048A82BF
:102DA4008B838CF0125B6DFA74072DF974003EFB73
:102DB4008F0489828B838CF0125B6DF9A3125B6D97
:102DC400FB9003CBE9F0EBA3F08A82C007C006C0F6
:102DD400051219D8D005D006D00774032DFA740053
:102DE4003EFB8F04740A2DFD74003EFE8D828E839B
:102DF4008FF0125B6DF9A3125B6DFDA3125B6DFE88
:102E0400A3125B6DFF8A828B838CF0E9125A01A3B3
:102E1400ED125A01A3EE125A01A3EF125A019010B7
:102E24006AE0FDA3E0FEA3E0FF74032DFD74003E01
:102E3400FE8D828E838FF0125B6DFDA3125B6DFE9F
:102E4400ED4E6003022E7490106AE0FDA3E0FEA331
:102E5400E0FF74052DFD74003EFE8D828E838FF09D
:102E6400125B6DFDA3125B6DFEED4E7003022E9D91
:102E740090106AE0FDA3E0FEA3E0FF74072DFD744B
:102E8400003EFE8D828E838FF0125B6DFDA3125B7C
:102E94006DFEED4E6003022F5290106DE0FDA3E035
:102EA400FEA3E0FFED4E6003022EDC90106AE0FD0D
:102EB400A3E0FEA3E0FF8D828E838FF0125B6DFD95
:102EC400A3125B6DFEA3125B6DFF901020EDF0EE7C
:102ED400A3F0EFA3F0022F1A90106DE0FDA3E0FE23
:102EE400A3E0FF90106AE0FAA3E0FBA3E0FC8A826F
:102EF4008B838CF0125B6DFAA3125B6DFBA3125BE8
:102F04006DFC8D828E838FF0EA125A01A3EB125A64
:102F140001A3EC125A0190106AE0FDA3E0FEA3E0C5
:102F2400FF901074EDF0EEA3F0EFA3F08D828E838A
:102F34008FF0125B6DFDA3125B6DFEA3125B6DFF40
:102F440090106AEDF0EEA3F0EFA3F0022F8790103B
:102F54006AE0FDA3E0FEA3E0FF90106DEDF0EEA3A8
:102F6400F0EFA3F08D828E838FF0125B6DFDA312C0
:102F74005B6DFEA3125B6DFF90106AEDF0EEA3F0A3
:102F8400EFA3F0901074E0FDA3E0FEA3E0FFED4E8C
:102F94007003022A8F901074E0FDA3E0FEA3E0FF0B
:102FA40074032DFD74003EFE8D828E838FF0125BC0
:102FB4006DFDA3125B6DFEED4E600302302E90108A
:102FC40074E0FDA3E0FEA3E0FF74052DFD74003E54
:102FD400FE8D828E838FF0125B6DFDA3125B6DFEFE
:102FE400ED4E600302302E901074E0FDA3E0FEA3CA
:102FF400E0FF74092DFA74003EFB8F048A828B83F0
:103004008CF0125B6DFA74072DFD74003EFE8D8208
:103014008E838FF0125B6DFDA3125B6DFE9003CB6C
:10302400EDF0EEA3F08A821219D8901074E0FDA39B
:10303400E0FEA3E0FF8D828E838FF0122376022AB6
:103044008F22901023E0FCA3E0FDA3E0FEA3E0FFA9
:103054008C828D838EF0EF22905B99E493FFEF7561
:10306400F002A4FFAEF08F828E8312202AAD82AECE
:1030740083AFF0901077EDF0EEA3F0EFA3F0905B48
:1030840099E493FCEC75F002A4FCABF090033E745D
:1030940000F090033FECF0EBA3F08D828E838FF071
:1030A4001207037582001248D67582011250027508
:0C30B4008202121E74758203123EF42288
:0B5B8F0048492650C51E113FFD3F0590
:1000BE0090107A7400F0A3F090107CF0A3F09010E2
:0E00CE007EF0A3F0901080F0A3F0A3F0A3F05A
:1030C000AEA27F00ACA37D008C057C00EC2EFEED53
:1030D0003FFF8E828F83229010887400F0A3F0123D
:1030E00030C0AE82AF83901084EEF0EFA3F090106A
:1030F0007AE0FCA3E0FDEEB50407EFB5050302326C
:103100000590107AE0FEA3E0FF901084E0FCA3E0BD
:10311000FD901086ECC39EF0ED9FA3F090107AEC2A
:10312000F0EDA3F0901086E0FEA3E0FF901088E0A1
:10313000FCA3E0FDC374319E74339F4003023167EA
:10314000EE24CFFEEF34CCFF74FE2CFC741F3DFD4B
:1031500090107CE0FAA3E0FB90107C74052AF074D8
:10316000003BA3F0023134901086EEF0EFA3F09014
:103170001088ECF0EDA3F0901086E0FEA3E0FF9045
:10318000122BEEF0EFA3F0758205758300125A1C26
:10319000AE82AF8390107CE0FCA3E0FDEC2EFEED50
:1031A0003FFF8E04EFC423CCC423541F6CCC541FA8
:1031B000CC6CCCFD901088E0FAA3E0FB901088EC7A
:1031C0002AF0ED3BA3F090107C74075EF07400A32E
:1031D000F0901088E0FEA3E0FFEE4F70030232058E
:1031E000901088E0FEA3E0FF8E828F83C007C006A8
:1031F000123206D006D0077D007C008E828F838D30
:10320000F0EC122A0C22AF83E58290108AF0EFA333
:10321000F090108AE0FEA3E0FF90107EE0FCA3E0B7
:10322000FD90107EEE2CF0EF3DA3F090107EE0FEBE
:10323000A3E0FFC3EE94E8EF940350030232B29090
:10324000107EE0FEA3E0FF9011F374E8F07403A396
:10325000F08E828F83C007C00612545BAC82AD83B0
:10326000D006D007901080E0F521A3E0F522A3E07E
:10327000F523A3E0F5248C028D037C007D009010E3
:1032800080EA2521F0EB3522A3F0EC3523A3F0ED05
:103290003524A3F090123174E8F07403A3F08E8209
:1032A0008F83125AA8E5828583F090107EF0E5F0B6
:1032B000A3F022AF82AE83ADF0FC90108CEFF0EE65
:1032C000A3F0EDA3F0ECA3F090108CE0FCA3E0FDE4
:1032D000A3E0FEA3E0FF901080ECF0EDA3F0EEA3DE
:1032E000F0EFA3F022901080E0FCA3E0FDA3E0FE4D
:1032F000A3E0FF8C828D838EF0EF22AFF0AE83E5EA
:1033000082901094F0EEA3F0EFA3F0901090E0F50F
:1033100025A3E0F526A3E0F527A3E0F5289011F911
:103320007480F07451A3F07401A3F07400A3F085CD
:1033300025828526838527F0E5281254F585822984
:1033400085832A85F02BF52C901094E0FDA3E0FEF8
:10335000A3E0FF9011F9743CF07400A3F0A3F0A374
:10336000F0852982852A83852BF0E52CC007C006CD
:10337000C0051254F5A982AA83ABF0FCD005D00693
:10338000D0078D828E838FF0E9125A0174012DF5DA
:103390002D74003EF52E8F2F9011F97410F0740EDD
:1033A000A3F07400A3F0A3F0852982852A83852BDE
:1033B000F0E52CC007C006C0051254F5A882A98309
:1033C000ABF0FCD005D006D007901208743CF07426
:1033D00000A3F0A3F0A3F0888289838BF0ECC007F0
:1033E000C006C00512568FA982AA83ABF0FCD00597
:1033F000D006D007852D82852E83852FF0E9125ABD
:103400000174022DF52D74003EF52E8F2F901208B9
:103410007410F0740EA3F07400A3F0A3F085298259
:10342000852A83852BF0E52CC007C006C0051256FF
:103430008FA882A983ABF0FCD005D006D007852DDC
:1034400082852E83852FF0E8125A0190120874802D
:10345000F07451A3F07401A3F07400A3F0852582E9
:103460008526838527F0E528C007C006C0051256CB
:103470008FA982AA83ABF0FCD005D006D0079010AC
:1034800097E9F0EAA3F074052DFD74003EFE8D82ED
:103490008E838FF074D0125A01A37407125A0190D0
:1034A0001094E0FDA3E0FEA3E0FF74052DFD740081
:1034B0003EFE8D828E838FF0125B6DFBA3125B6DDF
:1034C000FC9012317490F07401A3F08B828C83C055
:1034D00007C006C005125AA8AB82AC83D005D0063F
:1034E000D007EB4CB40100E433FBEB600302354A38
:1034F0008D828E838FF0125B6DFBA3125B6DFC904F
:1035000012317464F07400A3F08B828C83C007C006
:1035100006C005125AA8E5828583F0D005D006D0F2
:103520000745F070030235518D828E838FF0125B58
:103530006DFBA3125B6DFC5303037C00EB4CB401E9
:1035400000E433FBEB70030235517B6E7C010235E6
:10355000557B6D7C01901097E0F9A3E0FAC3E99BDD
:10356000EA9C50030236438D828E838FF0125B6D8E
:10357000FBA3125B6DFC9012317490F07401A3F008
:103580008B828C83C007C006C005125AA8AB82ACE0
:1035900083D005D006D007EB4CB40100E433FBEB3D
:1035A00060030235FF8D828E838FF0125B6DFBA36B
:1035B000125B6DFC9012317464F07400A3F08B8286
:1035C0008C83C007C006C005125AA8E5828583F027
:1035D000D005D006D00745F070030236068D828EE6
:1035E000838FF0125B6DFBA3125B6DFC5303037CB6
:1035F00000EB4CB40100E433FBEB70030236067BB6
:103600006E7C0102360A7B6D7C01901097E0F9A375
:10361000E0FA901097E9C39BF0EA9CA3F08D828EAC
:10362000838FF0125B6DFBA3125B6DFC0BBB000183
:103630000C8D828E838FF0EB125A01A3EC125A018B
:103640000234B2901094E0FDA3E0FEA3E0FF740406
:103650002DFD74003EFE8D828E838FF07400125A11
:1036600001901094E0FDA3E0FEA3E0FF74052DFAA5
:1036700074003EFB8F0474042DFD74003EFE8A82AC
:103680008B838CF0125B6DF8A3125B6DF990123195
:103690007490F07401A3F088828983C007C006C0CB
:1036A00005C004C003C002125AA8A882A983D00290
:1036B000D003D004D005D006D007E849B40100E417
:1036C00033F8E860030237338A828B838CF0125B15
:1036D0006DF8A3125B6DF99012317464F07400A35D
:1036E000F088828983C007C006C005C004C003C03B
:1036F00002125AA8E5828583F0D002D003D004D00C
:1037000005D006D00745F0700302372E8A828B83DE
:103710008CF0125B6DF8A3125B6DF9530003790016
:10372000E849B40100E433F8E86003023733790074
:103730000237357901C002C003C0048D828E838FA9
:10374000F0125B6DF8901099E8F08982C007C0060E
:10375000C005C004C003C0021238C9A982D002D07B
:1037600003D004D005D006D007901097E0F8A3E06E
:10377000FC7B00C3E899EC9BD004D003D00250033B
:103780000238A38A828B838CF0125B6DF8A3125BE4
:103790006DF99012317490F07401A3F088828983DE
:1037A000C007C006C005C004C003C002125AA8A8C2
:1037B00082A983D002D003D004D005D006D007E878
:1037C00049B40100E433F8E860030238388A828B98
:1037D000838CF0125B6DF8A3125B6DF9901231745B
:1037E00064F07400A3F088828983C007C006C00516
:1037F000C004C003C002125AA8E5828583F0D0023B
:10380000D003D004D005D006D00745F070030238AD
:10381000338A828B838CF0125B6DF8A3125B6DF997
:103820005300037900E849B40100E433F8E8600389
:10383000023838790002383A7901C002C003C00466
:103840008D828E838FF0125B6DF8901099E8F0896D
:1038500082C007C006C005C004C003C0021238C938
:10386000A982D002D003D004D005D006D0078900A9
:103870007900901097E0FBA3E0FC901097EBC398C1
:10388000F0EC99A3F08D828E838FF0125B6DFC0CAF
:103890008D828E838FF0EC125A01D004D003D002B7
:1038A00002367E901094E0FDA3E0FEA3E0FF7403D7
:1038B0002DFD74003EFE901097E0FBA3E0FC8D828E
:1038C0008E838FF0EB125A0122E58290109AF090CD
:1038D000109B741FF0901099E0FFBF01028003025B
:1038E00038F190109AE0FF90109B741C2FF0023971
:1038F00017901099E0FFC374069F400302390590AA
:103900001099E014F0901099E0FFEF20E0030239E5
:103910001790109B741EF090109BE0FF8F8222AFD7
:10392000F0AE83E58290109CF0EEA3F0EFA3F09050
:10393000109CE0FDA3E0FEA3E0FF74022DFA7400EA
:103940003EFB8F048A828B838CF0125B6DFA90129F
:103950002DEAF07400A3F0A3F0A3F075823C758308
:103960000075F0007400C007C006C005125A3C85FF
:10397000823085833185F032F533D005D006D0070B
:1039800074012DF874003EFB8F0488828B838CF0C9
:10399000125B6DF87C007B007A0090122DE82530D8
:1039A000F0EC3531A3F0EB3532A3F0EA3533A3F078
:1039B00075823C75830075F0007400C007C006C0B6
:1039C00005125A3C85823085833185F032F533D03B
:1039D00005D006D0078D828E838FF0125B6DF87A4A
:1039E000007B007C0090109FE82530F0EA3531A381
:1039F000F0EB3532A3F0EC3533A3F074032DFA74F9
:103A0000003EFB8F048A828B838CF0125B6DFA90F0
:103A100010A3EAF07400A3F074042DFD74003EFEC0
:103A20008D828E838FF0125B6DFD9010A5EDF0906E
:103A3000109CE0FDA3E0FEA3E0FF74052DFD7400E3
:103A40003EFE9010A5E0FC1CEC30E703023B298D04
:103A5000828E838FF0125B6DFAA3125B6DFB901266
:103A6000317490F07401A3F08A828B83C007C00682
:103A7000C005C004125AA8AA82AB83D004D005D0D6
:103A800006D007EA4BB40100E433FAEA6003023AD5
:103A9000F48D828E838FF0125B6DFAA3125B6DFB47
:103AA0009012317464F07400A3F08A828B83C00793
:103AB000C006C005C004125AA8E5828583F0D00470
:103AC000D005D006D00745F07003023AEF8D828E04
:103AD000838FF0125B6DFAA3125B6DFB5302037BC5
:103AE00000EA4BB40100E433FAEA6003023AF47BE3
:103AF00000023AF67B01901099ECF08B82C007C06F
:103B000006C005C0041238C9AB82D004D005D00667
:103B1000D0077A009010A3E0F8A3E0F99010A3EB8F
:103B200028F0EA39A3F0023A4790109CE0FDA3E0A8
:103B3000FEA3E0FF74052DFD74003EFE8D828E8392
:103B40008FF0125B6DFDA3125B6DFE9010A6EDF081
:103B5000EEA3F09010A6E0FEA3E0FF1EBEFF011F43
:103B6000C3EE94D0EF94075003023BF090123174EF
:103B700090F07401A3F08E828F83C007C006125AA2
:103B8000A8AC82AD83D006D007EC4DB40100E4337D
:103B9000FCEC6003023BD09012317464F07400A31B
:103BA000F08E828F83C007C006125AA8E5828583F3
:103BB000F0D006D00745F07003023BD774035EFCDB
:103BC0007D00EC4DB40100E433FCEC7003023BD704
:103BD0007C6E7D01023BDB7C6D7D019010A3E0FAE1
:103BE000A3E0FB9010A3EC2AF0ED3BA3F0023B5BBB
:103BF0009010A3E0FEA3E0FF90122DEEF0EFA3F0F3
:103C00007400A3F0A3F075828075835175F0017480
:103C100000125A3CAC82AD83AEF0FF90109FE0F8EA
:103C2000A3E0F9A3E0FAA3E0FB90109FEC28F0EDED
:103C300039A3F0EE3AA3F0EF3BA3F090109FE0FC25
:103C4000A3E0FDA3E0FEA3E0FF8C828D838EF0EF66
:103C50002275C60022AF83E5829010A8F0EFA3F092
:103C6000AFF174FE5FF5F143F30C4386C09010A8EA
:103C7000E0FEA3E0FFBE0006BF0003023CA5BE01BC
:103C800006BF0003023CAEBE0206BF0003023CB703
:103C9000BE0306BF0003023CC0BE0406BF00030211
:103CA0003CC9023CCF43C50875C23B023CCF43C56B
:103CB0000975C23B023CCF43C50A75C23B023CCFEB
:103CC00043C50A75C2D8023CCF43C50B75C2D82282
:103CD000E5829010AAF0E0F5C1E58630E003023CF1
:103CE000D9E58620E103023CD9AF8674FD5FF586F5
:103CF00022AFF0AE83E5829010ABF0EEA3F0EFA31D
:103D0000F0E58630E003023D01E58620E203023D56
:103D1000019010ABE0FDA3E0FEA3E0FF8D828E8357
:103D20008FF0E5C1125A0122AFF0AE83E582901008
:103D3000AEF0EEA3F0EFA3F09010AEE0FDA3E0FE36
:103D4000A3E0FF8D828E838FF0125B6D7003023DC6
:103D50007F8D828E838FF0125B6DFCA3AD82AE836C
:103D60009010AEEDF0EEA3F0EFA3F08C82C007C090
:103D700006C005123CD0D005D006D007023D4390C6
:103D800010AEEDF0EEA3F0EFA3F022AFF0AE83E5BE
:103D9000829010B1F0EEA3F0EFA3F09010B1E0FD2F
:103DA000A3E0FEA3E0FF8D828E838FF0C007C006E4
:103DB000C005123CF1D005D006D0078D828E838FCE
:103DC000F0125B6DFCA3AD82AE839010B1EDF0EE0E
:103DD000A3F0EFA3F0BC0D028003023DA69010B14A
:103DE000EDF0EEA3F0EFA3F022AF83E5829010B4E4
:103DF000F0EFA3F0758230123CD0758258123CD09F
:103E00009010B4E0FEA3E0FF7C0074F05FFDEDC411
:103E1000540FFC7D008C82C007C006123EACAD8200
:103E2000D006D0078D82C007C006123CD0D006D085
:103E3000077C00740F5FFD8D048C82C007C00612E2
:103E40003EACAD82D006D0078D82C007C006123CC2
:103E5000D0D006D00774F05EFC7D00EDC4CCC45415
:103E60000F6CCC540FCC6CCCFD8C82C007C00612FA
:103E70003EACAD82D006D0078D82C007C006123C92
:103E8000D0D006D007740F5EFC7D008C82C007C0C6
:103E900006123EACAD82D006D0078D82C007C006A8
:103EA000123CD0D006D0078E828F8322E5829010FC
:103EB000B6F0E0FFC374099F5003023ECB9010B6EA
:103EC000E0FF74302FFF8F82023EF39010B6E0FFC8
:103ED000BF0A005003023EF09010B6E0FFC3740F1B
:103EE0009F5003023EF09010B6E0FF8F82023EF337
:043EF0007582FF22B6
:0600DC009010B87400F062
:103EF400E5829010B9F0E0FF9010B7EFF09003CB9B
:103F04007401F07400A3F08F821219D822C01D85A9
:103F1400811DE51D24FCF8E620E003023F579010C4
:103F2400B7E0FF90103D7402F07400A3F090103FCE
:103F34007464F07400A3F0A3F0A3F08F82122754EA
:103F4400E51D24FCF8740166FE0886078E828F83C3
:103F5400023FA1E51D24FCF8E620E103023F9B900B
:103F640010B7E0FF90103D7402F07400A3F09010BD
:103F74003F7464F07400A3F0A3F0A3F08F821227BF
:103F840054123FA4E51D24FCF8740266FE0886075B
:103F94008E828F83023FA1758200758300D01D221B
:103FA4009010B8E0FFBF01028003023FC99010B82F
:103FB4007400F09010BA04F0A2809010BAE024FFCC
:103FC4009280023FDF9010B87401F09010BA740030
:0C3FD400F0A2809010BAE024FF9280223E
:0600E2009010BC7400F058
:103FE000E5829010BDF0E0FF9010BBEFF09003CBA6
:103FF0007401F07400A3F08F821219D822C01D85BD
:10400000811DE51D24FCF8E620E0030240439010EA
:10401000BBE0FF90103D7402F07400A3F090103FDD
:10402000741EF07400A3F0A3F0A3F08F8212275443
:10403000E51D24FCF8740166FE0886078E828F83D6
:1040400002408DE51D24FCF8E620E1030240879044
:1040500010BBE0FF90103D7402F07400A3F09010CC
:104060003F741EF07400A3F0A3F0A3F08F82122718
:1040700054124090E51D24FCF8740266FE08860781
:104080008E828F8302408D758200758300D01D2241
:104090008590A09010BCE0FFBF010280030240B8F1
:1040A0009010BC7400F09010BE04F0A2819010BE7D
:1040B000E024FF92810240CE9010BC7401F0901079
:1040C000BE7400F0A2819010BEE024FF928122AF66
:1040D000F0AE83E5829010C0F0EEA3F0EFA3F09075
:1040E00010C37400F0A3F0A3F09010BFE0FFBF0274
:1040F00002800302434E9010C0E0FDA3E0FEA3E067
:10410000FF8D828E838FF0125B6DFC7B000DBD00F6
:10411000010E8D828E838FF0125B6DFD7F008D0707
:104120007D00ED2CFCEF3BFB8C068B07BC0006BB37
:1041300018030241ECBE0106BF18030241FDBE0098
:1041400006BF280302420EBE0106BF280302421F1B
:10415000BE0206BF2803024230BE0306BF28030288
:104160004241BE0006BF2903024252BE0106BF29DA
:1041700003024263BE0206BF2903024274BE030665
:10418000BF2903024285BE0406BF2903024296BE30
:104190000506BF29030242A7BE0606BF2903024245
:1041A000B8BE0706BF29030242C9BE0806BF2903DD
:1041B0000242DABE0006BF2A030242EBBE0106BF7E
:1041C0002A030242FCBE0206BF2A0302431EBE03AC
:1041D00006BF2A0302430DBE0406BF2A0302432F73
:1041E000BE0506BF2A0302434002434E9010C3742B
:1041F0009AF0745BA3F07480A3F002434E9010C356
:10420000749CF0745BA3F07480A3F002434E901092
:10421000C374A2F0745BA3F07480A3F002434E90C9
:1042200010C374A4F0745BA3F07480A3F002434E37
:104230009010C374A6F0745BA3F07480A3F00243E3
:104240004E9010C374A8F0745BA3F07480A3F002C6
:10425000434E9010C374AAF0745BA3F07480A3F073
:1042600002434E9010C374ACF0745BA3F07480A34F
:10427000F002434E9010C374AEF0745BA3F07480F0
:10428000A3F002434E9010C374B0F0745BA3F074BB
:1042900080A3F002434E9010C374B2F0745BA3F09D
:1042A0007480A3F002434E9010C374B4F0745BA307
:1042B000F07480A3F002434E9010C374C8F0745B96
:1042C000A3F07480A3F002434E9010C374CAF0743C
:1042D0005BA3F07480A3F002434E9010C374CCF043
:1042E000745BA3F07480A3F002434E9010C374B6C5
:1042F000F0745BA3F07480A3F002434E9010C3747B
:10430000B8F0745BA3F07480A3F002434E9010C326
:1043100074BCF0745BA3F07480A3F002434E901061
:10432000C374BAF0745BA3F07480A3F002434E90A0
:1043300010C374BEF0745BA3F07480A3F002434E0C
:104340009010C374C0F0745BA3F07480A3F090105D
:10435000C3E0FDA3E0FEA3E0FF8D828E838FF022F9
:105B9A000018011805A006A00028012802280328D9
:105BAA00002901290229032904290529002A012A91
:105BBA00022A032A042A052A08B009B00AB00629CB
:045BCA000729082976
:1000E8009010F37401F09010F474B8F0740BA3F04E
:1000F8009010F67403F09010F714F09010F814F0C4
:100108009010F97406F09010FA7400F09010FBF05B
:100118009010FCF09010FDF09010FEF09010FFF0A1
:10012800901100F0901101F0901102F0901103F07D
:10013800901104F0901105F0901106F0901107F05D
:10014800901108F0901109F090110AF090110BF03D
:1001580090110CF090110DF090110EF090110FF01D
:10016800901110F0901111F0901112F0901113F0FD
:10017800901114F0901115F0901116F0901117F0DD
:10018800901138F0901140F0A3F0901142F0A3F0D4
:10019800A3F0901145F090114BF090114C7406F0BB
:1001A8007400A3F090114E7480F0740CA3F09011B9
:1001B800507400F0A3F090115274E8F07403A3F0A7
:1001C8009011547400F0A3F0901156F0A3F0901120
:0801D80058F0A3F090115AF059
:10436000AF83E58290115FF0EFA3F09011617400CC
:10437000F090115FE0FEA3E0FFBE0505BF030280E1
:104380000302443E90115BE0FFBF01028003024440
:10439000359010F3E0FF901162EFF090115CE0FDBA
:1043A000A3E0FEA3E0FF8D828E838FF0125B6DFD94
:1043B0009010F3EDF0901162E0FFEF70030243E51F
:1043C0009010F3E0FFEF60030243E59010C7E0FFB9
:1043D000BF020280030244449010C6E0FF8F8212A5
:1043E0004B60024444901162E0FFEF6003024444DA
:1043F0009010F3E0FFEF70030244449010C7E0FF19
:10440000BF010302441E9010C7E0FFBF0303024434
:104410001E9010C7E0FFBF040280030244449010C6
:10442000C6E0FF9003CB7401F07400A3F08F8212FA
:1044300019D80244449011617418F0024444901158
:10444000617402F0901161E0FF8F8222AF83E582F8
:10445000901166F0EFA3F09011687400F09011666F
:10446000E0FEA3E0FFC3EF94035003024864C3746B
:10447000189E74039F5003024864EE240A83F58259
:10448000EE241D83F583E473BAD706356A99B6DB4B
:104490000F43607DACC9E6E90E32577CA1C6F51A20
:1044A0003F444445454545454546464646464646BD
:1044B00046474747474747474848901163E0FDA3B1
:1044C000E0FEA3E0FF9010C8E0FC8D828E838FF0A9
:1044D000EC125A0102487E901163E0FDA3E0FEA3B6
:1044E000E0FF90030C74C9F07410A3F07400A3F003
:1044F00090030F7410F07400A3F08D828E838FF000
:1045000012047602487E901163E0FDA3E0FEA3E072
:10451000FF90030C74D9F07410A3F07400A3F09012
:10452000030F7410F07400A3F08D828E838FF0124D
:10453000047602487E901163E0FDA3E0FEA3E0FF55
:104540009010E9E0F9A3E0FAA3E0FBA3E0FC8D8280
:104550008E838FF0E9125A01A3EA125A01A3EB12DB
:104560005A01A3EC125A0102487E901163E0FDA3A8
:10457000E0FEA3E0FF90030C74EDF07410A3F07460
:1045800000A3F090030F7406F07400A3F08D828EE8
:10459000838FF012047602487E901163E0FDA3E061
:1045A000FEA3E0FF9010F3E0FC8D828E838FF0EC91
:1045B000125A0102487E901163E0FDA3E0FEA3E0E1
:1045C000FF9010F4E0FBA3E0FC8D828E838FF0EB74
:1045D000125A01A3EC125A0102487E901163E0FDC9
:1045E000A3E0FEA3E0FF9010F6E0FC7B0090030C3C
:1045F00074F7F07410A3F07400A3F090030FECF0C4
:10460000EBA3F08D828E838FF012047602487E90A9
:104610001163E0FDA3E0FEA3E0FF901116E0FC7B38
:104620000090030C7417F07411A3F07400A3F090C1
:10463000030FECF0EBA3F08D828E838FF0120476E3
:1046400002487E901163E0FDA3E0FEA3E0FF90111D
:1046500036E0FC8D828E838FF0EC125A0102487E88
:10466000901163E0FDA3E0FEA3E0FF901137E0FCB2
:104670008D828E838FF0EC125A0102487E90116376
:10468000E0FDA3E0FEA3E0FF90030C7438F074118A
:10469000A3F07400A3F090030F7406F07400A3F06D
:1046A0008D828E838FF012047602487E901163E033
:1046B000FDA3E0FEA3E0FF90113EE0FC8D828E831F
:1046C0008FF0EC125A0102487E901163E0FDA3E0E6
:1046D000FEA3E0FF90113FE0FC8D828E838FF0EC13
:1046E000125A0102487E02487E901163E0FDA3E069
:1046F000FEA3E0FF901140E0FBA3E0FC8D828E83DF
:104700008FF0EB125A01A3EC125A0102487E90116D
:1047100063E0FDA3E0FEA3E0FF90114BE0FC7B0013
:104720008D828E838FF0EC125A01A3EB125A010294
:10473000487E901163E0FDA3E0FEA3E0FF90114CE2
:10474000E0FBA3E0FC8D828E838FF0EB125A01A375
:10475000EC125A0102487E901163E0FDA3E0FEA333
:10476000E0FF90114EE0FBA3E0FC8D828E838FF082
:10477000EB125A01A3EC125A0102487E901163E039
:10478000FDA3E0FEA3E0FF901150E0FBA3E0FC8D51
:10479000828E838FF0EB125A01A3EC125A01024869
:1047A0007E901163E0FDA3E0FEA3E0FF901152E0D4
:1047B000FBA3E0FC8D828E838FF0EB125A01A3ECF9
:1047C000125A0102487E901163E0FDA3E0FEA3E0CF
:1047D000FF90030C7445F07411A3F07400A3F090E3
:1047E000030F7406F07400A3F08D828E838FF01295
:1047F000047602487E901163E0FDA3E0FEA3E0FF93
:10480000901154E0FBA3E0FC8D828E838FF0EB12BD
:104810005A01A3EC125A0102487E901163E0FDA3F5
:10482000E0FEA3E0FF901156E0FBA3E0FC8D828E3A
:10483000838FF0EB125A01A3EC125A0102487E90CA
:104840001163E0FDA3E0FEA3E0FF901158E0FBA39D
:10485000E0FC8D828E838FF0EB125A01A3EC125A8A
:104860000102487E901166E0FEA3E0FFC3EE9424AF
:10487000EF9400500302487E9011687402F090118A
:1048800068E0FF8F8222AFF0AE83E582901169F07D
:10489000EEA3F0EFA3F09010C7E0FFEF6003024833
:1048A000D2901169E0FDA3E0FEA3E0FFED4E70039E
:1048B0000248C9901169E0FDA3E0FEA3E0FF90115A
:1048C00042EDF0EEA3F0EFA3F0124B487582000228
:1048D00048D575821122E58290116CF0E0FF9010AE
:1048E000C6EFF09010C77400F09010C87404F090F8
:1048F000033E7400F090033F7410F07400A3F07551
:1049000082C975831075F00012070390033E74008E
:10491000F090033F7410F07400A3F07582D9758392
:104920001075F0001207039010E97400F0A3F0A3D3
:10493000F0A3F0901136F0901137F090113E74070B
:10494000F090113F7400F022C01D85811DE5812487
:104950000AF581E51D24FCF8E620E003024A629096
:1049600010F3E0FFEF7003024A4FA91D09901136C2
:10497000E0FFA707AF1D0FEF04F9901137E0FEA786
:104980000674022FFE7D007C4090030C7438F07496
:1049900011A3F07400A3F090030F7406F07400A349
:1049A000F08E828D838CF0C007120476D0077408D5
:1049B0002FF990113EE0FEA70674092FF990113FE0
:1049C000E0FEA7069010C6E0FE90116DEFF07400B7
:1049D000A3F07440A3F08E82124B64E58270030250
:1049E0004A4F9010C77406F0901142E0FDA3E0FE1C
:1049F000A3E0FFED4E7003024A4F901142E0FDA389
:104A0000E0FEA3E0FF8D828E838FF0125B6DFDA32D
:104A1000125B6DFEED4E7003024A4F901142E0FDB5
:104A2000A3E0FEA3E0FF8D828E838FF0125B6DFD0D
:104A3000A3125B6DFE9010C7E0FFC006C005124ACE
:104A400044024A4BC005C0068F8222D005D006E53D
:104A50001D24FCF8740166FE0886078E828F83028F
:104A60004AC1E51D24FCF8E620E303024ABB124AD2
:104A7000C7E5826003024AA87582CE75835B75F034
:104A800080123D289010C6E0FF90103D7408F0742D
:104A900000A3F090103F742CF07401A3F07400A3F5
:104AA000F0A3F08F82122754E51D24FCF8740866E9
:104AB000FE0886078E828F83024AC1758200758345
:104AC00000851D81D01D22AF8EBF0103024AD8BFD1
:104AD0000203024AFB024B0A9010C77401F09010C7
:104AE000C6E0FF9003CB7401F07400A3F08F821234
:104AF00019D875AA00758E00024B109010C7740269
:104B0000F075AA00758E00024B10758200024B47AB
:104B1000901142E0FDA3E0FEA3E0FF8D828E838F23
:104B2000F0125B6DFDA3125B6DFE9010C7E0FFC03D
:104B300006C005124B39024B40C005C0068F8222C9
:104B4000D005D0067582012275AA019010C6E0FF3B
:104B50009003CB7408F07400A3F08F821219D8224E
:104B60007582002275AA029010C6E0FF9003CB74F4
:104B700008F07400A3F08F821219D8758200227594
:034B80008200228E
:105BCE0047415020626C6520636B65636B65723D67
:065BDE003D3D3D0D0A00F3
:1001E000901175740AF09011767400F09011777484
:1001F00043F09011787468F09011797461F0901167
:100200007A7472F090117B7461F090117C7463F0D9
:1002100090117D7474F090117E7465F090117F746C
:1002200072F09011807469F09011817473F09011E4
:100230008204F09011837469F09011847463F090DB
:1002400011857420F09011867431F090118774003C
:10025000F0901188740AF09011897400F090118A5E
:100260007443F090118B7468F090118C7461F0906D
:10027000118D7472F090118E7461F090118F74630F
:10028000F09011907474F09011917465F090119247
:100290007472F09011937469F09011947473F090EB
:1002A000119504F09011967469F09011977463F0B1
:1002B0009011987420F09011997432F090119A7402
:1002C00000F090119B7402F090119C74A2F0745B8A
:1002D000A3F07480A3F090119F23F09011A07400FC
:1002E000F0A3F09011A274F0F0745BA3F07480A3FB
:1002F000F09011A57402F09011A674A8F0745BA39D
:10030000F07480A3F09011A923F09011AA7400F06A
:10031000A3F09011AC7475F07411A3F07400A3F005
:100320009011AF7402F09011B074ECF0745BA3F014
:100330007480A3F09011B37403F09011B47400F0C2
:10034000A3F09011B67476F07411A3F07400A3F0CA
:100350009011B97402F09011BA74ACF0745BA3F010
:100360007480A3F09011BD23F09011BE7400F0A32F
:10037000F09011C07477F07411A3F07400A3F090A2
:1003800011C37402F09011C474EEF0745BA3F074A6
:1003900080A3F09011C77403F09011C87400F0A30B
:0F03A000F09011CA7489F07411A3F07400A3F0E7
:104B8300AF82AE83ADF0FC9011CDEFF0EEA3F0ED6C
:104B9300A3F0ECA3F09011D17400F09011CDE0FCE0
:104BA300A3E0FDA3E0FEA3E0FFEC20E003024BDD66
:104BB3009011E97405F07400A3F09011EB74E4F024
:104BC300745BA3F07480A3F075829B75831175F0F9
:104BD300001253AEE5829011D1F09011D1E0FF8F16
:104BE3008222E5829011D6F09011D77400F09011D3
:104BF300D6E0FFBF00028003024C319011D2E0FFE8
:104C0300BF01028003024C289011D3E0FDA3E0FE14
:104C1300A3E0FF8D828E838FF0125B6DFD90117682
:104C2300EDF0024C379011D77418F0024C37901105
:104C3300D77402F09011D7E0FF8F8222E5829011A2
:104C4300DBF09011DC7400F09011DBE0FFBF000299
:104C53008003024C759011D8E0FDA3E0FEA3E0FFB2
:104C6300901176E0FC8D828E838FF0EC125A010254
:104C73004C7B9011DC7402F09011DCE0FF8F8222F8
:104C8300C01D85811D7F00E51D24FBF88604088671
:104C93000508860674042CFC74003DFD8C828D830C
:104CA3008EF0125B6DFCEC20E403024CB6758208B7
:104CB300024E55E51D24F3F8E608467003024CC97D
:104CC30075820B024E55E51D24FBF8860408860504
:104CD3000886068C828D838EF0125B6DFCBC02020B
:104CE3008003024E39E51D24FBF886040886050877
:104CF30086060CBC00010D8C828D838EF0125B6DD9
:104D0300FCA3125B6DFDA3125B6DFE8C828D838E03
:104D1300F0125B6DFB7A000CBC00010D8C828D835D
:104D23008EF0125B6DFC7E008C067C00EC2BFBEEA0
:104D33003AFABBD106BADD03024D4ABBD306BADD4C
:104D430003024DB3024E1CC007E51D24F5F886048B
:104D53000886050886068C828D838EF07401125AAC
:104D630001E51D24F8F88604088605088606E51D76
:104D730024FBF8860208860308860774072AFA7458
:104D8300003BFB8A828B838FF0125B6DFAA3125B6D
:104D93006DFBA3125B6DFF8A828B838FF0125B6DB9
:104DA300FA8C828D838EF0EA125A01D007024E5399
:104DB300C007E51D24F5F886040886050886068CD9
:104DC300828D838EF07401125A01E51D24F8F88652
:104DD30004088605088606E51D24FBF88602088676
:104DE3000308860774072AFA74003BFB8A828B83C5
:104DF3008FF0125B6DFAA3125B6DFBA3125B6DFF69
:104E03008A828B838FF0125B6DFA8C828D838EF096
:104E1300EA125A01D007024E53E51D24F5F8860421
:104E23000886050886068C828D838EF07400125ADC
:104E3300017F0A024E53E51D24F5F8860408860512
:104E43000886068C828D838EF07400125A017F01CE
:104E53008F82D01D22C01D85811D0581058105819D
:104E63007F00E51D24FBF886040886050886067482
:104E7300042CFC74003DFD8C828D838EF0125B6DDF
:104E8300FCEC20E503024E91758208024FFCE51D00
:104E930024FBF886040886050886068C828D838E9B
:104EA300F0125B6DFCBC02028003024FF8E51D2487
:104EB300FBF886040886050886060CBC00010D8CE9
:104EC300828D838EF0125B6DFCA3125B6DFDA312CA
:104ED3005B6DFE8C828D838EF0125B6DFB7A000C12
:104EE300BC00010D8C828D838EF0125B6DFC7E0005
:104EF3008C067C00EC2BFBEE3AFABB0206BA2903C4
:104F0300024FFABBD106BADD03024F1BBBD306BA6D
:104F1300DD03024F87024FF3EF6003024FFAC0072E
:104F2300E51D24FBF8860408860508860674072C0D
:104F3300FC74003DFD8C828D838EF0A81D08125BEE
:104F43006DF6A3125B6D08F6A3125B6D08F6E51D03
:104F530024F8F886020886030886078A828B838FE3
:104F6300F0125B6DFEA81D0886820886830886F012
:104F7300EE125A018A828B838FF0125B6DF5C0D0DB
:104F830007024FFAEF6003024FFAC007E51D24FB47
:104F9300F8860408860508860674072CFC74003D11
:104FA300FD8C828D838EF0A81D08125B6DF6A31213
:104FB3005B6D08F6A3125B6D08F6E51D24F8F88611
:104FC300020886030886078A828B838FF0125B6D43
:104FD300FEA81D0886820886830886F0EE125A0111
:104FE3008A828B838FF0125B6DF5C2D007024FFA72
:0F4FF3007F0A024FFA7F018F82851D81D01D2218
:105BE400834C584E0000DDDDD1DDD3DD02EA5B805D
:0803AF009011DD7400F0A3F0D1
:10500200E5829011E0F0E0FF9011DFEFF09011DD0A
:105012007400F0A3F09003CB04F07400A3F08F822D
:105022001219D822C01D85811DE51D24FCF8E62039
:10503200E003025070C39011DFE0FF90103D740155
:10504200F07400A3F090103F7464F07400A3F0A316
:10505200F0A3F08F82122754125079E51D24FCF838
:10506200740166FE0886078E828F830250767582EF
:1050720000758300D01D22900067E0FCA3E0FDA331
:10508200E0FEA3E0FF9011E1ECF0EDA3F09011E659
:105092007400F09011E8F0AF8EBF03030250B0BF6E
:1050A20004030250B9BF05030252340253AC758E99
:1050B2000075AA000253AC9011E1E0F517A3E0F5E8
:1050C200189011E6E0FD9011DDE0FBA3E0FC8D01FC
:1050D2007A00C3E99BEA64808CF063F08095F0402B
:1050E200030252219011E77400F0ED75F006A4FB63
:1050F200ACF0E0FAC0058B8274002CF583E0F8A3D3
:10510200E0F9A3E0FDEA75F00AA428F8E935F0F920
:105112009011E3E8F0E9A3F0EDA3F008B80001096B
:10512200888289838DF0125B6DF8A3125B6DF9A3FF
:10513200125B6DFD888289838DF0125B6DF8A3127C
:105142005B6DF9851782851883E493FDA3E493FFD1
:10515200E8B50506E9B507028005D0050251FED083
:1051620005C0059011E87401F08B0674002CFF8EC7
:10517200828F83A3A3A3E0F9A3E0FEA3E0FF8982C9
:105182008E838FF0125B6DF9A3125B6DFE9000723D
:10519200E0F519A3E0F51A900065E0FDA3E0FFC079
:1051A20006C005C004C003C002C0017434C0E0C020
:1051B20019C01A7471C0E07400C0E07400C0E074D9
:1051C20074C0E07400C0E07400C0E09011E3E0C07D
:1051D200E0A3E0C0E0A3E0C0E01251E10251EAC066
:1051E20001C0068D828F8322E58124F4F581D001EE
:1051F200D002D003D004D005D006D0059011E8E04B
:10520200FFBF01030252120ABA040050030250F611
:105212009011E8E0FFBF01030252210D0250C89035
:1052220011E8E0FFBF010280030253AC75AA040239
:1052320053AC9011E1E0F519A3E0F51A9011E6E004
:10524200FD9011DDE0FBA3E0FC8D017A00C3E99B38
:10525200EA64808CF063F08095F0400302539C90E6
:1052620011E77400F0ED75F006A4FBACF0E0FAC0B3
:10527200058B8274002CF583E0F8A3E0F9A3E0FD2E
:10528200EA75F00AA428F8E935F0F99011E3E8F09C
:10529200E9A3F0EDA3F008B8000109888289838DA3
:1052A200F0125B6DF8A3125B6DF9A3125B6DFD88C2
:1052B2008289838DF0125B6DF8A3125B6DF98519FB
:1052C20082851A83E493FDA3E493FFE8B50506E91A
:1052D200B507028005D005025379D005C0059011AB
:1052E200E87401F08B0674002CFF8E828F83A3A3D7
:1052F200A3E0F9A3E0FEA3E0FF740229F974003EE3
:10530200FE89828E838FF0125B6DF9A3125B6DFEB4
:10531200900072E0F51BA3E0F51C900071E0F51718
:10532200900065E0FDA3E0FFC006C005C004C00315
:10533200C002C001C01BC01CC0177474C0E074005E
:10534200C0E07400C0E09011E3E0C0E0A3E0C0E080
:10535200A3E0C0E012535C025365C001C0068D8217
:105362008F8322E58124F7F581D001D002D003D0CA
:1053720004D005D006D0059011E8E0FFBF0103027A
:10538200538D0ABA040050030252719011E8E0FFF3
:10539200BF010302539C0D0252439011E8E0FFBF8C
:1053A200010280030253AC75AA052222AFF0AE833C
:1053B200E5829011EEF0EEA3F0EFA3F09011DDE0A4
:1053C200FEA3E0FF9011F1EEF0EFA3F0BE0A05BFDD
:1053D200000280030253DF75820002545A9011F1D9
:1053E200E0FEA3E0FF90122BEEF0EFA3F075820631
:1053F200758300125A1CAE82AF838E0474002FFD97
:105402009011EEE0F9A3E0FAA3E0FB8C828D83E930
:10541200F0EAA3F0EBA3F074002FFF74032EFE74E6
:10542200003FFF9011EBE0FBA3E0FCA3E0FD8E82C6
:105432008F83EBF0ECA3F0EDA3F075AA039011DDDE
:10544200E0FEA3E0FF8FB08EB79011DD74012EF065
:1054520074003FA3F075820122AF83E5829011F5BB
:10546200F0EFA3F09011F7E4F0A3F09011F3E0FE57
:10547200A3E0FF7D109011F5E0FBA3E0FC33920066
:10548200ECCB25E0CB33FC9011F5EBF0ECA3F090E4
:1054920011F7E0FBA3E0CB25E0CB33FC9011F7EB57
:1054A200F0ECA3F03000129011F7E0FBA3E0FC90C7
:1054B20011F774014BF0ECA3F09011F7E0FBA3E0BD
:1054C200FCC3EB9EEC9F401D9011F7EBC39EF0ECEA
:1054D2009FA3F09011F5E0FBA3E0FC9011F574019D
:1054E2004BF0ECA3F0DD8E9011F5E0FEA3E08E828E
:1054F200F58322AF82AE83ADF0FC9011FDEFF0EEAA
:10550200A3F0EDA3F0ECA3F0901201E4F09011FDF2
:10551200E0FCA3E0FDA3E0FEA3E0FF7B009011F915
:10552200E0F53AA3E0F53BA3E0F53CA3E0F53D232B
:105532005401FA7074C003E53A253AF8E53B33F9B1
:10554200E53C33FAE53D33FB9011F9E8F0E9A3F0CD
:10555200EAA3F0EBA3F09011F9E0F53AA3E0F53BF2
:10556200A3E0F53CA3E0F53DC3EC953AED953BEEA7
:10557200953CEF953DD0035027E53DC313F53DE53E
:105582003C13F53CE53B13F53BE53A13F53A901134
:10559200F9F0E53BA3F0E53CA3F0E53DA3F080097B
:1055A2000B901201EBF002551F901201E0FF9011D7
:1055B200FDE0FBA3E0FCA3E0FDA3E0FE9011F9E017
:1055C200F53AA3E0F53BA3E0F53CA3E0F53DC3EBE0
:1055D200953AEC953BED953CEE953D40179011FDCB
:1055E200EBC3953AF0EC953BA3F0ED953CA3F0EEBE
:1055F200953DA3F09011F9E0FBA3E0FCA3E0FDA32D
:10560200E0C313FEED13FDEC13FCEB13FB9011F959
:10561200F0ECA3F0EDA3F0EEA3F08F061FEE708E78
:105622009011FDE0FCA3E0FDA3E0FEA3E08C828DDF
:10563200838EF022AFF0AE83E582901205F0EEA3E6
:10564200F0EFA3F0901205E0FDA3E0FEA3E0FF90CF
:105652001202E0FAA3E0FBA3E0FC8D3A8E3B8F3C02
:105662008A828B838CF0125B6DF9A3AA82AB83854D
:105672003A82853B83853CF0E9125A01A385823A3E
:1056820085833BE970DA8D828E838FF022AF82AE02
:1056920083ADF0FC90120CEFF0EEA3F0EDA3F0EC72
:1056A200A3F0901210E4F0A3F0A3F0A3F09012087C
:1056B200E0FCA3E0FDA3E0FEA3E0FF753A20901218
:1056C2000CE0F8A3E0F9A3E0FAA3E0FB339201E8CF
:1056D20028F8E933F9EA33FAEB33FB90120CE8F0DD
:1056E200E9A3F0EAA3F0EBA3F0901210E0F8A3E034
:1056F200F9A3E0FAA3E0FBE828F8E933F9EA33FA80
:10570200EB33FB901210E8F0E9A3F0EAA3F0EBA36D
:10571200F030011E901210E0F8A3E0F9A3E0FAA322
:10572200E0FB901210740148F0E9A3F0EAA3F0EB59
:10573200A3F0901210E0F8A3E0F9A3E0FAA3E0FBD3
:10574200C3E89CE99DEA9EEB9F4031901210E8C3AA
:105752009CF0E99DA3F0EA9EA3F0EB9FA3F09012C8
:105762000CE0F8A3E0F9A3E0FAA3E0FB90120C74BA
:105772000148F0E9A3F0EAA3F0EBA3F0D53A0280E6
:10578200030256C090120CE0FCA3E0FDA3E0FEA3CE
:08579200E08C828D838EF02271
:06004100E478FFF6D8FD93
:10579A00AC82AD83901215E0FEA3E0FFBE00036069
:1057AA00121F0F901214E08C828D83125A01A3DE0D
:1057BA00FADFF88C828D8322AF83E58290121BF088
:1057CA00EFA3F0901217E0FDA3E0FEA3E0FF901212
:1057DA001AE0F5347B00EB2DF8E43EF98F02C003A2
:1057EA0090121BE0FBA3E0FC85343575360090125D
:1057FA0031E535F0E536A3F08B828C83C007C0060D
:10580A00C005C002C001C000125AA8AB82AC83D046
:10581A0000D001D002D005D006D00774302BFB8807
:10582A008289838AF0125A01C374B98BF063F080BB
:10583A0095F0D0035015888289838AF0125B6D2413
:10584A0007FC888289838AF0125A0190121BE0FAB7
:10585A00A3E0FC9011F3E535F0E536A3F08A828CDB
:10586A0083C007C006C005C00312545BE582858366
:10587A00F0D003D005D006D00790121BF0E5F0A3B4
:10588A00F00B90121BE0FAA3E0FC4A60030257E017
:10589A00EB1490121DF0EB2DFBE43EFC8F028B8281
:1058AA008C838AF0E4125A017C0090121DE0FBC33B
:1058BA00EC64808BF063F08095F05050EC2DF53756
:1058CA00E43EF5388F398537828538838539F01279
:1058DA005B6DF535EB2DF8E43EF98F02C005C00685
:1058EA00C007888289838AF0125B6D853782853882
:1058FA00838539F0125A01888289838AF0E5351244
:10590A005A010C1BD007D006D00580A322AF83E52D
:10591A0082901222F0EFA3F0901222E0FEA3E0FFA1
:10592A0030E737901221E0FDBD0A2F90121EE0FBEE
:10593A00A3E0FCA3E0FD8B828C838DF0742D125AB8
:10594A000190121E74012BF0E43CA3F0EDA3F09039
:10595A001222C3E49EF0E49FA3F0901222E0FEA379
:10596A00E0FF90121EE0FBA3E0FCA3E0FD901221F1
:10597A00E0FA901217EBF0ECA3F0EDA3F090121AF4
:10598A00EAF08E828F830257C2AFF0AE83E582902F
:10599A001227F0EEA3F0EFA3F0901227E0FDA3E0A8
:1059AA00FEA3E0FF8D028E038F048A828B838CF024
:1059BA00125B6D60070ABA00F10B80EE901224E0C8
:1059CA00F53AA3E0F53BA3E0F53C853A82853B83B3
:1059DA00853CF0125B6DF9A385823A85833B8A8206
:1059EA008B838CF0E9125A01A3AA82AB83E970DA9D
:1059FA008D828E838FF02220F71130F6138883A8C8
:105A0A008220F509F6A8837583002280FEF280F5CC
:105A1A00F022AA83AB828BF090122BE0A4F8A9F0B3
:105A2A008AF0E0A429F98BF0A3E0A429F5838882FF
:105A3A002222A882A983AAF0FB88F090122DE0A462
:105A4A00FCADF089F0E0A42DFDE435F0FE88F0A36A
:105A5A00E0A42DFDE5F03EFEE433FF89F0E0A42E3C
:105A6A00FEE5F03FFF88F0A3E0A42EFEE5F03FFF3D
