:03000000020034C7
:0303B7000200033E
:030003000203BA3B
:1003BA00758149758200758300123BDF121A7E121D
:0903CA001A95758200758300226A
:0600470090030374FFF0BA
:1003D300AFF0AE83E582900304F0EEA3F0EFA3F059
:1003E300900304E0FDA3E0FEA3E0FF8D828E838FE4
:1003F300F0125AFEAE82AF838E828F8322AFF0AEAD
:1004030083E58290030CF0EEA3F0EFA3F0900307D3
:10041300E0FDA3E0FEA3E0FF900312EDF0EEA3F0F6
:10042300EFA3F090030CE0FDA3E0FEA3E0FF900335
:100433000FEDF0EEA3F0EFA3F0900312E0FDA3E0C5
:10044300FEA3E0FF90030FE0FAA3E0FBA3E0FC9020
:10045300030AE0F53AA3E0F53BA83AA93B153A7441
:10046300FFB53A02153BE84970030204918D828E71
:10047300838FF0125B16F9A3AD82AE838A828B83DE
:100483008CF0E91259AAA3AA82AB8302045C9003FD
:100493000FEAF0EBA3F0ECA3F090030FE0FDA3E071
:1004A300FEA3E0FF8D828E838FF022AFF0AE83E553
:1004B3008290031AF0EEA3F0EFA3F0900315E0FD92
:1004C300A3E0FEA3E0FF900318E0FBA3E0FC1BBB4B
:1004D300FF011C900320EB2DF0EC3EA3F0EFA3F003
:1004E30090031AE0FDA3E0FEA3E0FF90031DEDF0EF
:1004F300EEA3F0EFA3F0900320E0FDA3E0FEA3E062
:10050300FF90031DE0FAA3E0FBA3E0FC900318E0D7
:10051300F53AA3E0F53BA83AA93B153A74FFB53A7F
:1005230002153BE849700302054E8D828E838FF0DE
:10053300125B16F91DBDFF011E8A828B838CF0E9C5
:100543001259AAA3AA82AB8302051990031DEAF0EC
:10055300EBA3F0ECA3F090031DE0FDA3E0FEA3E00A
:10056300FF8D828E838FF022AFF0AE83E5829003FE
:1005730025F0EEA3F0EFA3F0900323E0FEA3E0FF4A
:100583008E828F83121FB4AD82AE83AFF0900328A7
:10059300EDF0EEA3F0EFA3F0ED4E70030205DC9057
:1005A3000328E0FDA3E0FEA3E0FF900325E0FAA308
:1005B300E0FBA3E0FC900323E0F8A3E0F99003073A
:1005C300EAF0EBA3F0ECA3F090030AE8F0E9A3F060
:1005D3008D828E838FF0120400900328E0FDA3E048
:1005E300FEA3E0FF8D828E838FF022AFF0AE83E512
:1005F30082900330F0EEA3F0EFA3F0900330E0FD20
:10060300A3E0FEA3E0FF900333EDF0EEA3F0EFA32E
:10061300F090032BE0FDA3E0FEA3E0FF900336ED93
:10062300F0EEA3F0EFA3F0900333E0FDA3E0FEA30D
:10063300E0FF900336E0FAA3E0FBA3E0FC90032E77
:10064300E0F53AA3E0F53BA83AA93B153A74FFB5A8
:100653003A02153BE84970030206898D828E838F27
:10066300F0125B16F9A3AD82AE838A828B838CF082
:10067300125B16F8A3AA82AB83E9B5000302064A0C
:1006830075820002068C75820122AFF0AE83E5828B
:1006930090033CF0EEA3F0EFA3F090033CE0FDA346
:1006A300E0FEA3E0FF900339E0FC90033AE0FAA3F5
:1006B300E0FB90120FECF0901210EAF0EBA3F08D38
:1006C300828E838FF0125743AD82AE83AFF08D825B
:1006D3008E838FF022AFF0AE83E58290033FF0EE7E
:1006E300A3F0EFA3F090033FE0FDA3E0FEA3E0FF40
:1006F3008D828E838FF0125B16FC7B000DBD000193
:100703000E8D828E838FF0125B16FD7F008D077D29
:1007130000ED2CFCEF3BFB8C828B8322AFF0AE838E
:10072300E582900343F0EEA3F0EFA3F0900342E0E1
:10073300FFBF0202800302078E900343E0FDA3E0A4
:10074300FEA3E0FF8D828E838FF0125B16FC8C017B
:100753007A007B007C000DBD00010E8D828E838F9D
:10076300F0125B16FD8D007D007E007F008E078DED
:100773000688057800E829F9ED3AFAEE3BFBEF3CF1
:10078300FC89828A838BF0EC020914900342E0FF18
:10079300BF03028003020825900343E0FDA3E0FEAC
:1007A300A3E0FF8D828E838FF0125B16FC8C3A756B
:1007B3003B00753C00753D0074012DF874003EFB51
:1007C3008F0488828B838CF0125B16F87C007B008D
:1007D3007A008B028C0388047800E8253AF8EC351C
:1007E3003BFCEB353CFBEA353DFA74022DFD74000E
:1007F3003EFE8D828E838FF0125B16FD8D017D0090
:100803007E007F008D0789067D007900E928F8EDD9
:100813003CFCEE3BFBEF3AFA88828C838BF0EA02D6
:100823000914900342E0FFBF040280030208F29020
:100833000343E0FDA3E0FEA3E0FF8D828E838FF0F0
:10084300125B16FC8C3A753B00753C00753D0074D9
:10085300012DF874003EFB8F0488828B838CF01289
:100863005B16F87C007B007A008B028C038804788B
:1008730000E8253AF53AEC353BF53BEB353CF53CE6
:10088300EA353DF53D74022DF974003EFB8F048972
:10089300828B838CF0125B16F97C007B007A008CD0
:1008A3000289037C007900E9253AF9EC353BFCEB3E
:1008B300353CFBEA353DFA74032DFD74003EFE8D95
:1008C300828E838FF0125B16FD8D007D007E007F8C
:1008D30000880778007D007E00E829F9ED3CFCEEF6
:1008E3003BFBEF3AFA89828C838BF0EA020914907E
:1008F3000343E0FDA3E0FEA3E0FF8D828E838FF030
:10090300125B16FD7F007E007C008D828F838EF04C
:10091300EC22AF82AE83ADF0FC90034AEFF0EEA37E
:10092300F0EDA3F0ECA3F090034E7400F0900358A5
:10093300F0900362F0900346E0FDA3E0FEA3E0FF26
:100943008D828E838FF074001259AA900349E0FFC1
:10095300BF0A028003020CA690034AE0FCA3E0FD59
:10096300A3E0FEA3E0FF9011F47410F07427A3F04A
:100973007400A3F0A3F08C828D838EF0EFC007C0C8
:1009830006C005C00412549EA882A983AAF0FBD016
:1009930004D005D006D00790036CE8F0E9A3F090EB
:1009A30012037410F07427A3F07400A3F0A3F08C67
:1009B300828D838EF0EFC007C006C005C0041256B7
:1009C30038A882A983AAF0FBD004D005D006D007AB
:1009D3009011F47410F07427A3F07400A3F0A3F043
:1009E300888289838AF0EBC007C006C005C0041261
:1009F300549EA882A983AAF0FBD004D005D006D0C8
:100A03000790036EE8F0E9A3F09012037400F0740A
:100A1300E1A3F074F5A3F07405A3F08C828D838EAB
:100A2300F0EF125638AC82AD83AEF0FF900370EC5A
:100A3300F0EDA3F0EC4D7003020A61900370E0FE49
:100A4300A3E0FF9012197462F07403A3F07400A37F
:100A5300F090121C740AF08E828F831258C0900398
:100A63006EE0FEA3E0FFEE4F7003020A9390036E65
:100A7300E0FEA3E0FF9012197458F07403A3F0741E
:100A830000A3F090121C740AF08E828F831258C058
:100A930090036CE0FEA3E0FFEE4F7003020AC590E3
:100AA300036CE0FEA3E0FF901219744EF07403A3ED
:100AB300F07400A3F090121C740AF08E828F8312DC
:100AC30058C0900370E0FEA3E0FFEE4F7003020BEB
:100AD30074900346E0FDA3E0FEA3E0FF9011FD74D4
:100AE30062F07403A3F07400A3F08D828E838FF001
:100AF3001255DF9003727400F0900346E0FDA3E00B
:100B0300FEA3E0FF900372E0FC75825875830375C2
:100B1300F000C007C006C005C004125AFEAA82AB8B
:100B230083D004D005D006D0077404C39AFA7400A6
:100B33009BFB8C007900C3E89AE99B4003020B748A
:100B43008D018E028F0390121F7436F0745BA3F035
:100B53007480A3F089828A838BF0C007C006C00526
:100B6300C00412593CD004D005D006D0070C020BA8
:100B73000C900346E0FDA3E0FEA3E0FF90121F7478
:100B830058F07403A3F07400A3F08D828E838FF06A
:100B930012593C900370E0FEA3E0FFEE4F600302A6
:100BA3000BB490036EE0FEA3E0FFEE4F7003020C64
:100BB300329003727400F0900346E0FDA3E0FEA3BD
:100BC300E0FF900372E0FC75824E75830375F000BD
:100BD300C007C006C005C004125AFEAA82AB83D068
:100BE30004D005D006D0077404C39AFA74009BFBA3
:100BF3008C007900C3E89AE99B4003020C328D0113
:100C03008E028F0390121F7436F0745BA3F074800E
:100C1300A3F089828A838BF0C007C006C005C00495
:100C230012593CD004D005D006D0070C020BCA9051
:100C33000346E0FDA3E0FEA3E0FF90121F744EF015
:100C43007403A3F07400A3F08D828E838FF0125986
:100C53003C900370E0FEA3E0FFEE4F6003020E59E9
:100C630090036EE0FEA3E0FFEE4F6003020E599087
:100C7300036CE0FEA3E0FFEE4F6003020E59900306
:100C830046E0FDA3E0FEA3E0FF9011FD7436F0748F
:100C93005BA3F07480A3F08D828E838FF01255DFF7
:100CA300020E59900349E0FFBF10028003020E4D6C
:100CB30090034AE0FCA3E0FDA3E0FEA3E0FF8C0069
:100CC3008D017A007B0090036CE8F0E9A3F08E04B9
:100CD3008F0590036EECF0EDA3F0EC4D7003020D65
:100CE3000790036EE0FEA3E0FF9012197458F074AE
:100CF30003A3F07400A3F090121C7410F08E828F83
:100D0300831258C090036CE0FEA3E0FFEE4F700324
:100D1300020D3990036CE0FEA3E0FF901219744EAC
:100D2300F07403A3F07400A3F090121C7410F08EFF
:100D3300828F831258C090036EE0FEA3E0FFEE4F54
:100D43007003020DE8900346E0FDA3E0FEA3E0FF7D
:100D53009011FD7458F07403A3F07400A3F08D8216
:100D63008E838FF01255DF9003727400F090034668
:100D7300E0FDA3E0FEA3E0FF900372E0FC75824E6A
:100D830075830375F000C007C006C005C004125A7E
:100D9300FEAA82AB83D004D005D006D0077404C367
:100DA3009AFA74009BFB8C007900C3E89AE99B4094
:100DB30003020DE88D018E028F0390121F7436F02B
:100DC300745BA3F07480A3F089828A838BF0C007DD
:100DD300C006C005C00412593CD004D005D006D0CB
:100DE300070C020D80900346E0FDA3E0FEA3E0FFA5
:100DF30090121F744EF07403A3F07400A3F08D825D
:100E03008E838FF012593C90036EE0FEA3E0FFEE59
:100E13004F6003020E5990036CE0FEA3E0FFEE4F18
:100E23006003020E59900346E0FDA3E0FEA3E0FF3A
:100E33009011FD7436F0745BA3F07480A3F08D827F
:100E43008E838FF01255DF020E5975820075830071
:100E530075F000020E6A900346E0FDA3E0FEA3E0F6
:100E6300FF8D828E838FF02222AF83E582900373FE
:100E7300F0EFA3F0900373E0FEA3E0FFEE4F6003F7
:100E8300020E9275820075830075F000020F2F9099
:100E93000373E0FEA3E0FF74062EFE74003FFF8E93
:100EA300828F83121FB4AD82AE83AFF0900375EDD2
:100EB300F0EEA3F0EFA3F0ED4E7003020F269003C4
:100EC30075E0FDA3E0FEA3E0FF8D828E838FF074B7
:100ED300001259AAA31259AAA31259AA74032DFAEC
:100EE30074003EFB8F04900373E0F8A3E0F98A8259
:100EF3008B838CF0E81259AAA3E91259AA74052D21
:100F0300FA74003EFB8F048A828B838CF074FF1289
:100F130059AA74062DFD74003EFE8D828E838FF0D8
:100F2300020F2F75820075830075F00022AFF0AEBB
:100F330083E582900378F0EEA3F0EFA3F0900378BB
:100F4300E0FDA3E0FEA3E0FFED4E6003020F587542
:100F53008205020FA0900378E0FDA3E0FEA3E0FF6B
:100F630074FF2DFD74FF3EFE8D828E838FF0125B26
:100F730016FDBDFF03020F81758204020FA09003CB
:100F830078E0FDA3E0FEA3E0FFED24FAFDEE34FFDD
:100F9300FE8D828E838FF012230075820022E582FC
:100FA30090037EF0E0FF90037BE0FCA3E0FDA3E071
:100FB300FE900383ECF0EDA3F0EEA3F090038674B0
:100FC30000F08F82120FFDAF828F8222E5829003A1
:100FD30082F0E0FF90037FE0FCA3E0FDA3E0FE903E
:100FE3000383ECF0EDA3F0EEA3F09003867401F01D
:100FF3008F82120FFDAF828F8222E582900387F0EA
:10100300900383E0FDA3E0FEA3E0FFED4E60030247
:10101300101B758205021140900387E0FF905B422D
:10102300E493FEC3EF9E5003021048900383E0FD58
:10103300A3E0FEA3E0FF8D828E838FF0120F307545
:101043008203021140900383E0FDA3E0FEA3E0FFCF
:10105300ED24FAFDEE34FFFE8D828E838FF0125B5A
:1010630016FDA3125B16FEA3125B16FFED4E600383
:10107300021099900383E0FDA3E0FEA3E0FF74FF59
:101083002DFD74FF3EFE8D828E838FF0125B16FD65
:10109300BDFF030210B3900383E0FDA3E0FEA3E0D2
:1010A300FF8D828E838FF0120F30758205021140FF
:1010B300900383E0FDA3E0FEA3E0FF74FF2DFD7426
:1010C300FF3EFE900387E0FC8D828E838FF0EC124F
:1010D30059AA900386E0FFBF010280030211079023
:1010E3000383E0FDA3E0FEA3E0FF9003AAEDF0EE8F
:1010F300A3F0EFA3F075820075830375F000121659
:1011030027021129900383E0FDA3E0FEA3E0FF90F3
:101113000399EDF0EEA3F0EFA3F07582007583035E
:1011230075F0001213B3900387E0FF9003C67400B9
:10113300F07480A3F08F8212196275820022E58217
:10114300900388F090038C7400F0A3F0A3F0900355
:101153008FF0A3F0A3F0900392A2AFE433F0C2AFF9
:10116300900300E0FDA3E0FEA3E0FF900389EDF010
:10117300EEA3F0EFA3F0900388E0FF900389E0FC77
:10118300A3E0FDA3E0FEEC4D700302123B90038944
:10119300E0FCA3E0FDA3E0FE74FF2CFC74FF3DFD27
:1011A3008C828D838EF0125B16FCECB507028003F4
:1011B3000211DE90038FE0FCA3E0FDA3E0FEEC4D03
:1011C300600302123B900389E0FCA3E0FDA3E0FE71
:1011D30090038FECF0EDA3F0EEA3F090038FE0FC0F
:1011E300A3E0FDA3E0FEEC4D600302120690038929
:1011F300E0FCA3E0FDA3E0FE90038CECF0EDA3F094
:10120300EEA3F0900389E0FCA3E0FDA3E0FEEC2451
:10121300FAFCED34FFFD8C828D838EF0125B16FC9D
:10122300A3125B16FDA3125B16FE900389ECF0ED8F
:10123300A3F0EEA3F002117E900389E0FDA3E0FE8C
:10124300A3E0FFED4E7003021264900388E0FF9069
:1012530003C67400F07480A3F08F82121962021225
:1012630078900388E0FF9003C97400F07480A3F0C2
:101273008F821219C990038FE0FDA3E0FEA3E0FF64
:10128300ED4E70030212C290038FE0FDA3E0FEA3B4
:10129300E0FF90038CE0FAA3E0FBA3E0FC9003B033
:1012A300EDF0EEA3F0EFA3F09003B3EAF0EBA3F0BD
:1012B300ECA3F075820075830375F0001216B690E7
:1012C3000392E0FFEF24FF92AF90038FE0FDA3E0D2
:1012D300FEA3E0FF8D828E838FF022E5829003943C
:1012E300F0900398A2AFE433F0C2AF900300E0FDA7
:1012F300A3E0FEA3E0FF900395EDF0EEA3F0EFA3D0
:10130300F0900393E0FF900394E0FE900395E0FBDD
:10131300A3E0FCA3E0FDEB4C70030213979003954D
:10132300E0FBA3E0FCA3E0FD74FF2BFB74FF3CFC9C
:101333008B828C838DF0125B16FBEBB50602800368
:10134300021362900395E0FBA3E0FCA3E0FD8B8214
:101353008C838DF0125B16FBEBB50703021397909A
:101363000395E0FBA3E0FCA3E0FDEB24FAFBEC34E4
:10137300FFFC8B828C838DF0125B16FBA3125B1632
:10138300FCA3125B16FD900395EBF0ECA3F0EDA329
:10139300F002130E900398E0FFEF24FF92AF900347
:1013A30095E0FDA3E0FEA3E0FF8D828E838FF02204
:1013B300AFF0AE83E58290039CF0EEA3F0EFA3F0D1
:1013C3009003A2A2AFE433F0C2AF900399E0FDA370
:1013D300E0FEA3E0FFED24FAFDEE34FFFE8D828EE6
:1013E300838FF074001259AAA31259AAA31259AAFF
:1013F30090039CE0FDA3E0FEA3E0FF8D828E838F2C
:10140300F0125B16FDA3125B16FEA3125B16FFED33
:101413004E600302144690039CE0FDA3E0FEA3E0AC
:10142300FF900399E0FAA3E0FBA3E0FC8D828E8397
:101433008FF0EA1259AAA3EB1259AAA3EC1259AAE4
:1014430002151A90039CE0FDA3E0FEA3E0FF8D824A
:101453008E838FF0125B16FDA3125B16FEA3125B45
:1014630016FF90039FEDF0EEA3F0EFA3F090039F20
:10147300E0FDA3E0FEA3E0FFED24FAFDEE34FFFE62
:101483008D828E838FF0125B16FDA3125B16FEA373
:10149300125B16FF7400C0E0C0E0C0E08D828E8353
:1014A3008FF012000615811581158170030214E86F
:1014B30090039FE0FDA3E0FEA3E0FFED24FAFDEE21
:1014C30034FFFE8D828E838FF0125B16FDA3125BB9
:1014D30016FEA3125B16FF90039FEDF0EEA3F0EF51
:1014E300A3F002147090039FE0FDA3E0FEA3E0FFCE
:1014F300ED24FAFDEE34FFFE900399E0FAA3E0FB3E
:10150300A3E0FC8D828E838FF0EA1259AAA3EB121B
:1015130059AAA3EC1259AA9003A2E0FFEF24FF9269
:10152300AF22AFF0AE83E5829003A3F0EEA3F0EF1A
:10153300A3F09003A67400F0A3F0A3F09003A9A274
:10154300AFE433F0C2AF9003A3E0FDA3E0FEA3E05A
:10155300FF8D828E838FF0125B16FDA3125B16FE46
:10156300A3125B16FFED4E700302160B9003A3E06C
:10157300F53AA3E0F53BA3E0F53C853A82853B834E
:10158300853CF0125B16FAA3125B16FBA3125B16E3
:10159300FC9003A6EAF0EBA3F0ECA3F08A008B0126
:1015A3008C07E824FAF8E934FFF9888289838FF0FD
:1015B300125B16F8A3125B16F9A3125B16FF853AAA
:1015C30082853B83853CF0E81259AAA3E91259AA04
:1015D300A3EF1259AA8A058B068C07ED24FAFDEEB8
:1015E30034FFFE8D828E838FF074001259AAA312EA
:1015F30059AAA31259AA142AFA74FF3BFB8A828BB5
:10160300838CF074FF1259AA9003A9E0FFEF24FF23
:1016130092AF9003A6E0FDA3E0FEA3E0FF8D828ED0
:10162300838FF022AFF0AE83E5829003ADF0EEA39B
:10163300F0EFA3F0A2AFE433F53AC2AF9003AAE010
:10164300FCA3E0FDA3E0FE8C018D028E03E924FAE6
:10165300F53BEA34FFF53C8B3D9003ADE0F53EA34B
:10166300E0F53FA3E0F540853E82853F838540F06A
:10167300125B16F9A3125B16FAA3125B16FF853BE6
:1016830082853C83853DF0E91259AAA3EA1259AA3F
:10169300A3EF1259AA853E82853F838540F0EC1261
:1016A30059AAA3ED1259AAA3EE1259AAE53A24FFA7
:1016B30092AF22AFF0AE83E5829003B6F0EEA3F0D3
:1016C300EFA3F09003B9A2AFE433F0C2AF9003B637
:1016D300E0FDA3E0FEA3E0FF8D828E838FF0125B1B
:1016E30016FDA3125B16FEA3125B16FF9003B0E078
:1016F300FAA3E0FBA3E0FCC005C006C0078A828B07
:10170300838CF01200061581158115817002800308
:1017130002175F9003B6E0FDA3E0FEA3E0FF900392
:10172300B0E0FAA3E0FBA3E0FCEA24FAFAEB34FF0F
:10173300FB8A828B838CF0125B16FAA3125B16FB77
:10174300A3125B16FC8D828E838FF0EA1259AAA333
:10175300EB1259AAA3EC1259AA0217AD9003B3E0F6
:10176300FDA3E0FEA3E0FFED24FAFDEE34FFFE90BF
:1017730003B0E0FAA3E0FBA3E0FCEA24FAFAEB34BB
:10178300FFFB8A828B838CF0125B16FAA3125B1623
:10179300FBA3125B16FC8D828E838FF0EA1259AA8B
:1017A300A3EB1259AAA3EC1259AA9003B0E0FDA32C
:1017B300E0FEA3E0FF8D028E038F04EA24FAFAEB26
:1017C30034FFFB8A828B838CF074001259AAA31214
:1017D30059AAA31259AA142DFD74FF3EFE8D828EC1
:1017E300838FF074FF1259AA9003B9E0FFEF24FF2F
:1017F30092AF22AFF0AE83E5829003BEF0EEA3F08A
:10180300EFA3F09003C47400F09003C5A2AFE433D8
:10181300F0C2AF9003BEE0FDA3E0FEA3E0FF8D8224
:101823008E838FF0125B16FDA3125B16FEA3125B71
:1018330016FFED4E600302186F9003BEE0FDA3E0B8
:10184300FEA3E0FF9003BAE0FAA3E0FBA3E0FC8D64
:10185300828E838FF0EA1259AAA3EB1259AAA3EC42
:101863001259AA9003C47401F00219509003BEE008
:10187300FDA3E0FEA3E0FF8D828E838FF0125B1643
:10188300FDA3125B16FEA3125B16FF9003C1EDF0DE
:10189300EEA3F0EFA3F09003BDE014F0E0FF90039C
:1018A300C1E0FCA3E0FDA3E0FEEC24FAFCED34FF71
:1018B300FD8C828D838EF0125B16FCA3125B16FDEA
:1018C300A3125B16FEEC4D700302190BEF700302BB
:1018D300190B9003C1E0FCA3E0FDA3E0FEEC24FAA6
:1018E300FCED34FFFD8C828D838EF0125B16FCA31E
:1018F300125B16FDA3125B16FE9003C1ECF0EDA381
:10190300F0EEA3F01F0218A19003BDEFF0E0FFEF8C
:1019130070030219509003C1E0FDA3E0FEA3E0FFB2
:10192300ED24FAFDEE34FFFE9003BAE0FAA3E0FBE8
:10193300A3E0FC8D828E838FF0EA1259AAA3EB12E7
:1019430059AAA3EC1259AA9003C47401F09003C5D9
:10195300E0FFEF24FF92AF9003C4E0FF8F8222E504
:10196300829003C8F0E0FF905B42E493FEC3EF9ED6
:1019730040030219C5901072E0FDA3E0FEA3E0FF4F
:101983009003C8E0FCEC75F002A42DFDEE35F0FEEB
:101993008D828E838FF0125B16FBA3125B16FC9075
:1019A30003C6E0F9A3E0FAE94203EA42048D828E1A
:1019B300838FF0EB1259AAA3EC1259AA7582000285
:1019C30019C875820322E5829003CBF0E0FF905B98
:1019D30042E493FEC3EF9E4003021A3EA2AFE433F8
:1019E300FFC2AF901072E0FCA3E0FDA3E0FE900302
:1019F300CBE0FBEB75F002A42CFCED35F0FD8C8203
:101A03008D838EF0125B16FAA3125B16FB9003C94B
:101A1300E0F8A3E0F9E8F4F8E9F4F9E85202E9524E
:101A2300038C828D838EF0EA1259AAA3EB1259AA72
:101A3300EF24FF92AF758200021A4175820322756B
:101A4300820022E5829003CEF0E0FFBFFF02800315
:101A5300021A5ED2AF758200021A6175820722E50F
:101A6300829003CFF0E0FFBFFF028003021A7AC225
:101A7300AF758200021A7D75820722121F3D900303
:101A8300007400F0A3F0A3F0122396122FE67582E0
:101A93000022121A9C021A95229003D07400F012AD
:101AA30030619003D0E0FF901072E0FCA3E0FDA34F
:101AB300E0FEEF75F002A42CFCED35F0FD8C828D79
:101AC300838EF0125B16FCA3125B16FDEC4D6003D4
:101AD300021AE50F905B42E493FEC3EF9E500302AC
:101AE3001AAA9003D0EFF0E0FF905B42E493FEC3A9
:101AF300EF9E4003021BB6901072E0FDA3E0FEA32D
:101B0300E0FF9003D0E0FCEC75F002A4FAABF0EA3E
:101B13002DFDEB3EFE8D828E838FF0125B16F8A3B4
:101B2300125B16F99003D1E8F0E9A3F08D828E835E
:101B33008FF074001259AAA31259AA900303ECF070
:101B4300EA2438F582EB345BF583E493FEA3E49354
:101B5300FFC003C0029003D1E0C0E0A3E0C0E012E5
:101B63001B68021B6FC006C0078C8222AE82AF8344
:101B730015811581D002D00390030374FFF09010F8
:101B830072E0F9A3E0FCA3E0FDEA29F9EB3CFC8950
:101B9300828C838DF0125B16FAA3125B16FBEA426A
:101BA30006EB420789828C838DF0EE1259AAA3EFCC
:101BB3001259AA22AFF0AE83E5829003D7F0EEA3C9
:101BC300F0EFA3F09003D7E0F53AA3E0F53BA3E0F1
:101BD300F53C9003D3E0F9A3E0FAA3E0FBA3E0FC18
:101BE30089007D007E007F00853A82853B83853CAA
:101BF300F0E81259AA9003D77401253AF07400351E
:101C03003BA3F0E53CA3F09003D7E0F53AA3E0F55E
:101C13003BA3E0F53C8A007D007E007F00853A828D
:101C2300853B83853CF0E81259AA9003D7740125BC
:101C33003AF07400353BA3F0E53CA3F09003D7E002
:101C4300F53AA3E0F53BA3E0F53C8B007D007E0075
:101C53007F00853A82853B83853CF0E81259AA9040
:101C630003D77401253AF07400353BA3F0E53CA398
:101C7300F09003D7E0FDA3E0FEA3E0FF8C017C001E
:101C83007B007A008D828E838FF0E91259AA90032C
:101C9300D774012DF074003EA3F0EFA3F09003D7A7
:101CA300E0FDA3E0FEA3E0FF8D828E838FF022AFE1
:101CB300F0AE83E5829003DEF0EEA3F0EFA3F090A5
:101CC30003DEE0F53AA3E0F53BA3E0F53C9003DA4D
:101CD300E0F9A3E0FAA3E0FBA3E0FC89007D007E2A
:101CE300007F00853A82853B83853CF0E81259AA40
:101CF3009003DE7401253AF07400353BA3F0E53C14
:101D0300A3F09003DEE0F53AA3E0F53BA3E0F53C56
:101D13008A007D007E007F00853A82853B83853C77
:101D2300F0E81259AA9003DE7401253AF0740035E5
:101D33003BA3F0E53CA3F09003DEE0FDA3E0FEA3AC
:101D4300E0FF8B017C007B007A008D828E838FF015
:101D5300E91259AA9003DE74012DF074003EA3F03A
:101D6300EFA3F09003DEE0FDA3E0FEA3E0FF8D828E
:101D73008E838FF022AFF0AE83E5829003E3F0EE23
:101D8300A3F0EFA3F09003E3E0FDA3E0FEA3E0FFE5
:101D9300ED4E6003021DA0758200021DF59003E65F
:101DA3007400F09003E3E0FDA3E0FEA3E0FF9003E3
:101DB300E1E0FC9003E2E0FB9003E6E0FAC3EA9B78
:101DC3004003021DF2C003EA2DF874003EF98F03AD
:101DD300888289838BF0125B16F8E8B50405D0037B
:101DE300021DEED003758200021DF50A021DC075A7
:0B1DF300820122900303E0FF8F822298
:025B360030003D
:10004D009003E87400F09003E97442F09003EA74B1
:10005D0058F09003EB742DF09003EC7464F0900362
:10006D00EDF09003EEF09003EF04F09003F0746266
:10007D00F09003F17475F09003F27467F09003F350
:10008D00742DF09003F4746EF09003F504F090036A
:10009D00F67464F09003F704F09003F87400F09098
:1000AD0003FE74F2F0741EA3F09004007400F0A32C
:0100BD00F052
:101DFE00E582900402F0E0FF9003E7EFF090040319
:101E0E007401F0901158F09011597403F07404A3FA
:101E1E00F07400A3F07582057583031242FA758281
:101E2E00FF7583FF75F0FF74FF124B1D9003E7E003
:101E3E00FF9003C67401F07400A3F08F8212196232
:101E4E0022C01D85811DE51D24FCF8E620E003025D
:101E5E001EA37582FE75830375F000124820900351
:101E6E00E7E0FF9010387402F07400A3F090103A7F
:101E7E007488F07413A3F07400A3F0A3F08F821291
:101E8E0026DEE51D24FCF8740166FE0886078E82A8
:101E9E008F83021EEFE51D24FCF8E620E103021EEF
:101EAE00E99003E7E0FF9010387402F07400A3F09D
:101EBE0090103A7488F07413A3F07400A3F0A3F09A
:101ECE008F821226DE121F3CE51D24FCF87402667A
:101EDE00FE0886078E828F83021EEF758200758341
:101EEE0000D01D22E582900404F0E0FFC374069F2B
:101EFE005003021F31EF2F2F901F0A73021F310262
:101F0E001F1F021F22021F28021F2B021F25021F46
:101F1E002E021F31021F31021F31021F31021F31EB
:101F2E00021F31900404E0FF9003E8EFF0222290AC
:101F3E0010037400F0A3F09010057405F07404A360
:101F4E00F07400A3F09004057448F07402A3F090AE
:101F5E00064DF07480A3F090064F74B4F07409A38C
:101F6E00F022758201758300121FB4AD82AE83AF6D
:101F7E00F0A2AFE433FCC2AFED24FEF9EE34FFFA6B
:101F8E008F03901005E9F0EAA3F0EBA3F08D828E9B
:101F9E00838FF0C004122300D0049010087401F057
:101FAE00EC24FF92AF22AF83E582901009F0EFA3ED
:101FBE00F090100B7400F0A3F0A3F0901011F090BD
:101FCE001009E0FEA3E0FF90100974022EF07400D9
:101FDE003FA3F0901008E0FFEF7003022000901076
:101FEE0009E0FEA3E0FFC374109E74009F5003022D
:101FFE002019901005E0FDA3E0FEA3E0FF90100E67
:10200E00EDF0EEA3F0EFA3F002202790100E744F28
:10201E00F07406A3F07400A3F0901009E0FEA3E0A4
:10202E00FF90100EE0FBA3E0FCA3E0FD0BBB000154
:10203E000C8B828C838DF0125B1620E703022057E7
:10204E009010117400F0022150901011E0FDED700F
:10205E000302210E90100BE0FBA3E0FCA3E0FD8B2E
:10206E003A8C3B8D3C8B008C018D02888289838A51
:10207E00F0125B16F53DA3125B16547FF53E9010E1
:10208E000EE0F8A3E0F9A3E0FA888289838AF012C1
:10209E005B16F53FA3125B16547FF540A83FAA408E
:1020AE00E8253DF8EA353EFA853A82853B83853C44
:1020BE00F0E5001259AAA3EA547FC0F0C0E0125B0B
:1020CE0016D0F0548045F0D0F01259AA8B828C8332
:1020DE008DF0125B16FBA3125B16547FFCC3EB9EB6
:1020EE00EC9F500302215090100BE0FBA3E0FCA3E9
:1020FE00E0FD90100EEBF0ECA3F0EDA3F00221AE9C
:10210E0090100EE0FBA3E0FCA3E0FD8B828C838D90
:10211E00F0125B16FBA3125B16547FFCC3EB9EEC16
:10212E009F40030221AE9010117401F090100EE04A
:10213E00FBA3E0FCA3E0FD90100BEBF0ECA3F0EDA5
:10214E00A3F090100EE0FBA3E0FCA3E0FD8B008C4F
:10215E00018D028B828C838DF0125B16FBA3125BBA
:10216E0016547FFCEB28F8EC39F990100EE8F0E9E4
:10217E00A3F0EAA3F090100EE0FBA3E0FCA3E0FDB9
:10218E008B828C838DF0125B16FBA3125B16FCEB1D
:10219E004C600302202F90100E7400F0A3F0A3F0F9
:1021AE0090100EE0FDA3E0FEA3E0FFED4E700302E3
:1021BE0022ED90100EE0FDA3E0FEA3E0FF8D828ED7
:1021CE00838FF0125B16FDA3125B16547FFE9010E8
:1021DE0009E0FCA3E0FFEDC39CFDEE9FFE90101204
:1021EE00EDF0EEA3F0C3ED9404EE94005003022242
:1021FE005390100EE0FDA3E0FEA3E0FF8D028E03D0
:10220E008F04901009E0F8A3E0F9E82AFAE93BFB05
:10221E008A3A8B3B8C3C901012E0FBA3E0FC853A93
:10222E0082853B83853CF0EB1259AAA3EC1259AA86
:10223E004301808D828E838FF0E81259AAA3E91292
:10224E0059AA02227190100EE0FDA3E0FEA3E0FF5A
:10225E000DBD00010E8D828E838FF0125B164480B1
:10226E001259AA901008E0FFEF70030222E19010BD
:10227E0005E0FDA3E0FEA3E0FF90100EE0FAA3E060
:10228E00FBA3E0FCC002C003C0048D828E838FF0DE
:10229E00120006158115811581700280030222E15C
:1022AE0090100EE0FDA3E0FEA3E0FF8D028E038FE3
:1022BE00048D828E838FF0125B16FDA3125B165473
:1022CE007FFEED2AFAEE3BFB901005EAF0EBA3F051
:1022DE00ECA3F090100EE02402F0A3E03400F0C363
:1022EE0090100EE0FDA3E0FEA3E0FF8D828E838FA3
:1022FE00F022AFF0AE83E582901014F0EEA3F0EF73
:10230E00A3F0901014E0FDA3E0FEA3E0FFED24FE89
:10231E00FAEE34FFFB8F04901017EAF0EBA3F0EC0B
:10232E00A3F090101AA2AFE433F0C2AF74FF2DFDEC
:10233E0074FF3EFE8D828E838FF0125B16547F12D9
:10234E0059AA901005E0FDA3E0FEA3E0FFC005C072
:10235E0006C0078A828B838CF012000615811581C8
:10236E001581400302238B901017E0FDA3E0FEA31E
:10237E00E0FF901005EDF0EEA3F0EFA3F090101A31
:10238E00E0FFEF24FF92AF2290101E7400F0A3F036
:10239E00A3F0A3F022E582901028F0E0FF90102227
:1023AE00E0FDA3E0FE90102FEDF0EEA3F08F821271
:1023BE0025CCAD82AE83AFF0901029EDF0EEA3F0F8
:1023CE00EFA3F0ED4E7003022422901029E0FDA33E
:1023DE00E0FEA3E0FF74032DF51074003EF5118F9F
:1023EE0012901024E0F8A3E0F9A3E0FBA3E0FC8533
:1023FE0010828511838512F0E81259AAA3E91259A9
:10240E00AAA3EB1259AAA3EC1259AA8D828E838F1E
:10241E00F00225CB75820E758300121FB4AD82AE0D
:10242E0083AFF0901029EDF0EEA3F0EFA3F0ED4E98
:10243E0070030225C2901029E0FDA3E0FEA3E0FF89
:10244E0074072DFA74003EFB8F04901022E0F8A35F
:10245E00E0F98A828B838CF0E81259AAA3E912590B
:10246E00AA74092DFA74003EFB8F04901028E0F92F
:10247E008A828B838CF0E91259AA74032DF510749D
:10248E00003EF5118F12901024E0F8A3E0F9A3E0BE
:10249E00FBA3E0FC8510828511838512F0E81259AA
:1024AE00AAA3E91259AAA3EB1259AAA3EC1259AA8C
:1024BE008D828E838FF074001259AAA31259AAA38B
:1024CE001259AA740A2DFD74003EFE8D828E838FE2
:1024DE00F074001259AAA31259AAA31259AAA31250
:1024EE0059AA90101BE0FDA3E0FEA3E0FFED4E60A5
:1024FE000302251B901029E0FDA3E0FEA3E0FF9050
:10250E00101BEDF0EEA3F0EFA3F00225AE90101B22
:10251E00E0FDA3E0FEA3E0FF90102CEDF0EEA3F0A3
:10252E00EFA3F090102CE0FDA3E0FEA3E0FF8D8260
:10253E008E838FF0125B16FDA3125B16FEA3125B49
:10254E0016FFED4E700302258490102CE0FDA3E0E3
:10255E00FEA3E0FF8D828E838FF0125B16FDA31219
:10256E005B16FEA3125B16FF90102CEDF0EEA3F09F
:10257E00EFA3F002253190102CE0FDA3E0FEA3E0C6
:10258E00FF901029E0FAA3E0FBA3E0FC8D828E837E
:10259E008FF0EA1259AAA3EB1259AAA3EC1259AA68
:1025AE00901029E0FDA3E0FEA3E0FF8D828E838FC5
:1025BE00F00225CB75820075830075F00022E5824E
:1025CE00901031F090101BE0FDA3E0FEA3E0FF9011
:1025DE001032EDF0EEA3F0EFA3F0901031E0FF908B
:1025EE00102FE0FDA3E0FE901032E0FAA3E0FBA373
:1025FE00E0FCEA4B7003022687901032E0FAA3E06B
:10260E00FBA3E0FC74072AFA74003BFB8A828B83DF
:10261E008CF0125B16FAA3125B16FBEAB50506EBFD
:10262E00B50602800302265A901032E0FAA3E0FBB0
:10263E00A3E0FC74092AFA74003BFB8A828B838C1C
:10264E00F0125B16FAEAB50703022687901032E005
:10265E00FAA3E0FBA3E0FC8A828B838CF0125B165C
:10266E00FAA3125B16FBA3125B16FC901032EAF073
:10267E00EBA3F0ECA3F00225F5901032E0FDA3E001
:10268E00FEA3E0FF8D828E838FF022AFF0AE83E546
:10269E0082901035F0EEA3F0EFA3F0901035E0FD30
:1026AE00A3E0FEA3E0FFED4E70030226DD90103591
:1026BE00E0FDA3E0FEA3E0FF74072DFD74003EFED7
:1026CE008D828E838FF074001259AAA31259AA22FA
:1026DE00E58290103EF0C390103EE0FF901038E07F
:1026EE00FDA3E0FE90103AE0F9A3E0FAA3E0FBA30D
:1026FE00E0FC901022EDF0EEA3F0901024E9F0EA49
:10270E00A3F0EBA3F0ECA3F08F821223A3AD82AE65
:10271E0083AFF0ED4E700302272D7F0002272F7F2F
:10272E00088F8222E582901045F0901046A2AFE409
:10273E0033F0C2AF901045E0FF90103FE0FDA3E0F4
:10274E00FE901041E0F9A3E0FAA3E0FBA3E0FC90B9
:10275E001022EDF0EEA3F0901024E9F0EAA3F0EBD6
:10276E00A3F0ECA3F08F821223A3AD82AE83AFF061
:10277E00901047EDF0EEA3F0EFA3F0ED4E700302D4
:10278E0027CA901047E0FDA3E0FEA3E0FF740A2DD8
:10279E00FD74003EFE901041E0F9A3E0FAA3E0FBC9
:1027AE00A3E0FC8D828E838FF0E91259AAA3EA1260
:1027BE0059AAA3EB1259AAA3EC1259AA901046E0FB
:1027CE00FFEF24FF92AF901047E0FDA3E0FEA3E0E1
:1027DE00FFED4E70030227EB7F000227ED7F088F7F
:1027EE008222E58290104CF090104DA2AFE433F0AF
:1027FE00C2AF90104CE0FF90104AE0FDA3E0FE90B7
:10280E00102FEDF0EEA3F08F821225CCAD82AE83A9
:10281E00AFF090104EEDF0EEA3F0EFA3F0ED4E7092
:10282E000302284690104EE0FDA3E0FEA3E0FF8DCC
:10283E00828E838FF012269990104DE0FFEF24FFC9
:10284E0092AF90104EE0FDA3E0FEA3E0FFED4E70C0
:10285E00030228677F000228697F068F8222E582A5
:10286E00901053F09010557400F0A3F0A3F0A3F065
:10287E00901054A2AFE433F0C2AF901053E0FF902B
:10288E001051E0FDA3E0FE90102FEDF0EEA3F08FBF
:10289E00821225CCAD82AE83AFF0901059EDF0EEE2
:1028AE00A3F0EFA3F0ED4E70030228F4901059E060
:1028BE00FDA3E0FEA3E0FF74032DFD74003EFE8D2C
:1028CE00828E838FF0125B16FDA3125B16FEA3128F
:1028DE005B16FFA3125B16FC901055EDF0EEA3F005
:1028EE00EFA3F0ECA3F0901054E0FFEF24FF92AFB3
:1028FE00901055E0FCA3E0FDA3E0FEA3E0FF8C8268
:10290E008D838EF0EF2290105D7400F090105CA21B
:10291E00AFE433F0C2AF90101BE0FDA3E0FEA3E0E6
:10292E00FF90105EEDF0EEA3F0EFA3F090105DE0DF
:10293E00FF90105EE0FCA3E0FDA3E0FEEC4D700303
:10294E0002297F0F90105EE0FCA3E0FDA3E0FE8C59
:10295E00828D838EF0125B16FCA3125B16FDA31202
:10296E005B16FE90105EECF0EDA3F0EEA3F00229E4
:10297E003F90105DEFF090105CE0FFEF24FF92AF00
:10298E0090105DE0FF8F8222AF82AE83ADF0FC909F
:10299E001061EFF0EEA3F0EDA3F0ECA3F090106158
:1029AE00E0FCA3E0FDA3E0FEA3E0FF90106BECF0D3
:1029BE00EDA3F0EEA3F0EFA3F090101EE0F8A3E06D
:1029CE00F9A3E0FAA3E0FB90101EEC28F0ED39A37A
:1029DE00F0EE3AA3F0EF3BA3F090101BE0FDA3E066
:1029EE00FEA3E0FFED4E7003022FCF90101BE0FD13
:1029FE00A3E0FEA3E0FF901065EDF0EEA3F0EFA3D1
:102A0E00F09010687400F0A3F0A3F0901065E0FD54
:102A1E00A3E0FEA3E0FFED4E7003022FCF90106FE8
:102A2E007400F0A3F0A3F090106DE0FEA3E0FFEEB3
:102A3E004F6003022B8A90106CE06003022B8A9089
:102A4E001065E0FDA3E0FEA3E0FF74032DFD74000E
:102A5E003EFE8D828E838FF0125B16FD90106BE022
:102A6E00FFC3ED9F5003022AAA901065E0FDA3E07C
:102A7E00FEA3E0FF74032DFD74003EFE90106BE08C
:102A8E00FC8D828E838FF0125B16FBEBC39CFC8D4C
:102A9E00828E838FF0EC1259AA022C67901065E09B
:102AAE00FDA3E0FEA3E0FF74032DFD74003EFE8D3A
:102ABE00828E838FF0125B16FDA3125B16FEA3129D
:102ACE005B16FFA3125B16FC90106BE0F8A3E0F907
:102ADE00A3E0FAA3E0FBC3E89DE99EEA9FEB9C40CE
:102AEE0003022B5D901065E0FDA3E0FEA3E0FF74F2
:102AFE00032DFD74003EFE8D828E838FF0125B16C9
:102B0E00F513A3125B16F514A3125B16F515A3129B
:102B1E005B16F51690106BE0F8A3E0FAA3E0FBA3AA
:102B2E00E0FCE513C398F8E5149AFAE5159BFBE56E
:102B3E00169CFC8D828E838FF0E81259AAA3EA129E
:102B4E0059AAA3EB1259AAA3EC1259AA022C679008
:102B5E001065E0FDA3E0FEA3E0FF74032DFD7400FD
:102B6E003EFE8D828E838FF074001259AAA31259E5
:102B7E00AAA31259AAA31259AA022C67901065E0B3
:102B8E00FDA3E0FEA3E0FF74032DFD74003EFE8D59
:102B9E00828E838FF0125B16FDA3125B16FEA312BC
:102BAE005B16FFA3125B16FC90106BE0F8A3E0F926
:102BBE00A3E0FAA3E0FBC3E89DE99EEA9FEB9C40ED
:102BCE0003022C3D901065E0FDA3E0FEA3E0FF7430
:102BDE00032DFD74003EFE8D828E838FF0125B16E8
:102BEE00F513A3125B16F514A3125B16F515A312BB
:102BFE005B16F51690106BE0F8A3E0FAA3E0FBA3CA
:102C0E00E0FCE513C398F8E5149AFAE5159BFBE58D
:102C1E00169CFC8D828E838FF0E81259AAA3EA12BD
:102C2E0059AAA3EB1259AAA3EC1259AA022C679027
:102C3E001065E0FDA3E0FEA3E0FF74032DFD74001C
:102C4E003EFE8D828E838FF074001259AAA3125904
:102C5E00AAA31259AAA31259AA901065E0FDA3E0E7
:102C6E00FEA3E0FF74032DFD74003EFE8D828E8365
:102C7E008FF0125B16FDA3125B16FEED4E60030283
:102C8E002DAC901065E0FDA3E0FEA3E0FF74052DD2
:102C9E00FD74003EFE8D828E838FF0125B16FDA3B7
:102CAE00125B16FEED4E6003022DAC901065E0FD3A
:102CBE00A3E0FEA3E0FF740A2DFD74003EFE8D829C
:102CCE008E838FF0125B16FDA3125B16FEA3125BB2
:102CDE0016FFA3125B16FCED4E4F4C7003022DAC8B
:102CEE00901065E0FDA3E0FEA3E0FF74072DFD74D8
:102CFE00003EFE8D828E838FF0125B16FDA3125B5B
:102D0E0016FEED4E7003022DAC901065E0FDA3E0B3
:102D1E00FEA3E0FF74092DFA74003EFB8F048A8235
:102D2E008B838CF0125B16FA74072DF974003EFB40
:102D3E008F0489828B838CF0125B16F9A3125B16BB
:102D4E00FB9003C6E9F0EBA3F08A82C007C006C071
:102D5E0005121962D005D006D00774032DFA74003F
:102D6E003EFB8F04740A2DFD74003EFE8D828E8311
:102D7E008FF0125B16F9A3125B16FDA3125B16FE03
:102D8E00A3125B16FF8A828B838CF0E91259AAA3D9
:102D9E00ED1259AAA3EE1259AAA3EF1259AA901036
:102DAE0065E0FDA3E0FEA3E0FF74032DFD74003E7D
:102DBE00FE8D828E838FF0125B16FDA3125B16FEC4
:102DCE00ED4E6003022DFE901065E0FDA3E0FEA324
:102DDE00E0FF74052DFD74003EFE8D828E838FF014
:102DEE00125B16FDA3125B16FEED4E7003022E272C
:102DFE00901065E0FDA3E0FEA3E0FF74072DFD74C7
:102E0E00003EFE8D828E838FF0125B16FDA3125B49
:102E1E0016FEED4E6003022EDC901068E0FDA3E07E
:102E2E00FEA3E0FFED4E6003022E66901065E0FDFE
:102E3E00A3E0FEA3E0FF8D828E838FF0125B16FD62
:102E4E00A3125B16FEA3125B16FF90101BEDF0EEA5
:102E5E00A3F0EFA3F0022EA4901068E0FDA3E0FE15
:102E6E00A3E0FF901065E0FAA3E0FBA3E0FC8A82EA
:102E7E008B838CF0125B16FAA3125B16FBA3125B0C
:102E8E0016FC8D828E838FF0EA1259AAA3EB12598B
:102E9E00AAA3EC1259AA901065E0FDA3E0FEA3E0F0
:102EAE00FF90106FEDF0EEA3F0EFA3F08D828E8306
:102EBE008FF0125B16FDA3125B16FEA3125B16FFBC
:102ECE00901065EDF0EEA3F0EFA3F0022F1190102D
:102EDE0065E0FDA3E0FEA3E0FF901068EDF0EEA329
:102EEE00F0EFA3F08D828E838FF0125B16FDA3128E
:102EFE005B16FEA3125B16FF901065EDF0EEA3F0CD
:102F0E00EFA3F090106FE0FDA3E0FEA3E0FFED4E07
:102F1E007003022A1990106FE0FDA3E0FEA3E0FFFC
:102F2E0074032DFD74003EFE8D828E838FF0125B36
:102F3E0016FDA3125B16FEED4E6003022FB8901025
:102F4E006FE0FDA3E0FEA3E0FF74052DFD74003ECF
:102F5E00FE8D828E838FF0125B16FDA3125B16FE22
:102F6E00ED4E6003022FB890106FE0FDA3E0FEA3BC
:102F7E00E0FF74092DFA74003EFB8F048A828B8366
:102F8E008CF0125B16FA74072DFD74003EFE8D82D6
:102F9E008E838FF0125B16FDA3125B16FE9003C696
:102FAE00EDF0EEA3F08A8212196290106FE0FDA38D
:102FBE00E0FEA3E0FF8D828E838FF0122300022AA3
:102FCE00192290101EE0FCA3E0FDA3E0FEA3E0FF9B
:102FDE008C828D838EF0EF22905B42E493FFEF752F
:102FEE00F002A4FFAEF08F828E83121FB4AD82AEBC
:102FFE0083AFF0901072EDF0EEA3F0EFA3F0905BC4
:10300E0042E493FCEC75F002A4FCABF0900339742F
:10301E0000F090033AECF0EBA3F08D828E838FF0EC
:10302E0012068D758200124870758201124EFE7561
:0C303E008202121DFE758203123E7E22EB
:0B5B3800E248224F4F1EA33E933F05A2
:1000BE009010757400F0A3F0901077F0A3F09010EC
:0E00CE0079F0A3F090107BF0A3F0A3F0A3F064
:10304A00AEA27F00ACA37D008C057C00EC2EFEEDC9
:10305A003FFF8E828F83229010837400F0A3F012B8
:10306A00304AAE82AF8390107FEEF0EFA3F090105B
:10307A0075E0FCA3E0FDEEB50407EFB505030231E8
:10308A008F901075E0FEA3E0FF90107FE0FCA3E0B4
:10309A00FD901081ECC39EF0ED9FA3F0901075ECAB
:1030AA00F0EDA3F0901081E0FEA3E0FF901083E022
:1030BA00FCA3E0FDC374319E74339F40030230F1D8
:1030CA00EE24CFFEEF34CCFF74FE2CFC741F3DFDC2
:1030DA00901077E0FAA3E0FB90107774052AF07459
:1030EA00003BA3F00230BE901081EEF0EFA3F09007
:1030FA001083ECF0EDA3F0901081E0FEA3E0FF90C6
:10310A001226EEF0EFA3F07582057583001259C5F9
:10311A00AE82AF83901077E0FCA3E0FDEC2EFEEDCB
:10312A003FFF8E04EFC423CCC423541F6CCC541F1E
:10313A00CC6CCCFD901083E0FAA3E0FB901083ECFA
:10314A002AF0ED3BA3F090107774075EF07400A3A9
:10315A00F0901083E0FEA3E0FFEE4F700302318F80
:10316A00901083E0FEA3E0FF8E828F83C007C00623
:10317A00123190D006D0077D007C008E828F838D1D
:10318A00F0EC12299622AF83E582901085F0EFA326
:10319A00F0901085E0FEA3E0FF901079E0FCA3E038
:1031AA00FD901079EE2CF0EF3DA3F0901079E0FE3F
:1031BA00A3E0FFC3EE94E8EF9403500302323C907D
:1031CA001079E0FEA3E0FF9011EE74E8F07403A317
:1031DA00F08E828F83C007C006125404AC82AD837E
:1031EA00D006D00790107BE0F521A3E0F522A3E0FA
:1031FA00F523A3E0F5248C028D037C007D0090105A
:10320A007BEA2521F0EB3522A3F0EC3523A3F0ED80
:10321A003524A3F090122C74E8F07403A3F08E8284
:10322A008F83125A51E5828583F0901079F0E5F088
:10323A00A3F022AF82AE83ADF0FC901087EFF0EEE0
:10324A00A3F0EDA3F0ECA3F0901087E0FCA3E0FD5F
:10325A00A3E0FEA3E0FF90107BECF0EDA3F0EEA359
:10326A00F0EFA3F02290107BE0FCA3E0FDA3E0FEC8
:10327A00A3E0FF8C828D838EF0EF22AFF0AE83E560
:10328A008290108FF0EEA3F0EFA3F090108BE0F590
:10329A0025A3E0F526A3E0F527A3E0F5289011F48D
:1032AA007480F07451A3F07401A3F07400A3F08544
:1032BA0025828526838527F0E52812549E85822952
:1032CA0085832A85F02BF52C90108FE0FDA3E0FE74
:1032DA00A3E0FF9011F4743CF07400A3F0A3F0A3F0
:1032EA00F0852982852A83852BF0E52CC007C00644
:1032FA00C00512549EA982AA83ABF0FCD005D00661
:10330A00D0078D828E838FF0E91259AA74012DF5A8
:10331A002D74003EF52E8F2F9011F47410F0740E58
:10332A00A3F07400A3F0A3F0852982852A83852B54
:10333A00F0E52CC007C006C00512549EA882A983D6
:10334A00ABF0FCD005D006D007901203743CF074A1
:10335A0000A3F0A3F0A3F0888289838BF0ECC00766
:10336A00C006C005125638A982AA83ABF0FCD00564
:10337A00D006D007852D82852E83852FF0E9125934
:10338A00AA74022DF52D74003EF52E8F2F9012038C
:10339A007410F0740EA3F07400A3F0A3F0852982D0
:1033AA00852A83852BF0E52CC007C006C005125676
:1033BA0038A882A983ABF0FCD005D006D007852DAA
:1033CA0082852E83852FF0E81259AA901203748001
:1033DA00F07451A3F07401A3F07400A3F085258260
:1033EA008526838527F0E528C007C006C005125642
:1033FA0038A982AA83ABF0FCD005D006D00790107A
:10340A0092E9F0EAA3F074052DFD74003EFE8D8268
:10341A008E838FF074D01259AAA374071259AA90F6
:10342A00108FE0FDA3E0FEA3E0FF74052DFD7400FC
:10343A003EFE8D828E838FF0125B16FBA3125B1603
:10344A00FC90122C7490F07401A3F08B828C83C0D0
:10345A0007C006C005125A51AB82AC83D005D0060C
:10346A00D007EB4CB40100E433FBEB60030234D425
:10347A008D828E838FF0125B16FBA3125B16FC9073
:10348A00122C7464F07400A3F08B828C83C007C082
:10349A0006C005125A51E5828583F0D005D006D0C0
:1034AA000745F070030234DB8D828E838FF0125B46
:1034BA0016FBA3125B16FC5303037C00EB4CB4010E
:1034CA0000E433FBEB70030234DB7B6E7C010234D5
:1034DA00DF7B6D7C01901092E0F9A3E0FAC3E99BCF
:1034EA00EA9C50030235CD8D828E838FF0125B16D3
:1034FA00FBA3125B16FC90122C7490F07401A3F0DB
:10350A008B828C83C007C006C005125A51AB82ACAD
:10351A0083D005D006D007EB4CB40100E433FBEBB3
:10352A0060030235898D828E838FF0125B16FBA3AE
:10353A00125B16FC90122C7464F07400A3F08B8258
:10354A008C83C007C006C005125A51E5828583F0F4
:10355A00D005D006D00745F070030235908D828ED3
:10356A00838FF0125B16FBA3125B16FC5303037CDA
:10357A0000EB4CB40100E433FBEB70030235907BA3
:10358A006E7C010235947B6D7C01901092E0F9A368
:10359A00E0FA901092E9C39BF0EA9CA3F08D828E28
:1035AA00838FF0125B16FBA3125B16FC0BBB0001A8
:1035BA000C8D828E838FF0EB1259AAA3EC1259AAB2
:1035CA0002343C90108FE0FDA3E0FEA3E0FF7404F8
:1035DA002DFD74003EFE8D828E838FF07400125989
:1035EA00AA90108FE0FDA3E0FEA3E0FF74052DFA78
:1035FA0074003EFB8F0474042DFD74003EFE8A8223
:10360A008B838CF0125B16F8A3125B16F990122CBE
:10361A007490F07401A3F088828983C007C006C041
:10362A0005C004C003C002125A51A882A983D0025D
:10363A00D003D004D005D006D007E849B40100E48D
:10364A0033F8E860030236BD8A828B838CF0125B02
:10365A0016F8A3125B16F990122C7464F07400A386
:10366A00F088828983C007C006C005C004C003C0B1
:10367A0002125A51E5828583F0D002D003D004D0D9
:10368A0005D006D00745F070030236B88A828B83CC
:10369A008CF0125B16F8A3125B16F953000379003B
:1036AA00E849B40100E433F8E860030236BD790062
:1036BA000236BF7901C002C003C0048D828E838F97
:1036CA00F0125B16F8901094E8F08982C007C006E1
:1036DA00C005C004C003C002123853A982D002D068
:1036EA0003D004D005D006D007901092E0F8A3E0EA
:1036FA00FC7B00C3E899EC9BD004D003D0025003B2
:10370A0002382D8A828B838CF0125B16F8A3125B27
:10371A0016F990122C7490F07401A3F088828983B0
:10372A00C007C006C005C004C003C002125A51A88F
:10373A0082A983D002D003D004D005D006D007E8EE
:10374A0049B40100E433F8E860030237C28A828B85
:10375A00838CF0125B16F8A3125B16F990122C7484
:10376A0064F07400A3F088828983C007C006C0058C
:10377A00C004C003C002125A51E5828583F0D00208
:10378A00D003D004D005D006D00745F07003023725
:10379A00BD8A828B838CF0125B16F8A3125B16F932
:1037AA005300037900E849B40100E433F8E8600300
:1037BA000237C279000237C47901C002C003C004CB
:1037CA008D828E838FF0125B16F8901094E8F08940
:1037DA0082C007C006C005C004C003C00212385325
:1037EA00A982D002D003D004D005D006D007890020
:1037FA007900901092E0FBA3E0FC901092EBC39842
:10380A00F0EC99A3F08D828E838FF0125B16FC0C7C
:10381A008D828E838FF0EC1259AAD004D003D00285
:10382A0002360890108FE0FDA3E0FEA3E0FF7403C8
:10383A002DFD74003EFE901092E0FBA3E0FC8D8209
:10384A008E838FF0EB1259AA22E582901095F090A0
:10385A001096741FF0901094E0FFBF0102800302DB
:10386A00387B901095E0FF901096741C2FF0023868
:10387A00A1901094E0FFC374069F400302388F9012
:10388A001094E014F0901094E0FFEF20E003023867
:10389A00A1901096741EF0901096E0FF8F8222AFCE
:1038AA00F0AE83E582901097F0EEA3F0EFA3F090CC
:1038BA001097E0FDA3E0FEA3E0FF74022DFA740066
:1038CA003EFB8F048A828B838CF0125B16FA90126D
:1038DA0028EAF07400A3F0A3F0A3F075823C758384
:1038EA000075F0007400C007C006C0051259E585CE
:1038FA00823085833185F032F533D005D006D00782
:10390A0074012DF874003EFB8F0488828B838CF03F
:10391A00125B16F87C007B007A00901228E82530AA
:10392A00F0EC3531A3F0EB3532A3F0EA3533A3F0EE
:10393A0075823C75830075F0007400C007C006C02C
:10394A00051259E585823085833185F032F533D009
:10395A0005D006D0078D828E838FF0125B16F87A17
:10396A00007B007C0090109AE82530F0EA3531A3FC
:10397A00F0EB3532A3F0EC3533A3F074032DFA746F
:10398A00003EFB8F048A828B838CF0125B16FA90BE
:10399A00109EEAF07400A3F074042DFD74003EFE3C
:1039AA008D828E838FF0125B16FD9010A0EDF09041
:1039BA001097E0FDA3E0FEA3E0FF74052DFD74005F
:1039CA003EFE9010A0E0FC1CEC30E703023AB38DF7
:1039DA00828E838FF0125B16FAA3125B16FB90128B
:1039EA002C7490F07401A3F08A828B83C007C006FE
:1039FA00C005C004125A51AA82AB83D004D005D0A4
:103A0A0006D007EA4BB40100E433FAEA6003023A4B
:103A1A007E8D828E838FF0125B16FAA3125B16FBE1
:103A2A0090122C7464F07400A3F08A828B83C0070E
:103A3A00C006C005C004125A51E5828583F0D0043D
:103A4A00D005D006D00745F07003023A798D828EF0
:103A5A00838FF0125B16FAA3125B16FB5302037BE9
:103A6A0000EA4BB40100E433FAEA6003023A7E7BCF
:103A7A0000023A807B01901094ECF08B82C007C060
:103A8A0006C005C004123853AB82D004D005D00654
:103A9A00D0077A0090109EE0F8A3E0F990109EEB10
:103AAA0028F0EA39A3F00239D1901097E0FDA3E09B
:103ABA00FEA3E0FF74052DFD74003EFE8D828E8309
:103ACA008FF0125B16FDA3125B16FE9010A1EDF0AB
:103ADA00EEA3F09010A1E0FEA3E0FF1EBEFF011FBF
:103AEA00C3EE94D0EF94075003023B7A90122C74E1
:103AFA0090F07401A3F08E828F83C007C006125A19
:103B0A0051AC82AD83D006D007EC4DB40100E4334A
:103B1A00FCEC6003023B5A90122C7464F07400A30C
:103B2A00F08E828F83C007C006125A51E5828583C0
:103B3A00F0D006D00745F07003023B6174035EFCC7
:103B4A007D00EC4DB40100E433FCEC7003023B61F0
:103B5A007C6E7D01023B657C6D7D0190109EE0FAD2
:103B6A00A3E0FB90109EEC2AF0ED3BA3F0023AE5AD
:103B7A0090109EE0FEA3E0FF901228EEF0EFA3F073
:103B8A007400A3F0A3F075828075835175F00174F7
:103B9A00001259E5AC82AD83AEF0FF90109AE0F8BE
:103BAA00A3E0F9A3E0FAA3E0FB90109AEC28F0ED69
:103BBA0039A3F0EE3AA3F0EF3BA3F090109AE0FCA1
:103BCA00A3E0FDA3E0FEA3E0FF8C828D838EF0EFDD
:103BDA002275C60022AF83E5829010A3F0EFA3F00E
:103BEA00AFF174FE5FF5F143F30C4386C09010A366
:103BFA00E0FEA3E0FFBE0006BF0003023C2FBE01A9
:103C0A0006BF0003023C38BE0206BF0003023C4165
:103C1A00BE0306BF0003023C4ABE0406BF000302FD
:103C2A003C53023C5943C50875C23B023C5943C543
:103C3A000975C23B023C5943C50A75C23B023C594D
:103C4A0043C50A75C2D8023C5943C50B75C2D8226E
:103C5A00E5829010A5F0E0F5C1E58630E003023C6C
:103C6A0063E58620E103023C63AF8674FD5FF58657
:103C7A0022AFF0AE83E5829010A6F0EEA3F0EFA398
:103C8A00F0E58630E003023C8BE58620E203023C45
:103C9A008B9010A6E0FDA3E0FEA3E0FF8D828E8349
:103CAA008FF0E5C11259AA22AFF0AE83E5829010D7
:103CBA00A9F0EEA3F0EFA3F09010A9E0FDA3E0FEB7
:103CCA00A3E0FF8D828E838FF0125B167003023D94
:103CDA00098D828E838FF0125B16FCA3AD82AE83B0
:103CEA009010A9EDF0EEA3F0EFA3F08C82C007C00C
:103CFA0006C005123C5AD005D006D007023CCD902A
:103D0A0010A9EDF0EEA3F0EFA3F022AFF0AE83E539
:103D1A00829010ACF0EEA3F0EFA3F09010ACE0FDAF
:103D2A00A3E0FEA3E0FF8D828E838FF0C007C0065A
:103D3A00C005123C7BD005D006D0078D828E838FBA
:103D4A00F0125B16FCA3AD82AE839010ACEDF0EEE0
:103D5A00A3F0EFA3F0BC0D028003023D309010AC3B
:103D6A00EDF0EEA3F0EFA3F022AF83E5829010AF5F
:103D7A00F0EFA3F0758230123C5A758258123C5A01
:103D8A009010AFE0FEA3E0FF7C0074F05FFDEDC48D
:103D9A00540FFC7D008C82C007C006123E36AD82ED
:103DAA00D006D0078D82C007C006123C5AD006D072
:103DBA00077C00740F5FFD8D048C82C007C0061259
:103DCA003E36AD82D006D0078D82C007C006123CAF
:103DDA005AD006D00774F05EFC7D00EDC4CCC45402
:103DEA000F6CCC540FCC6CCCFD8C82C007C0061271
:103DFA003E36AD82D006D0078D82C007C006123C7F
:103E0A005AD006D007740F5EFC7D008C82C007C0B2
:103E1A0006123E36AD82D006D0078D82C007C00694
:103E2A00123C5AD006D0078E828F8322E5829010E8
:103E3A00B1F0E0FFC374099F5003023E559010B1E0
:103E4A00E0FF74302FFF8F82023E7D9010B1E0FFB9
:103E5A00BF0A005003023E7A9010B1E0FFC3740F0C
:103E6A009F5003023E7A9010B1E0FF8F82023E7D9E
:043E7A007582FF222C
:0600DC009010B37400F067
:103E7E00E5829010B6F0E0FF9010B2EFF0125356BC
:103E8E009010B2E0FF9003C67401F07400A3F08F9F
:103E9E008212196222C01D85811DE51D24FCF8E6E3
:103EAE0020E003023EEB9010B2E0FF901038740257
:103EBE00F07400A3F090103A7488F07413A3F074A9
:103ECE0000A3F0A3F08F821226DEE51D24FCF87409
:103EDE000166FE0886078E828F83023F37E51D241A
:103EEE00FCF8E620E103023F319010B2E0FF9010A3
:103EFE00387402F07400A3F090103A7488F07413C2
:103F0E00A3F07400A3F0A3F08F821226DE123F3AC4
:103F1E00E51D24FCF8740266FE0886078E828F83E8
:103F2E00023F37758200758300D01D229010B3E0DA
:103F3E00FFBF01028003023F5F9010B37400F09048
:103F4E0010B704F0A2809010B7E024FF9280023FD9
:103F5E00759010B37401F09010B77400F0A28090B9
:083F6E0010B7E024FF9280224D
:0600E2009010B97400F05B
:103F7600E5829010BAF0E0FF9010B8EFF09003C61B
:103F86007401F07400A3F08F8212196222C01D859D
:103F9600811DE51D24FCF8E620E003023FDB9010BE
:103FA600B8E0FF9010387402F07400A3F090103A55
:103FB60074A0F0740FA3F07400A3F0A3F08F821224
:103FC60026DEE51D24FCF8740166FE0886078E824F
:103FD6008F83024027E51D24FCF8E620E10302401A
:103FE600219010B8E0FF9010387402F07400A3F02E
:103FF60090103A74A0F0740FA3F07400A3F0A3F02D
:104006008F821226DE12402AE51D24FCF874026611
:10401600FE0886078E828F8302402775820075838D
:1040260000D01D228590A09010B9E0FFBF0102804C
:10403600030240529010B97400F09010BB04F0A235
:10404600819010BBE024FF92810240689010B97401
:1040560001F09010BB7400F0A2819010BBE024FF29
:10406600928122AFF0AE83E5829010BDF0EEA3F010
:10407600EFA3F09010C07400F0A3F0A3F09010BC72
:10408600E0FFBF020280030242E89010BDE0FDA3FC
:10409600E0FEA3E0FF8D828E838FF0125B16FC7B21
:1040A600000DBD00010E8D828E838FF0125B16FD12
:1040B6007F008D077D00ED2CFCEF3BFB8C068B070C
:1040C600BC0006BB1803024186BE0106BF180302E8
:1040D6004197BE0006BF28030241A8BE0106BF28BD
:1040E600030241B9BE0206BF28030241CABE030647
:1040F600BF28030241DBBE0006BF29030241ECBE16
:104106000106BF29030241FDBE0206BF2903024282
:104116000EBE0306BF290302421FBE0406BF2903C3
:10412600024230BE0506BF2903024241BE0606BF53
:104136002903024252BE0706BF2903024263BE0894
:1041460006BF2903024274BE0006BF2A0302428547
:10415600BE0106BF2A03024296BE0206BF2A03021A
:1041660042B8BE0306BF2A030242A7BE0406BF2A00
:10417600030242C9BE0506BF2A030242DA0242E82A
:104186009010C07443F0745BA3F07480A3F00242F5
:10419600E89010C07445F0745BA3F07480A3F0023D
:1041A60042E89010C0744BF0745BA3F07480A3F0E7
:1041B6000242E89010C0744DF0745BA3F07480A3C3
:1041C600F00242E89010C0744FF0745BA3F0748064
:1041D600A3F00242E89010C07451F0745BA3F0742F
:1041E60080A3F00242E89010C07453F0745BA3F011
:1041F6007480A3F00242E89010C07455F0745BA37B
:10420600F07480A3F00242E89010C07457F0745B1B
:10421600A3F07480A3F00242E89010C07459F074C1
:104226005BA3F07480A3F00242E89010C0745BF0C8
:10423600745BA3F07480A3F00242E89010C0745D32
:10424600F0745BA3F07480A3F00242E89010C0748F
:1042560071F0745BA3F07480A3F00242E89010C082
:104266007473F0745BA3F07480A3F00242E89010BC
:10427600C07475F0745BA3F07480A3F00242E890FA
:1042860010C0745FF0745BA3F07480A3F00242E880
:104296009010C07461F0745BA3F07480A3F00242C6
:1042A600E89010C07465F0745BA3F07480A3F0020C
:1042B60042E89010C07463F0745BA3F07480A3F0BE
:1042C6000242E89010C07467F0745BA3F07480A398
:1042D600F00242E89010C07469F0745BA3F0748039
:1042E600A3F09010C0E0FDA3E0FEA3E0FF8D828E58
:0442F600838FF022A0
:105B43000018011805A006A0002801280228032830
:105B5300002901290229032904290529002A012AE8
:105B6300022A032A042A052A08B009B00AB0062922
:045B730007290829CD
:1000E8009010F07401F09010F174B8F0740BA3F054
:1000F8009010F37403F09010F414F09010F514F0CD
:100108009010F67406F09010F77400F09010F8F064
:100118009010F9F09010FAF09010FBF09010FCF0AD
:100128009010FDF09010FEF09010FFF0901100F08C
:10013800901101F0901102F0901103F0901104F069
:10014800901105F0901106F0901107F0901108F049
:10015800901109F090110AF090110BF090110CF029
:1001680090110DF090110EF090110FF0901110F009
:10017800901111F0901112F0901113F0901114F0E9
:10018800901135F090113DF0A3F090113FF0A3F0DD
:10019800A3F0901142F0901148F09011497406F0C4
:1001A8007400A3F090114B7480F0740CA3F09011BC
:1001B8004D7400F0A3F090114F74E8F07403A3F0AD
:1001C8009011517400F0A3F0901153F0A3F0901126
:0801D80055F0A3F0901157F05F
:1042FA00AF83E58290115CF0EFA3F090115E740039
:10430A00F090115CE0FEA3E0FFBE0505BF0302804A
:10431A00030243D8901158E0FFBF01028003024311
:10432A00CF9010F0E0FF90115FEFF0901159E0FD8F
:10433A00A3E0FEA3E0FF8D828E838FF0125B16FD51
:10434A009010F0EDF090115FE0FFEF700302437FF1
:10435A009010F0E0FFEF600302437F9010C4E0FF8B
:10436A00BF020280030243DE9010C3E0FF8F821275
:10437A004AFA0243DE90115FE0FFEF60030243DE78
:10438A009010F0E0FFEF70030243DE9010C4E0FFEC
:10439A00BF01030243B89010C4E0FFBF0303024306
:1043AA00B89010C4E0FFBF040280030243DE9010FD
:1043BA00C3E0FF9003C67401F07400A3F08F821269
:1043CA0019620243DE90115E7418F00243DE901106
:1043DA005E7402F090115EE0FF8F8222AF83E58265
:1043EA00901163F0EFA3F09011657400F0901163DF
:1043FA00E0FEA3E0FFC3EF940350030247FEC37439
:10440A00189E74039F50030247FEEE240A83F58226
:10441A00EE241D83F583E4735471A0CF04335075E1
:10442A00A9DDFA1746638083A8CCF1163B608FB4E6
:10443A00D94444444445454545454545464646468E
:10444A0046464646474747474747901160E0FDA31F
:10445A00E0FEA3E0FF9010C5E0FC8D828E838FF012
:10446A00EC1259AA024818901160E0FDA3E0FEA3DD
:10447A00E0FF90030774C6F07410A3F07400A3F071
:10448A0090030A7410F07400A3F08D828E838FF06B
:10449A00120400024818901160E0FDA3E0FEA3E0B8
:1044AA00FF90030774D6F07410A3F07400A3F09081
:1044BA00030A7410F07400A3F08D828E838FF012B9
:1044CA000400024818901160E0FDA3E0FEA3E0FF9B
:1044DA009010E6E0F9A3E0FAA3E0FBA3E0FC8D82EA
:1044EA008E838FF0E91259AAA3EA1259AAA3EB12F2
:1044FA0059AAA3EC1259AA024818901160E0FDA328
:10450A00E0FEA3E0FF90030774EAF07410A3F074CE
:10451A0000A3F090030A7406F07400A3F08D828E53
:10452A00838FF0120400024818901160E0FDA3E0A6
:10453A00FEA3E0FF9010F0E0FC8D828E838FF0ECFA
:10454A001259AA024818901160E0FDA3E0FEA3E008
:10455A00FF9010F1E0FBA3E0FC8D828E838FF0EBDD
:10456A001259AAA3EC1259AA024818901160E0FD48
:10457A00A3E0FEA3E0FF9010F3E0FC7B00900307AA
:10458A0074F4F07410A3F07400A3F090030AECF032
:10459A00EBA3F08D828E838FF012040002481890EC
:1045AA001160E0FDA3E0FEA3E0FF901113E0FC7BA5
:1045BA00009003077414F07411A3F07400A3F09030
:1045CA00030AECF0EBA3F08D828E838FF0120400C5
:1045DA00024818901160E0FDA3E0FEA3E0FF9011ED
:1045EA0033E0FC8D828E838FF0EC1259AA024818B0
:1045FA00901160E0FDA3E0FEA3E0FF901134E0FC1F
:10460A008D828E838FF0EC1259AA0248189011609D
:10461A00E0FDA3E0FEA3E0FF9003077435F07411F8
:10462A00A3F07400A3F090030A7406F07400A3F0D8
:10463A008D828E838FF0120400024818901160E078
:10464A00FDA3E0FEA3E0FF90113BE0FC8D828E8388
:10465A008FF0EC1259AA024818901160E0FDA3E00D
:10466A00FEA3E0FF90113CE0FC8D828E838FF0EC7C
:10467A001259AA024818024818901160E0FDA3E0F6
:10468A00FEA3E0FF90113DE0FBA3E0FC8D828E8348
:10469A008FF0EB1259AAA3EC1259AA0248189011EA
:1046AA0060E0FDA3E0FEA3E0FF901148E0FC7B0080
:1046BA008D828E838FF0EC1259AAA3EB1259AA02AB
:1046CA004818901160E0FDA3E0FEA3E0FF901149B5
:1046DA00E0FBA3E0FC8D828E838FF0EB1259AAA334
:1046EA00EC1259AA024818901160E0FDA3E0FEA35B
:1046FA00E0FF90114BE0FBA3E0FC8D828E838FF0EC
:10470A00EB1259AAA3EC1259AA024818901160E0B8
:10471A00FDA3E0FEA3E0FF90114DE0FBA3E0FC8DBA
:10472A00828E838FF0EB1259AAA3EC1259AA02487F
:10473A0018901160E0FDA3E0FEA3E0FF90114FE0A6
:10474A00FBA3E0FC8D828E838FF0EB1259AAA3ECB7
:10475A001259AA024818901160E0FDA3E0FEA3E0F6
:10476A00FF9003077442F07411A3F07400A3F09051
:10477A00030A7406F07400A3F08D828E838FF01200
:10478A000400024818901160E0FDA3E0FEA3E0FFD8
:10479A00901151E0FBA3E0FC8D828E838FF0EB1227
:1047AA0059AAA3EC1259AA024818901160E0FDA375
:1047BA00E0FEA3E0FF901153E0FBA3E0FC8D828EA4
:1047CA00838FF0EB1259AAA3EC1259AA0248189047
:1047DA001160E0FDA3E0FEA3E0FF901155E0FBA30A
:1047EA00E0FC8D828E838FF0EB1259AAA3EC12594A
:1047FA00AA024818901163E0FEA3E0FFC3EE9424D6
:10480A00EF940050030248189011657402F0901159
:10481A0065E0FF8F8222AFF0AE83E582901166F0E9
:10482A00EEA3F0EFA3F09010C4E0FFEF600302489C
:10483A006C901166E0FDA3E0FEA3E0FFED4E70036D
:10484A00024863901166E0FDA3E0FEA3E0FF901129
:10485A003FEDF0EEA3F0EFA3F0124AE275820002F8
:10486A00486F75821122E582901169F0E0FF90107D
:10487A00C3EFF09010C47400F09010C57404F09067
:10488A0003397400F090033A7410F07400A3F075C1
:10489A0082C675831075F00012068D900339740074
:1048AA00F090033A7410F07400A3F07582D6758301
:1048BA001075F00012068D9010E67400F0A3F0A3B4
:1048CA00F0A3F0901133F0901134F090113B74077B
:1048DA00F090113C7400F022C01D85811DE58124F1
:1048EA000AF581E51D24FCF8E620E0030249FC9064
:1048FA0010F0E0FFEF70030249E9A91D0990113396
:10490A00E0FFA707AF1D0FEF04F9901134E0FEA7EF
:10491A000674022FFE7D007C409003077435F07404
:10492A0011A3F07400A3F090030A7406F07400A3B4
:10493A00F08E828D838CF0C007120400D0077408B1
:10494A002FF990113BE0FEA70674092FF990113C4C
:10495A00E0FEA7069010C3E0FE90116AEFF0740023
:10496A00A3F07440A3F08E82124AFEE5827003021D
:10497A0049E99010C47406F090113FE0FDA3E0FEEF
:10498A00A3E0FFED4E70030249E990113FE0FDA359
:10499A00E0FEA3E0FF8D828E838FF0125B16FDA3EB
:1049AA00125B16FEED4E70030249E990113FE0FDDD
:1049BA00A3E0FEA3E0FF8D828E838FF0125B16FDCB
:1049CA00A3125B16FE9010C4E0FFC006C005124990
:1049DA00DE0249E5C005C0068F8222D005D006E571
:1049EA001D24FCF8740166FE0886078E828F8302F6
:1049FA004A5BE51D24FCF8E620E303024A55124A05
:104A0A0061E5826003024A4275827775835B75F0BD
:104A1A0080123CB29010C3E0FF9010387408F07412
:104A2A0000A3F090103A742CF07401A3F07400A360
:104A3A00F0A3F08F821226DEE51D24FCF8740866C6
:104A4A00FE0886078E828F83024A5B758200758311
:104A5A0000851D81D01D22AF8EBF0103024A72BF9D
:104A6A000203024A95024AA49010C47401F09010FD
:104A7A00C3E0FF9003C67401F07400A3F08F8212A2
:104A8A00196275AA00758E00024AAA9010C47402AF
:104A9A00F075AA00758E00024AAA758200024AE1E0
:104AAA0090113FE0FDA3E0FEA3E0FF8D828E838F8D
:104ABA00F0125B16FDA3125B16FE9010C4E0FFC055
:104ACA0006C005124AD3024ADAC005C0068F8222FE
:104ADA00D005D0067582012275AA019010C3E0FFA5
:104AEA009003C67408F07400A3F08F821219622230
:104AFA007582002275AA029010C3E0FF9003C67463
:104B0A0008F07400A3F08F82121962758200227570
:034B1A00820022F4
:105B770047415020626C6520636B65636B65723DBE
:065B87003D3D3D0D0A004A
:1001E000901172740AF09011737400F0901174748D
:1001F00043F09011757468F09011767461F090116D
:10020000777472F09011787461F09011797463F0E2
:1002100090117A7474F090117B7465F090117C7475
:1002200072F090117D7469F090117E7473F09011EA
:100230007F04F09011807469F09011817463F090E4
:1002400011827420F09011837431F0901184740045
:10025000F0901185740AF09011867400F090118767
:100260007443F09011887468F09011897461F09073
:10027000118A7472F090118B7461F090118C746318
:10028000F090118D7474F090118E7465F090118F50
:100290007472F09011907469F09011917473F090F1
:1002A000119204F09011937469F09011947463F0BA
:1002B0009011957420F09011967432F0901197740B
:1002C00000F09011987402F0901199744BF0745BE7
:1002D000A3F07480A3F090119C23F090119D740002
:1002E000F0A3F090119F7499F0745BA3F07480A355
:1002F000F09011A27402F09011A37451F0745BA3FA
:10030000F07480A3F09011A623F09011A77400F070
:10031000A3F09011A97472F07411A3F07400A3F00B
:100320009011AC7402F09011AD7495F0745BA3F071
:100330007480A3F09011B07403F09011B17400F0C8
:10034000A3F09011B37473F07411A3F07400A3F0D0
:100350009011B67402F09011B77455F0745BA3F06D
:100360007480A3F09011BA23F09011BB7400F0A335
:10037000F09011BD7474F07411A3F07400A3F090A8
:1003800011C07402F09011C17497F0745BA3F07403
:1003900080A3F09011C47403F09011C57400F0A311
:0F03A000F09011C77486F07411A3F07400A3F0ED
:104B1D00AF82AE83ADF0FC9011CAEFF0EEA3F0EDD5
:104B2D00A3F0ECA3F09011CE7400F09011CAE0FC4C
:104B3D00A3E0FDA3E0FEA3E0FFEC20E003024B7732
:104B4D009011DB7405F07400A3F09011DD748DF0FD
:104B5D00745BA3F07480A3F075829875831175F062
:104B6D00001252A9E5829011CEF09011CEE0FF8F88
:104B7D008222C01D85811D7F00E51D24FBF8860462
:104B8D0008860508860674042CFC74003DFD8C8295
:104B9D008D838EF0125B16FCEC20E403024BB27594
:104BAD008208024D51E51D24F3F8E6084670030214
:104BBD004BC575820B024D51E51D24FBF88604088B
:104BCD0086050886068C828D838EF0125B16FCBCE2
:104BDD0002028003024D35E51D24FBF8860408868C
:104BED00050886060CBC00010D8C828D838EF0129B
:104BFD005B16FCA3125B16FDA3125B16FE8C828D59
:104C0D00838EF0125B16FB7A000CBC00010D8C82BA
:104C1D008D838EF0125B16FC7E008C067C00EC2BD7
:104C2D00FBEE3AFABBD106BADD03024C46BBD30606
:104C3D00BADD03024CAF024D18C007E51D24F5F88F
:104C4D0086040886050886068C828D838EF0740195
:104C5D001259AAE51D24F8F886040886050886066B
:104C6D00E51D24FBF8860208860308860774072ACB
:104C7D00FA74003BFB8A828B838FF0125B16FAA3CA
:104C8D00125B16FBA3125B16FF8A828B838FF012C9
:104C9D005B16FA8C828D838EF0EA1259AAD0070228
:104CAD004D4FC007E51D24F5F886040886050886D6
:104CBD00068C828D838EF074011259AAE51D24F89D
:104CCD00F88604088605088606E51D24FBF886028D
:104CDD0008860308860774072AFA74003BFB8A824C
:104CED008B838FF0125B16FAA3125B16FBA3125B7C
:104CFD0016FF8A828B838FF0125B16FA8C828D835E
:104D0D008EF0EA1259AAD007024D4FE51D24F5F891
:104D1D0086040886050886068C828D838EF07400C5
:104D2D001259AA7F0A024D4FE51D24F5F886040895
:104D3D0086050886068C828D838EF074001259AA22
:104D4D007F018F82D01D22C01D85811D05810581AA
:104D5D0005817F00E51D24FBF8860408860508867D
:104D6D000674042CFC74003DFD8C828D838EF01234
:104D7D005B16FCEC20E503024D8D758208024EF8A2
:104D8D00E51D24FBF886040886050886068C828DB1
:104D9D00838EF0125B16FCBC02028003024EF4E51A
:104DAD001D24FBF886040886050886060CBC000148
:104DBD000D8C828D838EF0125B16FCA3125B16FD9B
:104DCD00A3125B16FE8C828D838EF0125B16FB7A1E
:104DDD00000CBC00010D8C828D838EF0125B16FCD5
:104DED007E008C067C00EC2BFBEE3AFABB0206BA79
:104DFD002903024EF6BBD106BADD03024E17BBD313
:104E0D0006BADD03024E83024EEFEF6003024EF64B
:104E1D00C007E51D24FBF886040886050886067480
:104E2D00072CFC74003DFD8C828D838EF0A81D082F
:104E3D00125B16F6A3125B1608F6A3125B1608F6A4
:104E4D00E51D24F8F886020886030886078A828BFA
:104E5D00838FF0125B16FEA81D08868208868308D4
:104E6D0086F0EE1259AA8A828B838FF0125B16F5AB
:104E7D00C0D007024EF6EF6003024EF6C007E51DE7
:104E8D0024FBF8860408860508860674072CFC7436
:104E9D00003DFD8C828D838EF0A81D08125B16F6E9
:104EAD00A3125B1608F6A3125B1608F6E51D24F88F
:104EBD00F886020886030886078A828B838FF01294
:104ECD005B16FEA81D0886820886830886F0EE1202
:104EDD0059AA8A828B838FF0125B16F5C2D0070216
:104EED004EF67F0A024EF67F018F82851D81D01D01
:014EFD002292
:105B8D007F4B544D0000DDDDD1DDD3DD02935B8015
:0803AF009011CF7400F0A3F0DF
:104EFE00E5829011D2F0E0FF9011D1EFF09011CF3A
:104F0E007400F0A3F09003C604F07400A3F08F8237
:104F1E0012196222C01D85811DE51D24FCF8E620B4
:104F2E00E003024F6CC39011D1E0FF901038740172
:104F3E00F07400A3F090103A7464F07400A3F0A320
:104F4E00F0A3F08F821226DE124F75E51D24FCF8B9
:104F5E00740166FE0886078E828F83024F727582F9
:104F6E0000758300D01D22900067E0FCA3E0FDA336
:104F7E00E0FEA3E0FF9011D3ECF0EDA3F09011D87A
:104F8E007400F09011DAF0AF8EBF0303024FACBF86
:104F9E000403024FB5BF05030251300252A8758EAD
:104FAE000075AA000252A89011D3E0F517A3E0F500
:104FBE00189011D8E0FD9011CFE0FBA3E0FC8D011D
:104FCE007A00C3E99BEA64808CF063F08095F04030
:104FDE000302511D9011D97400F0ED75F006A4FB7B
:104FEE00ACF0E0FAC0058B8274002CF583E0F8A3D8
:104FFE00E0F9A3E0FDEA75F00AA428F8E935F0F926
:10500E009011D5E8F0E9A3F0EDA3F008B80001097E
:10501E00888289838DF0125B16F8A3125B16F9A3B2
:10502E00125B16FD888289838DF0125B16F8A3122F
:10503E005B16F9851782851883E493FDA3E493FF2D
:10504E00E8B50506E9B507028005D0050250FAD08D
:10505E0005C0059011DA7401F08B0674002CFF8EDA
:10506E00828F83A3A3A3E0F9A3E0FEA3E0FF8982CE
:10507E008E838FF0125B16F9A3125B16FE900072F0
:10508E00E0F519A3E0F51A900065E0FDA3E0FFC07E
:10509E0006C005C004C003C002C0017434C0E0C025
:1050AE0019C01A7471C0E07400C0E07400C0E074DE
:1050BE0074C0E07400C0E07400C0E09011D5E0C090
:1050CE00E0A3E0C0E0A3E0C0E01250DD0250E6C075
:1050DE0001C0068D828F8322E58124F4F581D001F3
:1050EE00D002D003D004D005D006D0059011DAE05E
:1050FE00FFBF010302510E0ABA04005003024FF221
:10510E009011DAE0FFBF010302511D0D024FC49052
:10511E0011DAE0FFBF010280030252A875AA040251
:10512E0052A89011D3E0F519A3E0F51A9011D8E02A
:10513E00FD9011CFE0FBA3E0FC8D017A00C3E99B4B
:10514E00EA64808CF063F08095F0400302529890F0
:10515E0011D97400F0ED75F006A4FBACF0E0FAC0C6
:10516E00058B8274002CF583E0F8A3E0F9A3E0FD33
:10517E00EA75F00AA428F8E935F0F99011D5E8F0AF
:10518E00E9A3F0EDA3F008B8000109888289838DA8
:10519E00F0125B16F8A3125B16F9A3125B16FD88CC
:1051AE008289838DF0125B16F8A3125B16F98519AE
:1051BE0082851A83E493FDA3E493FFE8B50506E91F
:1051CE00B507028005D005025275D005C0059011B5
:1051DE00DA7401F08B0674002CFF8E828F83A3A3EA
:1051EE00A3E0F9A3E0FEA3E0FF740229F974003EE8
:1051FE00FE89828E838FF0125B16F9A3125B16FE68
:10520E00900072E0F51BA3E0F51C900071E0F5171D
:10521E00900065E0FDA3E0FFC006C005C004C0031A
:10522E00C002C001C01BC01CC0177474C0E0740063
:10523E00C0E07400C0E09011D5E0C0E0A3E0C0E093
:10524E00A3E0C0E0125258025261C001C0068D8226
:10525E008F8322E58124F7F581D001D002D003D0CF
:10526E0004D005D006D0059011DAE0FFBF0103028D
:10527E0052890ABA0400500302516D9011DAE0FF10
:10528E00BF01030252980D02513F9011DAE0FFBFA9
:10529E00010280030252A875AA0522AFF0AE83E583
:1052AE00829011E0F0EEA3F0EFA3F09011CFE0FEAC
:1052BE00A3E0FF9011E3EEF0EFA3F0BE0A05BF00EE
:1052CE000280030252DA7582000253559011E3E018
:1052DE00FEA3E0FF901226EEF0EFA3F075820675A6
:1052EE0083001259C5AE82AF838E0474002FFD90D9
:1052FE0011E0E0F9A3E0FAA3E0FB8C828D83E9F0E4
:10530E00EAA3F0EBA3F074002FFF74032EFE7400DB
:10531E003FFF9011DDE0FBA3E0FCA3E0FD8E828F4A
:10532E0083EBF0ECA3F0EDA3F075AA039011CFE0A0
:10533E00FEA3E0FF8FB08EB79011CF74012EF074E4
:10534E00003FA3F07582012290028974BAF022AF59
:10535E00F0AE83E5829011EBF0EEA3F0EFA3F090A8
:10536E0011EBE0FDA3E0FEA3E0FF900290E0F9A3B5
:10537E00E0FAA3E0FBA3E0FC8D828E838FF0E912AE
:10538E0059AAA3EA1259AAA3EB1259AAA3EC1259CD
:10539E00AA9011E5E0FDA3E0FEA3E0FF900294E0E9
:1053AE00F9A3E0FAA3E0FBA3E0FC8D828E838FF0DD
:1053BE00E91259AAA3EA1259AAA3EB1259AAA3EC0D
:1053CE001259AA9011E8E0FDA3E0FEA3E0FF9002BF
:1053DE0098E0F9A3E0FAA3E0FBA3E0FC8D828E83B4
:1053EE008FF0E91259AAA3EA1259AAA3EB1259AAED
:1053FE00A3EC1259AA22AF83E5829011F0F0EFA32D
:10540E00F09011F2E4F0A3F09011EEE0FEA3E0FFB5
:10541E007D109011F0E0FBA3E0FC339200ECCB2565
:10542E00E0CB33FC9011F0EBF0ECA3F09011F2E036
:10543E00FBA3E0CB25E0CB33FC9011F2EBF0ECA319
:10544E00F03000129011F2E0FBA3E0FC9011F27428
:10545E00014BF0ECA3F09011F2E0FBA3E0FCC3EBE8
:10546E009EEC9F401D9011F2EBC39EF0EC9FA3F0BB
:10547E009011F0E0FBA3E0FC9011F074014BF0EC06
:10548E00A3F0DD8E9011F0E0FEA3E08E82F5832274
:10549E00AF82AE83ADF0FC9011F8EFF0EEA3F0ED1D
:1054AE00A3F0ECA3F09011FCE4F09011F8E0FCA353
:1054BE00E0FDA3E0FEA3E0FF7B009011F4E0F53ADF
:1054CE00A3E0F53BA3E0F53CA3E0F53D235401FA40
:1054DE007074C003E53A253AF8E53B33F9E53C3301
:1054EE00FAE53D33FB9011F4E8F0E9A3F0EAA3F0FE
:1054FE00EBA3F09011F4E0F53AA3E0F53BA3E0F551
:10550E003CA3E0F53DC3EC953AED953BEE953CEFB3
:10551E00953DD0035027E53DC313F53DE53C13F50E
:10552E003CE53B13F53BE53A13F53A9011F4F0E503
:10553E003BA3F0E53CA3F0E53DA3F080090B9011F1
:10554E00FCEBF00254C89011FCE0FF9011F8E0FB68
:10555E00A3E0FCA3E0FDA3E0FE9011F4E0F53AA376
:10556E00E0F53BA3E0F53CA3E0F53DC3EB953AEC4B
:10557E00953BED953CEE953D40179011F8EBC3959C
:10558E003AF0EC953BA3F0ED953CA3F0EE953DA3E0
:10559E00F09011F4E0FBA3E0FCA3E0FDA3E0C31345
:1055AE00FEED13FDEC13FCEB13FB9011F4F0ECA3EA
:1055BE00F0EDA3F0EEA3F08F061FEE708E9011F8B3
:1055CE00E0FCA3E0FDA3E0FEA3E08C828D838EF0D1
:1055DE0022AFF0AE83E582901200F0EEA3F0EFA3BF
:1055EE00F0901200E0FDA3E0FEA3E0FF9011FDE0BD
:1055FE00FAA3E0FBA3E0FC8D3A8E3B8F3C8A828BB4
:10560E00838CF0125B16F9A3AA82AB83853A82854E
:10561E003B83853CF0E91259AAA385823A85833BE8
:10562E00E970DA8D828E838FF022AF82AE83ADF079
:10563E00FC901207EFF0EEA3F0EDA3F0ECA3F090C8
:10564E00120BE4F0A3F0A3F0A3F0901203E0FCA37E
:10565E00E0FDA3E0FEA3E0FF753A20901207E0F80C
:10566E00A3E0F9A3E0FAA3E0FB339201E828F8E9FE
:10567E0033F9EA33FAEB33FB901207E8F0E9A3F0C3
:10568E00EAA3F0EBA3F090120BE0F8A3E0F9A3E08D
:10569E00FAA3E0FBE828F8E933F9EA33FAEB33FB37
:1056AE0090120BE8F0E9A3F0EAA3F0EBA3F03001BF
:1056BE001E90120BE0F8A3E0F9A3E0FAA3E0FB9032
:1056CE00120B740148F0E9A3F0EAA3F0EBA3F090FB
:1056DE00120BE0F8A3E0F9A3E0FAA3E0FBC3E89C09
:1056EE00E99DEA9EEB9F403190120BE8C39CF0E9D6
:1056FE009DA3F0EA9EA3F0EB9FA3F0901207E0F8B3
:10570E00A3E0F9A3E0FAA3E0FB901207740148F0BE
:10571E00E9A3F0EAA3F0EBA3F0D53A028003025618
:10572E0069901207E0FCA3E0FDA3E0FEA3E08C82EB
:05573E008D838EF022B6
:06004100E478FFF6D8FD93
:10574300AC82AD83901210E0FEA3E0FFBE000360C5
:10575300121F0F90120FE08C828D831259AAA3DEC1
:10576300FADFF88C828D8322AF83E582901216F0E4
:10577300EFA3F0901212E0FDA3E0FEA3E0FF90126E
:1057830015E0F5347B00EB2DF8E43EF98F02C003FE
:10579300901216E0FBA3E0FC8534357536009012B9
:1057A3002CE535F0E536A3F08B828C83C007C00669
:1057B300C005C002C001C000125A51AB82AC83D0F5
:1057C30000D001D002D005D006D00774302BFB885F
:1057D3008289838AF01259AAC374B98BF063F0806B
:1057E30095F0D0035015888289838AF0125B1624C2
:1057F30007FC888289838AF01259AA901216E0FA6C
:10580300A3E0FC9011EEE535F0E536A3F08A828C37
:1058130083C007C006C005C003125404E582858314
:10582300F0D003D005D006D007901216F0E5F0A310
:10583300F00B901216E0FAA3E0FC4A6003025789CA
:10584300EB14901218F0EB2DFBE43EFC8F028B82DD
:105853008C838AF0E41259AA7C00901218E0FBC3EF
:10586300EC64808BF063F08095F05050EC2DF537AD
:10587300E43EF5388F398537828538838539F012D0
:105883005B16F535EB2DF8E43EF98F02C005C00633
:10589300C007888289838AF0125B16853782853830
:1058A300838539F01259AA888289838AF0E53512F3
:1058B30059AA0C1BD007D006D00580A322AF83E5DD
:1058C3008290121DF0EFA3F090121DE0FEA3E0FF03
:1058D30030E73790121CE0FDBD0A2F901219E0FB50
:1058E300A3E0FCA3E0FD8B828C838DF0742D125911
:1058F300AA90121974012BF0E43CA3F0EDA3F090ED
:10590300121DC3E49EF0E49FA3F090121DE0FEA3DA
:10591300E0FF901219E0FBA3E0FCA3E0FD90121C52
:10592300E0FA901212EBF0ECA3F0EDA3F090121555
:10593300EAF08E828F8302576BAFF0AE83E58290DD
:105943001222F0EEA3F0EFA3F0901222E0FDA3E009
:10595300FEA3E0FF8D028E038F048A828B838CF07B
:10596300125B1660070ABA00F10B80EE90121FE07B
:10597300F53AA3E0F53BA3E0F53C853A82853B830A
:10598300853CF0125B16F9A385823A85833B8A82B4
:105993008B838CF0E91259AAA3AA82AB83E970DA4C
:1059A3008D828E838FF02220F71130F6138883A81F
:1059B3008220F509F6A8837583002280FEF280F524
:1059C300F022AA83AB828BF0901226E0A4F8A9F010
:1059D3008AF0E0A429F98BF0A3E0A429F583888257
:1059E3002222A882A983AAF0FB88F0901228E0A4BF
:1059F300FCADF089F0E0A42DFDE435F0FE88F0A3C2
:105A0300E0A42DFDE5F03EFEE433FF89F0E0A42E93
:105A1300FEE5F03FFF88F0A3E0A42EFEE5F03FFF94
:105A23008AF0901228E0A42EFEE5F03FFF8BF0E011
:105A3300A42FFF8AF0A3E0A42FFF89F0A3E0A42FF3
:105A4300FF88F0A3E0A42F8EF08D838C8222AF8396
:105A5300E58290122EF0EFA3F0901230E4F0901252
:105A63002EE0FEA3E0FF7D0090122CE0FBA3E0FC00
