:020000040000FA
:0600000002011D021DE2D9
:03002B000224802C
:0300330002246242
:03005300021E5832
:03006B0002243933
:10008300021CD3E5C754F84401F5C77901220000E7
:100093000080FB120086B90003020107E47921788E
:1000A30008B800028004F709D8FCE479297802B87B
:1000B30000028004F709D8FCE490028178D679071E
:1000C3008002F0A3D8FCD9FA781A90014D7A01BACC
:1000D30000028007E493A3F608DAF9900956AA828E
:1000E300AB8390014E78FB79038015E493A3AC8234
:1000F300AD838A828B83F0A3AA82AB838C828D83A8
:10010300D8E9D9E77582F97583A2740312012F75B3
:100113008291758300740012012F75D00075813FA1
:10012300751881751902759F00020096C09FF59F8F
:10013300E473D09F22D083D082C09FE493C0E07445
:100143000193C0E0740293F59F2201FF0000B40005
:100153000028002800283075A000A000A000A000FF
:1001630000080008E001F00010001000100010006B
:100173001000100050005000500010001000D00775
:100183000000000000000F003075070010000100A0
:1001930081FF0000FF460664064C06FF02020A0ABE
:1001A300025000A0000000E80302A19001000083B8
:1001B30090029D90010000A709029790010000B2F0
:1001C30002029D90010000A809029590010000C859
:1001D30002029D90010000A90902B190030000CA28
:1001E30002029D90010000AA09029390030000CB34
:1001F30002029D90010000AB09029190010000AC46
:1002030009FF0100FF2002A1900100008C90029DD4
:1002130090010000100A028F900000000000029974
:100223009003000018037C0C7C0C7C0C7C0C7C0C75
:100233007C0C7C0C7C0C7C0C7C0C7C0C7C0C7C0C7B
:10024300520F6A0F4C0FFFFF020202020202020268
:1002530002010D000000100102A19001000089902D
:10026300029D90010000530A02B990010000750736
:10027300029D90010000540A02B790010000548FC0
:10028300029D90010000550A02B5900100002B8FDA
:10029300029D90010000560A02B390010000C98E2E
:1002A300029D90010000570A02AF90010000818E69
:1002B300029D90010000580A02AD90010000B78E24
:1002C300029D90010000590A02AB900100006F8E5D
:1002D300029D900100005A0A02A990010000398F83
:1002E300029D900100005B0A02A7900100005C0AD6
:1002F30001E803053F10FF0001307503020106000A
:1003030000000000000000000000000000000000EA
:100313000000000000000000000000FFFF06008056
:100323000CE803140942582D4465627567206E6F0B
:100333006465202020202020051250002003020A9B
:10034300000201060302F0FF42582D6464646562F3
:1003530075672D6E6F64650000000000000E1400C9
:100363000014140A4368617261637465726973747B
:100373006963203100024368617261637465726965
:100383007374696320320008436861726163746542
:100393007269737469632033001043686172616327
:1003A300746572697374696320340002436861720F
:1003B3006163746572697374696320350002A19087
:1003C3000100009D8F029D900100006E0B02BD9005
:1003D3000300004609029B900100006F0B029D90F1
:1003E300010000800B02BF900100004709029B90AF
:1003F300010000810B029D90010000920B02C1904D
:100403000200004809029B90010000930B029D909B
:10041300010000A40B02C390000000490902999057
:100423000300004A09029B90010000A50B029D9066
:10043300010000B60B02C5900400005009029B9016
:10044300010000B70B120138AA9103120138C191C0
:1004530003120138F0910312013829920312013873
:100463005192031201387F920312013896920312BC
:100473000138AD9203120138C39203120138EA9294
:1004830003120138FD92031201381393031201384A
:100493002693031201384B9303120138828C021204
:1004A3000138818D02120138B68D02120138D78DC1
:1004B30002120138E78D02120138088E0212013848
:1004C300148F02120138E18F021201385490021284
:1004D3000138DA90021201381D9102120138549149
:1004E30002120138DA9102120138AC920212013879
:1004F3000A93021201382293021201389C930212CA
:1005030001389F9302120138A293021201384994D1
:1005130002120138619402120138919402120138D7
:10052300B194021201389F950212013855960212B6
:10053300013868DD0212013890DD02120138BEDD98
:1005430002120138F5DD021201385DDE02120138B4
:10055300A6DE02120138F1DE021201382FDF021289
:1005630001386CDF021201389ADF0212013841E0D0
:10057300021201384BE00212013858E0021201382E
:100583008BE0021201384DE10212013859E10212E7
:10059300013871E1021201387BE102120138AB9E8E
:1005A30003120138B99E03120138D19E0312013898
:1005B300E99E031201382DA001120138CBA00112CC
:1005C300013843A10112013858A20112013892A245
:1005D300011201383BA30112013810A401120138A2
:1005E30074A501120138CBA50112013852A60112DC
:1005F300013839A70112013886A70112013814A85E
:100603000112013838A8011201380DAA011201386C
:100613004EAA0112013870AA01120138F1AA01127F
:100623000138DBAB01120138A1AC0112013840C122
:100633000212013812C202120138BBC2021201387F
:10064300FEC2021201388BC30212013817C4021210
:100653000138F8C40212013827C50212013823C633
:10066300021201386BC6021201386DC7021201383B
:10067300B1C702120138D7C702120138C1A0031251
:10068300013803F30212013819F3021201383FF360
:100693000212013867F40212013871F402120138B0
:1006A300CAF502120138CAF602120138B3D3021294
:1006B3000138C0D402120138F4D40212013836D5FD
:1006C30002120138F0D602120138D090011201381B
:1006D3003391011201387892011201388892011284
:1006E3000138AB9201120138F692011201389B9343
:1006F300011201389194011201385B9501120138FE
:10070300D39601120138159701120138B3970112DC
:100713000138009801120138269801120138149A01
:1007230001120138199A01120138FA9B011201389A
:100733004E9C01120138B09C01120138D89C011261
:1007430001387C9D011201383E9E011201386F9ED3
:1007530001120138729E01120138BA9E011201384A
:10076300FC9E01120138639F01120138298903128B
:1007730001383C8903120138558903120138A089D5
:10078300031201387B8A031201380A8B03120138E2
:10079300558B03120138AC2400120138B82400121F
:1007A3000138F12400120138362500120138ED25F5
:1007B30000120138732600120138D82600120138BE
:1007C3000427001201383D27001201385129001275
:1007D30001382D2B00120138182D001201384F2E2D
:1007E30000120138AF30001201389B31001201387A
:1007F300E13200120138EE33001201380B340012DB
:1008030001384334001201385D3400120138C53415
:10081300001201385F3900120138003A0012013822
:10082300513A00120138783A00120138C63A0012E0
:100833000138E43A00120138383B00120138113C08
:1008430000120138983D00120138203E0012013891
:100853004CC80212013856C8021201381DC90212CF
:1008630001386CC90212013890C902120138EBC970
:100873000212013823CA021201384BCA021201388C
:100883007BCB02120138A6CB02120138D1CB021264
:10089300013820CC0212013836CC021201387CCC4C
:1008A30002120138B6CC02120138F8CC0212013818
:1008B30040CD021201387CCD02120138CACD02129A
:1008C300013813CE021201383DCE0212013862CE36
:1008D300021201380EEF02120138D8EF021201386A
:1008E300C4F0021201383AF1021201387CF102120B
:1008F3000138A9F20212013800800212013829805E
:100903000212013842800212013887810212013833
:1009130065820212013884820212013811830212A5
:100923000138548302120138A18402120138408530
:1009330002120138BF8702120138568802120138A9
:100943002A89021201380C8A02120138788B0212AA
:1009530001380B8C02120138D39A031201383C9BE5
:1009630003120138909B03120138B79B031201381D
:10097300AAE60212013817E70212013862E70212EF
:10098300013857E80212013853E9021201383DEAEF
:100993000212013857A90212013899A9021201382B
:1009A30073AA021201384CAB0212013847AC02128F
:1009B300013826AD0212013892AD0212013859AE48
:1009C30002120138C4AE021201382BAF02120138F1
:1009D30056AF02120138C7AF021201385AB00212E1
:1009E3000138C3B002120138D8B00212013820B165
:1009F3000212013839B1021201389EB102120138D4
:100A0300A1B1021201385183031201387983031211
:100A13000138B78303120138758403120138E08467
:100A230003120138FC8403120138248503120138B0
:100A3300548503120138638503120138DD850312DF
:100A43000138038603120138D6AE0112013861B0B2
:100A530001120138FDB101120138C3B2011201388C
:100A63000AB30112013851B3011201386FB30112F5
:100A73000138B1B301120138C7B30112013813B4FD
:100A8300011201384BB4011201387EB4011201384E
:100A9300CFB40112013839B50112013833B801124C
:100AA3000138D5B9011201381BBA0112013852BB02
:100AB30001120138AFBB0112013824BC0112013805
:100AC30078BC01120138A5BC01120138D0BC011257
:100AD300013861A0021201387EA0021201380BA670
:100AE300021201380DA70212013887A80212013839
:100AF30035A902120138873E00120138D03E001298
:100B03000138FD3E00120138303F001201383D3FED
:100B130000120138493F001201385B3F00120138CF
:100B23003040001201388E4000120138C3400012D9
:100B330001385F420012013899420012013807431D
:100B430000120138AC430012013868440012013826
:100B5300E74400120138AB4500120138BA450012D0
:100B630001383B4600120138DA46001201380C47BF
:100B730000120138A7470012013805480012013856
:100B83003F4800120138C048001201388949001259
:100B93000138324A00120138B94A00120138114BA8
:100BA30000120138724B001201389B4B00120138BE
:100BB300514C001201389B4D00120138DE4D0012DA
:100BC3000138FB4D001201381A4E00120138654EF0
:100BD300001201388A4E00120138B34E0012013858
:100BE300224F00120138644F00120138685000127E
:100BF3000138025100120138CE5100120138E75179
:100C030000120138C09602120138139702120138FC
:100C13001F9702120138F497021201381B9802122F
:100C23000138569802120138C29802120138F69818
:100C3300021201382F990212013847990212013822
:100C4300A09902120138B99902120138029A0212CC
:100C53000138159A021201382F9A02120138459A67
:100C630002120138619B02120138729C0212013890
:100C7300BF9D02120138A49E02120138E87F0012C0
:100C83000138F3E60112013827E70112013892EA2D
:100C930001120138DCEB01120138A6EC0112013814
:100CA30030EE011201380BEF0112013845EF01124A
:100CB300013868EF01120138AAEF01120138B3EFCE
:100CC30001120138FDEF0112013807F0011201385A
:100CD300B3F00112013887F101120138DBF101127F
:100CE30001383DF20112013890F201120138BFF2CE
:100CF30001120138FEF20112013890650012013829
:100D0300EA6D00120138F06D00120138A37300126E
:100D13000138897700120138D4F6021201384AF7F4
:100D23000212013860F7021201389DF702120138EE
:100D3300D5F70212013852F8021201388DF8021267
:100D4300013808F90212013844F9021201384DF949
:100D53000212013859F90212013873F902120138EB
:100D630098F902120138AEF902120138D7F90212CA
:100D730001383AFA02120138A6D802120138B9D85A
:100D830002120138D3D802120138FCD802120138FA
:100D93003FD9021201387ED902120138BCD902129E
:100DA300013821DA0212013836DA0212013841DA47
:100DB300021201384EDA0212013865DA02120138E2
:100DC30073DA021201387EDA021201388ADA021269
:100DD30001389DDA02120138A8DA02120138CBDA9F
:100DE3000212013874DB0212013884DB021201386B
:100DF3009EDB02120138BBDB02120138D7DB021281
:100E03000138FCDB0212013806DC021201381ADC5D
:100E13000212013839DC021201389ADC021201385D
:100E2300A0DC02120138A6DC02120138ACDC02128B
:100E33000138B8DC02120138EBDC02120138EFCBC7
:100E43000112013871CC011201381ACD0112013897
:100E530062CE0112013870D00112013856D101124D
:100E630001388BD101120138ADD10112013856D2AC
:100E73000112013826D4011201384FD4011201386E
:100E8300C7D401120138F9D40112013806D5011271
:100E9300013851D50112013875D501120138C6D771
:100EA30001120138D0D8011201382CD901120138AE
:100EB3006CBD011201387DBE0112013861BF011200
:100EC30001386BBF011201388DBF0112013899BF80
:100ED300011201383DC1011201386AC10112013802
:100EE30080C201120138D5C20112013824C4011293
:100EF3000138F9C40112013855C501120138C0C5C2
:100F030001120138F5C50112013838C60112013842
:100F130002C9011201381AC901120138ABC9011201
:100F23000138B9C90112013806CA0112013814CABD
:100F33000112013880CA01120138FBCA01120138BB
:100F430052CB01120138D9F301120138FBF301121C
:100F530001380CF601120138CBF801120138F5F90A
:100F630001120138B3FA011201389FFB0112013853
:100F7300F18F031201381690031201388C9003127B
:100F8300013823BA021201382CBA0212013835BAD9
:100F9300021201380DBB02120138BEBC0212013825
:100FA300EEBC0212013819BD0212013849BD02120A
:100FB300013874BD02120138A8BD02120138D4BD34
:100FC3000212013817BE0212013842BE0212013862
:100FD30089BE02120138DEBE0212013820BF02129E
:100FE30001387ABF02120138A5BF02120138F4BFDB
:100FF3000212013824C0021201384FC00212013814
:101003007DC002120138A0C0021201384AA10312A6
:10101300013876A103120138A3A103120138ADA14F
:1010230003120138BDA103120138C5B10212013800
:10103300CFB1021201380DB20212013856B20212B8
:10104300013890B202120138EAB2021201380BB32E
:1010530002120138E3B502120138ECB5021201386D
:1010630039B60212013862B6021201386CB60212A6
:101073000138D8B6021201386AB702120138B4B780
:1010830002120138EAB70212013876B802120138A7
:10109300B7B802120138EEB80212013800B90212D1
:1010A30001381FB90212013828B902120138F5B903
:1010B30002120138E89B03120138FEFD02120138C7
:1010C30034FE021201386AFE02120138B5FF021221
:1010D300013833A00312013849A00312013893A049
:1010E300031201383FA20312013810E20212013841
:1010F30025E202120138D5E20212013815E3021289
:1011030001382EE30212013869E302120138B6E313
:1011130002120138E8E3021201382AE4021201380C
:101123002BE6021201389DE6021201389396031250
:101133000138BC9603120138EB96031201388397EA
:1011430003120138C597031201384B860312013885
:101153007086031201389A860312013878990312B4
:101163000138A89903120138C09903120138E29992
:1011730003120138C7A103120138D2A103120138A7
:10118300FAA103120138DF9C03120138279D0312D1
:1011930001383B9D031201385F9D03120138AB9D5B
:1011A30003120138A3A203120138195200120138A5
:1011B300DF53001201387E550012013832560012F7
:1011C3000138BC56001201384157001201386A57E2
:1011D30000120138F05A001201386C5B001201381A
:1011E300985C00120138D25C00120138135D0012C2
:1011F30001385B5E00120138B85E00120138015FEE
:1012030000120138655F00120138B35F0012013824
:10121300E25F00120138FA5F00120138EC6000123D
:101223000138236100120138C86100120138DF61FF
:1012330000120138116200120138C0630012013834
:101243004D64001201388C6400120138829F03122E
:101253000138939F031201384FA3031201388EA361
:1012630003120138EFFF02120138C99D031201383E
:10127300D99D03120138F19D03120138A59E031273
:101283000138F7FE011201387CFF01120138E2FF39
:10129300011201385D93031201388693031201385A
:1012A300EC93031201380C94031201385D9403127A
:1012B3000138B89403120138F29403120138F594FB
:1012C300031201380080031201381580031201381C
:1012D300408103120138BC810312013830820312AA
:1012E30001384A8203120138618203120138748281
:1012F300031201388E8203120138A58203120138CA
:10130300CB82031201381C8303120138FFEA021255
:10131300013816EB0212013890EB0212013874EC1B
:10132300021201384BEE02120138B0EE02120138FC
:10133300FBEE02120138F87F00120138C48D03124C
:101343000138478F03120138A88F03120138EE8F3B
:1013530003120138FF940312013851950312013827
:10136300C495031201382D96031201387F8B0312A3
:101373000138A98B03120138778C03120138528D7F
:1013830003120138D877001201389F780012013810
:10139300D878001201383879001201388E7900129A
:1013A3000138EB7900120138837A00120138927BFD
:1013B30000120138297D00120138B67D0012013870
:1013C3001D7E00120138347E00120138747F001232
:1013D300013879D90112013810DD0112013887DE95
:1013E30001120138D7DE01120138F4DE011201388F
:1013F30072DF0112013894E1011201385AE501123A
:1014030001388ACE02120138FFD002120138AAD164
:1014130002120138BFD20212013832D3021201384C
:101423006AFA02120138AFFA02120138CCFA021238
:10143300013882FB02120138D5FB02120138ABFCE2
:1014430002120138C5FD021201380A98031201384D
:1014530034980312013898A303120138B27F0012A3
:101463000138C4A303120138ECA303E0667010082B
:10147300A3E066700A08A3E066700408A3E066228E
:10148300C3E7960809E7960809E7960809E796224D
:10149300C3E09608A3E09608A3E09608A3E096228B
:1014A300C008C3E096F50808A3E096420808A3E045
:1014B30096420808A3E09645087001D3D008220895
:1014C3000808EAC0E0EBC0E086F0E7A4FA18098652
:1014D300F0E7A42AFA180986F0E7A42AFA1809867D
:1014E300F0E7A42AFA1986F0E7A4FBE5F02AFA1933
:1014F3000886F0E7A42BFBE5F03AFA190886F0E733
:10150300A42BFBE5F03AFA18180986F0E7A4C5F016
:101513002BFBE43AFA1908E7C5F0C6A426F6E5F072
:101523003BFBE43AFA1886F0E7A4F6E5F00826F662
:10153300E43B08F6E43A08F6D0E0FBD0E0FA22E414
:10154300CFC0E0E4CEC0E0E4CDC0E0E4CCC0E075C1
:10155300F020C3E633F608E633F608E633F608E68A
:1015630033F6181818EC33FCED33FDEE33FEEF338E
:10157300FFC3EC9709ED9709EE9709EF971919192E
:10158300400FFFEC97FC09ED97FD09EE97FE191943
:1015930006D5F0BEECF709EDF709EEF709EFF719F9
:1015A3001919D0E0FCD0E0FDD0E0FED0E0FF2260CE
:1015B30016080808C6C313C618C613C618C613C62A
:1015C30018C613C6D5E0EA22700908080822601677
:1015D300181818C6C333C608C633C608C633C608A8
:1015E300C633C6D5E0EA22E627F60809E637F60849
:1015F30009E637F60809E637F622E026F608A3E0FF
:1016030036F608A3E036F608A3E036F622E026F025
:1016130008A3E036F008A3E036F008A3E036F02292
:10162300C3E697F60809E697F60809E697F6080968
:10163300E697F622C3E096F008A3E096F008A3E04D
:1016430096F008A3E096F022E056F608A3E056F6DB
:1016530008A3E056F608A3E056F622E056F008A3E6
:10166300E056F008A3E056F008A3E056F022E0F6B7
:1016730008A3E0F608A3E0F608A3E0F622E6F008E4
:10168300A3E6F008A3E6F008A3E6F022E0FAA3E05D
:10169300FBA3E0FCA3E0FD22EAF0A3EBF0A3ECF054
:1016A300A3EDF022CAC0E0E6F0A308DAFAD0E0FA2C
:1016B30022CAC0E0E0A3C582CCC582C583CDC58361
:1016C300F0A3C582CCC582C583CDC583DAE6D0E05D
:1016D300CA22C3E498F8E499F91217168026C3E4E2
:1016E3009AFAE49BFBE920E7E9121716E498F8E479
:1016F30099F922C3E498F8E499F9121716E498F8D3
:10170300E499F9C3E49AFAE49BFB22EB20E7CFE9DF
:1017130020E7E0B90010BB0008E88AF084F8AAF0DB
:1017230022E4FBC8FA22EB70227B10C833C8C9330A
:10173300C9335007C39AC3DBF280069A50012ADBF0
:10174300EAC833F4C8C933F4C9FA2275F008E4C807
:1017530033C8C933C933C99AC99B5004C92AC93B81
:10176300D5F0ECFBC833F4C8E4C9FA22600D08C60F
:10177300A2E713C618C613C6D5E0F322600C08C649
:10178300C313C618C613C6D5E0F422700422600D35
:1017930018C6C333C608C633C6D5E0F418222518C5
:1017A30010AF08F518400215198008F51840021506
:1017B30019D2AF22C0D0251810AF08F51850020572
:1017C300198008F51850020519D2AFD0D022251878
:1017D300F58210AF08F518400215198008F5184076
:1017E300021519D2AF851983222518F582E435191C
:1017F300F58322E4732518C582C0E0E51934FFC5DB
:1018030083C0E0E518C3958224F810AF08858319D7
:101813008582188008858319858218D2AFCEF0A3FC
:10182300E520F0A37808E608F0A3DEFAEFF0A3E5DD
:101833008124FAF8E608F0A3E608F0A3E608F0A38B
:101843000808E608F0A3E608F0A315811581D0E0A7
:10185300FED0E0F8158115811581E8C0E0EEC0E007
:10186300222518C582C0E0E51934FFC583C0E0E531
:1018730018C3958224F910AF0885831985821880CF
:1018830008858319858218D2AFCEF0A3E520F0A393
:101893007808E608F0A3DEFAEFF0A3E58124FBF86D
:1018A300E608F0A3E608F0A30808E608F0A3E608B4
:1018B300F0A315811581D0E0FED0E0F815811581E4
:1018C300E8C0E0EEC0E022851983851882E0A3FE1C
:1018D300E0A3F5207808E0A3F608DFFAE0A3FFE031
:1018E300A3C0E0E0A3C0E0E0A3C0E0E0A3C0E0E069
:1018F300A3C0E010AF08858218858319800885820C
:1019030018858319D2AFD083D0820201358519831C
:10191300851882E0A3FEE0A3F5207808E0A3F6088B
:10192300DFFAE0A3FFE0A3C0E0E0A3C0E0E0A3C0D0
:10193300E0E0A3C0E010AF08858218858319800812
:10194300858218858319D2AFD083D08222C0D02557
:1019530018C582C0E0E51934FFC583C0E0E518C3AC
:10196300958224F310AF0885831985821880088532
:101973008319858218D2AFC8F0A3E9F0A3EAF0A3D4
:10198300EBF0A37908E709F0A3D8FAECF0A3EDF0A4
:10199300A3EEF0A3EFF0A3D0E0F0A3D0E0F0A3D048
:1019A300E0F0A3E520F0A3E5F0F0A32285198385F9
:1019B3001882E0C0E0A3E0F9A3E0FAA3E0FBA37878
:1019C30008E0F608A3DFFAE0FCA3E0FDA3E0FEA332
:1019D300E0FFA3E0C0E0A3E0C0E0A3E0F5D0A3E014
:1019E300F520A3E0A3F5F010AF08858319858218CD
:1019F3008008858319858218D2AFD082D083D0E046
:101A0300F8D0E03274048006740280027401C0E0EE
:101A1300F4041217D1D0E01216A7227404800474C0
:101A2300028000CCC0E0EDC0E0E518C39CCCAD194A
:101A330050011D10AF068C188D1980068C188D1956
:101A4300D2AF1216B4D0E0FDD0E0FC22D083D08216
:101A5300E9C0E0E493A3C386F0C5F095F0F908E488
:101A630093A386F0C5F095F0700BE493A3C399405C
:101A730005E9048002A3E475F002A42582F582E55A
:101A8300F03583F583D0E0F9E493A3C0E0E493C099
:101A9300E022D083D082ECC0E0EDC0E0E493A3FC6D
:101AA300E493A3FDED4C600D121AE1EC24FFFCED71
:101AB30034FFFD80EFE493A3FCE493A3FDED4C60BE
:101AC3000D121B20EC24FFFCED34FFFD80EFD0E072
:101AD300FDD0E0FCE493A3C0E0E493C0E022C0E0C7
:101AE300C3E49396087401939618400FE4936670C9
:101AF3000808740193661870007019A3A3C3E493D4
:101B030096087401939618A3A3400DD0E0D0E0D0BB
:101B1300E0021AD1A3A3A3A3A3A3D0E022C0E0C0F1
:101B2300F088F0E4936670080874019366187000F7
:101B3300A8F0A3A3700BD0F0D0E0D0E0D0E0021A5D
:081B4300D1A3A3D0F0D0E022F1
:101B4C0074F5121864EAFEEBFFEE2434F8EF34005F
:101B5C00F988088909EE2435121C84F8EE24371212
:101B6C001C84F50AEC850AF0A4FCAAF0850AF0EDB9
:101B7C00A42AFDE82CF8E43DF97A257B001217160F
:101B8C00EA850882850983F05407F87401B80002CD
:101B9C008004C333D8FCC0E0E0131313541FF8EED9
:101BAC0028F8EF3400F9E8245DF582E93400F58378
:101BBC00D0E0F8E0586008850882850983801DEE26
:101BCC002436121C84F5F0EA84A8F0EE28F8EF34E1
:101BDC0000F9E82438F582E93400F583E0F97F0454
:101BEC0002191074F5121864EAFEEBFFEE2434129D
:101BFC001C84C0E0EE2435F582EF3400F583D0E090
:101C0C00F08E828F83A3A3A3A3A3E0FAA3E0FB8EA1
:101C1C00828F83A3A3A3A3A3A3A3E0FCA3E0FDEC67
:101C2C00C39AF50AED9BF50BEE2480F508EF340012
:101C3C00F509850882F583E06401702BEE2481F5AB
:101C4C0082EF3400F583121A22121C8D74021217C3
:101C5C00B7E960137CFB7D04EEFAEFFB120BAA854F
:101C6C000882850983E4F0AC0AAD0BEEFAEFFB12A7
:101C7C001B4C12242B021BEAF582EF3400F583E097
:101C8C0022C082C083851882851983E0F8A3E0F90D
:101C9C00C3EA9CEB9D500BC3EC98ED994012790173
:101CAC008010C3EA98EB9940F5C3EC98ED9950EE8F
:101CBC007900D083D08222EAC39CFAEB9DFB2200F0
:101CCC008521878522C622C0E074EF121950759BBE
:101CDC0000906182E0A2E64003021D94E591A2E629
:101CEC004003021D947591BF9003C2E06405700817
:101CFC00120D48120D548003120D4E752100120D59
:101D0C00C0E99003C3F07900120DB4120B1A7A01DA
:101D1C007B009003C1E0F912108A907803E06442D2
:101D2C006003021DDD90055CE014F06003021DDD14
:101D3C00C2AF121D4100782AD0E0F618D0E0F6E5CB
:101D4C009F5407F9700590901F800390902378089A
:101D5C00121671E9C4C0E07829E65508F50808E6C2
:101D6C005509F509740B780812177FD0E02508F88F
:101D7C00906270E0A2E740F8E8C333906272F09092
:101D8C006270E0D2E0F08049E0A2E55024E591A237
:101D9C00E5501E7591DF9003C2E0640D7013900343
:101DAC00E4E004F064287002E4F07A00E0F9120E2A
:101DBC0032906181E0A2E35009E5E9A2E35003759A
:101DCC00E9F7A3E0A2E75009E591A2E7500375916A
:101DDC007F7F040219AFC0E0C0D0C082C083906185
:101DEC0083E0A2E05009E5BFA2E0500375BFFEE01E
:101DFC00A2E15009E5BFA2E1500375BFFDE0A2E2EC
:101E0C005009E5BFA2E2500375BFFBE0A2E3500905
:101E1C00E5BFA2E3500375BFF7E0A2E45009E5BFAC
:101E2C00A2E4500375BFEFE0A2E55009E5BFA2E5BF
:101E3C00500375BFDFE0A2E65009E5BFA2E65003F0
:101E4C0075BFBFD083D082D0D0D0E032C0E074F266
:101E5C00121950E5A7A2E4500FE5A1A2E4500953D2
:101E6C00A7EF75A1EF121EACE5A7A2E5500CE5A1FA
:101E7C00A2E5500653A7DF75A1DFE5A7A2E1500943
:101E8C00E5A1A2E1500375A1FDE5A7A2E2500CE586
:101E9C00A1A2E2500653A7FB75A1FB7F010219AF6B
:101EAC0074F81218647521019003C2E0640670077F
:101EBC007A007B00120D30A2AFE433FED2AF900358
:101ECC00C8E0640170187A207B009003C1E0F9121D
:101EDC00110E7A207B009003C1E0F91210909061F2
:101EEC0082E0D2E6F090055BE0602185C622801688
:101EFC009003C7E064017008E5C654F84405F5C6C4
:101F0C0053BEFC121CCC7401652160E4EEA2E0927D
:101F1C00AF7F0102191000008E238F248582288543
:101F2C008327851882851983E0CEA3E0CF8528828C
:101F3C00852783EBC9EAC8EDCBECCA75F010C3E872
:101F4C0033C8E933C9EA33CAEB33CBC3EA9EF5266F
:101F5C00EB9FF525B35004AB25AA26EC33CCED331F
:101F6C00CDD5F0DAAE23AF242274E912186474FADA
:101F7C001217A1EAFEEBFF8C088D099003C2E02436
:101F8C00F7C39405500690904302209C120CAC8A27
:101F9C000A8B0BEA450B7003022099120D668A0C12
:101FAC008B0D120D66EA650C7003EB650D60ECEEA3
:101FBC00FCEFFD851882851983AA82AB83120D6C08
:101FCC00850A82850B83A3A3780C121671908FFF60
:101FDC00780C12164B851882851983781412167199
:101FEC00908FFF781412164B780C791412148350BE
:101FFC001F780C791412162390902F780C1214A3BE
:10200C004047850C10850D11850E12850F138041EC
:10201C008514108515118516128517137810790CF7
:10202C0012162390902F78101214A3501C751000C8
:10203C00751100751200751301781079141216239E
:10204C007810790C1215EA800890904378101216CB
:10205C0071740978101215CB908FEB780C121671E5
:10206C007810790C1215429003C2E06408600AE003
:10207C0064066005E06405701C909063781012147F
:10208C00A35012908FDB78101215FD800890903FB2
:10209C0078101216718508828509837810121680C3
:1020AC0074061217B77F1002191074F71218641205
:1020BC000D7E900559E064017010906245E4F0A328
:1020CC00F053F4F343FE0C5390F3120D1EE5C6547B
:1020DC00804449F5C6E59E547F644970F89061854B
:1020EC00740FF0900557E0F47002A3E0602C7508B3
:1020FC0001750900900557E0780812178EE508F471
:10210C00FAA3E0600814600A14600C800DEA528097
:10211C008008EA52908003EA52A079007F020219EB
:10212C001074F7121864E9FE9024A4E493F4600888
:10213C00E493F9120AFC800953C680E59E547F7023
:10214C00FA120D24900559E064017003120B3290C1
:10215C000557E0F47002A3E0602A750801750900C8
:10216C00900557E0780812178EAA08A3E0600814AF
:10217C00600A14600C800DEA42808008EA4290806C
:10218C0003EA42A0120CAC8A088B09A808A909E83A
:10219C00496017E5E170FCE82414F582E93400F598
:1021AC0083E0F874FF68600288E174016E700A7A4B
:1021BC00019003C1E0F91210D802212874F1121811
:1021CC00648A088B098C0A8D0B740F1217EC780C2F
:1021DC00121671908FFF780812164B908FFF780CA7
:1021EC0012164B7808790C12148350157808790C58
:1021FC0012162390902F78081214A34015790180A1
:10220C0013780C790812162390902F780C1214A3C3
:10221C0040EB79007F0802191074ED1218648A08DB
:10222C008B098C0A8D0B74131217EC780C12167127
:10223C00908FFF780812164B908FFF780C12164B6C
:10224C00780C790812148340117808790C12162333
:10225C00AA08AB09AC0AAD0B8022751000751100F1
:10226C007512007513017810790C121623781079F9
:10227C00081215EAAA10AB11AC12AD137F0C02199F
:10228C0010908FFF78081216718A828B837808124F
:10229C00165E7F0402191074F51218648C828D83FB
:1022AC0078081216718A828B8378081216371222DC
:1022BC00F7C3E098F0A3E0991222E9401E909067D2
:1022CC0078081216718A828B8378081216108E8207
:1022DC008F83E02420F0A3E0344EF080A4F08E82B3
:1022EC008F83C3E09420A3E0944E22EA2404F8EBFD
:1022FC003400F9E8FEE9FF8C828D83A3A3A3A3E04D
:10230C00F8A3E0F98E828F832274F5121864E9FE2B
:10231C00900511E0FAA3E0FBEEC333F8E433F97453
:10232C00EC28F582748E39F583E02AF508A3E03B9E
:10233C00F5097808121A0B90905312168F121F245D
:10234C0074021217B78A088B098C0A8D0B741078DB
:10235C00081215B2AA08AB097F0402191074F11205
:10236C0018648A0C8B0D8C0E8D0F740F1217ECE009
:10237C00FAA3E0FB74111217ECE0F508A3E0F509E1
:10238C0074131217ECE0FEA3E0FF7808121A0BEAA4
:10239C002401F508EB3400F509E4F50AF50B780C8B
:1023AC0079081214C2908FD77808121671780C79AC
:1023BC00081214C2AA0CAB0DAC0EAD0F121F247474
:1023CC00021217B78B09EA450960047A0180027A78
:1023DC0000EC2AFCED3400FDECF8EDF97A717B028F
:1023EC0012171688088909E4F50AF50B8E828F837B
:1023FC007808121680ECF8EDF97A717B0212171638
:10240C008A088B097405780812178E8E828F83A325
:10241C00A3A3A3E508F0A3E509F07F08021910C0F7
:10242C0082C083E9906000F0D083D08222C0E07437
:10243C00F2121950A2AFE433FED2AFE589A2E150FB
:10244C00031212B2758900C2C5751A00EEA2E09291
:10245C00AF7F010219AFC0E074F2121950A2AFE4C1
:10246C0033FED2AFE58BA2E050031212B2758B0093
:10247C00C2E880D5C0E0C0D0E8C0E0E9C0E0E5A883
:10248C00D2AFC2C7751A00A2E7A2E792AFD0E0F9AB
:10249C00D0E0F8D0D0D0E032FFFFFFFFFFFFFFFF0E
:1024AC00C082C083E9900A0FF002273074F712172C
:1024BC00F8E99002E0F07C187D037AFF7BFF1208AC
:1024CC00269002E174FFF0A3F0A3E4F0A3F07905E9
:1024DC001207AE9002E0E0F91206D67A447B08129D
:1024EC000A0C02343E74F41217F88A088B09EB5468
:1024FC008060309002E0E0F91210728A0A8B0BAE09
:10250C000AAF0BEE4F60138E828F83E064B07003C2
:10251C001207C6EEFAEFFB121060AA08E5096480F8
:10252C00FB80047A007B000226FF74F21217F87409
:10253C00FC1217A1EAFEEBFF74121217EC123925EC
:10254C00EE4F70030225D974021217ECEEF0A3EFD4
:10255C0012293AECF0A3ED12293AAA82AB831206A7
:10256C00D0E9F50A706AE508450960648E828F83AC
:10257C0012390BEE4F60567A067B001210C68A0C8D
:10258C008B0DA80CA90DE8497005750A13804188BC
:10259C00828983E41225E6EEF0A3EF123936E508C2
:1025AC00F0A3E509F09002E612266D9002E67005A4
:1025BC001233E8801B1233D68003EAFCEBFD8C82CD
:1025CC008D8312266D70F38C828D8380E3750A02E5
:1025DC00A90A74041217B7023B25F0A31238DCA326
:1025EC002274F21217F8890AE975F017A4FEAFF0FD
:1025FC009002E5E4F09002E312266D600A1210CC12
:10260C009002E3E4F0A3F0EEFAEFFB1210C68A0896
:10261C008B09EA4509602FEEFCEFFD79001210489A
:10262C009002E3E508F0A3E509F07B008008122690
:10263C0057E4F0A3F00BEBC3950A40F2E50A9002C5
:10264C00E5F0790080027913023B25EB75F017A4B5
:10265C00F8A9F09002E3E028FAA3E0398A82F58326
:10266C002212307AEA4B2274F41217F8740C1217F7
:10267C00EC123900FEE9FF750800750900800CE5C5
:10268C00082401F508E5093400F509C3E5089CE5C3
:10269C00099D503285080A85090B7403780A1217B4
:1026AC008EEA250AF8EB350BF988828983A3A3A35C
:1026BC00A3A3A31234BDEE650A7003EF650B70BFC4
:1026CC00E8FAE9FB80047A007B00802774F4121787
:1026DC00F87900EAA2E0501B7508C075098F7808DC
:1026EC00121A0B7C047D007A117B0A1207A8740263
:1026FC001217B77F040218CAC082C0839002E61278
:10270C002737601C88828983A3A3E06A7003A3E047
:10271C006B8882898370E8A3A3A3A312307680040C
:10272C007A007B00D083D082020135123C0BE84941
:10273C002274EE1217F874FC1217A1EAFEEBFF8557
:10274C001882851983E4F0A3F0EE24021233C8EE4C
:10275C0024051238E3EE2404F50EEF122CEFE024DE
:10276C00FE603924FC604624FE605224FE605E2428
:10277C00FE700302285024FE70030228B424FE705D
:10278C00030228C324FE70030228D224FC70030227
:10279C0028E124FE70030228F002292D9002FF7418
:1027AC0017F0A3E412294212044E02292D85188237
:1027BC00851983AC82AD831207CC0228FD85188263
:1027CC00851983AC82AD831207D20228FD850C08D3
:1027DC00850D0974021217ECAC82AD8385088285D5
:1027EC0009831230761206F48A0C8B0DAC0CAD0DED
:1027FC00EC4D603BE4F50CF50D780C121A0B750CD6
:10280C00FF750D02780C121A0B750C00750D037800
:10281C000C121A0B74081217EC121A22123D8712A2
:10282C0017B7E9F50C700B12306C120466800F753B
:10283C000C018508828509831229301233E8850C36
:10284C000802290074021217ECAC82AD83850C824D
:10285C00850D83122E41603C850C82850D83A3A3CC
:10286C00121A227510FF7511027810121A0B7510BE
:10287C00007511037810121A0B74081217EC121A47
:10288C0022123D871217B7E9F509700B12306C1242
:10289C00046C800F750901850C82850D831229301B
:1028AC001233E8850908804C851882851983AC821F
:1028BC00AD831207D8803A851882851983AC82AD16
:1028CC00831207DE802B851882851983AC82AD8339
:1028DC001207E4801C851882851983AC82AD8312A3
:1028EC0007EA800D851882851983AC82AD831207A7
:1028FC00F0E9F508E50860298E828F83A3E0641463
:10290C00601F850E82850F83E09002FF12293A1218
:10291C003C079003001233E8E508A3122942120485
:10292C00480232D7123C0B85188285198322F08518
:10293C00188285198322F07CFF7D02850A82850B23
:10294C008312307A2274EE1217F874FC1217A18AD3
:10295C000A8B0B8C0E8D0FEA2405F508EB3400F571
:10296C00097C157D0079007AFF7B02121048E5087E
:10297C002402F50CE5091238E68518828519838541
:10298C0082108583117810121A0B850882850983B1
:10299C00A3A3A3A3122E38121A0BE5082405F510D5
:1029AC00E5093400F5117810121A0B850C82850D8F
:1029BC008312318D1206EE74061217B78A108B1122
:1029CC00AE10AF11E50A2402F50AE50B1233CBEE7B
:1029DC004F7003022B0F801774021217EC12307613
:1029EC0088828983EAF0A3EBF09002FFE004F09078
:1029FC0002FFE0C394054003022B0FE4F510F51120
:102A0C007810121A0B7510E87511027810121A0B47
:102A1C007510E97511027810121A0B74061217EC66
:102A2C00121A227910EEFCEFFD123D891217B7E94C
:102A3C00705E850882850983A3A3A3A3A3A3A3E047
:102A4C00F89002E8E0687048122E38121A0B7CE9F4
:102A5C007D02E5082408FAE5093400FB12104274E3
:102A6C00021217B7E960298E828F83A3A3A3A31246
:102A7C0030769002FFE0F5107402781012178E7405
:102A8C00002510F58274033511F583EAF0A3EBF001
:102A9C0074021217EC8582108583117810121A0BB0
:102AAC0074021217EC121A22850C82850D831230D7
:102ABC009C1217B78A108B11AE10AF119002FFE069
:102ACC00F5107511007402781012178E74FF251012
:102ADC00F874023511F988828983A312266D70036C
:102AEC000229DBE82403080808E93400F9EE4F60FA
:102AFC00030229E48882898374FFF0A3F09002FF1B
:102B0C00E004F09002FFE0600A12306C12045A7973
:102B1C0000800B8508828509831233DF790A023223
:102B2C00D774EA1217F874FE1217A18C128D13EADF
:102B3C002405F50CEB123D7112390F75080075095F
:102B4C0000EA2402F510EB3400F511851882851982
:102B5C008385820A85830B780A121A0B850C828571
:102B6C000D83A3A3A3A3122D05121A0BE50C2405A8
:102B7C00F50AE50D1233CB780A121A0B850C8285F7
:102B8C000D83122D091206EE74061217B78A0A8BE2
:102B9C000BEA450B7003022CAAEA2404F50EEB1287
:102BAC002CEF12390F8A828B83A3A3A3E0F9851033
:102BBC00828511831230806003022CAAE4F514F58F
:102BCC00157814121A0B7514E87515027814121A6C
:102BDC000B7514E97515027814121A0B740612177A
:102BEC00EC121A227913AC0AAD0B85108285118375
:102BFC00123D8F1217B7E9F5096003022CAA900257
:102C0C00E8E0F8E5087009E02402900300F0801475
:102C1C00900300E0FCE82402FAE43400FBEA6C7058
:102C2C0001EB707E850882AA82122E2F9414122E2C
:102C3C0027506B850E82850F83E0C0E074012A1249
:102C4C002CE6D0E0F00508850E82850F83A3E0C04A
:102C5C00E085080A7401250A122CE6D0E0F005087C
:102C6C009002E8122D05121A0B7CE97D0285080AE8
:102C7C007401250A122CF91217B79002E8E0250806
:102C8C00F50874FF6E700374FF6F6012EE24010E72
:102C9C00EF3400FFE508C394145003022B57E508EA
:102CAC00601312308A8510828511831230761204DB
:102CBC006079008014E509700375090A8512828514
:102CCC001383EEF0A3EFF0A90974021217B77F0E6D
:102CDC000218CA85080C7401250CF58274033400A3
:102CEC00F583223400F50F850E82F58322FA7403E6
:102CFC003400FB12103074022212394522A3A312A5
:102D0C002D0F221233D6FDEEFAEFFB2274EE1217C2
:102D1C00F874FE1217A18C0E8D0FEA2405F50CEB3E
:102D2C001238E6750B009002FFE4F0F50AEA240273
:102D3C00F508EB3400F50980449002FFE0FA9002AC
:102D4C00E8E0F8122E2F9417122E27400D9002FF58
:102D5C00E0F87416C3989002E8F0122E38121A0B91
:102D6C007CE97D0274002AFA7403122CFC1217B74A
:102D7C009002E8E0F89002FFE028F0050AE50C2448
:102D8C0016F582E50D122CEAE0F8E50AC3985074AA
:102D9C009002FFE0C39416506BE50AC333F8E4339A
:102DAC00F9E50C28FEE50D39FF851882851983ACF1
:102DBC0082AD838E828F83122E417008750B0112A7
:102DCC0033DB8050E4F510F5117810121A0B7510E6
:102DDC00E87511027810121A0B7510E9751102784A
:102DEC0010121A0B74061217EC121A227916850897
:102DFC0082850983123D8F1217B7E9F50B70030218
:102E0C002D4580BB7CFF7D028508828509831230AD
:102E1C0076120472A90B74020232D9E99400C365CC
:102E2C00D03322EA28F8E43400F9E822E0F51075F2
:102E3C0011007810221232CE8A108B11AC10AD1109
:102E4C00EC4D2274EA1217F874FC1217A18A0C8B41
:102E5C000D8C128D13EA2405F50AEB1233CB750891
:102E6C0000750900E50A2402F510E50B3400F51194
:102E7C0074021217EC85820E85830F780E121A0BD2
:102E8C00850A82850B83A3A3A3A31238EB121A0B1A
:102E9C00E50A2405F50EE50B3400F50F780E121A31
:102EAC000B8510828511831233D11230701206EE0D
:102EBC0074061217B78A0E8B0FAE0EAF0FE50C24EB
:102ECC0002F50EE50D3400F50F8038888289837485
:102EDC00FFF00508122CDF74FFF005089002E8E003
:102EEC00F50C750D00780C121A0B7CE97D02850827
:102EFC000C7401250C122CF91217B79002E8E0257E
:102F0C0008F508EE4F60278E828F83A3A3A3E0F908
:102F1C00850E82850F83123080EE24041238E3E98B
:102F2C006027850C82850D831230621233E8E50828
:102F3C00700302304812308A850E82850F8312305E
:102F4C0076120478790002305DE4F514F5157814E6
:102F5C00121A0B7514E87515027814121A0B7514E5
:102F6C00E97515027814121A0B74081217EC121A60
:102F7C00227911EEFCEFFD850E82850F83123D8FB9
:102F8C001217B7E9F509709A850882AA82EA9002AD
:102F9C00E87009E02404900300F08025E0F8900329
:102FAC0000E0F514E82404FCE43400FDEC65147036
:102FBC0001ED7081122E2F9412122E274003022F36
:102FCC0041850C82850D83E0C0E074012A122CE649
:102FDC00D0E0F00508850C82850D83A3E0C0E012DB
:102FEC002CDFD0E01230A585820C85830D780C1275
:102FFC001A0B74041217EC121A2285108285118395
:10300C0012309C1217B78A0C8B0DAE0CAF0D8508C5
:10301C000C7401250CF874033400F9EE4F700302A4
:10302C002ED7851882851983E0888289831230A572
:10303C00A3E0C0E0122CDFD0E0022EE5E50970031E
:10304C0075090A850A82850B831230621233E8A94E
:10305C00097404022CD7123C0B851282851383222F
:10306C007CFF7D02850A82850B8312307A22E0FA7E
:10307C00A3E0FB2212307A1206DCE9F50922900358
:10308C0000E0F5F0E508849002FFF07CFF7D022261
:10309C00122D0F1206FA740422F005088518828589
:1030AC0019832274EC1217F874FE1217A18A088B7C
:1030BC00098C0E8D0FEA2405FEEB3400FF1232B89A
:1030CC00EE24181238E3EA450B700302315B12321E
:1030DC00A150291231808A108B11EA4511606B794D
:1030EC0012AC0AAD0B8508828509831230768510E7
:1030FC00828511831217F6E9F50A7058E4F50AF582
:10310C000B780A121A0B8E828F83A3A3E0F50A7830
:10311C000A121A0BEE24031233C8780A121A0B8EF9
:10312C00828F8312318D12081474061217B7E9F5C9
:10313C000A7021850C82850D83E0701F85088285BD
:10314C00098312307612047E8011750A0E8009757F
:10315C000A018004E50A60031233DB850C82850DBD
:10316C0083E0600479008002A90A74021217B77F09
:10317C000C0218CA85188285198312307A1208023B
:10318C00221233D6FD85088285098312307A227487
:10319C00EE1217F874FE1217A18A088B098C0C8D8D
:1031AC000DEA2405FEEB3400FF750E001232B8EA6E
:1031BC00450B700302327F1232A1502C1231808ADF
:1031CC000E8B0FEA450F604A7912AC0AAD0B8508DD
:1031DC0082850983123076850E82850F831217F64D
:1031EC00E9F50E6003023282850882850983123468
:1031FC00BDAA0AFB12329370147AFF7BFF12329332
:10320C00606C88828983E50AF0A3E50BF0750A00EF
:10321C008007750E0E805F050A9002E5E0FAE50A5C
:10322C00C39A504AE50A75F017A4FAABF088828964
:10323C0083A3A3E02AFAA3E03BFB8A828B8312339D
:10324C00D1EC4D70D2750A17750B00780A121A0B57
:10325C00EEFCEFFD12103074021217B7EEFCEFFD0E
:10326C008508828509831230761204848014750EC9
:10327C00098003750E01123C03850C82850D8312A7
:10328C0033E8A90E022E221207F68A108B11A81011
:10329C00A911E84922E5082402F508E5093400F5EE
:1032AC00098A828B83A3A3A3E0A2E52285188285D9
:1032BC001983AC82AD838E828F831232CE8A0A8BB5
:1032CC000B22E0FAA3E0FB1206F42274041217B7E7
:1032DC007F0A0218CA74EC1217F88C108D11EA24AC
:1032EC0005F50CEB1238E6750F00EA2402F50AEB33
:1032FC001233CB850A82F583123076123E15700399
:10330C000233BD750E008071850C82850D83E064DF
:10331C0001704F8E828F83A3A3121A228E828F8309
:10332C00A3A3A3A3E0F5127513007812121A0BEEE7
:10333C002405F512EF3400F5137812121A0B123023
:10334C007012081474061217B7E9F50F6014850C87
:10335C0082850D83E4F0123C038510828511831263
:10336C0033E87C177D007900EEFAEFFB1210488EE3
:10337C00828F83E4F0A3F0050E9002E5E0F8E50EF1
:10338C00C398501EE50E75F017A4F8A9F0850882B5
:10339C00850983A3A3123D7B1233D1EC4D6003024C
:1033AC00331485088285098374FFF0A3F0E50F7050
:1033BC000612307012048AA90F02317BF50AEF3421
:1033CC0000F50B22A31233D6FD22E0FCA3E0228EE3
:1033DC00828F83123C0B850E82850F83E8F0A3E964
:1033EC00F022C082C0839002E1E06A7003A3E06B1C
:1033FC0070067AE17B0280047A007B00022730742D
:10340C00F71217F87F00EF75F003A4F8A9F0EC2879
:10341C00F8ED39F988828983E06A7003A3E06B7058
:10342C0006E8FAE9FB800B0FEFC3940240D87A0050
:10343C007B007F010218CA74F61217F81239F47067
:10344C00067A007B008007A3A3A3A3123076023A6E
:10345C00B574F21217F8E9FE740E1217EC1234BDA3
:10346C0074101217EC1239258C828D83E064027073
:10347C003BA3123C0788828983E0F50CA3E0F9A8F2
:10348C000C74026870037429697021750C02750D37
:10349C0000780C121A0B7808121A0B780A121A0BF5
:1034AC00EEF912083874061217B780027901023B44
:1034BC0025E0F50AA3E0F50B2274E81217F874FB6B
:1034CC001217A1E9851882851983F08A168B178C3F
:1034DC000E8D0F741F1217EC12392574211217EC74
:1034EC001234BD74231217EC12390F7510008C8234
:1034FC008D83A3A3A3E0A2E4502A741D1217EC122F
:10350C0031868A828B83E582458370030235D179BB
:10351C000AAC0EAD0FAA16AB171217F6E9F5106030
:10352C00030235D4850E82850F83E06402600302AA
:10353C00388AA3123C07850882850983A3858212E9
:10354C00858313E50E2406F50CE50F1238E6888208
:10355C008983E0FAA3E0F9EA2400F514E439F515BF
:10356C007814121A950100002801289935070002D9
:10357C002870360328E03500299A370129C2370212
:10358C0029693703299A3704292B388A38EE4F706A
:10359C003E850C82850D83123900FAE9FB8A828BF9
:1035AC0083E0850A82850B8312393C121A0B8A82BE
:1035BC008B83A31233D6FDAA08AB09121030740208
:1035CC001217B7800375100EA9107405023D6975AA
:1035DC00100B80F4EE4F70F7850A82850B83740113
:1035EC00F0123915850882850983F07C007D0085F1
:1035FC000E82850F83A3A3A3A3E02401FAA3E034D6
:10360C0000FB1206F4EA4B60418A828B83E02402B1
:10361C00F8850A82850B83E028F0EA2404F8EB3461
:10362C0000F988828983E085128285138312394ED2
:10363C0012393C121A0B8A828B831233D0E5082480
:10364C0003FAE5093400FB0235C7850A82850B8332
:10365C00E02404F07C047D007900AA12AB13121054
:10366C00480235D4EE4F60030235DB123915FEA348
:10367C00E0FF850A82850B837404F0EE8508828551
:10368C000983F0EF851282851383F074031217EC13
:10369C00AC82AD83EEFAEFFB1239E27003023746CF
:1036AC008A828B83A3A312390B74011217EC8582C7
:1036BC000E85830F780E121A0B74051217EC121A62
:1036CC00227CFF7DFF1206FA74041217B78B0FEAE7
:1036DC00450F7033850C82850D831238EB121A0B53
:1036EC00850C82850D83A3121A227C027D007A9FA1
:1036FC007B9012052674041217B7E9700A74011234
:10370C0017EC74FFF0A3F08E828F83E064027034A8
:10371C00750C02750D00780C121A0B8E828F8312A9
:10372C0033D0E5082404FAE509122CFC1217B785EE
:10373C000A82850B83E02402800974011217ECEED7
:10374C00F0A3EFF074011217EC1238FCF0740112B4
:10375C0017ECA31238F4A3A3A3F00235D4EE4F60F8
:10376C00030235DB850C82850D831233D1AA16AB8F
:10377C001712082C850A82850B837402F0EA8508DF
:10378C0082850983F0851282851383EB80CBEE4F03
:10379C0060030235DB123915F8A3E0F9850A82853E
:1037AC000B837402F0E8850882850983F0E98512A1
:1037BC008285138380A3850C82850D83123076124B
:1037CC00102AEAFC8C82A882C39EE49F404BE86ED0
:1037DC007001EF70047C00801F851882851983E0CE
:1037EC00FAEE2AFAEF3400FBC3EA98EB940050038C
:1037FC00E08004EECCC39CFCEC850A82850B83F044
:10380C008C0A750B00780A121A0B850C82850D83B5
:10381C00E02EFCA3E03F0235C27510070235D4EE52
:10382C004F60030235DB850C82850D83123C0785C6
:10383C000A82850B837407F0888289831238F4120C
:10384C0038DCE0851282851383F0E82402FAE9342F
:10385C0000FB8A828B831238F412392D1238FCA3A8
:10386C00123936123905F0E82405F8E93400F988E4
:10387C00828983123905A312394EA3023762741D53
:10388C001217EC1239ED70030235D1123C07880C7B
:10389C00890DE8450D70030235D18E108F1178100B
:1038AC00121A0B780A121A0B7808121A0B740612D9
:1038BC0017ECE0F9AC0EAD0FAA16AB17850C828590
:1038CC000D831217F674061217B7E9F5100235D4EA
:1038DC00F088828983A322F50CEF3400F50D22E0E9
:1038EC00F50E750F00780E22E0850882850983227B
:1038FC0012395522123C0BE822123955A3A322A3EC
:10390C00A3A3A3E0FEA3E0FF22850C82850D83E038
:10391C00F8A3E0F5838882E022E0F508A3E0F5093E
:10392C0022A3A3F08A828B83A3221225E8A3A322CD
:10393C00F08A828B8312394522E0F50A750B0078E8
:10394C000A221238DC12395522E085088285098357
:10395C00A3A32274EE1217F874FE1217A18A0A8B15
:10396C000BECFAEDFB74141217ECE0F510A3E0F578
:10397C001174161217ECE0FE74181217ECE0F50E29
:10398C00A3E0F50F851882851983AC82AD831239BB
:10399C00E2603E8518828519831239ED602FA3A34E
:1039AC00123925E50845096024780E121A0B781097
:1039BC00121A0BEEF9AC0CAD0DAA0AAB0B850882F2
:1039CC008509831217F674041217B78006790E80D6
:1039DC00027901022E221206F48A0C8B0DEA450D97
:1039EC002212307A1239F4221207C08A828B83E5B4
:1039FC008245832274F61217F874FE1217A1740C08
:103A0C001217EC123900851882851983F074011293
:103A1C0017ECE9F0E4F508F5097808121A0B7508AB
:103A2C00027808121A0B74041217EC85820885832D
:103A3C00097808121A0B12081474061217B77402BC
:103A4C001217B7806474F71217F8EAFEEBFF8908B7
:103A5C007C187D0312082CEA5402600BA908EEFABC
:103A6C00EFFB1206E88002790102343E74F612175D
:103A7C00F874FF6A700374FF6B701C7B00EB75F0BD
:103A8C0003A4F8A9F0EC28F8ED39F9123ABA0BEBCB
:103A9C00C39402501480E61207FC8A088B09A8080C
:103AAC00A909E8496003123ABA7F020218CA88824F
:103ABC00898374FF1225E6E4F02274F61217F812CB
:103ACC0007FC8A828B83E58245836006A3A3E0FA18
:103ADC0080027A007B0080D174F21217F88A088B6E
:103AEC0009ECFEEDFF740E1217ECE0F50A123B2AFE
:103AFC00701CEEFCEFFD7AFF7BFF123B2A70047901
:103B0C0011801688828983E508F0A3E509F0888284
:103B1C008983A3A3E50AF079007F060218CA12076D
:103B2C00FC8A0C8B0DA80CA90DE8492274EE121717
:103B3C00F8EAFEEBFF8C088D09890C74121217EC55
:103B4C00123C0774141217EC1233D174161217ECC2
:103B5C00123076750D00EC4D6003023BFB74026570
:103B6C000C6003023BF6888289831233D6F9EC246D
:103B7C0000F50EE439F50FEAF4F8EBF4F9EC58F82B
:103B8C00E50F59F9E849705DE5082406F8E50934B4
:103B9C0000F9880A890B8882F583122D0B12082CE8
:103BAC008A108B11E50E65107004E50F65116042EB
:103BBC00780E121A0B850A82850B83122D0B1208B4
:103BCC003274021217B7E9F50D7027780E121A0B22
:103BDC00850882850983A3A3122D0912084A740251
:103BEC001217B7800D750D808008750D0D8003754B
:103BFC000D0BA90D0232DC8E828F83123C0B22E05E
:103C0C00F8A3E0F92274E81217F874E71217A185EB
:103C1C001882851983EAF0A3EBF08C168D17890EA8
:103C2C0074311217ECE0F512A3E0F513743312178C
:103C3C00ECE0F514A3E0F51574351217ECE0F50F74
:103C4C00750800750900E50975F003A4F8A9F0855D
:103C5C001882851983123D7BE0F47003A3E0F470A5
:103C6C0003023D59EE2402F50CEF123D71E0700396
:103C7C00023D5985160A85170B780A121A0BAC14DB
:103C8C00AD15AA12AB131207B474021217B78A0A35
:103C9C008B0BEA450B7003023D59E4F510F51178D6
:103CAC0010121A0B74061217EC858210858311788A
:103CBC0010121A0B74091217EC8582108583117877
:103CCC0010121A0B851282851383A3A3A3A3121AB5
:103CDC00227914AC0AAD0B8E828F83123D8F121792
:103CEC00B7E97069850A82850B83A3A3A3A3123C51
:103CFC000774021217EC1233E8850C82850D83E0F1
:103D0C00A2E05018A90E74021217ECAC82AD838E8F
:103D1C00828F8312307612070CE94208850C82855B
:103D2C000D83E0A2E15026E50FF50A780A121A0F6E
:103D3C00A90E74031217ECAC82AD838E828F8312A2
:103D4C00307612070674011217B7E942080509E527
:103D5C0009C394025003023C52A90874191217B7F4
:103D6C007F100218CA3400F50D850C82F58322E011
:103D7C0028FEA3E039FF8E828F83227916850A8272
:103D8C00850B8312307A12080E74082274F2121703
:103D9C00F8EAFEEBFF890B7401650B600E7402658B
:103DAC000B70637901120A2AE9705BEEFAEFFB12D1
:103DBC003E156047750A00800B7C177D0079001258
:103DCC001048050A9002E5E0F8E50AC3985021E591
:103DDC000A75F017A4F8A9F0850882850983A3A3B6
:103DEC00E028FAA3E039FB8A828B8312273770C94B
:103DFC0085088285098374FFF0A3F07C187D03EE9F
:103E0C00FAEFFB120826023B251207F68A088B09EB
:103E1C00EA45092274F21217F88A088B09ECFEEDB8
:103E2C00FF740E1217EC1234BD900A0FE0F4603DD3
:103E3C007A097B0012105AEA4B60328A828B8374A7
:103E4C00B1F0A3E412392FA312392DA3E508F0A386
:103E5C00E509123E7CEEF0A3EF123E7CA3A3E50A2B
:103E6C00F0A3E50BF0900A0FE0F9121066023B2567
:103E7C00F08A828B83A3A3A3A3A322C082C08390C6
:103E8C0061907404F0A37448F0A3E4F09061807422
:103E9C0040F09061BC7407F09061877469F0906198
:103EAC00B67416F07900120B207902120B269024AE
:103EBC00A4E493F46006E493F9120AFC7905120E5B
:103ECC0014024292C082C083E9540FF9906185E0DC
:103EDC00696012E5C654804449F5C6E59E547F647A
:103EEC004970F8E9F053C680E59E547F70FA02429F
:103EFC009274F71217F8E5A8FE53A87E120B08C2AD
:103F0C00BA539AFEC289759B00C2C2120B0E75A9D8
:103F1C001175B905120B14D2BA439A0174805E4222
:103F2C00A8024820C082C083906181E4F0A30242C1
:103F3C008F75E90075910075BF00020135C082C014
:103F4C0083906181E4F0A374C0F0A3E4024291C0B9
:103F5C0082C08374F81217A19003C4124702E84977
:103F6C0070030240129003C4E0544060237908852A
:103F7C001882851983AA82AB83120C10851882854E
:103F8C001983AA82AB831208BC9003C4E054BFF01F
:103F9C00E054806010790C7A7D7B05120C10900334
:103FAC00C4E0547FF0E0A2E05008790012401A54AB
:103FBC00FEF0E054026008790112401A54FDF0E062
:103FCC0054046008790012402554FBF0E05408605A
:103FDC0008790112402554F7F0E05410600879027A
:103FEC0012402554EFF0E05420600879031240256C
:103FFC0054DFF0A3E05401600D120B321208CE9086
:10400C0003C5E054FEF074081217B7024292120B6B
:10401C00201208C29003C4E022120B261208C8908A
:10402C0003C4E022C082C083E9600514602A804F7B
:10403C0090619A7433F0A37455F09061A0743AF0C7
:10404C00900559E064017009C2919003C6746780B1
:10405C002D9003C67461802690619A743FF0A3740E
:10406C005AF09061A0747FF0900559E064017009DA
:10407C00D2919003C6747180059003C6746AF002E5
:10408C004292C082C083E9600B14600D14600F145F
:10409C00601180209024A880159024A98010902471
:1040AC00AA800B900559E0640160F39024ABE49373
:1040BC00906186F002429274EE1217F874F41217A3
:1040CC00A1851882851983AC82AD83758390758226
:1040DC000F74041216B49024A893F4600302425592
:1040EC00907808E0C394025003024235740412170E
:1040FC00ECAC82AD8375838F75829574081216B4FF
:10410C00F97AFF7BFF7FFF7E008982858210801801
:10411C0074086E70030241EA74096E70030241EA7E
:10412C00740A6E70030241EAE510C333FCE433FDFC
:10413C0074041217ECE5822CF582E5833DF583E0DF
:10414C00F50EA3E0F50F8E087509007402780812BD
:10415C00178E74482508FC74783509FD8C828D8384
:10416C007808121671740878081215B285080C8537
:10417C00090D8C828D8378081216717418780812C8
:10418C0015B2E50C4508F508E50DF509C3E50E95E6
:10419C0008E50F95098C828D8378081216718C8234
:1041AC008D8378081216717418780840141215B2A1
:1041BC00E50C4508FCAD0DE50EC39CFCE50F9D80A0
:1041CC000F1215B2E50C4508C3950EFCE50D950FC5
:1041DC00FDC3EC9AED9B5006ECFAEDFBEEFF0EEEF8
:1041EC00C39413500302411C74FF6A700374FF6B79
:1041FC00602D8F087402780812178E7448124EAE18
:10420C0074783509F583780812167185188285192A
:10421C0083E5822510F582E583124C3BE508F00915
:10422C00E9C39404500302410D7508017509007827
:10423C0008121A0B74021217ECAC82AD837A2A7B2B
:10424C000912128874021217B7740C1217B77F0A6E
:10425C000218CAC082C08390618674D5F09061AE9A
:10426C007468F0A3746AF090624574FBF0A304F0D8
:10427C0053F4FD43FE029005597401F07900120BC2
:10428C00208003F0A3F0D083D082020135C082C01D
:10429C008375E1F190050EE0604E146008146052D5
:1042AC0014604A8052120B3E900504E0F97A057BAB
:1042BC0005120D9690901312168F120DCC90905FE4
:1042CC0012168F120DA290050FE0F9120DAE7901A6
:1042DC00120E08900502E024161244287456F0A31E
:1042EC00740BF07900024292120B4480BB120B4A01
:1042FC0080B6120B5080B1791280EA74F41217F860
:10430C0075D90D9004F4E0A2E0E4331313F81243D2
:10431C0094484401F5D9780012441240FB78008887
:10432C000874F5124EAE740412441C40F275E195FB
:10433C009004F4E0F97AF57B04120D9C900A317428
:10434C00D2F0A3740A12443712445712444E124549
:10435C008F12439E780812167190901778081215D8
:10436C00FD908FFF780812164B1244227808121613
:10437C0080900502E024141244287413F09003C2B8
:10438C007402F07F040218CA900504E0C43333545D
:10439C00C022900502E0F8A3E0F5838882A3A32253
:1043AC0074F61217F81245608AD97800124412403C
:1043BC00FB780080061244C6124612E8C39940F5F9
:1043CC0012455212441240FB78008008124EAA7417
:1043DC0005124612E8C39940F375E195900A3174C1
:1043EC00DEF0A3740A12443712444112168F1244A1
:1043FC002212169B900502E024141244287412F029
:10440C009003C20247FD880874052508F5827405DF
:10441C0012476E940622900502E0240EF8A3E012D7
:10442C00442F223400F9888289832212457874D86B
:10443C00F0A3740A2212445712444E1245939090E2
:10444C006722F0A374F0F0A3740A2212445B2212C8
:10445C00445F22F0A3747CF0A3740C2274F6121740
:10446C00F81244BB1243944402F5D978001244125A
:10447C0040FB780080061244C6124612E8C39940ED
:10448C00F575E195900A311244D1F0A31244D11282
:10449C00444412168F12442212169B900502E024FB
:1044AC00141244287414F09003C274040247FF9051
:1044BC000514E0F9740729F5D92288087415250824
:1044CC00F58274052274EA1244DE1244DEF0A37401
:1044DC000A22F0A3740AF0A374EA2274F61217F8F5
:1044EC0012456074064AF5D9780012441240FB78E4
:1044FC000080061244C6124612E8C39940F51245D4
:10450C005212441240FB78008008124EAA74051215
:10451C004612E8C39940F375E195900A3174E4F0C2
:10452C00A3740A12456E12444112168F12442212C1
:10453C00169B900502E024141244287415F0900385
:10454C00C274030247FF9005341244BE74044AF54A
:10455C00D97800221244BB900504E0C4333354C014
:10456C00FA22124578747CF0A3740C2212457C223A
:10457C00124589747CF0A3740C1245892212445F95
:10458C00F0A32212459322F0900A3F747CF0A3749E
:10459C000C12457C747CF0A3740C12445BF022C0AA
:1045AC0082C08312439EA3A3A3A3E402428F74F799
:1045BC001217F81250F0F8740339F9E82405FAE9E7
:1045CC003400FB8A828B83124E5F88828983A3A37B
:1045DC00A3A3A3A3A3A3A3ECF0A3EDF088828983E8
:1045EC00A3A3A3A3A3A3A3E024FFF8A3E034FFF9A0
:1045FC008A828B83E8F0A3E9F00248208808745D76
:10460C002508F5827405124D86F5D90822EAFEEBD1
:10461C00FF9061D0E0F87480C398FAEE24832212E4
:10462C004631940422124C49E0F5D90AEAC32274AB
:10463C00F61217F8EAFEEBFF9061D0E0707575D9B1
:10464C000E75D90375D9047A008A08EE2508125123
:10465C00BE248C1246D440F17A008A08EE2508124A
:10466C0051BE248412462B40F175E1957908EE2455
:10467C008C1246CD24841246C47C008C82AA82C340
:10468C00E49AF895E0F9EE28F8EF39F9E8248BF57F
:10469C0082E9124D82C0E0EE2A1251BE24ABF582A3
:1046AC00E9124C3BD0E0F00CECC3940840CD12471F
:1046BC008A80027900024800FAEF3400FB120C04E5
:1046CC00221246C47904EE22124631940822C0828A
:1046DC00C08375D90275D90375D90575E195EA249E
:1046EC0070F582EB1246FFEA2472F582EB12479CBE
:1046FC00024292124C4C12470622E0F8A3E0F92237
:10470C0074F61217F8EAFEEBFF90055D740612477B
:10471C0078121A0B7C017903124AA41217B775D9B7
:10472C000675D903780012475E40FB75E19590033E
:10473C00C2E064087017EE2470F582EF1246FFEEAB
:10474C002472F582EF124C3BE8F0A3E9F0790102F8
:10475C0048008808745D2508F582740512476E942C
:10476C000522124C4CE0F5D908E8C322F075085D1F
:10477C0075090578082275E1957904120DD2EE249D
:10478C0070F582EF124C4C124706EE2472F582EF54
:10479C00124C4CE8F0A3E9F079012274F61217F8E8
:1047AC00EAFEEBFF9061D0E07043790190055D74F7
:1047BC000BF09003C2E06407701775085D7509056E
:1047CC007808121A0B7C010909124AA41217B7793E
:1047DC0005740129F5D975D90378008003124608B0
:1047EC00E8C39940F875E19512478A8002790080F8
:1047FC00037401F07F020218CA74F71217F8EAFE6C
:10480C00EBFF75D90375D90375D90DEE24DE12486B
:10481C00251247827F010218CAF582EF124D86F5E8
:10482C00D9227F030218CA7401250AF5D975D90358
:10483C0078002274F51217F81248B46004780480DA
:10484C00027800E8240BF8EAC3984041750A0990F5
:10485C00055D7409F0790812489D601475085D7542
:10486C0009057808121A0B124A9C1217B7750A0D13
:10487C001248338003124608E8C3950A40F775E1E5
:10488C00957904120DD2124A1979018002790080AF
:10489C0091EE24E3FCEF3400FD7A5E7B05120BFEF7
:1048AC00850882850983E022124619F8EF124E53CF
:1048BC00F583E02274F31217F88A088B09124AAFB9
:1048CC00FAE5082483F50AEB12497E60047804802B
:1048DC00027800E82408F8EAC39850030249777577
:1048EC000C0690055D740CF09003DFE090055EF013
:1048FC007402C0E0F97CE07D037A5F7B05120BFE4D
:10490C00D0E0F97CE27D03120BFE850A82850B83D5
:10491C00E0601C750A5D750B05780A121A0B7C0693
:10492C007903AA08AB09124AA41217B7750C0A74BA
:10493C0001250CF5D975D90378008009880A745DB6
:10494C00250A12460EE8C3950C40F175E1957904E1
:10495C00120DD2E5082470F582E5091246FFE50830
:10496C002472F582E50912479C800279007F0502CA
:10497C0018CA3400F50B850A82F583E02274F6120E
:10498C0017F8EAFEEBFF124AAFFCEE2483F8EF12A5
:10499C004AAA60047A0480027A00EA2404FAECC37E
:1049AC009A405E7A0290055DEAF0EE24F5F582EF0E
:1049BC00124A25601975085D7509057808121A0BDD
:1049CC007C027903EEFA124AA41217B77A06740124
:1049DC002AF5D975D90378008003124608E8C39AE2
:1049EC0040F875E195EE2474124A12EE2480124AB6
:1049FC0012124A197904120DD2EE240D12478D8031
:104A0C00027900024800F582EF124B9522EE241D2C
:104A1C00F582EF124B95A3F022124D8690055EF0B5
:104A2C0088828983E02274F61217F8124AAFFEEAE4
:104A3C002483F8EB124AAA60047C0480027C00EC0C
:104A4C002404FCEEC39C40437C0290055D7407F08B
:104A5C00EA24F6F582EB124A25601575085D750996
:104A6C00057808121A0B7903124AA41217B77C06A0
:104A7C0074012CF5D975D90378008003124608E827
:104A8C00C39C40F875E195790180027900024800D9
:104A9C007C097903EEFAEFFB120C707402221244BB
:104AAC002FE0229061D0E0F87480C3982274F51244
:104ABC0017F8E9FEA2AFE433F50AC2AF7F00EA248F
:104ACC006FF8EB3400F980010F88828983E0FCEFEA
:104ADC00C39C50188F08EA2508FCEB3400FDEC242D
:104AEC006BF582ED124D826E70DE8010EA2CFAEBC3
:104AFC003400FB124C35EE124A2B04F0E50AA2E00E
:104B0C0092AF02482E74F61217F8A2AFE433FFC22C
:104B1C00AFEA246FF8EB1251C0FCE9FD8C828D8357
:104B2C00E014F07E0080218E08EA2508F8EB125183
:104B3C00C0246CF582E9124D82C0E0E8246BF5824A
:104B4C00E9124C3BD0E0F00E8C828D83E0F8EEC382
:104B5C009840D4EA246E124C3874FF124B8AEFA2A0
:104B6C00E092AF024800C082C083E5A8F8C2AF1241
:104B7C004C35E9124B8AE8A2E792AF024292F0EA76
:104B8C00246AF582EB124B9522124C4CE4F0227401
:104B9C00F21217F88C828D83A3A3A3A3E0541FF009
:104BAC00EA2436124EF78E828F83E4F0F50C850CD6
:104BBC008285820AEC250AF8ED124E4FF583E0C08F
:104BCC00E0EA250AF8EB124C3FD0E0F0750D0085B9
:104BDC000882850983E0F50A750B00E50D780A1249
:104BEC00176FE50AA2E0502AE50C33333354F8254D
:104BFC000DC0E08E828F83E0F8EA28F8EB1251C0EA
:104C0C002438F582E9124C3BD0E0F08E828F83E0A1
:104C1C0004F0050DE50DC3940840B4050CE50CC378
:104C2C009405408A7F060218CAEA246BF582EB12BF
:104C3C004C4C223400F9E8245D124C4922F582E9EF
:104C4C003400F5832274F61217F89003ECE064013B
:104C5C0070077A007B00024D7C7E009003F2E070BE
:104C6C00F17401F0A3E4F0A3F090045204F090046A
:104C7C0055E4F0A3F090045804F09003F5E4124DC1
:104C8C00939003FF04F0900425E4F090903F1216EB
:104C9C008F90040812169B90040CE4F0A3F0A3F080
:104CAC00900470F0900464F09004597480F0A3E4C4
:104CBC00F090045FF0900457F09004DB124D8B9051
:104CCC0004E4F0900473F09004C3F0A3F090903FD0
:104CDC0012168F9004C512169B90903F12168F904F
:104CEC0004C912169B9004CFE4F09004D1F0900408
:104CFC00CDF09004E7124D8B8E08745B124EAE749F
:104D0C0004124C3B74FFF00EEEC3940440EA7E0098
:104D1C008E82A88274FB28F5827404124D82C0E046
:104D2C00744D28F5827404124C3BD0E0F00EEEC3A7
:104D3C00940540DC7E008E82A88274D628F582749D
:104D4C0003124D82C0E074D328F5827404124C3BDC
:104D5C00D0E0F00EEEC3940840DC9003ECE004F0DD
:104D6C00640170089003F4E09003EEF07AF07B039A
:104D7C00024800F582EF124D8622124C4CE02212B2
:104D8C004D93A3124D9322F0A3F0A3F0A3F022C0F5
:104D9C0082C083EA2403F582EB124D826008E4F0B2
:104DAC009003EDE014F09003ECE014F07006900327
:104DBC00EE74FFF08A828B83A3A3E4F0900500E0ED
:104DCC00700D9003EDE0640170057900120DB402D2
:104DDC004292C082C0839003F3E4F09003F2F0900F
:104DEC0003ECF0A3F0A374FFF075E1F1024292C062
:104DFC0082C083780079009003F3E0600478F07946
:104E0C000388828983A3A3A3A3E0F902429274F6D8
:104E1C001217F8EAFEEBFF120BB6EE2465F8EF1250
:104E2C004E4F124E5DEC4D60109003EE1250E88523
:104E3C000882850983E4F0A3F0EEFAEFFB120CA6CE
:104E4C00024800124E53223400F9880889098882DE
:104E5C0022F583E0FCA3E0FD2274F71217F8EAFEBA
:104E6C00EBFF8E828F83A3A3A3A3E0FA7B0012092E
:104E7C0034EEFAEFFB120BC8120C8802482074F6C1
:104E8C001217F87800880874D6124EAE7403124AC2
:104E9C001508E8C3940840ED9003D60247FD880836
:104EAC0074352508F5822274F61217F8EA240D12CF
:104EBC004EF7EC2403F8ED3400F988088909EC244A
:104ECC0007F8ED1251C0FCE9FD124F011217168EB6
:104EDC00828F83E8F0A3E9F0124F011217168B09A9
:104EEC00EA45096003124F14024800F8EB3400F94C
:104EFC00E8FEE9FF228C828D8312470685088285A5
:104F0C000983E0FAA3E0FB228E828F83E02401F078
:104F1C00A3E03400F02274F61217F8EA242EF5827E
:104F2C00EB3400124E5DEA2470124EF7780079FAD9
:104F3C00ECFAEDFB1217168E828F83E8F0A3E9F0E2
:104F4C00780079FAECFAEDFB1217168B09EA450991
:104F5C006003124F1402480074F01217F8EAFEEBCB
:104F6C00FF74101217EC7808121671120D608A0C6F
:104F7C008B0D8C0E8D0F90901B780C1215FD908F55
:104F8C00FF780C12164B780C121A078E828F831234
:104F9C0043A112168F1221C874041217B7E96003CB
:104FAC0002504C8E828F83E02402F8A3E01251C091
:104FBC00FAE9FB8A828B837808121610908FFF789F
:104FCC00081216718A828B83780812165EEE240BF7
:104FDC00F582EF124C3BC082C0838E828F83A3A3D9
:104FEC00A3A3A3E02401F8A3E03400F9D083D0827A
:104FFC00E0687003A3E069700479018045EE240732
:10500C00F8EF12442F124F18EE24741251C570147D
:10501C00EE24751250537003A3E06D70078A828BD7
:10502C0083124F18EE24801251C57014EE24811295
:10503C0050537003A3E06D70078A828B83124F1854
:10504C0079007F080218CAFAEF3400FB8A828B833E
:10505C00E0FCA3E0FD88828983E06C2274F31217D4
:10506C00F81250F0FE740339FFEE2404F50AEF3405
:10507C0000F50BEE2465F508EF3400F509801012ED
:10508C004E5F850882850983E4F0A3F01250E28517
:10509C000882850983124E5FEC4D6030EE24641259
:1050AC004D7FF50C780C121A0FEE2463124D7FF91C
:1050BC00EEFAEFFB120BF274011217B7E9850882B6
:1050CC0085098360BA124702E84970077C007D00AD
:1050DC001250E2024979850A82850B83E0FA7B0043
:1050EC001208F2229003EEE0F875F004A4C8AAF0BE
:1050FC002AF974F0282274F21217F8EAFEEBFF89F1
:10510C000A740E1217ECE0FAEE24621251C5600319
:10511C000251B9124AAFF50CEE2483124D7FFB609D
:10512C00047804800278008908E928F8E41251C058
:10513C0024020808E93400F9E50C98E499A2D26538
:10514C00D0334065EA7005750B028003750B01EBDB
:10515C0060337509007808121A0B7A5D7B05120C06
:10516C003A74021217B775085D7509057808121A9A
:10517C000BAC0AA90B124AA01217B77404250AF536
:10518C000A7C5D7D057401250AF5D9850BD978005B
:10519C00800A8808EC124EAEED124612E8C3950A4E
:1051AC0040F075E195790080067907800279FF025D
:1051BC004C30F8EF3400F9E822F582EF124D86649A
:1051CC000122C082C08380031251FCE9F874FF28CD
:1051DC00190470F4ECFAEDFB024292C082C0838099
:1051EC00031251FCE9F874FF28190470F40242927E
:1051FC008C828D83E08A828B83F08C828D83A3AC2E
:10520C0082AD838A828B83A3AA82AB832274F4122D
:10521C0017F8E9FF7E008A088B097808121A4F00EC
:10522C00040DA8534C52695282529952B652CD5227
:10523C00EE52045316533C53445354536A53845301
:10524C0074016F60030253A48C828D83E0F8C394C5
:10525C000340030253A4E8900AFB02538174026FCB
:10526C0060030253A48C828D83125ACC900AFCE802
:10527C00F0A3E902538174016F60030253A412532B
:10528C00CB40030253A4E890077F02538174016F53
:10529C0060030253A48C828D83E0F8C39405400311
:1052AC000253A4E890078002538174016F600302DB
:1052BC0053A41253CB40030253A4E890078102532A
:1052CC008174106F60030253A47508108E0978085E
:1052DC00121A0B7A827B0712103074021217B70263
:1052EC0053C674016F60030253A41253CB400302E4
:1052FC0053A4E8900792807D74016F60030253A45D
:10530C008C828D83E0900AFF806B74046F600302C3
:10531C0053A48C828D837808121671909053780860
:10532C001214A3407390079478081216800253C687
:10533C00EF7065121210805B74016F705B1253CBAF
:10534C005056E8900793802D74016F704B8C828DB2
:10535C0083E0F8C3940A5040E8900AFE8017740169
:10536C006F70358C828D83E0F874F928C3940A50E1
:10537C0027E8900B00F0804274016F701B90082698
:10538C00E0F88C828D83E0900826F0E8702CE064C5
:10539C0001702712120480227E18801EC3EA942406
:1053AC00EB9400501374026F700E8C828D83126517
:1053BC008A120532E9FE80020E0EEEF90253DA8CE7
:1053CC00828D83E0F8C3940222740E1217B77F0407
:1053DC000218CA74F01217F874CC1217A18C0A8D2B
:1053EC000B74201217ECAC82AD8375838F7582AE73
:1053FC0074061216B474201217ECAC82AD83121121
:10540C00B6E9F50874441217ECE0FEE9C3940A40BF
:10541C000302554675F006E9A4F50974261217EC3B
:10542C00AC82AD837A0E74202509F91213CC743238
:10543C001217ECE0FF900AFBE06402700474018028
:10544C0001E4F50D780D121A0FEEFDEFFCA908AA78
:10545C000AAB0B12123A74011217B77C147D007947
:10546C0000740C1217ECAA82AB83121048740C1245
:10547C0017ECAC82AD837A1074242509F91213CC85
:10548C00E9703C7C1079FF740C1217ECAA82AB8388
:10549C001210AEE97029741C1217ECAC82AD837A31
:1054AC000474252509F91213CC740C1217ECAC8278
:1054BC00AD83EFA2E0E433F9AA0AAB0B1205BC856D
:1054CC001882851983AC82AD837A0C74702508F927
:1054DC001213CCE97053851882851983AA82AB8389
:1054EC001211E6750800E50875F003A4F8A9F0851B
:1054FC001882851983E58228F8E583125CCB125E4D
:10550C0053601D88828983A3A3E0F50E750F007884
:10551C000E121A0BAA0AAB0B12081A74021217B746
:10552C000508E508C3940440BDEFA2E1500C9007B8
:10553C007EE0F9AA0AAB0B12082074046E70279057
:10554C000AFBE06402701F7A00900792E060010A87
:10555C0090077FE06004780480027800E84AF9AA9A
:10556C000AAB0B12067C790074341217B77F080251
:10557C0018CA74F01217F8EAFEEBFF8C088D097547
:10558C000A0AE9600C146009146037146079025639
:10559C002D1211F8E9F50AC3940A400302562DE5C1
:1055AC00084509607C750E06750F00780E121A0BF3
:1055BC00EEFCEFFDAA08AB0912103074021217B7FB
:1055CC00805F750B00750E06750F00780E121A0BA6
:1055DC00EEFCEFFDE50B75F00EA4F8A9F074A02815
:1055EC00FA740739FB12104274021217B7E9600CF7
:1055FC00850B0AE50AC3940A50278016050BE50BA8
:10560C00C3940A501C80BE1211FEE9F50AC3940A19
:10561C00500FE50845096009AA08AB09A90A12113F
:10562C00F2A90A02557974F41217F889087509154C
:10563C0074FF6A700374FF6B70277E00AC087A02EB
:10564C007B00EEF91211D4E960037509000EEEC36C
:10565C00940A40E8E50860537A287B12120A3C80D1
:10566C004A120A1E8A0A8B0BAE0AAF0BEE4F603839
:10567C007C007D00EE2405FAEF3400FB8E828F83D4
:10568C00A3A3A3A3E0F91211B6E9C3940A500CAC7E
:10569C00087A027B001211D4750900E508600CEE43
:1056AC00FAEFFB1212288003750914A9090253DAC8
:1056BC0074F21217F8ECFEEDFF750815740E121744
:1056CC00ECE0F50AA3E0F50B74FF6A700374FF6B52
:1056DC007021750900AC0AAD0BEEFAEFFBA90912AB
:1056EC0011DAE960037508000509E509C3940A504D
:1056FC003F80E2120A1E8A828B83E5824583602DED
:10570C007C007D00E5822405FAE5833400FBA3A32D
:10571C00A3A3E0F91211B6E9C3940A5013AC0AAD75
:10572C000BEEFAEFFB1211DA750800800375081402
:10573C00A908025C93C082C083900798EAF0A3EB9F
:10574C00F090077EE0FC7D007A237B0012053290FE
:10575C00077EE0F9120796D083D08202013574EAF5
:10576C001217F874EC1217A1EAFEEBFFEE240CF5FD
:10577C0014EF3400F515EE240AF50CEF3400F50D9A
:10578C00EE2405F50EEF3400F50FEE2409F50AEFC3
:10579C003400F50BEE2403F508EF3400F5098E8286
:1057AC008F83A3A3E024FA7003025AB924FD70037B
:1057BC000259D714700302584F14601024FD700363
:1057CC000259A1147003025A0C025AC2125AD26026
:1057DC004AE0F5838882125ACC880C890DE8450D75
:1057EC006039851482851583E0F50E780E121A0F38
:1057FC00EE240BF582EF3400F583E0F9850A8285FF
:10580C000B8312658A0A0A0AAB09850C82850D8303
:10581C001217F674011217B7025AC2850A82850B49
:10582C0083121A2290079412168F1205CE7402124C
:10583C0017B7E97003025AC27901850A82850B8376
:10584C00025A858E828F83A3858212858313E06032
:10585C0003025984850E82850F83E0A2E040030287
:10586C0059847C0E7D007900851882851983AA8263
:10587C00AB83121048EE2408F510EF3400F51185B7
:10588C001082F5831261C2EA4B6010750A06750B23
:10589C0000780A121A0BEA2410801B1261BC120A3F
:1058AC001EEA4B7003025AC2750A06750B00780A81
:1058BC00121A0BEA2405FCEB3400FD74021217ECEF
:1058CC00AA82AB8312103074021217B7850E828530
:1058DC000F83E0A2E25004D2F08002C2F0A2F0E406
:1058EC0033F8740C1217ECE048F0850C82850D83AC
:1058FC00E0F50AA3E0F50BE50A450B6013E50A2475
:10590C0010F582E50B3400F583780C121671800CBF
:10591C00750CFF750DFF750EFF750FFFE50A450B36
:10592C007006750A00750B00851082851183E0F5F1
:10593C0010A3E0F511E510451170067510007511F6
:10594C0000780C121A07780A121A0B7810121A0B1C
:10595C00851482851583121A228E828F83A3126579
:10596C0085740A1217ECAA82AB831211EC740A121A
:10597C0017B71261BC121246125AD27003025AC2E5
:10598C00125ADD7003025AC2851282851383E0FC21
:10599C007901025AAD1261BC121246125AD270032E
:1059AC00025AC2E0F5838882A3A3125ACC890BE871
:1059BC00450B7003025AC28E828F83A3E0FC7902DE
:1059CC001261BC8882850B83025AB47C007D00EE88
:1059DC002404FAEF3400FB850882850983E0F91270
:1059EC0011B6E9F8C3940A4003025AC2AC0CAD0DCF
:1059FC007A0475F006E8A42425F91213C6025AC2DB
:105A0C001261BC900793E06007900AFEE0F9806C8D
:105A1C00900AFBE0700479058062120A1E8A0C8BD6
:105A2C000DA80CA90DE82404F50CE93400F50D8E35
:105A3C00828F83A3A3A3A3A3A3A3E0A2E05042E875
:105A4C00496073850C82850D83E0FE6034850A8283
:105A5C00850B83E054107029740E1217ECAC82ADD8
:105A6C0083E82405FAE93400FBEEF91211B6E9706B
:105A7C001079038508828509831261C21205C880DA
:105A8C0035AC0EAD0F850C82850D83E0F91261BC2F
:105A9C00121234125AD2601E125ADD60197C00792F
:105AAC00001261BC8E828F831217F6800912069445
:105ABC00E9700312120474141217B77F0E0218CA7D
:105ACC00E0F8A3E0F922900798E0F8A3E0F9E849A0
:105ADC0022E0F5838882A3A3E0F8A3E0F9E8FEE9CD
:105AEC00FFEE4F2274F41217F874F21217A1EAFEAB
:105AFC008C0B75F006E9A42420F50885188285190D
:105B0C0083AC82AD837A0EF91213CCE9704D7C060E
:105B1C0079FF851882851983AA82AB831210AEE9AE
:105B2C007039740C1217EC125ACCE8F509E50B60BD
