:03000000020034C7
:0303B7000200033E
:030003000203BA3B
:1003BA007581499003047401F0A280900304E0243B
:1003CA00FF928090030074A0F07486A3F07401A3D6
:1003DA00F07400A3F0900300E0FCA3E0FDA3E0FEAC
:1003EA00A3E0FF1CBCFF091DBDFF051EBEFF011FC8
:1003FA00EC4D4E4F60030203ED90030074A0F074BD
:10040A0086A3F07401A3F07400A3F0900300E0FC4B
:10041A00A3E0FDA3E0FEA3E0FF1CBCFF091DBDFF96
:10042A00051EBEFF011FEC4D4E4F600302042390D0
:10043A00030074A0F07486A3F07401A3F07400A3FF
:10044A00F0900300E0FCA3E0FDA3E0FEA3E0FF1CA4
:10045A00BCFF091DBDFF051EBEFF011FEC4D4E4F1F
:10046A00600302045990030074A0F07486A3F07428
:10047A0001A3F07400A3F0900300E0FCA3E0FDA345
:10048A00E0FEA3E0FF1CBCFF091DBDFF051EBEFF69
:10049A00011FEC4D4E4F600302048F900304740059
:1004AA00F0A280900304E024FF928090030074A0DD
:1004BA00F07486A3F07401A3F07400A3F090030013
:1004CA00E0FCA3E0FDA3E0FEA3E0FF1CBCFF091DC6
:1004DA00BDFF051EBEFF011FEC4D4E4F6003020417
:1004EA00D590030074A0F07486A3F07401A3F0748D
:1004FA0000A3F0900300E0FCA3E0FDA3E0FEA3E06C
:10050A00FF1CBCFF091DBDFF051EBEFF011FEC4DF0
:10051A004E4F600302050B90030074A0F07486A38B
:10052A00F07401A3F07400A3F0900300E0FCA3E0D0
:10053A00FDA3E0FEA3E0FF1CBCFF091DBDFF051ED5
:10054A00BEFF011FEC4D4E4F6003020541900300B0
:10055A0074A0F07486A3F07401A3F07400A3F09061
:10056A000300E0FCA3E0FDA3E0FEA3E0FF1CBCFF48
:10057A00091DBDFF051EBEFF011FEC4D4E4F600356
:07058A000205770203BD2208
:0600470090030874FFF0B5
:10059100AFF0AE83E582900309F0EEA3F0EFA3F094
:1005A100900309E0FDA3E0FEA3E0FF8D828E838F1F
:1005B100F0125C00AE82AF838E828F8322AFF0AEE9
:1005C10083E582900311F0EEA3F0EFA3F090030C0A
:1005D100E0FDA3E0FEA3E0FF900317EDF0EEA3F032
:1005E100EFA3F0900311E0FDA3E0FEA3E0FF900371
:1005F10014EDF0EEA3F0EFA3F0900317E0FDA3E0FC
:10060100FEA3E0FF900314E0FAA3E0FBA3E0FC905B
:10061100030FE0F53AA3E0F53BA83AA93B153A747C
:10062100FFB53A02153BE849700302064F8D828EF1
:10063100838FF0125C18F9A3AD82AE838A828B831B
:100641008CF0E9125AACA3AA82AB8302061A90037A
:1006510014EAF0EBA3F0ECA3F0900314E0FDA3E0A7
:10066100FEA3E0FF8D828E838FF022AFF0AE83E593
:100671008290031FF0EEA3F0EFA3F090031AE0FDC8
:10068100A3E0FEA3E0FF90031DE0FBA3E0FC1BBB86
:10069100FF011C900325EB2DF0EC3EA3F0EFA3F03E
:1006A10090031FE0FDA3E0FEA3E0FF900322EDF025
:1006B100EEA3F0EFA3F0900325E0FDA3E0FEA3E09D
:1006C100FF900322E0FAA3E0FBA3E0FC90031DE00E
:1006D100F53AA3E0F53BA83AA93B153A74FFB53AC0
:1006E10002153BE849700302070C8D828E838FF05F
:1006F100125C18F91DBDFF011E8A828B838CF0E903
:10070100125AACA3AA82AB830206D7900322EAF065
:10071100EBA3F0ECA3F0900322E0FDA3E0FEA3E045
:10072100FF8D828E838FF022AFF0AE83E58290033E
:100731002AF0EEA3F0EFA3F0900328E0FEA3E0FF80
:100741008E828F83122172AD82AE83AFF090032D22
:10075100EDF0EEA3F0EFA3F0ED4E700302079A90D7
:10076100032DE0FDA3E0FEA3E0FF90032AE0FAA33E
:10077100E0FBA3E0FC900328E0F8A3E0F990030C70
:10078100EAF0EBA3F0ECA3F090030FE8F0E9A3F09B
:100791008D828E838FF01205BE90032DE0FDA3E0C4
:1007A100FEA3E0FF8D828E838FF022AFF0AE83E552
:1007B10082900335F0EEA3F0EFA3F0900335E0FD56
:1007C100A3E0FEA3E0FF900338EDF0EEA3F0EFA36A
:1007D100F0900330E0FDA3E0FEA3E0FF90033BEDCA
:1007E100F0EEA3F0EFA3F0900338E0FDA3E0FEA349
:1007F100E0FF90033BE0FAA3E0FBA3E0FC900333AE
:10080100E0F53AA3E0F53BA83AA93B153A74FFB5E8
:100811003A02153BE84970030208478D828E838FA7
:10082100F0125C18F9A3AD82AE838A828B838CF0BF
:10083100125C18F8A3AA82AB83E9B5000302080889
:1008410075820002084A75820122AFF0AE83E5820B
:10085100900341F0EEA3F0EFA3F0900341E0FDA37C
:10086100E0FEA3E0FF90033EE0FC90033FE0FAA32B
:10087100E0FB901209ECF090120AEAF0EBA3F08D84
:10088100828E838FF0125845AD82AE83AFF08D8298
:100891008E838FF022AFF0AE83E582900344F0EEB9
:1008A100A3F0EFA3F0900344E0FDA3E0FEA3E0FF7B
:1008B1008D828E838FF0125C18FC7B000DBD0001D0
:1008C1000E8D828E838FF0125C18FD7F008D077D67
:1008D10000ED2CFCEF3BFB8C828B8322AFF0AE83CF
:1008E100E582900348F0EEA3F0EFA3F0900347E018
:1008F100FFBF0202800302094C900348E0FDA3E020
:10090100FEA3E0FF8D828E838FF0125C18FC8C01B8
:100911007A007B007C000DBD00010E8D828E838FDD
:10092100F0125C18FD8D007D007E007F008E078D2A
:100931000688057800E829F9ED3AFAEE3BFBEF3C31
:10094100FC89828A838BF0EC020AD2900347E0FF94
:10095100BF030280030209E3900348E0FDA3E0FE28
:10096100A3E0FF8D828E838FF0125C18FC8C3A75A8
:100971003B00753C00753D0074012DF874003EFB91
:100981008F0488828B838CF0125C18F87C007B00CA
:100991007A008B028C0388047800E8253AF8EC355C
:1009A1003BFCEB353CFBEA353DFA74022DFD74004E
:1009B1003EFE8D828E838FF0125C18FD8D017D00CD
:1009C1007E007F008D0789067D007900E928F8ED1A
:1009D1003CFCEE3BFBEF3AFA88828C838BF0EA0217
:1009E1000AD2900347E0FFBF04028003020AB090DD
:1009F1000348E0FDA3E0FEA3E0FF8D828E838FF02C
:100A0100125C18FC8C3A753B00753C00753D007416
:100A1100012DF874003EFB8F0488828B838CF012C9
:100A21005C18F87C007B007A008B028C03880478C8
:100A310000E8253AF53AEC353BF53BEB353CF53C26
:100A4100EA353DF53D74022DF974003EFB8F0489B2
:100A5100828B838CF0125C18F97C007B007A008C0D
:100A61000289037C007900E9253AF9EC353BFCEB7E
:100A7100353CFBEA353DFA74032DFD74003EFE8DD5
:100A8100828E838FF0125C18FD8D007D007E007FC9
:100A910000880778007D007E00E829F9ED3CFCEE36
:100AA1003BFBEF3AFA89828C838BF0EA020AD290FF
:100AB1000348E0FDA3E0FEA3E0FF8D828E838FF06B
:100AC100125C18FD7F007E007C008D828F838EF08A
:100AD100EC22AF82AE83ADF0FC90034FEFF0EEA3BA
:100AE100F0EDA3F0ECA3F09003537400F090035DDC
:100AF100F0900367F090034BE0FDA3E0FEA3E0FF5D
:100B01008D828E838FF07400125AAC90034EE0FFF9
:100B1100BF0A028003020E6490034FE0FCA3E0FDD4
:100B2100A3E0FEA3E0FF9011EE7410F07427A3F090
:100B31007400A3F0A3F08C828D838EF0EFC007C008
:100B410006C005C0041255A0A882A983AAF0FBD053
:100B510004D005D006D007900371E8F0E9A3F09026
:100B610011FD7410F07427A3F07400A3F0A3F08CAE
:100B7100828D838EF0EFC007C006C005C0041257F6
:100B81003AA882A983AAF0FBD004D005D006D007E9
:100B91009011EE7410F07427A3F07400A3F0A3F089
:100BA100888289838AF0EBC007C006C005C00412A1
:100BB10055A0A882A983AAF0FBD004D005D006D005
:100BC10007900373E8F0E9A3F09011FD7400F0744D
:100BD100E1A3F074F5A3F07405A3F08C828D838EEC
:100BE100F0EF12573AAC82AD83AEF0FF900375EC93
:100BF100F0EDA3F0EC4D7003020C1F900375E0FEC5
:100C0100A3E0FF9012137467F07403A3F07400A3C0
:100C1100F0901216740AF08E828F831259C29003DB
:100C210073E0FEA3E0FFEE4F7003020C51900373DB
:100C3100E0FEA3E0FF901213745DF07403A3F0745F
:100C410000A3F0901216740AF08E828F831259C29B
:100C5100900371E0FEA3E0FFEE4F7003020C83905E
:100C61000371E0FEA3E0FF9012137453F07403A329
:100C7100F07400A3F0901216740AF08E828F831222
:100C810059C2900375E0FEA3E0FFEE4F7003020D21
:100C91003290034BE0FDA3E0FEA3E0FF9011F77457
:100CA10067F07403A3F07400A3F08D828E838FF03C
:100CB1001256E19003777400F090034BE0FDA3E03E
:100CC100FEA3E0FF900377E0FC75825D75830375F9
:100CD100F000C007C006C005C004125C00AA82ABC8
:100CE10083D004D005D006D0077404C39AFA7400E7
:100CF1009BFB8C007900C3E89AE99B4003020D320B
:100D01008D018E028F039012197438F0745CA3F078
:100D11007480A3F089828A838BF0C007C006C00566
:100D2100C004125A3ED004D005D006D0070C020CE4
:100D3100CA90034BE0FDA3E0FEA3E0FF90121974FB
:100D41005DF07403A3F07400A3F08D828E838FF0A5
:100D5100125A3E900375E0FEA3E0FFEE4F600302DE
:100D61000D72900373E0FEA3E0FFEE4F7003020DDE
:100D7100F09003777400F090034BE0FDA3E0FEA335
:100D8100E0FF900377E0FC75825375830375F000F3
:100D9100C007C006C005C004125C00AA82AB83D0A4
:100DA10004D005D006D0077404C39AFA74009BFBE3
:100DB1008C007900C3E89AE99B4003020DF08D0194
:100DC1008E028F039012197438F0745CA3F0748052
:100DD100A3F089828A838BF0C007C006C005C004D6
:100DE100125A3ED004D005D006D0070C020D8890CF
:100DF100034BE0FDA3E0FEA3E0FF9012197453F052
:100E01007403A3F07400A3F08D828E838FF0125AC5
:100E11003E900375E0FEA3E0FFEE4F600302101762
:100E2100900373E0FEA3E0FFEE4F60030210179002
:100E31000371E0FEA3E0FFEE4F6003021017900381
:100E41004BE0FDA3E0FEA3E0FF9011F77438F074CE
:100E51005CA3F07480A3F08D828E838FF01256E133
:100E610002101790034EE0FFBF1002800302100B27
:100E710090034FE0FCA3E0FDA3E0FEA3E0FF8C00A4
:100E81008D017A007B00900371E8F0E9A3F08E04F4
:100E91008F05900373ECF0EDA3F0EC4D7003020E9F
:100EA100C5900373E0FEA3E0FF901213745DF0742C
:100EB10003A3F07400A3F09012167410F08E828FC9
:100EC100831259C2900371E0FEA3E0FFEE4F70035D
:100ED100020EF7900371E0FEA3E0FF90121374532A
:100EE100F07403A3F07400A3F09012167410F08E46
:100EF100828F831259C2900373E0FEA3E0FFEE4F8D
:100F01007003020FA690034BE0FDA3E0FEA3E0FFF8
:100F11009011F7745DF07403A3F07400A3F08D8257
:100F21008E838FF01256E19003777400F090034B9B
:100F3100E0FDA3E0FEA3E0FF900377E0FC758253A0
:100F410075830375F000C007C006C005C004125CBC
:100F510000AA82AB83D004D005D006D0077404C3A5
:100F61009AFA74009BFB8C007900C3E89AE99B40D4
:100F710003020FA68D018E028F039012197438F0AF
:100F8100745CA3F07480A3F089828A838BF0C0071C
:100F9100C006C005C004125A3ED004D005D006D008
:100FA100070C020F3E90034BE0FDA3E0FEA3E0FF20
:100FB1009012197453F07403A3F07400A3F08D829E
:100FC1008E838FF0125A3E900373E0FEA3E0FFEE92
:100FD1004F6003021017900371E0FEA3E0FFEE4F94
:100FE100600302101790034BE0FDA3E0FEA3E0FFB6
:100FF1009011F77438F0745CA3F07480A3F08D82C3
:101001008E838FF01256E1021017758200758300EE
:1010110075F00002102890034BE0FDA3E0FEA3E071
:10102100FF8D828E838FF02222AF83E58290037839
:10103100F0EFA3F0900378E0FEA3E0FFEE4F600332
:1010410002105075820075830075F0000210ED905A
:101051000378E0FEA3E0FF74062EFE74003FFF8ECE
:10106100828F83122172AD82AE83AFF090037AED4D
:10107100F0EEA3F0EFA3F0ED4E70030210E4900345
:101081007AE0FDA3E0FEA3E0FF8D828E838FF074F2
:1010910000125AACA3125AACA3125AAC74032DFA23
:1010A10074003EFB8F04900378E0F8A3E0F98A8294
:1010B1008B838CF0E8125AACA3E9125AAC74052D5B
:1010C100FA74003EFB8F048A828B838CF074FF12CA
:1010D1005AAC74062DFD74003EFE8D828E838FF016
:1010E1000210ED75820075830075F00022AFF0AE3D
:1010F10083E58290037DF0EEA3F0EFA3F090037DF2
:10110100E0FDA3E0FEA3E0FFED4E600302111675C2
:10111100820502115E90037DE0FDA3E0FEA3E0FFE6
:1011210074FF2DFD74FF3EFE8D828E838FF0125C65
:1011310018FDBDFF0302113F75820402115E900389
:101141007DE0FDA3E0FEA3E0FFED24FAFDEE34FF18
:10115100FE8D828E838FF01224BE75820022E5827D
:10116100900383F0E0FF900380E0FCA3E0FDA3E0A7
:10117100FE900388ECF0EDA3F0EEA3F090038B74E6
:1011810000F08F821211BBAF828F8222E582900321
:1011910087F0E0FF900384E0FCA3E0FDA3E0FE9074
:1011A1000388ECF0EDA3F0EEA3F090038B7401F053
:1011B1008F821211BBAF828F8222E58290038CF065
:1011C100900388E0FDA3E0FEA3E0FFED4E60030283
:1011D10011D97582050212FE90038CE0FF905C44E8
:1011E100E493FEC3EF9E5003021206900388E0FDD4
:1011F100A3E0FEA3E0FF8D828E838FF01210EE75C7
:1012010082030212FE900388E0FDA3E0FEA3E0FF4B
:10121100ED24FAFDEE34FFFE8D828E838FF0125C99
:1012210018FDA3125C18FEA3125C18FFED4E6003BB
:10123100021257900388E0FDA3E0FEA3E0FF74FFD4
:101241002DFD74FF3EFE8D828E838FF0125C18FDA2
:10125100BDFF03021271900388E0FDA3E0FEA3E04D
:10126100FF8D828E838FF01210EE7582050212FEC1
:10127100900388E0FDA3E0FEA3E0FF74FF2DFD7461
:10128100FF3EFE90038CE0FC8D828E838FF0EC128A
:101291005AAC90038BE0FFBF010280030212C5909C
:1012A1000388E0FDA3E0FEA3E0FF9003AFEDF0EEC5
:1012B100A3F0EFA3F075820575830375F000121793
:1012C100E50212E7900388E0FDA3E0FEA3E0FF90B2
:1012D100039EEDF0EEA3F0EFA3F075820575830395
:1012E10075F00012157190038CE0FF9003CB740030
:1012F100F07480A3F08F82121B2075820022E58298
:1013010090038DF09003917400F0A3F0A3F090038B
:1013110094F0A3F0A3F0900397A2AFE433F0C2AF2F
:10132100900305E0FDA3E0FEA3E0FF90038EEDF046
:10133100EEA3F0EFA3F090038DE0FF90038EE0FCAD
:10134100A3E0FDA3E0FEEC4D70030213F990038EC0
:10135100E0FCA3E0FDA3E0FE74FF2CFC74FF3DFD67
:101361008C828D838EF0125C18FCECB50702800331
:1013710002139C900394E0FCA3E0FDA3E0FEEC4D7E
:1013810060030213F990038EE0FCA3E0FDA3E0FEED
:10139100900394ECF0EDA3F0EEA3F0900394E0FC45
:1013A100A3E0FDA3E0FEEC4D60030213C490038EA5
:1013B100E0FCA3E0FDA3E0FE900391ECF0EDA3F0CF
:1013C100EEA3F090038EE0FCA3E0FDA3E0FEEC248D
:1013D100FAFCED34FFFD8C828D838EF0125C18FCDB
:1013E100A3125C18FDA3125C18FE90038EECF0EDC5
:1013F100A3F0EEA3F002133C90038EE0FDA3E0FE08
:10140100A3E0FFED4E700302142290038DE0FF90E4
:1014110003CB7400F07480A3F08F82121B2002149E
:101421003690038DE0FF9003CE7400F07480A3F03A
:101431008F82121B87900394E0FDA3E0FEA3E0FFDF
:10144100ED4E7003021480900394E0FDA3E0FEA32F
:10145100E0FF900391E0FAA3E0FBA3E0FC9003B569
:10146100EDF0EEA3F0EFA3F09003B8EAF0EBA3F0F8
:10147100ECA3F075820575830375F0001218749062
:101481000397E0FFEF24FF92AF900394E0FDA3E008
:10149100FEA3E0FF8D828E838FF022E58290039977
:1014A100F090039DA2AFE433F0C2AF900305E0FDDD
:1014B100A3E0FEA3E0FF90039AEDF0EEA3F0EFA30B
:1014C100F0900398E0FF900399E0FE90039AE0FB0F
:1014D100A3E0FCA3E0FDEB4C700302155590039AC9
:1014E100E0FBA3E0FCA3E0FD74FF2BFB74FF3CFCDD
:1014F1008B828C838DF0125C18FBEBB506028003A6
:1015010002152090039AE0FBA3E0FCA3E0FD8B828F
:101511008C838DF0125C18FBEBB507030215559017
:10152100039AE0FBA3E0FCA3E0FDEB24FAFBEC341F
:10153100FFFC8B828C838DF0125C18FBA3125C186C
:10154100FCA3125C18FD90039AEBF0ECA3F0EDA361
:10155100F00214CC90039DE0FFEF24FF92AF9003C3
:101561009AE0FDA3E0FEA3E0FF8D828E838FF0223F
:10157100AFF0AE83E5829003A1F0EEA3F0EFA3F00C
:101581009003A7A2AFE433F0C2AF90039EE0FDA3A6
:10159100E0FEA3E0FFED24FAFDEE34FFFE8D828E26
:1015A100838FF07400125AACA3125AACA3125AAC36
:1015B1009003A1E0FDA3E0FEA3E0FF8D828E838F67
:1015C100F0125C18FDA3125C18FEA3125C18FFED6B
:1015D1004E60030216049003A1E0FDA3E0FEA3E028
:1015E100FF90039EE0FAA3E0FBA3E0FC8D828E83D3
:1015F1008FF0EA125AACA3EB125AACA3EC125AAC1C
:101601000216D89003A1E0FDA3E0FEA3E0FF8D82C6
:101611008E838FF0125C18FDA3125C18FEA3125C7E
:1016210018FF9003A4EDF0EEA3F0EFA3F09003A454
:10163100E0FDA3E0FEA3E0FFED24FAFDEE34FFFEA2
:101641008D828E838FF0125C18FDA3125C18FEA3AD
:10165100125C18FF7400C0E0C0E0C0E08D828E8390
:101661008FF012000615811581158170030216A6EF
:101671009003A4E0FDA3E0FEA3E0FFED24FAFDEE5C
:1016810034FFFE8D828E838FF0125C18FDA3125CF5
:1016910018FEA3125C18FF9003A4EDF0EEA3F0EF87
:1016A100A3F002162E9003A4E0FDA3E0FEA3E0FF49
:1016B100ED24FAFDEE34FFFE90039EE0FAA3E0FB79
:1016C100A3E0FC8D828E838FF0EA125AACA3EB1259
:1016D1005AACA3EC125AAC9003A7E0FFEF24FF929F
:1016E100AF22AFF0AE83E5829003A8F0EEA3F0EF56
:1016F100A3F09003AB7400F0A3F0A3F09003AEA2AB
:10170100AFE433F0C2AF9003A8E0FDA3E0FEA3E095
:10171100FF8D828E838FF0125C18FDA3125C18FE80
:10172100A3125C18FFED4E70030217C99003A8E0E5
:10173100F53AA3E0F53BA3E0F53C853A82853B838E
:10174100853CF0125C18FAA3125C18FBA3125C181A
:10175100FC9003ABEAF0EBA3F0ECA3F08A008B0161
:101761008C07E824FAF8E934FFF9888289838FF03D
:10177100125C18F8A3125C18F9A3125C18FF853AE1
:1017810082853B83853CF0E8125AACA3E9125AAC3E
:10179100A3EF125AAC8A058B068C07ED24FAFDEEF5
:1017A10034FFFE8D828E838FF07400125AACA31227
:1017B1005AACA3125AAC142AFA74FF3BFB8A828BEF
:1017C100838CF074FF125AAC9003AEE0FFEF24FF5C
:1017D10092AF9003ABE0FDA3E0FEA3E0FF8D828E0C
:1017E100838FF022AFF0AE83E5829003B2F0EEA3D7
:1017F100F0EFA3F0A2AFE433F53AC2AF9003AFE04C
:10180100FCA3E0FDA3E0FE8C018D028E03E924FA26
:10181100F53BEA34FFF53C8B3D9003B2E0F53EA386
:10182100E0F53FA3E0F540853E82853F838540F0AA
:10183100125C18F9A3125C18FAA3125C18FF853B1D
:1018410082853C83853DF0E9125AACA3EA125AAC79
:10185100A3EF125AAC853E82853F838540F0EC129E
:101861005AACA3ED125AACA3EE125AACE53A24FFDE
:1018710092AF22AFF0AE83E5829003BBF0EEA3F00E
:10188100EFA3F09003BEA2AFE433F0C2AF9003BB6D
:10189100E0FDA3E0FEA3E0FF8D828E838FF0125C5A
:1018A10018FDA3125C18FEA3125C18FF9003B5E0AB
:1018B100FAA3E0FBA3E0FCC005C006C0078A828B47
:1018C100838CF01200061581158115817002800349
:1018D10002191D9003BBE0FDA3E0FEA3E0FF90030E
:1018E100B5E0FAA3E0FBA3E0FCEA24FAFAEB34FF4B
:1018F100FB8A828B838CF0125C18FAA3125C18FBB2
:10190100A3125C18FC8D828E838FF0EA125AACA36D
:10191100EB125AACA3EC125AAC02196B9003B8E06B
:10192100FDA3E0FEA3E0FFED24FAFDEE34FFFE90FF
:1019310003B5E0FAA3E0FBA3E0FCEA24FAFAEB34F6
:10194100FFFB8A828B838CF0125C18FAA3125C185D
:10195100FBA3125C18FC8D828E838FF0EA125AACC5
:10196100A3EB125AACA3EC125AAC9003B5E0FDA361
:10197100E0FEA3E0FF8D028E038F04EA24FAFAEB66
:1019810034FFFB8A828B838CF07400125AACA31251
:101991005AACA3125AAC142DFD74FF3EFE8D828EFB
:1019A100838FF074FF125AAC9003BEE0FFEF24FF67
:1019B10092AF22AFF0AE83E5829003C3F0EEA3F0C5
:1019C100EFA3F09003C97400F09003CAA2AFE4330F
:1019D100F0C2AF9003C3E0FDA3E0FEA3E0FF8D8260
:1019E1008E838FF0125C18FDA3125C18FEA3125CAB
:1019F10018FFED4E6003021A2D9003C3E0FDA3E032
:101A0100FEA3E0FF9003BFE0FAA3E0FBA3E0FC8D9F
:101A1100828E838FF0EA125AACA3EB125AACA3EC7C
:101A2100125AAC9003C97401F0021B0E9003C3E07B
:101A3100FDA3E0FEA3E0FF8D828E838FF0125C1880
:101A4100FDA3125C18FEA3125C18FF9003C6EDF013
:101A5100EEA3F0EFA3F09003C2E014F0E0FF9003D7
:101A6100C6E0FCA3E0FDA3E0FEEC24FAFCED34FFAC
:101A7100FD8C828D838EF0125C18FCA3125C18FD24
:101A8100A3125C18FEEC4D7003021AC9EF70030239
:101A91001AC99003C6E0FCA3E0FDA3E0FEEC24FA22
:101AA100FCED34FFFD8C828D838EF0125C18FCA35B
:101AB100125C18FDA3125C18FE9003C6ECF0EDA3B6
:101AC100F0EEA3F01F021A5F9003C2EFF0E0FFEF08
:101AD1007003021B0E9003C6E0FDA3E0FEA3E0FF2E
:101AE100ED24FAFDEE34FFFE9003BFE0FAA3E0FB24
:101AF100A3E0FC8D828E838FF0EA125AACA3EB1225
:101B01005AACA3EC125AAC9003C97401F09003CA09
:101B1100E0FFEF24FF92AF9003C9E0FF8F8222E53F
:101B2100829003CDF0E0FF905C44E493FEC3EF9E0E
:101B31004003021B83901077E0FDA3E0FEA3E0FFCA
:101B41009003CDE0FCEC75F002A42DFDEE35F0FE26
:101B51008D828E838FF0125C18FBA3125C18FC90AF
:101B610003CBE0F9A3E0FAE94203EA42048D828E55
:101B7100838FF0EB125AACA3EC125AAC75820002BF
:101B81001B8675820322E5829003D0F0E0FF905C12
:101B910044E493FEC3EF9E4003021BFCA2AFE43377
:101BA100FFC2AF901077E0FCA3E0FDA3E0FE90033D
:101BB100D0E0FBEB75F002A42CFCED35F0FD8C823E
:101BC1008D838EF0125C18FAA3125C18FB9003CE81
:101BD100E0F8A3E0F9E8F4F8E9F4F9E85202E9528F
:101BE100038C828D838EF0EA125AACA3EB125AACAD
:101BF100EF24FF92AF758200021BFF7582032275ED
:101C0100820022E5829003D3F0E0FFBFFF02800350
:101C1100021C1CD2AF758200021C1F75820722E5CF
:101C2100829003D4F0E0FFBFFF028003021C38C2A0
:101C3100AF758200021C3B758207221220FB9003C4
:101C4100057400F0A3F0A3F01225541231A475829B
:101C51000022121C5A021C53229003D57400F01268
:101C610032259003D5E0FF901077E0FCA3E0FDA3BF
:101C7100E0FEEF75F002A42CFCED35F0FD8C828DB9
:101C8100838EF0125C18FCA3125C18FDEC4D60030E
:101C9100021CA30F905C44E493FEC3EF9E50030229
:101CA1001C689003D5EFF0E0FF905C44E493FEC321
:101CB100EF9E4003021D74901077E0FDA3E0FEA3A8
:101CC100E0FF9003D5E0FCEC75F002A4FAABF0EA7A
:101CD1002DFDEB3EFE8D828E838FF0125C18F8A3F2
:101CE100125C18F99003D6E8F0E9A3F08D828E8397
:101CF1008FF07400125AACA3125AAC900308ECF0A6
:101D0100EA243AF582EB345CF583E493FEA3E49391
:101D1100FFC003C0029003D6E0C0E0A3E0C0E01220
:101D21001D26021D2DC006C0078C8222AE82AF8304
:101D310015811581D002D00390030874FFF0901033
:101D410077E0F9A3E0FCA3E0FDEA29F9EB3CFC898B
:101D5100828C838DF0125C18FAA3125C18FBEA42A4
:101D610006EB420789828C838DF0EE125AACA3EF09
:101D7100125AAC22AFF0AE83E5829003DCF0EEA301
:101D8100F0EFA3F09003DCE0F53AA3E0F53BA3E02C
:101D9100F53C9003D8E0F9A3E0FAA3E0FBA3E0FC53
:101DA10089007D007E007F00853A82853B83853CEA
:101DB100F0E8125AAC9003DC7401253AF074003556
:101DC1003BA3F0E53CA3F09003DCE0F53AA3E0F59A
:101DD1003BA3E0F53C8A007D007E007F00853A82CE
:101DE100853B83853CF0E8125AAC9003DC740125F5
:101DF1003AF07400353BA3F0E53CA3F09003DCE03E
:101E0100F53AA3E0F53BA3E0F53C8B007D007E00B5
:101E11007F00853A82853B83853CF0E8125AAC907D
:101E210003DC7401253AF07400353BA3F0E53CA3D3
:101E3100F09003DCE0FDA3E0FEA3E0FF8C017C0059
:101E41007B007A008D828E838FF0E9125AAC900369
:101E5100DC74012DF074003EA3F0EFA3F09003DCDD
:101E6100E0FDA3E0FEA3E0FF8D828E838FF022AF21
:101E7100F0AE83E5829003E3F0EEA3F0EFA3F090E0
:101E810003E3E0F53AA3E0F53BA3E0F53C9003DF83
:101E9100E0F9A3E0FAA3E0FBA3E0FC89007D007E6A
:101EA100007F00853A82853B83853CF0E8125AAC7D
:101EB1009003E37401253AF07400353BA3F0E53C4F
:101EC100A3F09003E3E0F53AA3E0F53BA3E0F53C92
:101ED1008A007D007E007F00853A82853B83853CB8
:101EE100F0E8125AAC9003E37401253AF07400351E
:101EF1003BA3F0E53CA3F09003E3E0FDA3E0FEA3E8
:101F0100E0FF8B017C007B007A008D828E838FF055
:101F1100E9125AAC9003E374012DF074003EA3F072
:101F2100EFA3F09003E3E0FDA3E0FEA3E0FF8D82C9
:101F31008E838FF022AFF0AE83E5829003E8F0EE5E
:101F4100A3F0EFA3F09003E8E0FDA3E0FEA3E0FF20
:101F5100ED4E6003021F5E758200021FB39003EB1A
:101F61007400F09003E8E0FDA3E0FEA3E0FF90031E
:101F7100E6E0FC9003E7E0FB9003EBE0FAC3EA9BA9
:101F81004003021FB0C003EA2DF874003EF98F032D
:101F9100888289838BF0125C18F8E8B50405D003B8
:101FA100021FACD003758200021FB30A021F7E75A7
:0B1FB100820122900308E0FF8F8222D3
:025C380030003A
:10004D009003ED7400F09003EE7442F09003EF74A2
:10005D0058F09003F0742DF09003F17464F0900358
:10006D00F2F09003F3F09003F404F09003F5746252
:10007D00F09003F67475F09003F77467F09003F841
:10008D00742DF09003F9746EF09003FA04F0900360
:10009D00FB7464F09003FC04F09003FD7400F09089
:1000AD00040374B0F07420A3F09004057400F0A361
:0100BD00F052
:101FBC00E582900407F0E0FF9003ECEFF09004084A
:101FCC007401F090115BF090115C7408F07404A330
:101FDC00F07400A3F07582057583031244AA758210
:101FEC00FF7583FF75F0FF74FF124CCD9003ECE08E
:101FFC00FF9003CB7401F07400A3F08F82121B20AE
:10200C0022C01D85811DE51D24FCF8E620E003029D
:10201C00206175820375830475F0001249D090031A
:10202C00ECE0FF90103D7402F07400A3F090103FB0
:10203C007488F07413A3F07400A3F0A3F08F8212D1
:10204C00289CE51D24FCF8740166FE0886078E8228
:10205C008F830220ADE51D24FCF8E620E10302206D
:10206C00A79003ECE0FF90103D7402F07400A3F015
:10207C0090103F7488F07413A3F07400A3F0A3F0D5
:10208C008F8212289C1220FAE51D24FCF87402663B
:10209C00FE0886078E828F830220AD7582007583C1
:1020AC0000D01D22E582900409F0E0FFC374069F66
:1020BC0050030220EFEF2F2F9020C8730220EF0265
:1020CC0020DD0220E00220E60220E90220E30220CB
:1020DC00EC0220EF0220EF0220EF0220EF0220EFB3
:1020EC000220EF900409E0FF9003EDEFF022229024
:1020FC0010087400F0A3F090100A740AF07404A392
:10210C00F07400A3F090040A7448F07402A3F090E9
:10211C000652F07480A3F090065474B4F07409A3C2
:10212C00F022758201758300122172AD82AE83AFED
:10213C00F0A2AFE433FCC2AFED24FEF9EE34FFFAAB
:10214C008F0390100AE9F0EAA3F0EBA3F08D828ED6
:10215C00838FF0C0041224BED00490100D7401F0D3
:10216C00EC24FF92AF22AF83E58290100EF0EFA328
:10217C00F09010107400F0A3F0A3F0901016F090F3
:10218C00100EE0FEA3E0FF90100E74022EF074000F
:10219C003FA3F090100DE0FFEF70030221BE9010F2
:1021AC000EE0FEA3E0FFC374109E74009F50030268
:1021BC0021D790100AE0FDA3E0FEA3E0FF901013DE
:1021CC00EDF0EEA3F0EFA3F00221E59010137454A0
:1021DC00F07406A3F07400A3F090100EE0FEA3E0E0
:1021EC00FF901013E0FBA3E0FCA3E0FD0BBB000190
:1021FC000C8B828C838DF0125C1820E70302221565
:10220C009010167400F002230E901016E0FDED7085
:10221C00030222CC901010E0FBA3E0FCA3E0FD8BAA
:10222C003A8C3B8D3C8B008C018D02888289838A91
:10223C00F0125C18F53DA3125C18547FF53E90101B
:10224C0013E0F8A3E0F9A3E0FA888289838AF012FC
:10225C005C18F53FA3125C18547FF540A83FAA40C8
:10226C00E8253DF8EA353EFA853A82853B83853C84
:10227C00F0E500125AACA3EA547FC0F0C0E0125C47
:10228C0018D0F0548045F0D0F0125AAC8B828C836D
:10229C008DF0125C18FBA3125C18547FFCC3EB9EF0
:1022AC00EC9F500302230E901010E0FBA3E0FCA364
:1022BC00E0FD901013EBF0ECA3F0EDA3F002236C17
:1022CC00901013E0FBA3E0FCA3E0FD8B828C838DCC
:1022DC00F0125C18FBA3125C18547FFCC3EB9EEC51
:1022EC009F400302236C9010167401F0901013E0C1
:1022FC00FBA3E0FCA3E0FD901010EBF0ECA3F0EDE1
:10230C00A3F0901013E0FBA3E0FCA3E0FD8B008C8A
:10231C00018D028B828C838DF0125C18FBA3125CF6
:10232C0018547FFCEB28F8EC39F9901013E8F0E91D
:10233C00A3F0EAA3F0901013E0FBA3E0FCA3E0FDF4
:10234C008B828C838DF0125C18FBA3125C18FCEB57
:10235C004C60030221ED9010137400F0A3F0A3F075
:10236C00901013E0FDA3E0FEA3E0FFED4E7003021E
:10237C0024AB901013E0FDA3E0FEA3E0FF8D828E52
:10238C00838FF0125C18FDA3125C18547FFE901022
:10239C000EE0FCA3E0FFEDC39CFDEE9FFE9010173A
:1023AC00EDF0EEA3F0C3ED9404EE94005003022480
:1023BC0011901013E0FDA3E0FEA3E0FF8D028E034D
:1023CC008F0490100EE0F8A3E0F9E82AFAE93BFB41
:1023DC008A3A8B3B8C3C901017E0FBA3E0FC853ACF
:1023EC0082853B83853CF0EB125AACA3EC125AACC1
:1023FC004301808D828E838FF0E8125AACA3E912D0
:10240C005AAC02242F901013E0FDA3E0FEA3E0FFD2
:10241C000DBD00010E8D828E838FF0125C184480EE
:10242C00125AAC90100DE0FFEF700302249F901035
:10243C000AE0FDA3E0FEA3E0FF901013E0FAA3E096
:10244C00FBA3E0FCC002C003C0048D828E838FF01E
:10245C001200061581158115817002800302249FDC
:10246C00901013E0FDA3E0FEA3E0FF8D028E038F1E
:10247C00048D828E838FF0125C18FDA3125C1854AD
:10248C007FFEED2AFAEE3BFB90100AEAF0EBA3F08C
:10249C00ECA3F0901013E02402F0A3E03400F0C39E
:1024AC00901013E0FDA3E0FEA3E0FF8D828E838FDE
:1024BC00F022AFF0AE83E582901019F0EEA3F0EFAE
:1024CC00A3F0901019E0FDA3E0FEA3E0FFED24FEC5
:1024DC00FAEE34FFFB8F0490101CEAF0EBA3F0EC47
:1024EC00A3F090101FA2AFE433F0C2AF74FF2DFD28
:1024FC0074FF3EFE8D828E838FF0125C18547F1217
:10250C005AAC90100AE0FDA3E0FEA3E0FFC005C0AA
:10251C0006C0078A828B838CF01200061581158108
:10252C001581400302254990101CE0FDA3E0FEA399
:10253C00E0FF90100AEDF0EEA3F0EFA3F090101F67
:10254C00E0FFEF24FF92AF229010237400F0A3F071
:10255C00A3F0A3F022E58290102DF0E0FF9010275D
:10256C00E0FDA3E0FE901034EDF0EEA3F08F8212AC
:10257C00278AAD82AE83AFF090102EEDF0EEA3F073
:10258C00EFA3F0ED4E70030225E090102EE0FDA3BA
:10259C00E0FEA3E0FF74032DF51074003EF5118FDF
:1025AC0012901029E0F8A3E0F9A3E0FBA3E0FC856E
:1025BC0010828511838512F0E8125AACA3E9125AE5
:1025CC00ACA3EB125AACA3EC125AAC8D828E838F57
:1025DC00F002278975820E758300122172AD82AECE
:1025EC0083AFF090102EEDF0EEA3F0EFA3F0ED4ED4
:1025FC00700302278090102EE0FDA3E0FEA3E0FF05
:10260C0074072DFA74003EFB8F04901027E0F8A39A
:10261C00E0F98A828B838CF0E8125AACA3E9125A47
:10262C00AC74092DFA74003EFB8F0490102DE0F968
:10263C008A828B838CF0E9125AAC74032DF51074DA
:10264C00003EF5118F12901029E0F8A3E0F9A3E0F9
:10265C00FBA3E0FC8510828511838512F0E8125AE9
:10266C00ACA3E9125AACA3EB125AACA3EC125AACC1
:10267C008D828E838FF07400125AACA3125AACA3C5
:10268C00125AAC740A2DFD74003EFE8D828E838F1F
:10269C00F07400125AACA3125AACA3125AACA31287
:1026AC005AAC901020E0FDA3E0FEA3E0FFED4E60DD
:1026BC00030226D990102EE0FDA3E0FEA3E0FF90CC
:1026CC001020EDF0EEA3F0EFA3F002276C90102099
:1026DC00E0FDA3E0FEA3E0FF901031EDF0EEA3F0DF
:1026EC00EFA3F0901031E0FDA3E0FEA3E0FF8D829C
:1026FC008E838FF0125C18FDA3125C18FEA3125C83
:10270C0018FFED4E7003022742901031E0FDA3E05C
:10271C00FEA3E0FF8D828E838FF0125C18FDA31256
:10272C005C18FEA3125C18FF901031EDF0EEA3F0D4
:10273C00EFA3F00226EF901031E0FDA3E0FEA3E042
:10274C00FF90102EE0FAA3E0FBA3E0FC8D828E83B9
:10275C008FF0EA125AACA3EB125AACA3EC125AAC9F
:10276C0090102EE0FDA3E0FEA3E0FF8D828E838F00
:10277C00F002278975820075830075F00022E582CE
:10278C00901036F0901020E0FDA3E0FEA3E0FF9047
:10279C001037EDF0EEA3F0EFA3F0901036E0FF90C1
:1027AC001034E0FDA3E0FE901037E0FAA3E0FBA3A9
:1027BC00E0FCEA4B7003022845901037E0FAA3E0E6
:1027CC00FBA3E0FC74072AFA74003BFB8A828B8320
:1027DC008CF0125C18FAA3125C18FBEAB50506EB38
:1027EC00B506028003022818901037E0FAA3E0FB2C
:1027FC00A3E0FC74092AFA74003BFB8A828B838C5D
:10280C00F0125C18FAEAB50703022845901037E07D
:10281C00FAA3E0FBA3E0FC8A828B838CF0125C1899
:10282C00FAA3125C18FBA3125C18FC901037EAF0A8
:10283C00EBA3F0ECA3F00227B3901037E0FDA3E07C
:10284C00FEA3E0FF8D828E838FF022AFF0AE83E586
:10285C008290103AF0EEA3F0EFA3F090103AE0FD66
:10286C00A3E0FEA3E0FFED4E700302289B90103A0C
:10287C00E0FDA3E0FEA3E0FF74072DFD74003EFE17
:10288C008D828E838FF07400125AACA3125AAC2234
:10289C00E582901043F0C3901043E0FF90103DE0B0
:1028AC00FDA3E0FE90103FE0F9A3E0FAA3E0FBA348
:1028BC00E0FC901027EDF0EEA3F0901029E9F0EA7F
:1028CC00A3F0EBA3F0ECA3F08F82122561AD82AEE6
:1028DC0083AFF0ED4E70030228EB7F000228ED7FF2
:1028EC00088F8222E58290104AF090104BA2AFE440
:1028FC0033F0C2AF90104AE0FF901044E0FDA3E02B
:10290C00FE901046E0F9A3E0FAA3E0FBA3E0FC90F4
:10291C001027EDF0EEA3F0901029E9F0EAA3F0EB0C
:10292C00A3F0ECA3F08F82122561AD82AE83AFF0E1
:10293C0090104CEDF0EEA3F0EFA3F0ED4E7003020F
:10294C00298890104CE0FDA3E0FEA3E0FF740A2D53
:10295C00FD74003EFE901046E0F9A3E0FAA3E0FB04
:10296C00A3E0FC8D828E838FF0E9125AACA3EA129D
:10297C005AACA3EB125AACA3EC125AAC90104BE02D
:10298C00FFEF24FF92AF90104CE0FDA3E0FEA3E01C
:10299C00FFED4E70030229A97F000229AB7F088F3F
:1029AC008222E582901051F0901052A2AFE433F0E5
:1029BC00C2AF901051E0FF90104FE0FDA3E0FE90ED
:1029CC001034EDF0EEA3F08F8212278AAD82AE8325
:1029DC00AFF0901053EDF0EEA3F0EFA3F0ED4E70CE
:1029EC0003022A04901053E0FDA3E0FEA3E0FF8D48
:1029FC00828E838FF0122857901052E0FFEF24FF45
:102A0C0092AF901053E0FDA3E0FEA3E0FFED4E70FB
:102A1C0003022A257F00022A277F068F8222E58265
:102A2C00901058F090105A7400F0A3F0A3F0A3F09B
:102A3C00901059A2AFE433F0C2AF901058E0FF9061
:102A4C001056E0FDA3E0FE901034EDF0EEA3F08FF5
:102A5C008212278AAD82AE83AFF090105EEDF0EE5D
:102A6C00A3F0EFA3F0ED4E7003022AB290105EE0DB
:102A7C00FDA3E0FEA3E0FF74032DFD74003EFE8D6C
:102A8C00828E838FF0125C18FDA3125C18FEA312C9
:102A9C005C18FFA3125C18FC90105AEDF0EEA3F03A
:102AAC00EFA3F0ECA3F0901059E0FFEF24FF92AFEE
:102ABC0090105AE0FCA3E0FDA3E0FEA3E0FF8C82A3
:102ACC008D838EF0EF229010627400F0901061A252
:102ADC00AFE433F0C2AF901020E0FDA3E0FEA3E022
:102AEC00FF901063EDF0EEA3F0EFA3F0901062E016
:102AFC00FF901063E0FCA3E0FDA3E0FEEC4D70033F
:102B0C00022B3D0F901063E0FCA3E0FDA3E0FE8CD4
:102B1C00828D838EF0125C18FCA3125C18FDA3123C
:102B2C005C18FE901063ECF0EDA3F0EEA3F0022A1B
:102B3C00FD901062EFF0901061E0FFEF24FF92AF78
:102B4C00901062E0FF8F8222AF82AE83ADF0FC90DA
:102B5C001066EFF0EEA3F0EDA3F0ECA3F09010668E
:102B6C00E0FCA3E0FDA3E0FEA3E0FF901070ECF00E
:102B7C00EDA3F0EEA3F0EFA3F0901023E0F8A3E0A8
:102B8C00F9A3E0FAA3E0FB901023EC28F0ED39A3B5
:102B9C00F0EE3AA3F0EF3BA3F0901020E0FDA3E0A1
:102BAC00FEA3E0FFED4E700302318D901020E0FD8E
:102BBC00A3E0FEA3E0FF90106AEDF0EEA3F0EFA30C
:102BCC00F090106D7400F0A3F0A3F090106AE0FD8B
:102BDC00A3E0FEA3E0FFED4E700302318D90107464
:102BEC007400F0A3F0A3F0901072E0FEA3E0FFEEEF
:102BFC004F6003022D48901071E06003022D489045
:102C0C00106AE0FDA3E0FEA3E0FF74032DFD740049
:102C1C003EFE8D828E838FF0125C18FD901070E05A
:102C2C00FFC3ED9F5003022C6890106AE0FDA3E0F7
:102C3C00FEA3E0FF74032DFD74003EFE901070E0C7
:102C4C00FC8D828E838FF0125C18FBEBC39CFC8D89
:102C5C00828E838FF0EC125AAC022E2590106AE013
:102C6C00FDA3E0FEA3E0FF74032DFD74003EFE8D7A
:102C7C00828E838FF0125C18FDA3125C18FEA312D7
:102C8C005C18FFA3125C18FC901070E0F8A3E0F93C
:102C9C00A3E0FAA3E0FBC3E89DE99EEA9FEB9C400E
:102CAC0003022D1B90106AE0FDA3E0FEA3E0FF746D
:102CBC00032DFD74003EFE8D828E838FF0125C1806
:102CCC00F513A3125C18F514A3125C18F515A312D6
:102CDC005C18F516901070E0F8A3E0FAA3E0FBA3E3
:102CEC00E0FCE513C398F8E5149AFAE5159BFBE5AF
:102CFC00169CFC8D828E838FF0E8125AACA3EA12DC
:102D0C005AACA3EB125AACA3EC125AAC022E25907F
:102D1C00106AE0FDA3E0FEA3E0FF74032DFD740038
:102D2C003EFE8D828E838FF07400125AACA3125A21
:102D3C00ACA3125AACA3125AAC022E2590106AE026
:102D4C00FDA3E0FEA3E0FF74032DFD74003EFE8D99
:102D5C00828E838FF0125C18FDA3125C18FEA312F6
:102D6C005C18FFA3125C18FC901070E0F8A3E0F95B
:102D7C00A3E0FAA3E0FBC3E89DE99EEA9FEB9C402D
:102D8C0003022DFB90106AE0FDA3E0FEA3E0FF74AC
:102D9C00032DFD74003EFE8D828E838FF0125C1825
:102DAC00F513A3125C18F514A3125C18F515A312F5
:102DBC005C18F516901070E0F8A3E0FAA3E0FBA302
:102DCC00E0FCE513C398F8E5149AFAE5159BFBE5CE
:102DDC00169CFC8D828E838FF0E8125AACA3EA12FB
:102DEC005AACA3EB125AACA3EC125AAC022E25909F
:102DFC00106AE0FDA3E0FEA3E0FF74032DFD740058
:102E0C003EFE8D828E838FF07400125AACA3125A40
:102E1C00ACA3125AACA3125AAC90106AE0FDA3E01A
:102E2C00FEA3E0FF74032DFD74003EFE8D828E83A5
:102E3C008FF0125C18FDA3125C18FEED4E600302BD
:102E4C002F6A90106AE0FDA3E0FEA3E0FF74052D4D
:102E5C00FD74003EFE8D828E838FF0125C18FDA3F4
:102E6C00125C18FEED4E6003022F6A90106AE0FDB2
:102E7C00A3E0FEA3E0FF740A2DFD74003EFE8D82DC
:102E8C008E838FF0125C18FDA3125C18FEA3125CEB
:102E9C0018FFA3125C18FCED4E4F4C7003022F6A06
:102EAC0090106AE0FDA3E0FEA3E0FF74072DFD7413
:102EBC00003EFE8D828E838FF0125C18FDA3125C97
:102ECC0018FEED4E7003022F6A90106AE0FDA3E02D
:102EDC00FEA3E0FF74092DFA74003EFB8F048A8276
:102EEC008B838CF0125C18FA74072DF974003EFB7E
:102EFC008F0489828B838CF0125C18F9A3125C18F6
:102F0C00FB9003CBE9F0EBA3F08A82C007C006C0AC
:102F1C0005121B20D005D006D00774032DFA7400BF
:102F2C003EFB8F04740A2DFD74003EFE8D828E8351
:102F3C008FF0125C18F9A3125C18FDA3125C18FE3A
:102F4C00A3125C18FF8A828B838CF0E9125AACA313
:102F5C00ED125AACA3EE125AACA3EF125AAC90106D
:102F6C006AE0FDA3E0FEA3E0FF74032DFD74003EB8
:102F7C00FE8D828E838FF0125C18FDA3125C18FEFE
:102F8C00ED4E6003022FBC90106AE0FDA3E0FEA39F
:102F9C00E0FF74052DFD74003EFE8D828E838FF054
:102FAC00125C18FDA3125C18FEED4E7003022FE5A7
:102FBC0090106AE0FDA3E0FEA3E0FF74072DFD7402
:102FCC00003EFE8D828E838FF0125C18FDA3125C86
:102FDC0018FEED4E600302309A90106DE0FDA3E0F8
:102FEC00FEA3E0FFED4E600302302490106AE0FD7A
:102FFC00A3E0FEA3E0FF8D828E838FF0125C18FDA0
:10300C00A3125C18FEA3125C18FF901020EDF0EEDA
:10301C00A3F0EFA3F002306290106DE0FDA3E0FE90
:10302C00A3E0FF90106AE0FAA3E0FBA3E0FC8A8225
:10303C008B838CF0125C18FAA3125C18FBA3125C45
:10304C0018FC8D828E838FF0EA125AACA3EB125AC5
:10305C00ACA3EC125AAC90106AE0FDA3E0FEA3E026
:10306C00FF901074EDF0EEA3F0EFA3F08D828E8341
:10307C008FF0125C18FDA3125C18FEA3125C18FFF3
:10308C0090106AEDF0EEA3F0EFA3F00230CF9010A9
:10309C006AE0FDA3E0FEA3E0FF90106DEDF0EEA35F
:1030AC00F0EFA3F08D828E838FF0125C18FDA312CB
:1030BC005C18FEA3125C18FF90106AEDF0EEA3F002
:1030CC00EFA3F0901074E0FDA3E0FEA3E0FFED4E43
:1030DC007003022BD7901074E0FDA3E0FEA3E0FF79
:1030EC0074032DFD74003EFE8D828E838FF0125C76
:1030FC0018FDA3125C18FEED4E60030231769010A1
:10310C0074E0FDA3E0FEA3E0FF74052DFD74003E0A
:10311C00FE8D828E838FF0125C18FDA3125C18FE5C
:10312C00ED4E6003023176901074E0FDA3E0FEA337
:10313C00E0FF74092DFA74003EFB8F048A828B83A6
:10314C008CF0125C18FA74072DFD74003EFE8D8213
:10315C008E838FF0125C18FDA3125C18FE9003CBCB
:10316C00EDF0EEA3F08A82121B20901074E0FDA308
:10317C00E0FEA3E0FF8D828E838FF01224BE022B23
:10318C00D722901023E0FCA3E0FDA3E0FEA3E0FF18
:10319C008C828D838EF0EF22905C44E493FFEF756C
:1031AC00F002A4FFAEF08F828E83122172AD82AE3C
:1031BC0083AFF0901077EDF0EEA3F0EFA3F0905CFE
:1031CC0044E493FCEC75F002A4FCABF090033E7469
:1031DC0000F090033FECF0EBA3F08D828E838FF028
:1031EC0012084B758200124A207582011250AE757E
:1031FC008202121FBC75820312403A75820412417E
:02320C002A2274
:0B5C3A00924AD2500D20574047410510
:1000BE0090107A7400F0A3F090107CF0A3F09010E2
:0E00CE007EF0A3F0901080F0A3F0A3F0A3F05A
:10320E00AEA27F00ACA37D008C057C00EC2EFEED03
:10321E003FFF8E828F83229010887400F0A3F012ED
:10322E00320EAE82AF83901084EEF0EFA3F09010CA
:10323E007AE0FCA3E0FDEEB50407EFB5050302331B
:10324E005390107AE0FEA3E0FF901084E0FCA3E020
:10325E00FD901086ECC39EF0ED9FA3F090107AECDB
:10326E00F0EDA3F0901086E0FEA3E0FF901088E052
:10327E00FCA3E0FDC374319E74339F40030232B54C
:10328E00EE24CFFEEF34CCFF74FE2CFC741F3DFDFC
:10329E0090107CE0FAA3E0FB90107C74052AF07489
:1032AE00003BA3F0023282901086EEF0EFA3F09076
:1032BE001088ECF0EDA3F0901086E0FEA3E0FF90F6
:1032CE001220EEF0EFA3F0758205758300125AC737
:1032DE00AE82AF8390107CE0FCA3E0FDEC2EFEED01
:1032EE003FFF8E04EFC423CCC423541F6CCC541F59
:1032FE00CC6CCCFD901088E0FAA3E0FB901088EC2B
:10330E002AF0ED3BA3F090107C74075EF07400A3DE
:10331E00F0901088E0FEA3E0FFEE4F7003023353EF
:10332E00901088E0FEA3E0FF8E828F83C007C00658
:10333E00123354D006D0077D007C008E828F838D91
:10334E00F0EC122B5422AF83E58290108AF0EFA39B
:10335E00F090108AE0FEA3E0FF90107EE0FCA3E068
:10336E00FD90107EEE2CF0EF3DA3F090107EE0FE6F
:10337E00A3E0FFC3EE94E8EF9403500302340090F1
:10338E00107EE0FEA3E0FF9011E874E8F07403A352
:10339E00F08E828F83C007C006125506AC82AD83B5
:1033AE00D006D007901080E0F521A3E0F522A3E02F
:1033BE00F523A3E0F5248C028D037C007D00901094
:1033CE0080EA2521F0EB3522A3F0EC3523A3F0EDB6
:1033DE003524A3F090122674E8F07403A3F08E82C5
:1033EE008F83125B53E5828583F090107EF0E5F0BB
:1033FE00A3F022AF82AE83ADF0FC90108CEFF0EE16
:10340E00A3F0EDA3F0ECA3F090108CE0FCA3E0FD94
:10341E00A3E0FEA3E0FF901080ECF0EDA3F0EEA38E
:10342E00F0EFA3F022901080E0FCA3E0FDA3E0FEFD
:10343E00A3E0FF8C828D838EF0EF22AFF0AE83E59A
:10344E0082901094F0EEA3F0EFA3F0901090E0F5C0
:10345E0025A3E0F526A3E0F527A3E0F5289011EECD
:10346E007480F07451A3F07401A3F07400A3F0857E
:10347E0025828526838527F0E5281255A085822989
:10348E0085832A85F02BF52C901094E0FDA3E0FEA9
:10349E00A3E0FF9011EE743CF07400A3F0A3F0A330
:1034AE00F0852982852A83852BF0E52CC007C0067E
:1034BE00C0051255A0A982AA83ABF0FCD005D00698
:1034CE00D0078D828E838FF0E9125AAC74012DF5E0
:1034DE002D74003EF52E8F2F9011EE7410F0740E99
:1034EE00A3F07400A3F0A3F0852982852A83852B8F
:1034FE00F0E52CC007C006C0051255A0A882A9830E
:10350E00ABF0FCD005D006D0079011FD743CF074E2
:10351E0000A3F0A3F0A3F0888289838BF0ECC007A0
:10352E00C006C00512573AA982AA83ABF0FCD0059B
:10353E00D006D007852D82852E83852FF0E9125A6D
:10354E00AC74022DF52D74003EF52E8F2F9011FDCB
:10355E007410F0740EA3F07400A3F0A3F08529820A
:10356E00852A83852BF0E52CC007C006C0051257AF
:10357E003AA882A983ABF0FCD005D006D007852DE2
:10358E0082852E83852FF0E8125AAC9011FD74803F
:10359E00F07451A3F07401A3F07400A3F08525829A
:1035AE008526838527F0E528C007C006C00512577B
:1035BE003AA982AA83ABF0FCD005D006D0079010B2
:1035CE0097E9F0EAA3F074052DFD74003EFE8D829E
:1035DE008E838FF074D0125AACA37407125AAC902B
:1035EE001094E0FDA3E0FEA3E0FF74052DFD740032
:1035FE003EFE8D828E838FF0125C18FBA3125C1838
:10360E00FC9012267490F07401A3F08B828C83C010
:10361E0007C006C005125B53AB82AC83D005D00643
:10362E00D007EB4CB40100E433FBEB600302369899
:10363E008D828E838FF0125C18FBA3125C18FC90A7
:10364E0012267464F07400A3F08B828C83C007C0C2
:10365E0006C005125B53E5828583F0D005D006D0F7
:10366E000745F0700302369F8D828E838FF0125CB9
:10367E0018FBA3125C18FC5303037C00EB4CB40143
:10368E0000E433FBEB700302369F7B6E7C01023647
:10369E00A37B6D7C01901097E0F9A3E0FAC3E99B40
:1036AE00EA9C50030237918D828E838FF0125C1844
:1036BE00FBA3125C18FC9012267490F07401A3F018
:1036CE008B828C83C007C006C005125B53AB82ACE5
:1036DE0083D005D006D007EB4CB40100E433FBEBEE
:1036EE00600302374D8D828E838FF0125C18FBA320
:1036FE00125C18FC9012267464F07400A3F08B8296
:10370E008C83C007C006C005125B53E5828583F02B
:10371E00D005D006D00745F070030237548D828E47
:10372E00838FF0125C18FBA3125C18FC5303037C0E
:10373E0000EB4CB40100E433FBEB70030237547B17
:10374E006E7C010237587B6D7C01901097E0F9A3D7
:10375E00E0FA901097E9C39BF0EA9CA3F08D828E5D
:10376E00838FF0125C18FBA3125C18FC0BBB0001DC
:10377E000C8D828E838FF0EB125AACA3EC125AACE6
:10378E00023600901094E0FDA3E0FEA3E0FF740467
:10379E002DFD74003EFE8D828E838FF07400125AC2
:1037AE00AC901094E0FDA3E0FEA3E0FF74052DFAAB
:1037BE0074003EFB8F0474042DFD74003EFE8A825D
:1037CE008B838CF0125C18F8A3125C18F9901226F9
:1037DE007490F07401A3F088828983C007C006C07C
:1037EE0005C004C003C002125B53A882A983D00295
:1037FE00D003D004D005D006D007E849B40100E4C8
:10380E0033F8E860030238818A828B838CF0125C75
:10381E0018F8A3125C18F99012267464F07400A3C1
:10382E00F088828983C007C006C005C004C003C0EB
:10383E0002125B53E5828583F0D002D003D004D010
:10384E0005D006D00745F0700302387C8A828B8340
:10385E008CF0125C18F8A3125C18F953000379006F
:10386E00E849B40100E433F8E860030238817900D6
:10387E000238837901C002C003C0048D828E838F0B
:10388E00F0125C18F8901099E8F08982C007C00613
:10389E00C005C004C003C002123A17A982D002D0DC
:1038AE0003D004D005D006D007901097E0F8A3E01F
:1038BE00FC7B00C3E899EC9BD004D003D0025003EC
:1038CE000239F18A828B838CF0125C18F8A3125C99
:1038DE0018F99012267490F07401A3F088828983EF
:1038EE00C007C006C005C004C003C002125B53A8C7
:1038FE0082A983D002D003D004D005D006D007E829
:10390E0049B40100E433F8E860030239868A828BF9
:10391E00838CF0125C18F8A3125C18F990122674BE
:10392E0064F07400A3F088828983C007C006C005C6
:10393E00C004C003C002125B53E5828583F0D0023F
:10394E00D003D004D005D006D00745F0700302395D
:10395E00818A828B838CF0125C18F8A3125C18F9A2
:10396E005300037900E849B40100E433F8E860033A
:10397E0002398679000239887901C002C003C00479
:10398E008D828E838FF0125C18F8901099E8F08972
:10399E0082C007C006C005C004C003C002123A1799
:1039AE00A982D002D003D004D005D006D00789005A
:1039BE007900901097E0FBA3E0FC901097EBC39872
:1039CE00F0EC99A3F08D828E838FF0125C18FC0CB4
:1039DE008D828E838FF0EC125AACD004D003D002BD
:1039EE000237CC901094E0FDA3E0FEA3E0FF740339
:1039FE002DFD74003EFE901097E0FBA3E0FC8D823F
:103A0E008E838FF0EB125AAC22E58290109AF090D2
:103A1E00109B741FF0901099E0FFBF01028003020B
:103A2E003A3F90109AE0FF90109B741C2FF0023AD0
:103A3E0065901099E0FFC374069F4003023A5390BD
:103A4E001099E014F0901099E0FFEF20E003023A95
:103A5E006590109B741EF090109BE0FF8F8222AF3A
:103A6E00F0AE83E58290109CF0EEA3F0EFA3F09001
:103A7E00109CE0FDA3E0FEA3E0FF74022DFA74009B
:103A8E003EFB8F048A828B838CF0125C18FA9012A4
:103A9E0022EAF07400A3F0A3F0A3F075823C7583C4
:103AAE000075F0007400C007C006C005125AE78505
:103ABE00823085833185F032F533D005D006D007BC
:103ACE0074012DF874003EFB8F0488828B838CF07A
:103ADE00125C18F87C007B007A00901222E82530E8
:103AEE00F0EC3531A3F0EB3532A3F0EA3533A3F029
:103AFE0075823C75830075F0007400C007C006C067
:103B0E0005125AE785823085833185F032F533D040
:103B1E0005D006D0078D828E838FF0125C18F87A4E
:103B2E00007B007C0090109FE82530F0EA3531A331
:103B3E00F0EB3532A3F0EC3533A3F074032DFA74A9
:103B4E00003EFB8F048A828B838CF0125C18FA90F5
:103B5E0010A3EAF07400A3F074042DFD74003EFE71
:103B6E008D828E838FF0125C18FD9010A5EDF09073
:103B7E00109CE0FDA3E0FEA3E0FF74052DFD740094
:103B8E003EFE9010A5E0FC1CEC30E703023C778D66
:103B9E00828E838FF0125C18FAA3125C18FB9012BF
:103BAE00267490F07401A3F08A828B83C007C0063E
:103BBE00C005C004125B53AA82AB83D004D005D0DB
:103BCE0006D007EA4BB40100E433FAEA6003023C84
:103BDE00428D828E838FF0125C18FAA3125C18FB52
:103BEE009012267464F07400A3F08A828B83C0074F
:103BFE00C006C005C004125B53E5828583F0D00475
:103C0E00D005D006D00745F07003023C3D8D828E64
:103C1E00838FF0125C18FAA3125C18FB5302037B1D
:103C2E0000EA4BB40100E433FAEA6003023C427B43
:103C3E0000023C447B01901099ECF08B82C007C0CF
:103C4E0006C005C004123A17AB82D004D005D006C8
:103C5E00D0077A009010A3E0F8A3E0F99010A3EB40
:103C6E0028F0EA39A3F0023B9590109CE0FDA3E00A
:103C7E00FEA3E0FF74052DFD74003EFE8D828E8343
:103C8E008FF0125C18FDA3125C18FE9010A6EDF0DA
:103C9E00EEA3F09010A6E0FEA3E0FF1EBEFF011FF4
:103CAE00C3EE94D0EF94075003023D3E901226745B
:103CBE0090F07401A3F08E828F83C007C006125B52
:103CCE0053AC82AD83D006D007EC4DB40100E43383
:103CDE00FCEC6003023D1E9012267464F07400A387
:103CEE00F08E828F83C007C006125B53E5828583F8
:103CFE00F0D006D00745F07003023D2574035EFC3C
:103D0E007D00EC4DB40100E433FCEC7003023D2564
:103D1E007C6E7D01023D297C6D7D019010A3E0FA41
:103D2E00A3E0FB9010A3EC2AF0ED3BA3F0023CA91C
:103D3E009010A3E0FEA3E0FF901222EEF0EFA3F0AE
:103D4E007400A3F0A3F075828075835175F0017431
:103D5E0000125AE7AC82AD83AEF0FF90109FE0F8F0
:103D6E00A3E0F9A3E0FAA3E0FB90109FEC28F0ED9E
:103D7E0039A3F0EE3AA3F0EF3BA3F090109FE0FCD6
:103D8E00A3E0FDA3E0FEA3E0FF8C828D838EF0EF17
:103D9E002275C60022AF83E5829010A8F0EFA3F043
:103DAE00AFF174FE5FF5F143F30C4386C09010A89B
:103DBE00E0FEA3E0FFBE0006BF0003023DF3BE011E
:103DCE0006BF0003023DFCBE0206BF0003023E0515
:103DDE00BE0306BF0003023E0EBE0406BF00030272
:103DEE003E17023E1D43C50875C23B023E1D43C52C
:103DFE000975C23B023E1D43C50A75C23B023E1DFC
:103E0E0043C50A75C2D8023E1D43C50B75C2D822E2
:103E1E00E5829010AAF0E0F5C1E58630E003023E9F
:103E2E0027E58620E103023E27AF8674FD5FF58607
:103E3E0022AFF0AE83E5829010ABF0EEA3F0EFA3CD
:103E4E00F0E58630E003023E4FE58620E203023EB7
:103E5E004F9010ABE0FDA3E0FEA3E0FF8D828E83BA
:103E6E008FF0E5C1125AAC22AFF0AE83E58290100E
:103E7E00AEF0EEA3F0EFA3F09010AEE0FDA3E0FEE7
:103E8E00A3E0FF8D828E838FF0125C187003023ECA
:103E9E00CD8D828E838FF0125C18FCA3AD82AE8323
:103EAE009010AEEDF0EEA3F0EFA3F08C82C007C041
:103EBE0006C005123E1ED005D006D007023E9190D8
:103ECE0010AEEDF0EEA3F0EFA3F022AFF0AE83E56F
:103EDE00829010B1F0EEA3F0EFA3F09010B1E0FDE0
:103EEE00A3E0FEA3E0FF8D828E838FF0C007C00695
:103EFE00C005123E3FD005D006D0078D828E838F2F
:103F0E00F0125C18FCA3AD82AE839010B1EDF0EE12
:103F1E00A3F0EFA3F0BC0D028003023EF49010B1AB
:103F2E00EDF0EEA3F0EFA3F022AF83E5829010B494
:103F3E00F0EFA3F09010B4E0FEA3E0FF7C0074F06D
:103F4E005FFDEDC4540FFC7D008C82C007C00612CD
:103F5E003FEEAD82D006D0078D82C007C006123E5E
:103F6E001ED006D0077C00740F5FFD8D048C82C0BE
:103F7E0007C006123FEEAD82D006D0078D82C00775
:103F8E00C006123E1ED006D00774F05EFC7D00ED1A
:103F9E00C4CCC4540F6CCC540FCC6CCCFD8C82C0F2
:103FAE0007C006123FEEAD82D006D0078D82C00745
:103FBE00C006123E1ED006D007740F5EFC7D008C2C
:103FCE0082C007C006123FEEAD82D006D0078D82AA
:103FDE00C007C006123E1ED006D0078E828F8322E7
:103FEE00E5829010B6F0E0FFC374099F50030240C3
:103FFE000D9010B6E0FF74302FFF8F820240399083
:10400E0010B6E0FFBF0A0050030240369010B6E033
:10401E00FFC3740F9F50030240369010B6E0FF743A
:0C402E00372FFF8F820240397582FF227D
:0600DC009010B87400F062
:10403A00E5829010B9F0E0FF9010B7EFF09003CB53
:10404A007401F07400A3F08F82121B2022C01D8518
:10405A00811DE51D24FCF8E620E00302409F901034
:10406A00B7E0FF90103D7402F07400A3F090103F87
:10407A0074E8F07403A3F07400A3F0A3F08F821223
:10408A00289CE51D24FCF8740166FE0886078E82CA
:10409A008F830240EBE51D24FCF8E620E103024091
:1040AA00E59010B7E0FF90103D7402F07400A3F0A1
:1040BA0090103F74E8F07403A3F07400A3F0A3F027
:1040CA008F8212289C1240EEE51D24FCF8740266C9
:1040DA00FE0886078E828F830240EB758200758305
:1040EA0000D01D229010B8E0FFBF010280030241F8
:1040FA00139010B87400F09010BA04F0A2809010D7
:10410A00BAE024FF92800241299010B87401F0901D
:10411A0010BA7400F0A2809010BAE024FF928022B4
:0600E2009010BC7400F058
:10412A00E5829010BDF0E0FF9010BBEFF09003CB5A
:10413A007401F07400A3F08F82121B2022C01D8527
:10414A00811DE51D24FCF8E620E00302418D901054
:10415A00BBE0FF90103D7402F07400A3F090103F92
:10416A00741EF07400A3F0A3F0A3F08F8212289CAF
:10417A00E51D24FCF8740166FE0886078E828F838B
:10418A000241D7E51D24FCF8E620E1030241D19063
:10419A0010BBE0FF90103D7402F07400A3F0901081
:1041AA003F741EF07400A3F0A3F0A3F08F821228CC
:1041BA009C1241DAE51D24FCF8740266FE088607A3
:1041CA008E828F830241D7758200758300D01D22AB
:1041DA008590A09010BCE0FFBF010280030242025A
:1041EA009010BC7400F09010BE04F0A2819010BE32
:1041FA00E024FF92810242189010BC7401F09010E2
:10420A00BE7400F0A2819010BEE024FF928122AF1A
:10421A00F0AE83E5829010C0F0EEA3F0EFA3F09029
:10422A0010C37400F0A3F0A3F09010BFE0FFBF0228
:10423A000280030244989010C0E0FDA3E0FEA3E0D0
:10424A00FF8D828E838FF0125C18FC7B000DBD00FF
:10425A00010E8D828E838FF0125C18FD7F008D0710
:10426A007D00ED2CFCEF3BFB8C068B07BC0006BBEC
:10427A001803024336BE0106BF1803024347BE00B5
:10428A0006BF2803024358BE0106BF28030243693A
:10429A00BE0206BF280302437ABE0306BF280302F2
:1042AA00438BBE0006BF290302439CBE0106BF29F9
:1042BA00030243ADBE0206BF29030243BEBE030684
:1042CA00BF29030243CFBE0406BF29030243E0BE4F
:1042DA000506BF29030243F1BE0606BF29030244AD
:1042EA0002BE0706BF2903024413BE0806BF2903FC
:1042FA00024424BE0006BF2A03024435BE0106BF9B
:10430A002A03024446BE0206BF2A03024468BE03C9
:10431A0006BF2A03024457BE0406BF2A0302447991
:10432A00BE0506BF2A0302448A0244989010C37449
:10433A0045F0745CA3F07480A3F00244989010C313
:10434A007447F0745CA3F07480A3F0024498901050
:10435A00C3744DF0745CA3F07480A3F00244989087
:10436A0010C3744FF0745CA3F07480A3F0024498F5
:10437A009010C37451F0745CA3F07480A3F00244EB
:10438A00989010C37453F0745CA3F07480A3F00285
:10439A0044989010C37455F0745CA3F07480A3F031
:1043AA000244989010C37457F0745CA3F07480A30D
:1043BA00F00244989010C37459F0745CA3F07480AE
:1043CA00A3F00244989010C3745BF0745CA3F07479
:1043DA0080A3F00244989010C3745DF0745CA3F05B
:1043EA007480A3F00244989010C3745FF0745CA3C5
:1043FA00F07480A3F00244989010C37473F0745C54
:10440A00A3F07480A3F00244989010C37475F074FA
:10441A005CA3F07480A3F00244989010C37477F000
:10442A00745CA3F07480A3F00244989010C3746182
:10443A00F0745CA3F07480A3F00244989010C374E3
:10444A0063F0745CA3F07480A3F00244989010C3E4
:10445A007467F0745CA3F07480A3F002449890101F
:10446A00C37465F0745CA3F07480A3F0024498905E
:10447A0010C37469F0745CA3F07480A3F0024498CA
:10448A009010C3746BF0745CA3F07480A3F0901066
:10449A00C3E0FDA3E0FEA3E0FF8D828E838FF022AE
:105C45000018011805A006A000280128022803282D
:105C5500002901290229032904290529002A012AE5
:105C6500022A032A042A052A08B009B00AB006291F
:045C750007290829CA
:1000E8009010F37401F09010F474B8F0740BA3F04E
:1000F8009010F67403F09010F714F09010F814F0C4
:100108009010F97406F09010FA7400F09010FBF05B
:100118009010FCF09010FDF09010FEF09010FFF0A1
:10012800901100F0901101F0901102F0901103F07D
:10013800901104F0901105F0901106F0901107F05D
:10014800901108F0901109F090110AF090110BF03D
:1001580090110CF090110DF090110EF090110FF01D
:10016800901110F0901111F0901112F0901113F0FD
:10017800901114F0901115F0901116F0901117F0DD
:10018800901138F0901140F0A3F0901142F0A3F0D4
:10019800A3F0901145F090114BF090114C7406F0BB
:1001A8007400A3F090114E7480F0740CA3F09011B9
:1001B800507400F0A3F090115274E8F07403A3F0A7
:1001C8009011547400F0A3F0901156F0A3F0901120
:0801D80058F0A3F090115AF059
:1044AA00AF83E58290115FF0EFA3F0901161740081
:1044BA00F090115FE0FEA3E0FFBE0505BF03028096
:1044CA000302458890115BE0FFBF010280030245A9
:1044DA007F9010F3E0FF901162EFF090115CE0FD25
:1044EA00A3E0FEA3E0FF8D828E838FF0125C18FD9D
:1044FA009010F3EDF0901162E0FFEF700302452F88
:10450A009010F3E0FFEF600302452F9010C7E0FF21
:10451A00BF0202800302458E9010C6E0FF8F82120E
:10452A004CAA02458E901162E0FFEF600302458EAD
:10453A009010F3E0FFEF700302458E9010C7E0FF82
:10454A00BF01030245689010C7E0FFBF030302459D
:10455A00689010C7E0FFBF0402800302458E9010E6
:10456A00C6E0FF9003CB7401F07400A3F08F8212AF
:10457A001B2002458E9011617418F002458E90112D
:10458A00617402F0901161E0FF8F8222AF83E582AD
:10459A00901166F0EFA3F09011687400F090116624
:1045AA00E0FEA3E0FFC3EF940350030249AEC374D5
:1045BA00189E74039F50030249AEEE240A83F582C3
:1045CA00EE241D83F583E4730421507FB4E30025B0
:1045DA00598DAAC7F6133033587CA1C6EB103F6435
:1045EA008946464646464647474747474747484813
:1045FA0048484848484849494949901163E0FDA359
:10460A00E0FEA3E0FF9010C8E0FC8D828E838FF05D
:10461A00EC125AAC0249C8901163E0FDA3E0FEA374
:10462A00E0FF90030C74C9F07410A3F07400A3F0B7
:10463A0090030F7410F07400A3F08D828E838FF0B4
:10464A001205BE0249C8901163E0FDA3E0FEA3E093
:10465A00FF90030C74D9F07410A3F07400A3F090C7
:10466A00030F7410F07400A3F08D828E838FF01202
:10467A0005BE0249C8901163E0FDA3E0FEA3E0FF76
:10468A009010E9E0F9A3E0FAA3E0FBA3E0FC8D8235
:10469A008E838FF0E9125AACA3EA125AACA3EB123A
:1046AA005AACA3EC125AAC0249C8901163E0FDA3BC
:1046BA00E0FEA3E0FF90030C74EDF07410A3F07415
:1046CA0000A3F090030F7406F07400A3F08D828E9D
:1046DA00838FF01205BE0249C8901163E0FDA3E082
:1046EA00FEA3E0FF9010F3E0FC8D828E838FF0EC46
:1046FA00125AAC0249C8901163E0FDA3E0FEA3E0A0
:10470A00FF9010F4E0FBA3E0FC8D828E838FF0EB28
:10471A00125AACA3EC125AAC0249C8901163E0FDDC
:10472A00A3E0FEA3E0FF9010F6E0FC7B0090030CF0
:10473A0074F7F07410A3F07400A3F090030FECF078
:10474A00EBA3F08D828E838FF01205BE0249C890CA
:10475A001163E0FDA3E0FEA3E0FF901116E0FC7BED
:10476A000090030C7417F07411A3F07400A3F09076
:10477A00030FECF0EBA3F08D828E838FF01205BE4F
:10478A000249C8901163E0FDA3E0FEA3E0FF901187
:10479A0036E0FC8D828E838FF0EC125AAC0249C847
:1047AA00901163E0FDA3E0FEA3E0FF901137E0FC67
:1047BA008D828E838FF0EC125AAC0249C890116335
:1047CA00E0FDA3E0FEA3E0FF90030C7438F074113F
:1047DA00A3F07400A3F090030F7406F07400A3F022
:1047EA008D828E838FF01205BE0249C8901163E054
:1047FA00FDA3E0FEA3E0FF90113EE0FC8D828E83D4
:10480A008FF0EC125AAC0249C8901163E0FDA3E0A4
:10481A00FEA3E0FF90113FE0FC8D828E838FF0ECC7
:10482A00125AAC0249C80249C8901163E0FDA3E0DC
:10483A00FEA3E0FF901140E0FBA3E0FC8D828E8393
:10484A008FF0EB125AACA3EC125AAC0249C8901181
:10485A0063E0FDA3E0FEA3E0FF90114BE0FC7B00C8
:10486A008D828E838FF0EC125AACA3EB125AAC02F3
:10487A0049C8901163E0FDA3E0FEA3E0FF90114C4C
:10488A00E0FBA3E0FC8D828E838FF0EB125AACA37F
:10489A00EC125AAC0249C8901163E0FDA3E0FEA3F2
:1048AA00E0FF90114EE0FBA3E0FC8D828E838FF037
:1048BA00EB125AACA3EC125AAC0249C8901163E04D
:1048CA00FDA3E0FEA3E0FF901150E0FBA3E0FC8D06
:1048DA00828E838FF0EB125AACA3EC125AAC0249C7
:1048EA00C8901163E0FDA3E0FEA3E0FF901152E03F
:1048FA00FBA3E0FC8D828E838FF0EB125AACA3EC03
:10490A00125AAC0249C8901163E0FDA3E0FEA3E08D
:10491A00FF90030C7445F07411A3F07400A3F09097
:10492A00030F7406F07400A3F08D828E838FF01249
:10493A0005BE0249C8901163E0FDA3E0FEA3E0FFB3
:10494A00901154E0FBA3E0FC8D828E838FF0EB1272
:10495A005AACA3EC125AAC0249C8901163E0FDA309
:10496A00E0FEA3E0FF901156E0FBA3E0FC8D828EEF
:10497A00838FF0EB125AACA3EC125AAC0249C890DE
:10498A001163E0FDA3E0FEA3E0FF901158E0FBA352
:10499A00E0FC8D828E838FF0EB125AACA3EC125A94
:1049AA00AC0249C8901166E0FEA3E0FFC3EE94246E
:1049BA00EF940050030249C89011687402F09011F4
:1049CA0068E0FF8F8222AFF0AE83E582901169F032
:1049DA00EEA3F0EFA3F09010C7E0FFEF6003024AE6
:1049EA001C901169E0FDA3E0FEA3E0FFED4E700309
:1049FA00024A13901169E0FDA3E0FEA3E0FF9011C3
:104A0A0042EDF0EEA3F0EFA3F0124C927582000291
:104A1A004A1F75821122E58290116CF0E0FF901016
:104A2A00C6EFF09010C77400F09010C87404F090AC
:104A3A00033E7400F090033F7410F07400A3F07505
:104A4A0082C975831075F00012084B90033E7400FA
:104A5A00F090033F7410F07400A3F07582D9758347
:104A6A001075F00012084B9010E97400F0A3F0A33F
:104A7A00F0A3F0901136F0901137F090113E7407C0
:104A8A00F090113F7400F022C01D85811DE581243C
:104A9A000AF581E51D24FCF8E620E003024BAC9000
:104AAA0010F3E0FFEF7003024B99A91D099011362C
:104ABA00E0FFA707AF1D0FEF04F9901137E0FEA73B
:104ACA000674022FFE7D007C4090030C7438F0744B
:104ADA0011A3F07400A3F090030F7406F07400A3FE
:104AEA00F08E828D838CF0C0071205BED007740841
:104AFA002FF990113EE0FEA70674092FF990113F95
:104B0A00E0FEA7069010C6E0FE90116DEFF074006B
:104B1A00A3F07440A3F08E82124CAEE582700302B9
:104B2A004B999010C77406F0901142E0FDA3E0FE85
:104B3A00A3E0FFED4E7003024B99901142E0FDA3F2
:104B4A00E0FEA3E0FF8D828E838FF0125C18FDA336
:104B5A00125C18FEED4E7003024B99901142E0FD73
:104B6A00A3E0FEA3E0FF8D828E838FF0125C18FD16
:104B7A00A3125C18FE9010C7E0FFC006C005124BD6
:104B8A008E024B95C005C0068F8222D005D006E55D
:104B9A001D24FCF8740166FE0886078E828F830244
:104BAA004C0BE51D24FCF8E620E303024C05124CED
:104BBA0011E5826003024BF275827975835C75F0A8
:104BCA0080123E769010C6E0FF90103D7408F07493
:104BDA0000A3F090103F742CF07401A3F07400A3AA
:104BEA00F0A3F08F8212289CE51D24FCF874086655
:104BFA00FE0886078E828F83024C0B7582007583AE
:104C0A0000851D81D01D22AF8EBF0103024C22BF39
:104C1A000203024C45024C549010C77401F09010E4
:104C2A00C6E0FF9003CB7401F07400A3F08F8212E8
:104C3A001B2075AA00758E00024C5A9010C7740288
:104C4A00F075AA00758E00024C5A758200024C91CA
:104C5A00901142E0FDA3E0FEA3E0FF8D828E838FD8
:104C6A00F0125C18FDA3125C18FE9010C7E0FFC09A
:104C7A0006C005124C83024C8AC005C0068F8222E8
:104C8A00D005D0067582012275AA019010C6E0FFF0
:104C9A009003CB7408F07400A3F08F82121B2022B9
:104CAA007582002275AA029010C6E0FF9003CB74A9
:104CBA0008F07400A3F08F82121B207582002275FF
:034CCA0082002243
:105C790047415020626C6520636B65636B65723DBB
:065C89003D3D3D0D0A0047
:1001E000901175740AF09011767400F09011777484
:1001F00043F09011787468F09011797461F0901167
:100200007A7472F090117B7461F090117C7463F0D9
:1002100090117D7474F090117E7465F090117F746C
:1002200072F09011807469F09011817473F09011E4
:100230008204F09011837469F09011847463F090DB
:1002400011857420F09011867431F090118774003C
:10025000F0901188740AF09011897400F090118A5E
:100260007443F090118B7468F090118C7461F0906D
:10027000118D7472F090118E7461F090118F74630F
:10028000F09011907474F09011917465F090119247
:100290007472F09011937469F09011947473F090EB
:1002A000119504F09011967469F09011977463F0B1
:1002B0009011987420F09011997432F090119A7402
:1002C00000F090119B7402F090119C744DF0745CDE
:1002D000A3F07480A3F090119F23F09011A07400FC
:1002E000F0A3F09011A2749BF0745CA3F07480A34F
:1002F000F09011A57402F09011A67453F0745CA3F1
:10030000F07480A3F09011A923F09011AA7400F06A
:10031000A3F09011AC7475F07411A3F07400A3F005
:100320009011AF7402F09011B07497F0745CA3F068
:100330007480A3F09011B37403F09011B47400F0C2
:10034000A3F09011B67476F07411A3F07400A3F0CA
:100350009011B97402F09011BA7457F0745CA3F064
:100360007480A3F09011BD23F09011BE7400F0A32F
:10037000F09011C07477F07411A3F07400A3F090A2
:1003800011C37402F09011C47499F0745CA3F074FA
:1003900080A3F09011C77403F09011C87400F0A30B
:0F03A000F09011CA7489F07411A3F07400A3F0E7
:104CCD00AF82AE83ADF0FC9011CDEFF0EEA3F0ED21
:104CDD00A3F0ECA3F09011D17400F09011CDE0FC95
:104CED00A3E0FDA3E0FEA3E0FFEC20E003024D27CF
:104CFD009011DE7405F07400A3F09011E0748FF044
:104D0D00745CA3F07480A3F075829B75831175F0AC
:104D1D0000125459E5829011D1F09011D1E0FF8F1E
:104D2D008222C01D85811D7F00E51D24FBF88604B0
:104D3D0008860508860674042CFC74003DFD8C82E3
:104D4D008D838EF0125C18FCEC20E403024D62752D
:104D5D008208024F01E51D24F3F8E60846700302B0
:104D6D004D7575820B024F01E51D24FBF886040875
:104D7D0086050886068C828D838EF0125C18FCBC2D
:104D8D0002028003024EE5E51D24FBF88604088629
:104D9D00050886060CBC00010D8C828D838EF012E9
:104DAD005C18FCA3125C18FDA3125C18FE8C828D9E
:104DBD00838EF0125C18FB7A000CBC00010D8C8206
:104DCD008D838EF0125C18FC7E008C067C00EC2B23
:104DDD00FBEE3AFABBD106BADD03024DF6BBD306A4
:104DED00BADD03024E5F024EC8C007E51D24F5F87B
:104DFD0086040886050886068C828D838EF07401E4
:104E0D00125AACE51D24F8F88604088605088606B6
:104E1D00E51D24FBF8860208860308860774072A19
:104E2D00FA74003BFB8A828B838FF0125C18FAA315
:104E3D00125C18FBA3125C18FF8A828B838FF01211
:104E4D005C18FA8C828D838EF0EA125AACD0070270
:104E5D004EFFC007E51D24F5F88604088605088673
:104E6D00068C828D838EF07401125AACE51D24F8E8
:104E7D00F88604088605088606E51D24FBF88602DB
:104E8D0008860308860774072AFA74003BFB8A829A
:104E9D008B838FF0125C18FAA3125C18FBA3125CC3
:104EAD0018FF8A828B838FF0125C18FA8C828D83A7
:104EBD008EF0EA125AACD007024EFFE51D24F5F82C
:104ECD0086040886050886068C828D838EF0740014
:104EDD00125AAC7F0A024EFFE51D24F5F886040830
:104EED0086050886068C828D838EF07400125AAC6E
:104EFD007F018F82D01D22C01D85811D05810581F9
:104F0D0005817F00E51D24FBF886040886050886CB
:104F1D000674042CFC74003DFD8C828D838EF01282
:104F2D005C18FCEC20E503024F3D7582080250A889
:104F3D00E51D24FBF886040886050886068C828DFF
:104F4D00838EF0125C18FCBC020280030250A4E5B3
:104F5D001D24FBF886040886050886060CBC000196
:104F6D000D8C828D838EF0125C18FCA3125C18FDE3
:104F7D00A3125C18FE8C828D838EF0125C18FB7A66
:104F8D00000CBC00010D8C828D838EF0125C18FC20
:104F9D007E008C067C00EC2BFBEE3AFABB0206BAC7
:104FAD0029030250A6BBD106BADD03024FC7BBD3FE
:104FBD0006BADD0302503302509FEF60030250A684
:104FCD00C007E51D24FBF8860408860508860674CF
:104FDD00072CFC74003DFD8C828D838EF0A81D087E
:104FED00125C18F6A3125C1808F6A3125C1808F6EA
:104FFD00E51D24F8F886020886030886078A828B49
:10500D00838FF0125C18FEA81D088682088683081F
:10501D0086F0EE125AAC8A828B838FF0125C18F5F3
:10502D00C0D0070250A6EF60030250A6C007E51DD1
:10503D0024FBF8860408860508860674072CFC7484
:10504D00003DFD8C828D838EF0A81D08125C18F634
:10505D00A3125C1808F6A3125C1808F6E51D24F8D7
:10506D00F886020886030886078A828B838FF012E2
:10507D005C18FEA81D0886820886830886F0EE124D
:10508D005AAC8A828B838FF0125C18F5C2D007025E
:10509D0050A67F0A0250A67F018F82851D81D01DEB
:0150AD0022E0
:105C8F002F4D044F0000DDDDD1DDD3DD02955C80AB
:0803AF009011D27400F0A3F0DC
:1050AE00E5829011D5F0E0FF9011D4EFF09011D27F
:1050BE007400F0A3F09003CB04F07400A3F08F8281
:1050CE00121B2022C01D85811DE51D24FCF8E62043
:1050DE00E00302511CC39011D4E0FF90103D740107
:1050EE00F07400A3F090103F7464F07400A3F0A36A
:1050FE00F0A3F08F8212289C125125E51D24FCF896
:10510E00740166FE0886078E828F83025122758295
:10511E0000758300D01D22900067E0FCA3E0FDA384
:10512E00E0FEA3E0FF9011D6ECF0EDA3F09011DBC2
:10513E007400F09011DDF0AF8EBF030302515CBF1F
:10514E000403025165BF05030252E0025458758EE6
:10515E000075AA000254589011D6E0F517A3E0F599
:10516E00189011DBE0FD9011D2E0FBA3E0FC8D0165
:10517E007A00C3E99BEA64808CF063F08095F0407E
:10518E00030252CD9011DC7400F0ED75F006A4FB15
:10519E00ACF0E0FAC0058B8274002CF583E0F8A326
:1051AE00E0F9A3E0FDEA75F00AA428F8E935F0F974
:1051BE009011D8E8F0E9A3F0EDA3F008B8000109CA
:1051CE00888289838DF0125C18F8A3125C18F9A3FB
:1051DE00125C18FD888289838DF0125C18F8A31278
:1051EE005C18F9851782851883E493FDA3E493FF79
:1051FE00E8B50506E9B507028005D0050252AAD02A
:10520E0005C0059011DD7401F08B0674002CFF8E25
:10521E00828F83A3A3A3E0F9A3E0FEA3E0FF89821C
:10522E008E838FF0125C18F9A3125C18FE90007238
:10523E00E0F519A3E0F51A900065E0FDA3E0FFC0CC
:10524E0006C005C004C003C002C0017434C0E0C073
:10525E0019C01A7471C0E07400C0E07400C0E0742C
:10526E0074C0E07400C0E07400C0E09011D8E0C0DB
:10527E00E0A3E0C0E0A3E0C0E012528D025296C05F
:10528E0001C0068D828F8322E58124F4F581D00141
:10529E00D002D003D004D005D006D0059011DDE0A9
:1052AE00FFBF01030252BE0ABA040050030251A20C
:1052BE009011DDE0FFBF01030252CD0D025174903B
:1052CE0011DDE0FFBF0102800302545875AA0402EB
:1052DE0054589011D6E0F519A3E0F51A9011DBE0C1
:1052EE00FD9011D2E0FBA3E0FC8D017A00C3E99B97
:1052FE00EA64808CF063F08095F04003025448908D
:10530E0011DC7400F0ED75F006A4FBACF0E0FAC011
:10531E00058B8274002CF583E0F8A3E0F9A3E0FD81
:10532E00EA75F00AA428F8E935F0F99011D8E8F0FA
:10533E00E9A3F0EDA3F008B8000109888289838DF6
:10534E00F0125C18F8A3125C18F9A3125C18FD8811
:10535E008289838DF0125C18F8A3125C18F98519F6
:10536E0082851A83E493FDA3E493FFE8B50506E96D
:10537E00B507028005D005025425D005C005901151
:10538E00DD7401F08B0674002CFF8E828F83A3A335
:10539E00A3E0F9A3E0FEA3E0FF740229F974003E36
:1053AE00FE89828E838FF0125C18F9A3125C18FEB0
:1053BE00900072E0F51BA3E0F51C900071E0F5176C
:1053CE00900065E0FDA3E0FFC006C005C004C00369
:1053DE00C002C001C01BC01CC0177474C0E07400B2
:1053EE00C0E07400C0E09011D8E0C0E0A3E0C0E0DF
:1053FE00A3E0C0E0125408025411C001C0068D8211
:10540E008F8322E58124F7F581D001D002D003D01D
:10541E0004D005D006D0059011DDE0FFBF010302D8
:10542E0054390ABA0400500302531D9011DDE0FFF7
:10543E00BF01030254480D0252EF9011DDE0FFBF91
:10544E000102800302545875AA0522AFF0AE83E51F
:10545E00829011E3F0EEA3F0EFA3F09011D2E0FEF4
:10546E00A3E0FF9011E6EEF0EFA3F0BE0A05BF0039
:10547E0002800302548A7582000255059011E6E0FF
:10548E00FEA3E0FF901220EEF0EFA3F075820675FA
:10549E008300125AC7AE82AF838E0474002FFD9024
:1054AE0011E3E0F9A3E0FAA3E0FB8C828D83E9F02F
:1054BE00EAA3F0EBA3F074002FFF74032EFE74002A
:1054CE003FFF9011E0E0FBA3E0FCA3E0FD8E828F96
:1054DE0083EBF0ECA3F0EDA3F075AA039011D2E0EC
:1054EE00FEA3E0FF8FB08EB79011D274012EF07430
:1054FE00003FA3F075820122AF83E5829011EAF09E
:10550E00EFA3F09011ECE4F0A3F09011E8E0FEA30D
:10551E00E0FF7D109011EAE0FBA3E0FC339200EC7B
:10552E00CB25E0CB33FC9011EAEBF0ECA3F090111D
:10553E00ECE0FBA3E0CB25E0CB33FC9011ECEBF0E1
:10554E00ECA3F03000129011ECE0FBA3E0FC901104
:10555E00EC74014BF0ECA3F09011ECE0FBA3E0FC3B
:10556E00C3EB9EEC9F401D9011ECEBC39EF0EC9FA5
:10557E00A3F09011EAE0FBA3E0FC9011EA74014B5A
:10558E00F0ECA3F0DD8E9011EAE0FEA3E08E82F542
:10559E008322AF82AE83ADF0FC9011F2EFF0EEA35A
:1055AE00F0EDA3F0ECA3F09011F6E4F09011F2E020
:1055BE00FCA3E0FDA3E0FEA3E0FF7B009011EEE074
:1055CE00F53AA3E0F53BA3E0F53CA3E0F53D23540B
:1055DE0001FA7074C003E53A253AF8E53B33F9E574
:1055EE003C33FAE53D33FB9011EEE8F0E9A3F0EA27
:1055FE00A3F0EBA3F09011EEE0F53AA3E0F53BA398
:10560E00E0F53CA3E0F53DC3EC953AED953BEE9508
:10561E003CEF953DD0035027E53DC313F53DE53CEA
:10562E0013F53CE53B13F53BE53A13F53A9011EED5
:10563E00F0E53BA3F0E53CA3F0E53DA3F080090BBC
:10564E009011F6EBF00255CA9011F6E0FF9011F2B0
:10565E00E0FBA3E0FCA3E0FDA3E0FE9011EEE0F57D
:10566E003AA3E0F53BA3E0F53CA3E0F53DC3EB9593
:10567E003AEC953BED953CEE953D40179011F2EBD3
:10568E00C3953AF0EC953BA3F0ED953CA3F0EE9567
:10569E003DA3F09011EEE0FBA3E0FCA3E0FDA3E040
:1056AE00C313FEED13FDEC13FCEB13FB9011EEF0A8
:1056BE00ECA3F0EDA3F0EEA3F08F061FEE708E902C
:1056CE0011F2E0FCA3E0FDA3E0FEA3E08C828D834B
:1056DE008EF022AFF0AE83E5829011FAF0EEA3F0D9
:1056EE00EFA3F09011FAE0FDA3E0FEA3E0FF90110E
:1056FE00F7E0FAA3E0FBA3E0FC8D3A8E3B8F3C8AE9
:10570E00828B838CF0125C18F9A3AA82AB83853A44
:10571E0082853B83853CF0E9125AACA385823A859B
:10572E00833BE970DA8D828E838FF022AF82AE8357
:10573E00ADF0FC901201EFF0EEA3F0EDA3F0ECA3B0
:10574E00F0901205E4F0A3F0A3F0A3F09011FDE0A9
:10575E00FCA3E0FDA3E0FEA3E0FF753A209012014A
:10576E00E0F8A3E0F9A3E0FAA3E0FB339201E82806
:10577E00F8E933F9EA33FAEB33FB901201E8F0E97A
:10578E00A3F0EAA3F0EBA3F0901205E0F8A3E0F982
:10579E00A3E0FAA3E0FBE828F8E933F9EA33FAEBE1
:1057AE0033FB901205E8F0E9A3F0EAA3F0EBA3F0C7
:1057BE0030011E901205E0F8A3E0F9A3E0FAA3E091
:1057CE00FB901205740148F0E9A3F0EAA3F0EBA3F5
:1057DE00F0901205E0F8A3E0F9A3E0FAA3E0FBC312
:1057EE00E89CE99DEA9EEB9F4031901205E8C39C30
:1057FE00F0E99DA3F0EA9EA3F0EB9FA3F0901201B7
:10580E00E0F8A3E0F9A3E0FAA3E0FB901201740123
:10581E0048F0E9A3F0EAA3F0EBA3F0D53A02800337
:10582E0002576B901201E0FCA3E0FDA3E0FEA3E0A3
:07583E008C828D838EF022A5
:06004100E478FFF6D8FD93
:10584500AC82AD8390120AE0FEA3E0FFBE000360C8
:10585500121F0F901209E08C828D83125AACA3DEC1
:10586500FADFF88C828D8322AF83E582901210F0E7
:10587500EFA3F090120CE0FDA3E0FEA3E0FF901271
:105885000FE0F5347B00EB2DF8E43EF98F02C00301
:10589500901210E0FBA3E0FC8534357536009012BC
:1058A50026E535F0E536A3F08B828C83C007C0066C
:1058B500C005C002C001C000125B53AB82AC83D0EF
:1058C50000D001D002D005D006D00774302BFB885C
:1058D5008289838AF0125AACC374B98BF063F08065
:1058E50095F0D0035015888289838AF0125C1824BC
:1058F50007FC888289838AF0125AAC901210E0FA6C
:10590500A3E0FC9011E8E535F0E536A3F08A828C3A
:1059150083C007C006C005C003125506E58285830E
:10592500F0D003D005D006D007901210F0E5F0A313
:10593500F00B901210E0FAA3E0FC4A600302588BCA
:10594500EB14901212F0EB2DFBE43EFC8F028B82E0
:105955008C838AF0E4125AAC7C00901212E0FBC3EF
:10596500EC64808BF063F08095F05050EC2DF537AA
:10597500E43EF5388F398537828538838539F012CD
:105985005C18F535EB2DF8E43EF98F02C005C0062D
:10599500C007888289838AF0125C1885378285382A
:1059A500838539F0125AAC888289838AF0E53512ED
:1059B5005AAC0C1BD007D006D00580A322AF83E5D7
:1059C50082901217F0EFA3F0901217E0FEA3E0FF0C
:1059D50030E737901216E0FDBD0A2F901213E0FB59
:1059E500A3E0FCA3E0FD8B828C838DF0742D125A0D
:1059F500AC90121374012BF0E43CA3F0EDA3F090EE
:105A05001217C3E49EF0E49FA3F0901217E0FEA3E3
:105A1500E0FF901213E0FBA3E0FCA3E0FD9012165B
:105A2500E0FA90120CEBF0ECA3F0EDA3F090120F5E
:105A3500EAF08E828F8302586DAFF0AE83E58290D7
:105A4500121CF0EEA3F0EFA3F090121CE0FDA3E012
:105A5500FEA3E0FF8D028E038F048A828B838CF078
:105A6500125C1860070ABA00F10B80EE901219E07B
