:03000000020034C7
:0303B7000200033E
:030003000203BA3B
:1003BA007581499003007401F0A280900300E02443
:0703CA00FF92800203BD2237
:0600470090030474FFF0B9
:1003D100AFF0AE83E582900305F0EEA3F0EFA3F05A
:1003E100900305E0FDA3E0FEA3E0FF8D828E838FE5
:1003F100F0125A40AE82AF838E828F8322AFF0AE6D
:1004010083E58290030DF0EEA3F0EFA3F0900308D3
:10041100E0FDA3E0FEA3E0FF900313EDF0EEA3F0F7
:10042100EFA3F090030DE0FDA3E0FEA3E0FF900336
:1004310010EDF0EEA3F0EFA3F0900313E0FDA3E0C5
:10044100FEA3E0FF900310E0FAA3E0FBA3E0FC9021
:10045100030BE0F53AA3E0F53BA83AA93B153A7442
:10046100FFB53A02153BE849700302048F8D828E75
:10047100838FF0125A58F9A3AD82AE838A828B839F
:100481008CF0E91258ECA3AA82AB8302045A9003C0
:1004910010EAF0EBA3F0ECA3F0900310E0FDA3E071
:1004A100FEA3E0FF8D828E838FF022AFF0AE83E555
:1004B1008290031BF0EEA3F0EFA3F0900316E0FD92
:1004C100A3E0FEA3E0FF900319E0FBA3E0FC1BBB4C
:1004D100FF011C900321EB2DF0EC3EA3F0EFA3F004
:1004E10090031BE0FDA3E0FEA3E0FF90031EEDF0EF
:1004F100EEA3F0EFA3F0900321E0FDA3E0FEA3E063
:10050100FF90031EE0FAA3E0FBA3E0FC900319E0D7
:10051100F53AA3E0F53BA83AA93B153A74FFB53A81
:1005210002153BE849700302054C8D828E838FF0E2
:10053100125A58F91DBDFF011E8A828B838CF0E986
:100541001258ECA3AA82AB8302051790031EEAF0AE
:10055100EBA3F0ECA3F090031EE0FDA3E0FEA3E00B
:10056100FF8D828E838FF022AFF0AE83E582900300
:1005710026F0EEA3F0EFA3F0900324E0FEA3E0FF4A
:100581008E828F83121FB2AD82AE83AFF0900329AA
:10059100EDF0EEA3F0EFA3F0ED4E70030205DA905B
:1005A1000329E0FDA3E0FEA3E0FF900326E0FAA308
:1005B100E0FBA3E0FC900324E0F8A3E0F99003083A
:1005C100EAF0EBA3F0ECA3F090030BE8F0E9A3F061
:1005D1008D828E838FF01203FE900329E0FDA3E04C
:1005E100FEA3E0FF8D828E838FF022AFF0AE83E514
:1005F10082900331F0EEA3F0EFA3F0900331E0FD20
:10060100A3E0FEA3E0FF900334EDF0EEA3F0EFA32F
:10061100F090032CE0FDA3E0FEA3E0FF900337ED93
:10062100F0EEA3F0EFA3F0900334E0FDA3E0FEA30E
:10063100E0FF900337E0FAA3E0FBA3E0FC90032F77
:10064100E0F53AA3E0F53BA83AA93B153A74FFB5AA
:100651003A02153BE84970030206878D828E838F2B
:10066100F0125A58F9A3AD82AE838A828B838CF043
:10067100125A58F8A3AA82AB83E9B50003020648CF
:1006810075820002068A75820122AFF0AE83E5828F
:1006910090033DF0EEA3F0EFA3F090033DE0FDA346
:1006A100E0FEA3E0FF90033AE0FC90033BE0FAA3F5
:1006B100E0FB901205ECF0901206EAF0EBA3F08D4E
:1006C100828E838FF0125685AD82AE83AFF08D821C
:1006D1008E838FF022AFF0AE83E582900340F0EE7F
:1006E100A3F0EFA3F0900340E0FDA3E0FEA3E0FF41
:1006F1008D828E838FF0125A58FC7B000DBD000154
:100701000E8D828E838FF0125A58FD7F008D077DEA
:1007110000ED2CFCEF3BFB8C828B8322AFF0AE8390
:10072100E582900344F0EEA3F0EFA3F0900343E0E1
:10073100FFBF0202800302078C900344E0FDA3E0A7
:10074100FEA3E0FF8D828E838FF0125A58FC8C013C
:100751007A007B007C000DBD00010E8D828E838F9F
:10076100F0125A58FD8D007D007E007F008E078DAE
:100771000688057800E829F9ED3AFAEE3BFBEF3CF3
:10078100FC89828A838BF0EC020912900343E0FF1B
:10079100BF03028003020823900344E0FDA3E0FEAF
:1007A100A3E0FF8D828E838FF0125A58FC8C3A752C
:1007B1003B00753C00753D0074012DF874003EFB53
:1007C1008F0488828B838CF0125A58F87C007B004E
:1007D1007A008B028C0388047800E8253AF8EC351E
:1007E1003BFCEB353CFBEA353DFA74022DFD740010
:1007F1003EFE8D828E838FF0125A58FD8D017D0051
:100801007E007F008D0789067D007900E928F8EDDB
:100811003CFCEE3BFBEF3AFA88828C838BF0EA02D8
:100821000912900343E0FFBF040280030208F09025
:100831000344E0FDA3E0FEA3E0FF8D828E838FF0F1
:10084100125A58FC8C3A753B00753C00753D00749A
:10085100012DF874003EFB8F0488828B838CF0128B
:100861005A58F87C007B007A008B028C038804784C
:1008710000E8253AF53AEC353BF53BEB353CF53CE8
:10088100EA353DF53D74022DF974003EFB8F048974
:10089100828B838CF0125A58F97C007B007A008C91
:1008A1000289037C007900E9253AF9EC353BFCEB40
:1008B100353CFBEA353DFA74032DFD74003EFE8D97
:1008C100828E838FF0125A58FD8D007D007E007F4D
:1008D10000880778007D007E00E829F9ED3CFCEEF8
:1008E1003BFBEF3AFA89828C838BF0EA0209129082
:1008F1000344E0FDA3E0FEA3E0FF8D828E838FF031
:10090100125A58FD7F007E007C008D828F838EF00D
:10091100EC22AF82AE83ADF0FC90034BEFF0EEA37F
:10092100F0EDA3F0ECA3F090034F7400F0900359A5
:10093100F0900363F0900347E0FDA3E0FEA3E0FF26
:100941008D828E838FF074001258EC90034AE0FF81
:10095100BF0A028003020CA490034BE0FCA3E0FD5C
:10096100A3E0FEA3E0FF9011EA7410F07427A3F056
:100971007400A3F0A3F08C828D838EF0EFC007C0CA
:1009810006C005C0041253E0A882A983AAF0FBD0D7
:1009910004D005D006D00790036DE8F0E9A3F090EC
:1009A10011F97410F07427A3F07400A3F0A3F08C74
:1009B100828D838EF0EFC007C006C005C0041255BA
:1009C1007AA882A983AAF0FBD004D005D006D0076B
:1009D1009011EA7410F07427A3F07400A3F0A3F04F
:1009E100888289838AF0EBC007C006C005C0041263
:1009F10053E0A882A983AAF0FBD004D005D006D089
:100A01000790036FE8F0E9A3F09011F97400F07416
:100A1100E1A3F074F5A3F07405A3F08C828D838EAD
:100A2100F0EF12557AAC82AD83AEF0FF900371EC1A
:100A3100F0EDA3F0EC4D7003020A5F900371E0FE4C
:100A4100A3E0FF90120F7463F07403A3F07400A38A
:100A5100F0901212740AF08E828F83125802900362
:100A61006FE0FEA3E0FFEE4F7003020A9190036F67
:100A7100E0FEA3E0FF90120F7459F07403A3F07429
:100A810000A3F0901212740AF08E828F8312580222
:100A910090036DE0FEA3E0FFEE4F7003020AC390E6
:100AA100036DE0FEA3E0FF90120F744FF07403A3F7
:100AB100F07400A3F0901212740AF08E828F8312E8
:100AC1005802900371E0FEA3E0FFEE4F7003020BAA
:100AD10072900347E0FDA3E0FEA3E0FF9011F374E1
:100AE10063F07403A3F07400A3F08D828E838FF002
:100AF1001255219003737400F0900347E0FDA3E0C9
:100B0100FEA3E0FF900373E0FC75825975830375C2
:100B1100F000C007C006C005C004125A40AA82AB4B
:100B210083D004D005D006D0077404C39AFA7400A8
:100B31009BFB8C007900C3E89AE99B4003020B728E
:100B41008D018E028F039012157478F0745AA3F000
:100B51007480A3F089828A838BF0C007C006C00528
:100B6100C00412587ED004D005D006D0070C020B69
:100B71000A900347E0FDA3E0FEA3E0FF9012157485
:100B810059F07403A3F07400A3F08D828E838FF06B
:100B910012587E900371E0FEA3E0FFEE4F60030266
:100BA1000BB290036FE0FEA3E0FFEE4F7003020C67
:100BB100309003737400F0900347E0FDA3E0FEA3BF
:100BC100E0FF900373E0FC75824F75830375F000BD
:100BD100C007C006C005C004125A40AA82AB83D028
:100BE10004D005D006D0077404C39AFA74009BFBA5
:100BF1008C007900C3E89AE99B4003020C308D0117
:100C01008E028F039012157478F0745AA3F07480D9
:100C1100A3F089828A838BF0C007C006C005C00497
:100C210012587ED004D005D006D0070C020BC89014
:100C31000347E0FDA3E0FEA3E0FF901215744FF01F
:100C41007403A3F07400A3F08D828E838FF0125889
:100C51007E900371E0FEA3E0FFEE4F6003020E57AA
:100C610090036FE0FEA3E0FFEE4F6003020E57908A
:100C7100036DE0FEA3E0FFEE4F6003020E57900309
:100C810047E0FDA3E0FEA3E0FF9011F37478F07458
:100C91005AA3F07480A3F08D828E838FF0125521B8
:100CA100020E5790034AE0FFBF10028003020E4B71
:100CB10090034BE0FCA3E0FDA3E0FEA3E0FF8C006A
:100CC1008D017A007B0090036DE8F0E9A3F08E04BA
:100CD1008F0590036FECF0EDA3F0EC4D7003020D66
:100CE1000590036FE0FEA3E0FF90120F7459F074BA
:100CF10003A3F07400A3F09012127410F08E828F8F
:100D01008312580290036DE0FEA3E0FFEE4F7003E3
:100D1100020D3790036DE0FEA3E0FF90120F744FB8
:100D2100F07403A3F07400A3F09012127410F08E0B
:100D3100828F8312580290036FE0FEA3E0FFEE4F13
:100D41007003020DE6900347E0FDA3E0FEA3E0FF80
:100D51009011F37459F07403A3F07400A3F08D8221
:100D61008E838FF01255219003737400F090034726
:100D7100E0FDA3E0FEA3E0FF900373E0FC75824F6A
:100D810075830375F000C007C006C005C004125A80
:100D910040AA82AB83D004D005D006D0077404C327
:100DA1009AFA74009BFB8C007900C3E89AE99B4096
:100DB10003020DE68D018E028F039012157478F0F7
:100DC100745AA3F07480A3F089828A838BF0C007E0
:100DD100C006C005C00412587ED004D005D006D08C
:100DE100070C020D7E900347E0FDA3E0FEA3E0FFA8
:100DF100901215744FF07403A3F07400A3F08D8268
:100E01008E838FF012587E90036FE0FEA3E0FFEE19
:100E11004F6003020E5790036DE0FEA3E0FFEE4F1B
:100E21006003020E57900347E0FDA3E0FEA3E0FF3D
:100E31009011F37478F0745AA3F07480A3F08D824A
:100E41008E838FF0125521020E5775820075830033
:100E510075F000020E68900347E0FDA3E0FEA3E0F9
:100E6100FF8D828E838FF02222AF83E582900374FF
:100E7100F0EFA3F0900374E0FEA3E0FFEE4F6003F8
:100E8100020E9075820075830075F000020F2D909F
:100E91000374E0FEA3E0FF74062EFE74003FFF8E94
:100EA100828F83121FB2AD82AE83AFF0900376EDD5
:100EB100F0EEA3F0EFA3F0ED4E7003020F249003C8
:100EC10076E0FDA3E0FEA3E0FF8D828E838FF074B8
:100ED100001258ECA31258ECA31258EC74032DFA2B
:100EE10074003EFB8F04900374E0F8A3E0F98A825A
:100EF1008B838CF0E81258ECA3E91258EC74052DA1
:100F0100FA74003EFB8F048A828B838CF074FF128B
:100F110058EC74062DFD74003EFE8D828E838FF099
:100F2100020F2D75820075830075F00022AFF0AEBF
:100F310083E582900379F0EEA3F0EFA3F0900379BB
:100F4100E0FDA3E0FEA3E0FFED4E6003020F567546
:100F51008205020F9E900379E0FDA3E0FEA3E0FF6E
:100F610074FF2DFD74FF3EFE8D828E838FF0125A29
:100F710058FDBDFF03020F7F758204020F9E90038F
:100F810079E0FDA3E0FEA3E0FFED24FAFDEE34FFDE
:100F9100FE8D828E838FF01222FE75820022E58201
:100FA10090037FF0E0FF90037CE0FCA3E0FDA3E071
:100FB100FE900384ECF0EDA3F0EEA3F090038774B0
:100FC10000F08F82120FFBAF828F8222E5829003A5
:100FD10083F0E0FF900380E0FCA3E0FDA3E0FE903E
:100FE1000384ECF0EDA3F0EEA3F09003877401F01D
:100FF1008F82120FFBAF828F8222E582900388F0ED
:10100100900384E0FDA3E0FEA3E0FFED4E60030248
:10101100101975820502113E900388E0FF905A84F1
:10102100E493FEC3EF9E5003021046900384E0FD5B
:10103100A3E0FEA3E0FF8D828E838FF0120F2E7549
:10104100820302113E900384E0FDA3E0FEA3E0FFD2
:10105100ED24FAFDEE34FFFE8D828E838FF0125A5D
:1010610058FDA3125A58FEA3125A58FFED4E6003C1
:10107100021097900384E0FDA3E0FEA3E0FF74FF5C
:101081002DFD74FF3EFE8D828E838FF0125A58FD26
:10109100BDFF030210B1900384E0FDA3E0FEA3E0D5
:1010A100FF8D828E838FF0120F2E75820502113E05
:1010B100900384E0FDA3E0FEA3E0FF74FF2DFD7427
:1010C100FF3EFE900388E0FC8D828E838FF0EC1250
:1010D10058EC900387E0FFBF0102800302110590E5
:1010E1000384E0FDA3E0FEA3E0FF9003ABEDF0EE8F
:1010F100A3F0EFA3F075820175830375F00012165A
:1011010025021127900384E0FDA3E0FEA3E0FF90F8
:10111100039AEDF0EEA3F0EFA3F07582017583035E
:1011210075F0001213B1900388E0FF9003C77400BB
:10113100F07480A3F08F8212196075820022E5821B
:10114100900389F090038D7400F0A3F0A3F0900355
:1011510090F0A3F0A3F0900393A2AFE433F0C2AFF9
:10116100900301E0FDA3E0FEA3E0FF90038AEDF010
:10117100EEA3F0EFA3F0900389E0FF90038AE0FC77
:10118100A3E0FDA3E0FEEC4D700302123990038A47
:10119100E0FCA3E0FDA3E0FE74FF2CFC74FF3DFD29
:1011A1008C828D838EF0125A58FCECB507028003B5
:1011B1000211DC900390E0FCA3E0FDA3E0FEEC4D06
:1011C100600302123990038AE0FCA3E0FDA3E0FE74
:1011D100900390ECF0EDA3F0EEA3F0900390E0FC0F
:1011E100A3E0FDA3E0FEEC4D600302120490038A2C
:1011F100E0FCA3E0FDA3E0FE90038DECF0EDA3F095
:10120100EEA3F090038AE0FCA3E0FDA3E0FEEC2452
:10121100FAFCED34FFFD8C828D838EF0125A58FC5E
:10122100A3125A58FDA3125A58FE90038AECF0ED0E
:10123100A3F0EEA3F002117C90038AE0FDA3E0FE8F
:10124100A3E0FFED4E7003021262900389E0FF906C
:1012510003C77400F07480A3F08F82121960021228
:1012610076900389E0FF9003CA7400F07480A3F0C4
:101271008F821219C7900390E0FDA3E0FEA3E0FF67
:10128100ED4E70030212C0900390E0FDA3E0FEA3B7
:10129100E0FF90038DE0FAA3E0FBA3E0FC9003B133
:1012A100EDF0EEA3F0EFA3F09003B4EAF0EBA3F0BE
:1012B100ECA3F075820175830375F0001216B490EA
:1012C1000393E0FFEF24FF92AF900390E0FDA3E0D2
:1012D100FEA3E0FF8D828E838FF022E5829003953D
:1012E100F0900399A2AFE433F0C2AF900301E0FDA7
:1012F100A3E0FEA3E0FF900396EDF0EEA3F0EFA3D1
:10130100F0900394E0FF900395E0FE900396E0FBDC
:10131100A3E0FCA3E0FDEB4C700302139590039650
:10132100E0FBA3E0FCA3E0FD74FF2BFB74FF3CFC9E
:101331008B828C838DF0125A58FBEBB50602800329
:10134100021360900396E0FBA3E0FCA3E0FD8B8217
:101351008C838DF0125A58FBEBB50703021395905D
:101361000396E0FBA3E0FCA3E0FDEB24FAFBEC34E5
:10137100FFFC8B828C838DF0125A58FBA3125A58B2
:10138100FCA3125A58FD900396EBF0ECA3F0EDA3E9
:10139100F002130C900399E0FFEF24FF92AF90034A
:1013A10096E0FDA3E0FEA3E0FF8D828E838FF02205
:1013B100AFF0AE83E58290039DF0EEA3F0EFA3F0D2
:1013C1009003A3A2AFE433F0C2AF90039AE0FDA370
:1013D100E0FEA3E0FFED24FAFDEE34FFFE8D828EE8
:1013E100838FF074001258ECA31258ECA31258EC3E
:1013F10090039DE0FDA3E0FEA3E0FF8D828E838F2D
:10140100F0125A58FDA3125A58FEA3125A58FFED72
:101411004E600302144490039DE0FDA3E0FEA3E0AF
:10142100FF90039AE0FAA3E0FBA3E0FC8D828E8398
:101431008FF0EA1258ECA3EB1258ECA3EC1258EC23
:1014410002151890039DE0FDA3E0FEA3E0FF8D824D
:101451008E838FF0125A58FDA3125A58FEA3125AC6
:1014610058FF9003A0EDF0EEA3F0EFA3F09003A0DE
:10147100E0FDA3E0FEA3E0FFED24FAFDEE34FFFE64
:101481008D828E838FF0125A58FDA3125A58FEA3F3
:10149100125A58FF7400C0E0C0E0C0E08D828E8314
:1014A1008FF012000615811581158170030214E673
:1014B1009003A0E0FDA3E0FEA3E0FFED24FAFDEE22
:1014C10034FFFE8D828E838FF0125A58FDA3125A7B
:1014D10058FEA3125A58FF9003A0EDF0EEA3F0EFCF
:1014E100A3F002146E9003A0E0FDA3E0FEA3E0FFD1
:1014F100ED24FAFDEE34FFFE90039AE0FAA3E0FB3F
:10150100A3E0FC8D828E838FF0EA1258ECA3EB12DC
:1015110058ECA3EC1258EC9003A3E0FFEF24FF92E8
:10152100AF22AFF0AE83E5829003A4F0EEA3F0EF1B
:10153100A3F09003A77400F0A3F0A3F09003AAA274
:10154100AFE433F0C2AF9003A4E0FDA3E0FEA3E05B
:10155100FF8D828E838FF0125A58FDA3125A58FEC6
:10156100A3125A58FFED4E70030216099003A4E02E
:10157100F53AA3E0F53BA3E0F53C853A82853B8350
:10158100853CF0125A58FAA3125A58FBA3125A5822
:10159100FC9003A7EAF0EBA3F0ECA3F08A008B0127
:1015A1008C07E824FAF8E934FFF9888289838FF0FF
:1015B100125A58F8A3125A58F9A3125A58FF853AE9
:1015C10082853B83853CF0E81258ECA3E91258EC84
:1015D100A3EF1258EC8A058B068C07ED24FAFDEE79
:1015E10034FFFE8D828E838FF074001258ECA312AB
:1015F10058ECA31258EC142AFA74FF3BFB8A828B35
:10160100838CF074FF1258EC9003AAE0FFEF24FFE3
:1016110092AF9003A7E0FDA3E0FEA3E0FF8D828ED1
:10162100838FF022AFF0AE83E5829003AEF0EEA39C
:10163100F0EFA3F0A2AFE433F53AC2AF9003ABE011
:10164100FCA3E0FDA3E0FE8C018D028E03E924FAE8
:10165100F53BEA34FFF53C8B3D9003AEE0F53EA34C
:10166100E0F53FA3E0F540853E82853F838540F06C
:10167100125A58F9A3125A58FAA3125A58FF853B25
:1016810082853C83853DF0E91258ECA3EA1258ECBF
:10169100A3EF1258EC853E82853F838540F0EC1222
:1016A10058ECA3ED1258ECA3EE1258ECE53A24FFE6
:1016B10092AF22AFF0AE83E5829003B7F0EEA3F0D4
:1016C100EFA3F09003BAA2AFE433F0C2AF9003B737
:1016D100E0FDA3E0FEA3E0FF8D828E838FF0125A1E
:1016E10058FDA3125A58FEA3125A58FF9003B1E0B5
:1016F100FAA3E0FBA3E0FCC005C006C0078A828B09
:10170100838CF0120006158115811581700280030A
:1017110002175D9003B7E0FDA3E0FEA3E0FF900395
:10172100B1E0FAA3E0FBA3E0FCEA24FAFAEB34FF10
:10173100FB8A828B838CF0125A58FAA3125A58FBF7
:10174100A3125A58FC8D828E838FF0EA1258ECA3B3
:10175100EB1258ECA3EC1258EC0217AB9003B4E077
:10176100FDA3E0FEA3E0FFED24FAFDEE34FFFE90C1
:1017710003B1E0FAA3E0FBA3E0FCEA24FAFAEB34BC
:10178100FFFB8A828B838CF0125A58FAA3125A58A3
:10179100FBA3125A58FC8D828E838FF0EA1258EC0B
:1017A100A3EB1258ECA3EC1258EC9003B1E0FDA3AB
:1017B100E0FEA3E0FF8D028E038F04EA24FAFAEB28
:1017C10034FFFB8A828B838CF074001258ECA312D5
:1017D10058ECA31258EC142DFD74FF3EFE8D828E41
:1017E100838FF074FF1258EC9003BAE0FFEF24FFEF
:1017F10092AF22AFF0AE83E5829003BFF0EEA3F08B
:10180100EFA3F09003C57400F09003C6A2AFE433D8
:10181100F0C2AF9003BFE0FDA3E0FEA3E0FF8D8225
:101821008E838FF0125A58FDA3125A58FEA3125AF2
:1018310058FFED4E600302186D9003BFE0FDA3E079
:10184100FEA3E0FF9003BBE0FAA3E0FBA3E0FC8D65
:10185100828E838FF0EA1258ECA3EB1258ECA3ECC2
:101861001258EC9003C57401F002194E9003BFE0C9
:10187100FDA3E0FEA3E0FF8D828E838FF0125A5804
:10188100FDA3125A58FEA3125A58FF9003C2EDF05D
:10189100EEA3F0EFA3F09003BEE014F0E0FF90039D
:1018A100C2E0FCA3E0FDA3E0FEEC24FAFCED34FF72
:1018B100FD8C828D838EF0125A58FCA3125A58FD6A
:1018C100A3125A58FEEC4D7003021909EF7003027E
:1018D10019099003C2E0FCA3E0FDA3E0FEEC24FAA9
:1018E100FCED34FFFD8C828D838EF0125A58FCA3DF
:1018F100125A58FDA3125A58FE9003C2ECF0EDA300
:10190100F0EEA3F01F02189F9003BEEFF0E0FFEF8F
:10191100700302194E9003C2E0FDA3E0FEA3E0FFB5
:10192100ED24FAFDEE34FFFE9003BBE0FAA3E0FBE9
:10193100A3E0FC8D828E838FF0EA1258ECA3EB12A8
:1019410058ECA3EC1258EC9003C57401F09003C657
:10195100E0FFEF24FF92AF9003C5E0FF8F8222E505
:10196100829003C9F0E0FF905A84E493FEC3EF9E96
:1019710040030219C3901073E0FDA3E0FEA3E0FF52
:101981009003C9E0FCEC75F002A42DFDEE35F0FEEC
:101991008D828E838FF0125A58FBA3125A58FC90F5
:1019A10003C7E0F9A3E0FAE94203EA42048D828E1B
:1019B100838FF0EB1258ECA3EC1258EC7582000205
:1019C10019C675820322E5829003CCF0E0FF905A9C
:1019D10084E493FEC3EF9E4003021A3CA2AFE433BA
:1019E100FFC2AF901073E0FCA3E0FDA3E0FE900303
:1019F100CCE0FBEB75F002A42CFCED35F0FD8C8204
:101A01008D838EF0125A58FAA3125A58FB9003CACA
:101A1100E0F8A3E0F9E8F4F8E9F4F9E85202E95250
:101A2100038C828D838EF0EA1258ECA3EB1258ECF2
:101A3100EF24FF92AF758200021A3F75820322756F
:101A4100820022E5829003CFF0E0FFBFFF02800316
:101A5100021A5CD2AF758200021A5F75820722E515
:101A6100829003D0F0E0FFBFFF028003021A78C228
:101A7100AF758200021A7B75820722121F3B900309
:101A8100017400F0A3F0A3F0122394122FE47582E5
:101A91000022121A9A021A93229003D17400F012B2
:101AA10030659003D1E0FF901073E0FCA3E0FDA34B
:101AB100E0FEEF75F002A42CFCED35F0FD8C828D7B
:101AC100838EF0125A58FCA3125A58FDEC4D600354
:101AD100021AE30F905A84E493FEC3EF9E5003026F
:101AE1001AA89003D1EFF0E0FF905A84E493FEC36B
:101AF100EF9E4003021BB4901073E0FDA3E0FEA330
:101B0100E0FF9003D1E0FCEC75F002A4FAABF0EA3F
:101B11002DFDEB3EFE8D828E838FF0125A58F8A375
:101B2100125A58F99003D2E8F0E9A3F08D828E831E
:101B31008FF074001258ECA31258EC900304ECF0EF
:101B4100EA247AF582EB345AF583E493FEA3E49315
:101B5100FFC003C0029003D2E0C0E0A3E0C0E012E6
:101B61001B66021B6DC006C0078C8222AE82AF834A
:101B710015811581D002D00390030474FFF09010F9
:101B810073E0F9A3E0FCA3E0FDEA29F9EB3CFC8951
:101B9100828C838DF0125A58FAA3125A58FBEA42EA
:101BA10006EB420789828C838DF0EE1258ECA3EF8D
:101BB1001258EC22AFF0AE83E5829003D8F0EEA389
:101BC100F0EFA3F09003D8E0F53AA3E0F53BA3E0F2
:101BD100F53C9003D4E0F9A3E0FAA3E0FBA3E0FC19
:101BE10089007D007E007F00853A82853B83853CAC
:101BF100F0E81258EC9003D87401253AF0740035DE
:101C01003BA3F0E53CA3F09003D8E0F53AA3E0F55F
:101C11003BA3E0F53C8A007D007E007F00853A828F
:101C2100853B83853CF0E81258EC9003D87401257C
:101C31003AF07400353BA3F0E53CA3F09003D8E003
:101C4100F53AA3E0F53BA3E0F53C8B007D007E0077
:101C51007F00853A82853B83853CF0E81258EC9001
:101C610003D87401253AF07400353BA3F0E53CA399
:101C7100F09003D8E0FDA3E0FEA3E0FF8C017C001F
:101C81007B007A008D828E838FF0E91258EC9003ED
:101C9100D874012DF074003EA3F0EFA3F09003D8A7
:101CA100E0FDA3E0FEA3E0FF8D828E838FF022AFE3
:101CB100F0AE83E5829003DFF0EEA3F0EFA3F090A6
:101CC10003DFE0F53AA3E0F53BA3E0F53C9003DB4D
:101CD100E0F9A3E0FAA3E0FBA3E0FC89007D007E2C
:101CE100007F00853A82853B83853CF0E81258EC01
:101CF1009003DF7401253AF07400353BA3F0E53C15
:101D0100A3F09003DFE0F53AA3E0F53BA3E0F53C57
:101D11008A007D007E007F00853A82853B83853C79
:101D2100F0E81258EC9003DF7401253AF0740035A5
:101D31003BA3F0E53CA3F09003DFE0FDA3E0FEA3AD
:101D4100E0FF8B017C007B007A008D828E838FF017
:101D5100E91258EC9003DF74012DF074003EA3F0FA
:101D6100EFA3F09003DFE0FDA3E0FEA3E0FF8D828F
:101D71008E838FF022AFF0AE83E5829003E4F0EE24
:101D8100A3F0EFA3F09003E4E0FDA3E0FEA3E0FFE6
:101D9100ED4E6003021D9E758200021DF39003E764
:101DA1007400F09003E4E0FDA3E0FEA3E0FF9003E4
:101DB100E2E0FC9003E3E0FB9003E7E0FAC3EA9B77
:101DC1004003021DF0C003EA2DF874003EF98F03B1
:101DD100888289838BF0125A58F8E8B50405D0033C
:101DE100021DECD003758200021DF30A021DBE75AF
:0B1DF100820122900304E0FF8F822299
:025A78003000FC
:10004D009003E97400F09003EA7442F09003EB74AE
:10005D0058F09003EC742DF09003ED7464F0900360
:10006D00EEF09003EFF09003F004F09003F1746262
:10007D00F09003F27475F09003F37467F09003F44D
:10008D00742DF09003F5746EF09003F604F0900368
:10009D00F77464F09003F804F09003F97400F09095
:1000AD0003FF74F0F0741EA3F09004017400F0A32C
:0100BD00F052
:101DFC00E582900403F0E0FF9003E8EFF090040418
:101E0C007401F0901157F09011587404F07404A3FD
:101E1C00F07400A3F07582057583031242EA758293
:101E2C00FF7583FF75F0FF74FF124B0D9003E8E014
:101E3C00FF9003C77401F07400A3F08F8212196035
:101E4C0022C01D85811DE51D24FCF8E620E003025F
:101E5C001EA17582FF75830375F000124810900364
:101E6C00E8E0FF9010397402F07400A3F090103B7E
:101E7C007488F07413A3F07400A3F0A3F08F821293
:101E8C0026DCE51D24FCF8740166FE0886078E82AC
:101E9C008F83021EEDE51D24FCF8E620E103021EF3
:101EAC00E79003E8E0FF9010397402F07400A3F09F
:101EBC0090103B7488F07413A3F07400A3F0A3F09B
:101ECC008F821226DC121F3AE51D24FCF874026680
:101EDC00FE0886078E828F83021EED758200758345
:101EEC0000D01D22E582900405F0E0FFC374069F2C
:101EFC005003021F2FEF2F2F901F0873021F2F026A
:101F0C001F1D021F20021F26021F29021F23021F52
:101F1C002C021F2F021F2F021F2F021F2F021F2FF9
:101F2C00021F2F900405E0FF9003E9EFF0222290AE
:101F3C0010047400F0A3F09010067406F07404A35F
:101F4C00F07400A3F09004067448F07402A3F090AF
:101F5C00064EF07480A3F090065074B4F07409A38C
:101F6C00F022758201758300121FB2AD82AE83AF71
:101F7C00F0A2AFE433FCC2AFED24FEF9EE34FFFA6D
:101F8C008F03901006E9F0EAA3F0EBA3F08D828E9C
:101F9C00838FF0C0041222FED0049010097401F05B
:101FAC00EC24FF92AF22AF83E58290100AF0EFA3EE
:101FBC00F090100C7400F0A3F0A3F0901012F090BD
:101FCC00100AE0FEA3E0FF90100A74022EF07400D9
:101FDC003FA3F0901009E0FFEF7003021FFE90107A
:101FEC000AE0FEA3E0FFC374109E74009F5003022E
:101FFC002017901006E0FDA3E0FEA3E0FF90100F69
:10200C00EDF0EEA3F0EFA3F002202590100F74502A
:10201C00F07406A3F07400A3F090100AE0FEA3E0A5
:10202C00FF90100FE0FBA3E0FCA3E0FD0BBB000155
:10203C000C8B828C838DF0125A5820E703022055AA
:10204C009010127400F002214E901012E0FDED7011
:10205C000302210C90100CE0FBA3E0FCA3E0FD8B31
:10206C003A8C3B8D3C8B008C018D02888289838A53
:10207C00F0125A58F53DA3125A58547FF53E901061
:10208C000FE0F8A3E0F9A3E0FA888289838AF012C2
:10209C005A58F53FA3125A58547FF540A83FAA400E
:1020AC00E8253DF8EA353EFA853A82853B83853C46
:1020BC00F0E5001258ECA3EA547FC0F0C0E0125ACD
:1020CC0058D0F0548045F0D0F01258EC8B828C83B1
:1020DC008DF0125A58FBA3125A58547FFCC3EB9E36
:1020EC00EC9F500302214E90100CE0FBA3E0FCA3EC
:1020FC00E0FD90100FEBF0ECA3F0EDA3F00221AC9F
:10210C0090100FE0FBA3E0FCA3E0FD8B828C838D91
:10211C00F0125A58FBA3125A58547FFCC3EB9EEC96
:10212C009F40030221AC9010127401F090100FE04C
:10213C00FBA3E0FCA3E0FD90100CEBF0ECA3F0EDA6
:10214C00A3F090100FE0FBA3E0FCA3E0FD8B008C50
:10215C00018D028B828C838DF0125A58FBA3125A7C
:10216C0058547FFCEB28F8EC39F990100FE8F0E9A3
:10217C00A3F0EAA3F090100FE0FBA3E0FCA3E0FDBA
:10218C008B828C838DF0125A58FBA3125A58FCEB9D
:10219C004C600302202D90100F7400F0A3F0A3F0FC
:1021AC0090100FE0FDA3E0FEA3E0FFED4E700302E4
:1021BC0022EB90100FE0FDA3E0FEA3E0FF8D828EDA
:1021CC00838FF0125A58FDA3125A58547FFE901068
:1021DC000AE0FCA3E0FFEDC39CFDEE9FFE90101304
:1021EC00EDF0EEA3F0C3ED9404EE94005003022244
:1021FC005190100FE0FDA3E0FEA3E0FF8D028E03D3
:10220C008F0490100AE0F8A3E0F9E82AFAE93BFB06
:10221C008A3A8B3B8C3C901013E0FBA3E0FC853A94
:10222C0082853B83853CF0EB1258ECA3EC1258EC06
:10223C004301808D828E838FF0E81258ECA3E91253
:10224C0058EC02226F90100FE0FDA3E0FEA3E0FF1C
:10225C000DBD00010E8D828E838FF0125A58448072
:10226C001258EC901009E0FFEF70030222DF90107F
:10227C0006E0FDA3E0FEA3E0FF90100FE0FAA3E060
:10228C00FBA3E0FCC002C003C0048D828E838FF0E0
:10229C00120006158115811581700280030222DF60
:1022AC0090100FE0FDA3E0FEA3E0FF8D028E038FE4
:1022BC00048D828E838FF0125A58FDA3125A5854F3
:1022CC007FFEED2AFAEE3BFB901006EAF0EBA3F052
:1022DC00ECA3F090100FE02402F0A3E03400F0C364
:1022EC0090100FE0FDA3E0FEA3E0FF8D828E838FA4
:1022FC00F022AFF0AE83E582901015F0EEA3F0EF74
:10230C00A3F0901015E0FDA3E0FEA3E0FFED24FE8A
:10231C00FAEE34FFFB8F04901018EAF0EBA3F0EC0C
:10232C00A3F090101BA2AFE433F0C2AF74FF2DFDED
:10233C0074FF3EFE8D828E838FF0125A58547F129A
:10234C0058EC901006E0FDA3E0FEA3E0FFC005C032
:10235C0006C0078A828B838CF012000615811581CA
:10236C0015814003022389901018E0FDA3E0FEA321
:10237C00E0FF901006EDF0EEA3F0EFA3F090101B31
:10238C00E0FFEF24FF92AF2290101F7400F0A3F037
:10239C00A3F0A3F022E582901029F0E0FF90102327
:1023AC00E0FDA3E0FE901030EDF0EEA3F08F821272
:1023BC0025CAAD82AE83AFF090102AEDF0EEA3F0FB
:1023CC00EFA3F0ED4E700302242090102AE0FDA341
:1023DC00E0FEA3E0FF74032DF51074003EF5118FA1
:1023EC0012901025E0F8A3E0F9A3E0FBA3E0FC8534
:1023FC0010828511838512F0E81258ECA3E912586B
:10240C00ECA3EB1258ECA3EC1258EC8D828E838F5C
:10241C00F00225C975820E758300121FB2AD82AE13
:10242C0083AFF090102AEDF0EEA3F0EFA3F0ED4E99
:10243C0070030225C090102AE0FDA3E0FEA3E0FF8C
:10244C0074072DFA74003EFB8F04901023E0F8A360
:10245C00E0F98A828B838CF0E81258ECA3E91258CD
:10246C00EC74092DFA74003EFB8F04901029E0F9EE
:10247C008A828B838CF0E91258EC74032DF510745E
:10248C00003EF5118F12901025E0F8A3E0F9A3E0BF
:10249C00FBA3E0FC8510828511838512F0E81258AD
:1024AC00ECA3E91258ECA3EB1258ECA3EC1258EC89
:1024BC008D828E838FF074001258ECA31258ECA30B
:1024CC001258EC740A2DFD74003EFE8D828E838FA3
:1024DC00F074001258ECA31258ECA31258ECA3128F
:1024EC0058EC90101CE0FDA3E0FEA3E0FFED4E6065
:1024FC000302251990102AE0FDA3E0FEA3E0FF9053
:10250C00101CEDF0EEA3F0EFA3F00225AC90101C24
:10251C00E0FDA3E0FEA3E0FF90102DEDF0EEA3F0A4
:10252C00EFA3F090102DE0FDA3E0FEA3E0FF8D8261
:10253C008E838FF0125A58FDA3125A58FEA3125ACA
:10254C0058FFED4E700302258290102DE0FDA3E0A4
:10255C00FEA3E0FF8D828E838FF0125A58FDA312DA
:10256C005A58FEA3125A58FF90102DEDF0EEA3F01E
:10257C00EFA3F002252F90102DE0FDA3E0FEA3E0C9
:10258C00FF90102AE0FAA3E0FBA3E0FC8D828E837F
:10259C008FF0EA1258ECA3EB1258ECA3EC1258ECA7
:1025AC0090102AE0FDA3E0FEA3E0FF8D828E838FC6
:1025BC00F00225C975820075830075F00022E58252
:1025CC00901032F090101CE0FDA3E0FEA3E0FF9011
:1025DC001033EDF0EEA3F0EFA3F0901032E0FF908B
:1025EC001030E0FDA3E0FE901033E0FAA3E0FBA373
:1025FC00E0FCEA4B7003022685901033E0FAA3E06E
:10260C00FBA3E0FC74072AFA74003BFB8A828B83E1
:10261C008CF0125A58FAA3125A58FBEAB50506EB7D
:10262C00B506028003022658901033E0FAA3E0FBB3
:10263C00A3E0FC74092AFA74003BFB8A828B838C1E
:10264C00F0125A58FAEAB50703022685901033E0C7
:10265C00FAA3E0FBA3E0FC8A828B838CF0125A581D
:10266C00FAA3125A58FBA3125A58FC901033EAF0F2
:10267C00EBA3F0ECA3F00225F3901033E0FDA3E004
:10268C00FEA3E0FF8D828E838FF022AFF0AE83E548
:10269C0082901036F0EEA3F0EFA3F0901036E0FD30
:1026AC00A3E0FEA3E0FFED4E70030226DB90103694
:1026BC00E0FDA3E0FEA3E0FF74072DFD74003EFED9
:1026CC008D828E838FF074001258ECA31258EC227A
:1026DC00E58290103FF0C390103FE0FF901039E07E
:1026EC00FDA3E0FE90103BE0F9A3E0FAA3E0FBA30E
:1026FC00E0FC901023EDF0EEA3F0901025E9F0EA49
:10270C00A3F0EBA3F0ECA3F08F821223A1AD82AE69
:10271C0083AFF0ED4E700302272B7F0002272D7F35
:10272C00088F8222E582901046F0901047A2AFE409
:10273C0033F0C2AF901046E0FF901040E0FDA3E0F4
:10274C00FE901042E0F9A3E0FAA3E0FBA3E0FC90BA
:10275C001023EDF0EEA3F0901025E9F0EAA3F0EBD6
:10276C00A3F0ECA3F08F821223A1AD82AE83AFF065
:10277C00901048EDF0EEA3F0EFA3F0ED4E700302D5
:10278C0027C8901048E0FDA3E0FEA3E0FF740A2DDB
:10279C00FD74003EFE901042E0F9A3E0FAA3E0FBCA
:1027AC00A3E0FC8D828E838FF0E91258ECA3EA1221
:1027BC0058ECA3EB1258ECA3EC1258EC901047E039
:1027CC00FFEF24FF92AF901048E0FDA3E0FEA3E0E2
:1027DC00FFED4E70030227E97F000227EB7F088F85
:1027EC008222E58290104DF090104EA2AFE433F0AF
:1027FC00C2AF90104DE0FF90104BE0FDA3E0FE90B7
:10280C001030EDF0EEA3F08F821225CAAD82AE83AC
:10281C00AFF090104FEDF0EEA3F0EFA3F0ED4E7093
:10282C000302284490104FE0FDA3E0FEA3E0FF8DCF
:10283C00828E838FF012269790104EE0FFEF24FFCC
:10284C0092AF90104FE0FDA3E0FEA3E0FFED4E70C1
:10285C00030228657F000228677F068F8222E582AB
:10286C00901054F09010567400F0A3F0A3F0A3F065
:10287C00901055A2AFE433F0C2AF901054E0FF902B
:10288C001052E0FDA3E0FE901030EDF0EEA3F08FBF
:10289C00821225CAAD82AE83AFF090105AEDF0EEE5
:1028AC00A3F0EFA3F0ED4E70030228F290105AE063
:1028BC00FDA3E0FEA3E0FF74032DFD74003EFE8D2E
:1028CC00828E838FF0125A58FDA3125A58FEA3120F
:1028DC005A58FFA3125A58FC901056EDF0EEA3F084
:1028EC00EFA3F0ECA3F0901055E0FFEF24FF92AFB4
:1028FC00901056E0FCA3E0FDA3E0FEA3E0FF8C8269
:10290C008D838EF0EF2290105E7400F090105DA21B
:10291C00AFE433F0C2AF90101CE0FDA3E0FEA3E0E7
:10292C00FF90105FEDF0EEA3F0EFA3F090105EE0DF
:10293C00FF90105FE0FCA3E0FDA3E0FEEC4D700304
:10294C0002297D0F90105FE0FCA3E0FDA3E0FE8C5C
:10295C00828D838EF0125A58FCA3125A58FDA31282
:10296C005A58FE90105FECF0EDA3F0EEA3F00229A4
:10297C003D90105EEFF090105DE0FFEF24FF92AF02
:10298C0090105EE0FF8F8222AF82AE83ADF0FC90A0
:10299C001062EFF0EEA3F0EDA3F0ECA3F090106258
:1029AC00E0FCA3E0FDA3E0FEA3E0FF90106CECF0D4
:1029BC00EDA3F0EEA3F0EFA3F090101FE0F8A3E06E
:1029CC00F9A3E0FAA3E0FB90101FEC28F0ED39A37B
:1029DC00F0EE3AA3F0EF3BA3F090101CE0FDA3E067
:1029EC00FEA3E0FFED4E7003022FCD90101CE0FD16
:1029FC00A3E0FEA3E0FF901066EDF0EEA3F0EFA3D2
:102A0C00F09010697400F0A3F0A3F0901066E0FD54
:102A1C00A3E0FEA3E0FFED4E7003022FCD901070EB
:102A2C007400F0A3F0A3F090106EE0FEA3E0FFEEB4
:102A3C004F6003022B8890106DE06003022B88908E
:102A4C001066E0FDA3E0FEA3E0FF74032DFD74000F
:102A5C003EFE8D828E838FF0125A58FD90106CE0E2
:102A6C00FFC3ED9F5003022AA8901066E0FDA3E07F
:102A7C00FEA3E0FF74032DFD74003EFE90106CE08D
:102A8C00FC8D828E838FF0125A58FBEBC39CFC8D0D
:102A9C00828E838FF0EC1258EC022C65901066E05D
:102AAC00FDA3E0FEA3E0FF74032DFD74003EFE8D3C
:102ABC00828E838FF0125A58FDA3125A58FEA3121D
:102ACC005A58FFA3125A58FC90106CE0F8A3E0F986
:102ADC00A3E0FAA3E0FBC3E89DE99EEA9FEB9C40D0
:102AEC0003022B5B901066E0FDA3E0FEA3E0FF74F5
:102AFC00032DFD74003EFE8D828E838FF0125A588A
:102B0C00F513A3125A58F514A3125A58F515A3121B
:102B1C005A58F51690106CE0F8A3E0FAA3E0FBA36A
:102B2C00E0FCE513C398F8E5149AFAE5159BFBE570
:102B3C00169CFC8D828E838FF0E81258ECA3EA125F
:102B4C0058ECA3EB1258ECA3EC1258EC022C659049
:102B5C001066E0FDA3E0FEA3E0FF74032DFD7400FE
:102B6C003EFE8D828E838FF074001258ECA31258A7
:102B7C00ECA31258ECA31258EC022C65901066E0F2
:102B8C00FDA3E0FEA3E0FF74032DFD74003EFE8D5B
:102B9C00828E838FF0125A58FDA3125A58FEA3123C
:102BAC005A58FFA3125A58FC90106CE0F8A3E0F9A5
:102BBC00A3E0FAA3E0FBC3E89DE99EEA9FEB9C40EF
:102BCC0003022C3B901066E0FDA3E0FEA3E0FF7433
:102BDC00032DFD74003EFE8D828E838FF0125A58A9
:102BEC00F513A3125A58F514A3125A58F515A3123B
:102BFC005A58F51690106CE0F8A3E0FAA3E0FBA38A
:102C0C00E0FCE513C398F8E5149AFAE5159BFBE58F
:102C1C00169CFC8D828E838FF0E81258ECA3EA127E
:102C2C0058ECA3EB1258ECA3EC1258EC022C659068
:102C3C001066E0FDA3E0FEA3E0FF74032DFD74001D
:102C4C003EFE8D828E838FF074001258ECA31258C6
:102C5C00ECA31258ECA31258EC901066E0FDA3E024
:102C6C00FEA3E0FF74032DFD74003EFE8D828E8367
:102C7C008FF0125A58FDA3125A58FEED4E60030203
:102C8C002DAA901066E0FDA3E0FEA3E0FF74052DD5
:102C9C00FD74003EFE8D828E838FF0125A58FDA378
:102CAC00125A58FEED4E6003022DAA901066E0FDFC
:102CBC00A3E0FEA3E0FF740A2DFD74003EFE8D829E
:102CCC008E838FF0125A58FDA3125A58FEA3125A33
:102CDC0058FFA3125A58FCED4E4F4C7003022DAA0C
:102CEC00901066E0FDA3E0FEA3E0FF74072DFD74D9
:102CFC00003EFE8D828E838FF0125A58FDA3125A1D
:102D0C0058FEED4E7003022DAA901066E0FDA3E074
:102D1C00FEA3E0FF74092DFA74003EFB8F048A8237
:102D2C008B838CF0125A58FA74072DF974003EFB01
:102D3C008F0489828B838CF0125A58F9A3125A583B
:102D4C00FB9003C7E9F0EBA3F08A82C007C006C072
:102D5C0005121960D005D006D00774032DFA740043
:102D6C003EFB8F04740A2DFD74003EFE8D828E8313
:102D7C008FF0125A58F9A3125A58FDA3125A58FE42
:102D8C00A3125A58FF8A828B838CF0E91258ECA359
:102D9C00ED1258ECA3EE1258ECA3EF1258EC901075
:102DAC0066E0FDA3E0FEA3E0FF74032DFD74003E7E
:102DBC00FE8D828E838FF0125A58FDA3125A58FE44
:102DCC00ED4E6003022DFC901066E0FDA3E0FEA327
:102DDC00E0FF74052DFD74003EFE8D828E838FF016
:102DEC00125A58FDA3125A58FEED4E7003022E25AE
:102DFC00901066E0FDA3E0FEA3E0FF74072DFD74C8
:102E0C00003EFE8D828E838FF0125A58FDA3125A0B
:102E1C0058FEED4E6003022EDA901069E0FDA3E03F
:102E2C00FEA3E0FFED4E6003022E64901066E0FD01
:102E3C00A3E0FEA3E0FF8D828E838FF0125A58FD23
:102E4C00A3125A58FEA3125A58FF90101CEDF0EE24
:102E5C00A3F0EFA3F0022EA2901069E0FDA3E0FE18
:102E6C00A3E0FF901066E0FAA3E0FBA3E0FC8A82EB
:102E7C008B838CF0125A58FAA3125A58FBA3125A8D
:102E8C0058FC8D828E838FF0EA1258ECA3EB12580B
:102E9C00ECA3EC1258EC901066E0FDA3E0FEA3E06E
:102EAC00FF901070EDF0EEA3F0EFA3F08D828E8307
:102EBC008FF0125A58FDA3125A58FEA3125A58FFFB
:102ECC00901066EDF0EEA3F0EFA3F0022F0F901030
:102EDC0066E0FDA3E0FEA3E0FF901069EDF0EEA329
:102EEC00F0EFA3F08D828E838FF0125A58FDA3124F
:102EFC005A58FEA3125A58FF901066EDF0EEA3F04C
:102F0C00EFA3F0901070E0FDA3E0FEA3E0FFED4E08
:102F1C007003022A17901070E0FDA3E0FEA3E0FFFF
:102F2C0074032DFD74003EFE8D828E838FF0125A39
:102F3C0058FDA3125A58FEED4E6003022FB69010A6
:102F4C0070E0FDA3E0FEA3E0FF74052DFD74003ED0
:102F5C00FE8D828E838FF0125A58FDA3125A58FEA2
:102F6C00ED4E6003022FB6901070E0FDA3E0FEA3BF
:102F7C00E0FF74092DFA74003EFB8F048A828B8368
:102F8C008CF0125A58FA74072DFD74003EFE8D8297
:102F9C008E838FF0125A58FDA3125A58FE9003C715
:102FAC00EDF0EEA3F08A82121960901070E0FDA390
:102FBC00E0FEA3E0FF8D828E838FF01222FE022AA8
:102FCC00172290101FE0FCA3E0FDA3E0FEA3E0FF9E
:102FDC008C828D838EF0EF22905A84E493FFEF75F0
:102FEC00F002A4FFAEF08F828E83121FB2AD82AEC0
:102FFC0083AFF0901073EDF0EEA3F0EFA3F0905AC6
:10300C0084E493FCEC75F002A4FCABF090033A74EE
:10301C0000F090033BECF0EBA3F08D828E838FF0ED
:10302C0012068B758200124860758201124EEE7585
:10303C008202121DFC758203123E7A758204123FC5
:02304C006A22F6
:0B5A7A00D248124F4D1E973E873F059B
:1000BE009010767400F0A3F0901078F0A3F09010EA
:0E00CE007AF0A3F090107CF0A3F0A3F0A3F062
:10304E00AEA27F00ACA37D008C057C00EC2EFEEDC5
:10305E003FFF8E828F83229010847400F0A3F012B3
:10306E00304EAE82AF83901080EEF0EFA3F0901052
:10307E0076E0FCA3E0FDEEB50407EFB505030231E3
:10308E0093901076E0FEA3E0FF901080E0FCA3E0AA
:10309E00FD901082ECC39EF0ED9FA3F0901076ECA5
:1030AE00F0EDA3F0901082E0FEA3E0FF901084E01C
:1030BE00FCA3E0FDC374319E74339F40030230F5D0
:1030CE00EE24CFFEEF34CCFF74FE2CFC741F3DFDBE
:1030DE00901078E0FAA3E0FB90107874052AF07453
:1030EE00003BA3F00230C2901082EEF0EFA3F090FE
:1030FE001084ECF0EDA3F0901082E0FEA3E0FF90C0
:10310E00121CEEF0EFA3F0758205758300125907BD
:10311E00AE82AF83901078E0FCA3E0FDEC2EFEEDC6
:10312E003FFF8E04EFC423CCC423541F6CCC541F1A
:10313E00CC6CCCFD901084E0FAA3E0FB901084ECF4
:10314E002AF0ED3BA3F090107874075EF07400A3A4
:10315E00F0901084E0FEA3E0FFEE4F700302319377
:10316E00901084E0FEA3E0FF8E828F83C007C0061E
:10317E00123194D006D0077D007C008E828F838D15
:10318E00F0EC12299422AF83E582901086F0EFA323
:10319E00F0901086E0FEA3E0FF90107AE0FCA3E032
:1031AE00FD90107AEE2CF0EF3DA3F090107AE0FE39
:1031BE00A3E0FFC3EE94E8EF940350030232409075
:1031CE00107AE0FEA3E0FF9011E474E8F07403A31C
:1031DE00F08E828F83C007C006125346AC82AD8339
:1031EE00D006D00790107CE0F521A3E0F522A3E0F5
:1031FE00F523A3E0F5248C028D037C007D00901056
:10320E007CEA2521F0EB3522A3F0EC3523A3F0ED7B
:10321E003524A3F090122274E8F07403A3F08E828A
:10322E008F83125993E5828583F090107AF0E5F042
:10323E00A3F022AF82AE83ADF0FC901088EFF0EEDB
:10324E00A3F0EDA3F0ECA3F0901088E0FCA3E0FD5A
:10325E00A3E0FEA3E0FF90107CECF0EDA3F0EEA354
:10326E00F0EFA3F02290107CE0FCA3E0FDA3E0FEC3
:10327E00A3E0FF8C828D838EF0EF22AFF0AE83E55C
:10328E0082901090F0EEA3F0EFA3F090108CE0F58A
:10329E0025A3E0F526A3E0F527A3E0F5289011EA93
:1032AE007480F07451A3F07401A3F07400A3F08540
:1032BE0025828526838527F0E5281253E08582290D
:1032CE0085832A85F02BF52C901090E0FDA3E0FE6F
:1032DE00A3E0FF9011EA743CF07400A3F0A3F0A3F6
:1032EE00F0852982852A83852BF0E52CC007C00640
:1032FE00C0051253E0A982AA83ABF0FCD005D0061C
:10330E00D0078D828E838FF0E91258EC74012DF563
:10331E002D74003EF52E8F2F9011EA7410F0740E5E
:10332E00A3F07400A3F0A3F0852982852A83852B50
:10333E00F0E52CC007C006C0051253E0A882A98391
:10334E00ABF0FCD005D006D0079011F9743CF074A8
:10335E0000A3F0A3F0A3F0888289838BF0ECC00762
:10336E00C006C00512557AA982AA83ABF0FCD0051F
:10337E00D006D007852D82852E83852FF0E9125831
:10338E00EC74022DF52D74003EF52E8F2F9011F951
:10339E007410F0740EA3F07400A3F0A3F0852982CC
:1033AE00852A83852BF0E52CC007C006C005125573
:1033BE007AA882A983ABF0FCD005D006D007852D64
:1033CE0082852E83852FF0E81258EC9011F97480C7
:1033DE00F07451A3F07401A3F07400A3F08525825C
:1033EE008526838527F0E528C007C006C00512553F
:1033FE007AA982AA83ABF0FCD005D006D007901034
:10340E0093E9F0EAA3F074052DFD74003EFE8D8263
:10341E008E838FF074D01258ECA374071258EC9070
:10342E001090E0FDA3E0FEA3E0FF74052DFD7400F7
:10343E003EFE8D828E838FF0125A58FBA3125A587D
:10344E00FC9012227490F07401A3F08B828C83C0D6
:10345E0007C006C005125993AB82AC83D005D006C7
:10346E00D007EB4CB40100E433FBEB60030234D81D
:10347E008D828E838FF0125A58FBA3125A58FC90ED
:10348E0012227464F07400A3F08B828C83C007C088
:10349E0006C005125993E5828583F0D005D006D07B
:1034AE000745F070030234DF8D828E838FF0125A3F
:1034BE0058FBA3125A58FC5303037C00EB4CB40187
:1034CE0000E433FBEB70030234DF7B6E7C010234CD
:1034DE00E37B6D7C01901093E0F9A3E0FAC3E99BC6
:1034EE00EA9C50030235D18D828E838FF0125A588A
:1034FE00FBA3125A58FC9012227490F07401A3F0A0
:10350E008B828C83C007C006C005125993AB82AC68
:10351E0083D005D006D007EB4CB40100E433FBEBAF
:10352E00600302358D8D828E838FF0125A58FBA365
:10353E00125A58FC9012227464F07400A3F08B821D
:10354E008C83C007C006C005125993E5828583F0AF
:10355E00D005D006D00745F070030235948D828ECB
:10356E00838FF0125A58FBA3125A58FC5303037C54
:10357E0000EB4CB40100E433FBEB70030235947B9B
:10358E006E7C010235987B6D7C01901093E0F9A35F
:10359E00E0FA901093E9C39BF0EA9CA3F08D828E23
:1035AE00838FF0125A58FBA3125A58FC0BBB000122
:1035BE000C8D828E838FF0EB1258ECA3EC1258EC2C
:1035CE00023440901090E0FDA3E0FEA3E0FF7404EF
:1035DE002DFD74003EFE8D828E838FF07400125886
:1035EE00EC901090E0FDA3E0FEA3E0FF74052DFA31
:1035FE0074003EFB8F0474042DFD74003EFE8A821F
:10360E008B838CF0125A58F8A3125A58F990122242
:10361E007490F07401A3F088828983C007C006C03D
:10362E0005C004C003C002125993A882A983D00218
:10363E00D003D004D005D006D007E849B40100E489
:10364E0033F8E860030236C18A828B838CF0125AFB
:10365E0058F8A3125A58F99012227464F07400A309
:10366E00F088828983C007C006C005C004C003C0AD
:10367E0002125993E5828583F0D002D003D004D094
:10368E0005D006D00745F070030236BC8A828B83C4
:10369E008CF0125A58F8A3125A58F95300037900B5
:1036AE00E849B40100E433F8E860030236C179005A
:1036BE000236C37901C002C003C0048D828E838F8F
:1036CE00F0125A58F8901095E8F08982C007C0069B
:1036DE00C005C004C003C002123857A982D002D060
:1036EE0003D004D005D006D007901093E0F8A3E0E5
:1036FE00FC7B00C3E899EC9BD004D003D0025003AE
:10370E000238318A828B838CF0125A58F8A3125ADF
:10371E0058F99012227490F07401A3F08882898374
:10372E00C007C006C005C004C003C002125993A84A
:10373E0082A983D002D003D004D005D006D007E8EA
:10374E0049B40100E433F8E860030237C68A828B7D
:10375E00838CF0125A58F8A3125A58F99012227408
:10376E0064F07400A3F088828983C007C006C00588
:10377E00C004C003C002125993E5828583F0D002C3
:10378E00D003D004D005D006D00745F07003023721
:10379E00C18A828B838CF0125A58F8A3125A58F9A8
:1037AE005300037900E849B40100E433F8E86003FC
:1037BE000237C679000237C87901C002C003C004BF
:1037CE008D828E838FF0125A58F8901095E8F089FA
:1037DE0082C007C006C005C004C003C0021238571D
:1037EE00A982D002D003D004D005D006D00789001C
:1037FE007900901093E0FBA3E0FC901093EBC3983C
:10380E00F0EC99A3F08D828E838FF0125A58FC0C37
:10381E008D828E838FF0EC1258ECD004D003D00240
:10382E0002360C901090E0FDA3E0FEA3E0FF7403BF
:10383E002DFD74003EFE901093E0FBA3E0FC8D8204
:10384E008E838FF0EB1258EC22E582901096F0905A
:10385E001097741FF0901095E0FFBF0102800302D5
:10386E00387F901096E0FF901097741C2FF002385E
:10387E00A5901095E0FFC374069F40030238939005
:10388E001095E014F0901095E0FFEF20E003023861
:10389E00A5901097741EF0901097E0FF8F8222AFC4
:1038AE00F0AE83E582901098F0EEA3F0EFA3F090C7
:1038BE001098E0FDA3E0FEA3E0FF74022DFA740061
:1038CE003EFB8F048A828B838CF0125A58FA901228
:1038DE001EEAF07400A3F0A3F0A3F075823C75838A
:1038EE000075F0007400C007C006C0051259278588
:1038FE00823085833185F032F533D005D006D0077E
:10390E0074012DF874003EFB8F0488828B838CF03B
:10391E00125A58F87C007B007A0090121EE825306F
:10392E00F0EC3531A3F0EB3532A3F0EA3533A3F0EA
:10393E0075823C75830075F0007400C007C006C028
:10394E000512592785823085833185F032F533D0C3
:10395E0005D006D0078D828E838FF0125A58F87AD2
:10396E00007B007C0090109BE82530F0EA3531A3F7
:10397E00F0EB3532A3F0EC3533A3F074032DFA746B
:10398E00003EFB8F048A828B838CF0125A58FA9079
:10399E00109FEAF07400A3F074042DFD74003EFE37
:1039AE008D828E838FF0125A58FD9010A1EDF090FB
:1039BE001098E0FDA3E0FEA3E0FF74052DFD74005A
:1039CE003EFE9010A1E0FC1CEC30E703023AB78DEE
:1039DE00828E838FF0125A58FAA3125A58FB901205
:1039EE00227490F07401A3F08A828B83C007C00604
:1039FE00C005C004125993AA82AB83D004D005D05F
:103A0E0006D007EA4BB40100E433FAEA6003023A47
:103A1E00828D828E838FF0125A58FAA3125A58FB57
:103A2E009012227464F07400A3F08A828B83C00714
:103A3E00C006C005C004125993E5828583F0D004F8
:103A4E00D005D006D00745F07003023A7D8D828EE8
:103A5E00838FF0125A58FAA3125A58FB5302037B63
:103A6E0000EA4BB40100E433FAEA6003023A827BC7
:103A7E0000023A847B01901095ECF08B82C007C057
:103A8E0006C005C004123857AB82D004D005D0064C
:103A9E00D0077A0090109FE0F8A3E0F990109FEB0A
:103AAE0028F0EA39A3F00239D5901098E0FDA3E092
:103ABE00FEA3E0FF74052DFD74003EFE8D828E8305
:103ACE008FF0125A58FDA3125A58FE9010A2EDF024
:103ADE00EEA3F09010A2E0FEA3E0FF1EBEFF011FBA
:103AEE00C3EE94D0EF94075003023B7E90122274E3
:103AFE0090F07401A3F08E828F83C007C006125916
:103B0E0093AC82AD83D006D007EC4DB40100E43304
:103B1E00FCEC6003023B5E9012227464F07400A30E
:103B2E00F08E828F83C007C006125993E58285837B
:103B3E00F0D006D00745F07003023B6574035EFCBF
:103B4E007D00EC4DB40100E433FCEC7003023B65E8
:103B5E007C6E7D01023B697C6D7D0190109FE0FAC9
:103B6E00A3E0FB90109FEC2AF0ED3BA3F0023AE9A4
:103B7E0090109FE0FEA3E0FF90121EEEF0EFA3F078
:103B8E007400A3F0A3F075828075835175F00174F3
:103B9E0000125927AC82AD83AEF0FF90109BE0F877
:103BAE00A3E0F9A3E0FAA3E0FB90109BEC28F0ED64
:103BBE0039A3F0EE3AA3F0EF3BA3F090109BE0FC9C
:103BCE00A3E0FDA3E0FEA3E0FF8C828D838EF0EFD9
:103BDE002275C60022AF83E5829010A4F0EFA3F009
:103BEE00AFF174FE5FF5F143F30C4386C09010A461
:103BFE00E0FEA3E0FFBE0006BF0003023C33BE01A1
:103C0E0006BF0003023C3CBE0206BF0003023C4559
:103C1E00BE0306BF0003023C4EBE0406BF000302F5
:103C2E003C57023C5D43C50875C23B023C5D43C533
:103C3E000975C23B023C5D43C50A75C23B023C5D41
:103C4E0043C50A75C2D8023C5D43C50B75C2D82266
:103C5E00E5829010A6F0E0F5C1E58630E003023C67
:103C6E0067E58620E103023C67AF8674FD5FF5864B
:103C7E0022AFF0AE83E5829010A7F0EEA3F0EFA393
:103C8E00F0E58630E003023C8FE58620E203023C3D
:103C9E008F9010A7E0FDA3E0FEA3E0FF8D828E8340
:103CAE008FF0E5C11258EC22AFF0AE83E582901092
:103CBE00AAF0EEA3F0EFA3F09010AAE0FDA3E0FEB1
:103CCE00A3E0FF8D828E838FF0125A587003023D4F
:103CDE000D8D828E838FF0125A58FCA3AD82AE8367
:103CEE009010AAEDF0EEA3F0EFA3F08C82C007C007
:103CFE0006C005123C5ED005D006D007023CD1901E
:103D0E0010AAEDF0EEA3F0EFA3F022AFF0AE83E534
:103D1E00829010ADF0EEA3F0EFA3F09010ADE0FDA9
:103D2E00A3E0FEA3E0FF8D828E838FF0C007C00656
:103D3E00C005123C7FD005D006D0078D828E838FB2
:103D4E00F0125A58FCA3AD82AE839010ADEDF0EE9A
:103D5E00A3F0EFA3F0BC0D028003023D349010AD32
:103D6E00EDF0EEA3F0EFA3F022AF83E5829010B05A
:103D7E00F0EFA3F09010B0E0FEA3E0FF7C0074F033
:103D8E005FFDEDC4540FFC7D008C82C007C006128F
:103D9E003E2EAD82D006D0078D82C007C006123CE3
:103DAE005ED006D0077C00740F5FFD8D048C82C040
:103DBE0007C006123E2EAD82D006D0078D82C007F8
:103DCE00C006123C5ED006D00774F05EFC7D00ED9E
:103DDE00C4CCC4540F6CCC540FCC6CCCFD8C82C0B4
:103DEE0007C006123E2EAD82D006D0078D82C007C8
:103DFE00C006123C5ED006D007740F5EFC7D008CB0
:103E0E0082C007C006123E2EAD82D006D0078D822C
:103E1E00C007C006123C5ED006D0078E828F83226A
:103E2E00E5829010B2F0E0FFC374099F5003023E8A
:103E3E004D9010B2E0FF74302FFF8F82023E7990CA
:103E4E0010B2E0FFBF0A005003023E769010B2E0BF
:103E5E00FFC3740F9F5003023E769010B2E0FF74C2
:0C3E6E00372FFF8F82023E797582FF2201
:0600DC009010B47400F066
:103E7A00E5829010B5F0E0FF9010B3EFF09003C721
:103E8A007401F07400A3F08F8212196022C01D859C
:103E9A00811DE51D24FCF8E620E003023EDF9010B8
:103EAA00B3E0FF9010397402F07400A3F090103B55
:103EBA0074E8F07403A3F07400A3F0A3F08F8212E5
:103ECA0026DCE51D24FCF8740166FE0886078E824E
:103EDA008F83023F2BE51D24FCF8E620E103023F15
:103EEA00259010B3E0FF9010397402F07400A3F02B
:103EFA0090103B74E8F07403A3F07400A3F0A3F0ED
:103F0A008F821226DC123F2EE51D24FCF87402660D
:103F1A00FE0886078E828F83023F2B758200758387
:103F2A0000D01D229010B4E0FFBF01028003023FBF
:103F3A00539010B47400F09010B604F0A280901060
:103F4A00B6E024FF9280023F699010B47401F090A9
:103F5A0010B67400F0A2809010B6E024FF9280227E
:0600E2009010B87400F05C
:103F6A00E5829010B9F0E0FF9010B7EFF09003C728
:103F7A007401F07400A3F08F8212196022C01D85AB
:103F8A00811DE51D24FCF8E620E003023FCD9010D8
:103F9A00B7E0FF9010397402F07400A3F090103B60
:103FAA00741EF07400A3F0A3F0A3F08F821226DC33
:103FBA00E51D24FCF8740166FE0886078E828F834D
:103FCA00024017E51D24FCF8E620E10302401190A7
:103FDA0010B7E0FF9010397402F07400A3F090104B
:103FEA003B741EF07400A3F0A3F0A3F08F82122694
:103FFA00DC12401AE51D24FCF8740266FE088607E6
:10400A008E828F83024017758200758300D01D222D
:10401A008590A09010B8E0FFBF01028003024042E1
:10402A009010B87400F09010BA04F0A2819010BAFF
:10403A00E024FF92810240589010B87401F0901069
:10404A00BA7400F0A2819010BAE024FF928122AFE4
:10405A00F0AE83E5829010BCF0EEA3F0EFA3F090EF
:10406A0010BF7400F0A3F0A3F09010BBE0FFBF02F2
:10407A000280030242D89010BCE0FDA3E0FEA3E058
:10408A00FF8D828E838FF0125A58FC7B000DBD0083
:10409A00010E8D828E838FF0125A58FD7F008D0794
:1040AA007D00ED2CFCEF3BFB8C068B07BC0006BBAE
:1040BA001803024176BE0106BF1803024187BE00FB
:1040CA0006BF2803024198BE0106BF28030241A980
:1040DA00BE0206BF28030241BABE0306BF28030276
:1040EA0041CBBE0006BF29030241DCBE0106BF293F
:1040FA00030241EDBE0206BF29030241FEBE0306CA
:10410A00BF290302420FBE0406BF2903024220BE92
:10411A000506BF2903024231BE0606BF2903024231
:10412A0042BE0706BF2903024253BE0806BF29033F
:10413A00024264BE0006BF2A03024275BE0106BFE0
:10414A002A03024286BE0206BF2A030242A8BE030F
:10415A0006BF2A03024297BE0406BF2A030242B9D7
:10416A00BE0506BF2A030242CA0242D89010BF7493
:10417A0085F0745AA3F07480A3F00242D89010BF5D
:10418A007487F0745AA3F07480A3F00242D8901096
:10419A00BF748DF0745AA3F07480A3F00242D890D1
:1041AA0010BF748FF0745AA3F07480A3F00242D83F
:1041BA009010BF7491F0745AA3F07480A3F0024275
:1041CA00D89010BF7493F0745AA3F07480A3F002CD
:1041DA0042D89010BF7495F0745AA3F07480A3F07B
:1041EA000242D89010BF7497F0745AA3F07480A357
:1041FA00F00242D89010BF7499F0745AA3F07480F8
:10420A00A3F00242D89010BF749BF0745AA3F074C2
:10421A0080A3F00242D89010BF749DF0745AA3F0A4
:10422A007480A3F00242D89010BF749FF0745AA30E
:10423A00F07480A3F00242D89010BF74B3F0745A9D
:10424A00A3F07480A3F00242D89010BF74B5F07442
:10425A005AA3F07480A3F00242D89010BF74B7F04A
:10426A00745AA3F07480A3F00242D89010BF74A1CC
:10427A00F0745AA3F07480A3F00242D89010BF746D
:10428A00A3F0745AA3F07480A3F00242D89010BF2E
:10429A0074A7F0745AA3F07480A3F00242D8901065
:1042AA00BF74A5F0745AA3F07480A3F00242D890A8
:1042BA0010BF74A9F0745AA3F07480A3F00242D814
:1042CA009010BF74ABF0745AA3F07480A3F09010EE
:1042DA00BFE0FDA3E0FEA3E0FF8D828E838FF02274
:105A85000018011805A006A00028012802280328EF
:105A9500002901290229032904290529002A012AA7
:105AA500022A032A042A052A08B009B00AB00629E1
:045AB500072908298C
:1000E8009010EF7401F09010F074B8F0740BA3F056
:1000F8009010F27403F09010F314F09010F414F0D0
:100108009010F57406F09010F67400F09010F7F067
:100118009010F8F09010F9F09010FAF09010FBF0B1
:100128009010FCF09010FDF09010FEF09010FFF091
:10013800901100F0901101F0901102F0901103F06D
:10014800901104F0901105F0901106F0901107F04D
:10015800901108F0901109F090110AF090110BF02D
:1001680090110CF090110DF090110EF090110FF00D
:10017800901110F0901111F0901112F0901113F0ED
:10018800901134F090113CF0A3F090113EF0A3F0E0
:10019800A3F0901141F0901147F09011487406F0C7
:1001A8007400A3F090114A7480F0740CA3F09011BD
:1001B8004C7400F0A3F090114E74E8F07403A3F0AF
:1001C8009011507400F0A3F0901152F0A3F0901128
:0801D80054F0A3F0901156F061
:1042EA00AF83E58290115BF0EFA3F090115D74004B
:1042FA00F090115BE0FEA3E0FFBE0505BF0302805C
:10430A00030243C8901157E0FFBF01028003024332
:10431A00BF9010EFE0FF90115EEFF0901158E0FDB2
:10432A00A3E0FEA3E0FF8D828E838FF0125A58FD20
:10433A009010EFEDF090115EE0FFEF700302436F13
:10434A009010EFE0FFEF600302436F9010C3E0FFAD
:10435A00BF020280030243CE9010C2E0FF8F821296
:10436A004AEA0243CE90115EE0FFEF60030243CEB9
:10437A009010EFE0FFEF70030243CE9010C3E0FF0E
:10438A00BF01030243A89010C3E0FFBF0303024327
:10439A00A89010C3E0FFBF040280030243CE90102E
:1043AA00C2E0FF9003C77401F07400A3F08F821279
:1043BA0019600243CE90115D7418F00243CE901139
:1043CA005D7402F090115DE0FF8F8222AF83E58277
:1043DA00901162F0EFA3F09011647400F0901162F2
:1043EA00E0FEA3E0FFC3EF940350030247EEC37459
:1043FA00189E74039F50030247EEEE240A83F58247
:10440A00EE241D83F583E473446190BFF423406571
:10441A0099CDEA073653707398BCE1062B507FA4F6
:10442A00C9444444444445454545454546464646AF
:10443A004646464647474747474790115FE0FDA330
:10444A00E0FEA3E0FF9010C4E0FC8D828E838FF023
:10445A00EC1258EC02480890115FE0FDA3E0FEA3BD
:10446A00E0FF90030874C5F07410A3F07400A3F081
:10447A0090030B7410F07400A3F08D828E838FF07A
:10448A001203FE02480890115FE0FDA3E0FEA3E0DC
:10449A00FF90030874D5F07410A3F07400A3F09091
:1044AA00030B7410F07400A3F08D828E838FF012C8
:1044BA0003FE02480890115FE0FDA3E0FEA3E0FFBF
:1044CA009010E5E0F9A3E0FAA3E0FBA3E0FC8D82FB
:1044DA008E838FF0E91258ECA3EA1258ECA3EB1280
:1044EA0058ECA3EC1258EC02480890115FE0FDA3C7
:1044FA00E0FEA3E0FF90030874E9F07410A3F074DF
:10450A0000A3F090030B7406F07400A3F08D828E62
:10451A00838FF01203FE02480890115FE0FDA3E0CA
:10452A00FEA3E0FF9010EFE0FC8D828E838FF0EC0B
:10453A001258EC02480890115FE0FDA3E0FEA3E0E8
:10454A00FF9010F0E0FBA3E0FC8D828E838FF0EBEE
:10455A001258ECA3EC1258EC02480890115FE0FDE7
:10456A00A3E0FEA3E0FF9010F2E0FC7B00900308BA
:10457A0074F3F07410A3F07400A3F090030BECF042
:10458A00EBA3F08D828E838FF01203FE024808900F
:10459A00115FE0FDA3E0FEA3E0FF901112E0FC7BB7
:1045AA00009003087413F07411A3F07400A3F09040
:1045BA00030BECF0EBA3F08D828E838FF01203FED7
:1045CA0002480890115FE0FDA3E0FEA3E0FF90110E
:1045DA0032E0FC8D828E838FF0EC1258EC02480890
:1045EA0090115FE0FDA3E0FEA3E0FF901133E0FC31
:1045FA008D828E838FF0EC1258EC02480890115F7E
:10460A00E0FDA3E0FEA3E0FF9003087434F0741108
:10461A00A3F07400A3F090030B7406F07400A3F0E7
:10462A008D828E838FF01203FE02480890115FE09C
:10463A00FDA3E0FEA3E0FF90113AE0FC8D828E8399
:10464A008FF0EC1258EC02480890115FE0FDA3E0ED
:10465A00FEA3E0FF90113BE0FC8D828E838FF0EC8D
:10466A001258EC02480802480890115FE0FDA3E0E6
:10467A00FEA3E0FF90113CE0FBA3E0FC8D828E8359
:10468A008FF0EB1258ECA3EC1258EC024808901188
:10469A005FE0FDA3E0FEA3E0FF901147E0FC7B0092
:1046AA008D828E838FF0EC1258ECA3EB1258EC0239
:1046BA00480890115FE0FDA3E0FEA3E0FF901148D7
:1046CA00E0FBA3E0FC8D828E838FF0EB1258ECA303
:1046DA00EC1258EC02480890115FE0FDA3E0FEA33B
:1046EA00E0FF90114AE0FBA3E0FC8D828E838FF0FD
:1046FA00EB1258ECA3EC1258EC02480890115FE058
:10470A00FDA3E0FEA3E0FF90114CE0FBA3E0FC8DCB
:10471A00828E838FF0EB1258ECA3EC1258EC02480D
:10472A000890115FE0FDA3E0FEA3E0FF90114EE0C8
:10473A00FBA3E0FC8D828E838FF0EB1258ECA3EC86
:10474A001258EC02480890115FE0FDA3E0FEA3E0D6
:10475A00FF9003087441F07411A3F07400A3F09061
:10476A00030B7406F07400A3F08D828E838FF0120F
:10477A0003FE02480890115FE0FDA3E0FEA3E0FFFC
:10478A00901150E0FBA3E0FC8D828E838FF0EB1238
:10479A0058ECA3EC1258EC02480890115FE0FDA314
:1047AA00E0FEA3E0FF901152E0FBA3E0FC8D828EB5
:1047BA00838FF0EB1258ECA3EC1258EC02480890E5
:1047CA00115FE0FDA3E0FEA3E0FF901154E0FBA31C
:1047DA00E0FC8D828E838FF0EB1258ECA3EC12581A
:1047EA00EC024808901162E0FEA3E0FFC3EE9424B5
:1047FA00EF940050030248089011647402F090117B
:10480A0064E0FF8F8222AFF0AE83E582901165F0FB
:10481A00EEA3F0EFA3F09010C3E0FFEF60030248AD
:10482A005C901165E0FDA3E0FEA3E0FFED4E70038E
:10483A00024853901165E0FDA3E0FEA3E0FF90114A
:10484A003EEDF0EEA3F0EFA3F0124AD27582000219
:10485A00485F75821122E582901168F0E0FF90109E
:10486A00C2EFF09010C37400F09010C47404F0907A
:10487A00033A7400F090033B7410F07400A3F075CF
:10488A0082C575831075F00012068B90033A740086
:10489A00F090033B7410F07400A3F07582D5758311
:1048AA001075F00012068B9010E57400F0A3F0A3C7
:1048BA00F0A3F0901132F0901133F090113A74078E
:1048CA00F090113B7400F022C01D85811DE5812402
:1048DA000AF581E51D24FCF8E620E0030249EC9084
:1048EA0010EFE0FFEF70030249D9A91D09901132B8
:1048FA00E0FFA707AF1D0FEF04F9901133E0FEA701
:10490A000674022FFE7D007C409003087434F07414
:10491A0011A3F07400A3F090030B7406F07400A3C3
:10492A00F08E828D838CF0C0071203FED0077408C4
:10493A002FF990113AE0FEA70674092FF990113B5E
:10494A00E0FEA7069010C2E0FE901169EFF0740035
:10495A00A3F07440A3F08E82124AEEE5827003023D
:10496A0049D99010C37406F090113EE0FDA3E0FE11
:10497A00A3E0FFED4E70030249D990113EE0FDA37A
:10498A00E0FEA3E0FF8D828E838FF0125A58FDA3BA
:10499A00125A58FEED4E70030249D990113EE0FDBD
:1049AA00A3E0FEA3E0FF8D828E838FF0125A58FD9A
:1049BA00A3125A58FE9010C3E0FFC006C005124960
:1049CA00CE0249D5C005C0068F8222D005D006E5A1
:1049DA001D24FCF8740166FE0886078E828F830206
:1049EA004A4BE51D24FCF8E620E303024A45124A35
:1049FA0051E5826003024A327582B975835A75F0AD
:104A0A0080123CB69010C2E0FF9010397408F0741E
:104A1A0000A3F090103B742CF07401A3F07400A36F
:104A2A00F0A3F08F821226DCE51D24FCF8740866D8
:104A3A00FE0886078E828F83024A4B758200758331
:104A4A0000851D81D01D22AF8EBF0103024A62BFBD
:104A5A000203024A85024A949010C37401F090102E
:104A6A00C2E0FF9003C77401F07400A3F08F8212B2
:104A7A00196075AA00758E00024A9A9010C37402D2
:104A8A00F075AA00758E00024A9A758200024AD110
:104A9A0090113EE0FDA3E0FEA3E0FF8D828E838F9E
:104AAA00F0125A58FDA3125A58FE9010C3E0FFC0E4
:104ABA0006C005124AC3024ACAC005C0068F82222E
:104ACA00D005D0067582012275AA019010C2E0FFB6
:104ADA009003C77408F07400A3F08F821219602241
:104AEA007582002275AA029010C2E0FF9003C77473
:104AFA0008F07400A3F08F82121960758200227583
:034B0A0082002204
:105AB90047415020626C6520636B65636B65723D7D
:065AC9003D3D3D0D0A0009
:1001E000901171740AF09011727400F09011737490
:1001F00043F09011747468F09011757461F090116F
:10020000767472F09011777461F09011787463F0E5
:100210009011797474F090117A7465F090117B7478
:1002200072F090117C7469F090117D7473F09011EC
:100230007E04F090117F7469F09011807463F090E7
:1002400011817420F09011827431F0901183740048
:10025000F0901184740AF09011857400F09011866A
:100260007443F09011877468F09011887461F09075
:1002700011897472F090118A7461F090118B74631B
:10028000F090118C7474F090118D7465F090118E53
:100290007472F090118F7469F09011907473F090F3
:1002A000119104F09011927469F09011937463F0BD
:1002B0009011947420F09011957432F0901196740E
:1002C00000F09011977402F0901198748DF0745AA8
:1002D000A3F07480A3F090119B23F090119C740004
:1002E000F0A3F090119E74DBF0745AA3F07480A315
:1002F000F09011A17402F09011A27493F0745AA3BB
:10030000F07480A3F09011A523F09011A67400F072
:10031000A3F09011A87471F07411A3F07400A3F00D
:100320009011AB7402F09011AC74D7F0745AA3F032
:100330007480A3F09011AF7403F09011B07400F0CA
:10034000A3F09011B27472F07411A3F07400A3F0D2
:100350009011B57402F09011B67497F0745AA3F02E
:100360007480A3F09011B923F09011BA7400F0A337
:10037000F09011BC7473F07411A3F07400A3F090AA
:1003800011BF7402F09011C074D9F0745AA3F074C4
:1003900080A3F09011C37403F09011C47400F0A313
:0F03A000F09011C67485F07411A3F07400A3F0EF
:104B0D00AF82AE83ADF0FC9011C9EFF0EEA3F0EDE6
:104B1D00A3F0ECA3F09011CD7400F09011C9E0FC5E
:104B2D00A3E0FDA3E0FEA3E0FFEC20E003024B6752
:104B3D009011DA7405F07400A3F09011DC74CFF0CD
:104B4D00745AA3F07480A3F075829775831175F074
:104B5D0000125299E5829011CDF09011CDE0FF8FAA
:104B6D008222C01D85811D7F00E51D24FBF8860472
:104B7D0008860508860674042CFC74003DFD8C82A5
:104B8D008D838EF0125A58FCEC20E403024BA27573
:104B9D008208024D41E51D24F3F8E6084670030234
:104BAD004BB575820B024D41E51D24FBF8860408BB
:104BBD0086050886068C828D838EF0125A58FCBCB1
:104BCD0002028003024D25E51D24FBF886040886AC
:104BDD00050886060CBC00010D8C828D838EF012AB
:104BED005A58FCA3125A58FDA3125A58FE8C828DA6
:104BFD00838EF0125A58FB7A000CBC00010D8C828A
:104C0D008D838EF0125A58FC7E008C067C00EC2BA6
:104C1D00FBEE3AFABBD106BADD03024C36BBD30626
:104C2D00BADD03024C9F024D08C007E51D24F5F8BF
:104C3D0086040886050886068C828D838EF07401A5
:104C4D001258ECE51D24F8F886040886050886063A
:104C5D00E51D24FBF8860208860308860774072ADB
:104C6D00FA74003BFB8A828B838FF0125A58FAA399
:104C7D00125A58FBA3125A58FF8A828B838FF01257
:104C8D005A58FA8C828D838EF0EA1258ECD00702B6
:104C9D004D3FC007E51D24F5F886040886050886F6
:104CAD00068C828D838EF074011258ECE51D24F86C
:104CBD00F88604088605088606E51D24FBF886029D
:104CCD0008860308860774072AFA74003BFB8A825C
:104CDD008B838FF0125A58FAA3125A58FBA3125A0B
:104CED0058FF8A828B838FF0125A58FA8C828D83EB
:104CFD008EF0EA1258ECD007024D3FE51D24F5F871
:104D0D0086040886050886068C828D838EF07400D5
:104D1D001258EC7F0A024D3FE51D24F5F886040874
:104D2D0086050886068C828D838EF074001258ECF1
:104D3D007F018F82D01D22C01D85811D05810581BA
:104D4D0005817F00E51D24FBF8860408860508868D
:104D5D000674042CFC74003DFD8C828D838EF01244
:104D6D005A58FCEC20E503024D7D758208024EE891
:104D7D00E51D24FBF886040886050886068C828DC1
:104D8D00838EF0125A58FCBC02028003024EE4E5F9
:104D9D001D24FBF886040886050886060CBC000158
:104DAD000D8C828D838EF0125A58FCA3125A58FD29
:104DBD00A3125A58FE8C828D838EF0125A58FB7AAC
:104DCD00000CBC00010D8C828D838EF0125A58FCA4
:104DDD007E008C067C00EC2BFBEE3AFABB0206BA89
:104DED002903024EE6BBD106BADD03024E07BBD343
:104DFD0006BADD03024E73024EDFEF6003024EE68C
:104E0D00C007E51D24FBF886040886050886067490
:104E1D00072CFC74003DFD8C828D838EF0A81D083F
:104E2D00125A58F6A3125A5808F6A3125A5808F6F1
:104E3D00E51D24F8F886020886030886078A828B0A
:104E4D00838FF0125A58FEA81D08868208868308A3
:104E5D0086F0EE1258EC8A828B838FF0125A58F539
:104E6D00C0D007024EE6EF6003024EE6C007E51D17
:104E7D0024FBF8860408860508860674072CFC7446
:104E8D00003DFD8C828D838EF0A81D08125A58F6B8
:104E9D00A3125A5808F6A3125A5808F6E51D24F81D
:104EAD00F886020886030886078A828B838FF012A4
:104EBD005A58FEA81D0886820886830886F0EE12D1
:104ECD0058EC8A828B838FF0125A58F5C2D00702A4
:104EDD004EE67F0A024EE67F018F82851D81D01D31
:014EED0022A2
:105ACF006F4B444D0000DDDDD1DDD3DD02D55A80B3
:0803AF009011CE7400F0A3F0E0
:104EEE00E5829011D1F0E0FF9011D0EFF09011CE4D
:104EFE007400F0A3F09003C704F07400A3F08F8247
:104F0E0012196022C01D85811DE51D24FCF8E620C6
:104F1E00E003024F5CC39011D0E0FF901039740192
:104F2E00F07400A3F090103B7464F07400A3F0A32F
:104F3E00F0A3F08F821226DC124F65E51D24FCF8DB
:104F4E00740166FE0886078E828F83024F62758219
:104F5E0000758300D01D22900067E0FCA3E0FDA346
:104F6E00E0FEA3E0FF9011D2ECF0EDA3F09011D78C
:104F7E007400F09011D9F0AF8EBF0303024F9CBFA7
:104F8E000403024FA5BF0503025120025298758EED
:104F9E000075AA000252989011D2E0F517A3E0F521
:104FAE00189011D7E0FD9011CEE0FBA3E0FC8D012F
:104FBE007A00C3E99BEA64808CF063F08095F04040
:104FCE000302510D9011D87400F0ED75F006A4FB9C
:104FDE00ACF0E0FAC0058B8274002CF583E0F8A3E8
:104FEE00E0F9A3E0FDEA75F00AA428F8E935F0F936
:104FFE009011D4E8F0E9A3F0EDA3F008B800010990
:10500E00888289838DF0125A58F8A3125A58F9A340
:10501E00125A58FD888289838DF0125A58F8A312BD
:10502E005A58F9851782851883E493FDA3E493FFFC
:10503E00E8B50506E9B507028005D0050250EAD0AD
:10504E0005C0059011D97401F08B0674002CFF8EEB
:10505E00828F83A3A3A3E0F9A3E0FEA3E0FF8982DE
:10506E008E838FF0125A58F9A3125A58FE9000727E
:10507E00E0F519A3E0F51A900065E0FDA3E0FFC08E
:10508E0006C005C004C003C002C0017434C0E0C035
:10509E0019C01A7471C0E07400C0E07400C0E074EE
:1050AE0074C0E07400C0E07400C0E09011D4E0C0A1
:1050BE00E0A3E0C0E0A3E0C0E01250CD0250D6C0A5
:1050CE0001C0068D828F8322E58124F4F581D00103
:1050DE00D002D003D004D005D006D0059011D9E06F
:1050EE00FFBF01030250FE0ABA04005003024FE252
:1050FE009011D9E0FFBF010302510D0D024FB49084
:10510E0011D9E0FFBF0102800302529875AA040272
:10511E0052989011D2E0F519A3E0F51A9011D7E04C
:10512E00FD9011CEE0FBA3E0FC8D017A00C3E99B5C
:10513E00EA64808CF063F08095F040030252889010
:10514E0011D87400F0ED75F006A4FBACF0E0FAC0D7
:10515E00058B8274002CF583E0F8A3E0F9A3E0FD43
:10516E00EA75F00AA428F8E935F0F99011D4E8F0C0
:10517E00E9A3F0EDA3F008B8000109888289838DB8
:10518E00F0125A58F8A3125A58F9A3125A58FD8819
:10519E008289838DF0125A58F8A3125A58F985193C
:1051AE0082851A83E493FDA3E493FFE8B50506E92F
:1051BE00B507028005D005025265D005C0059011D5
:1051CE00D97401F08B0674002CFF8E828F83A3A3FB
:1051DE00A3E0F9A3E0FEA3E0FF740229F974003EF8
:1051EE00FE89828E838FF0125A58F9A3125A58FEF6
:1051FE00900072E0F51BA3E0F51C900071E0F5172E
:10520E00900065E0FDA3E0FFC006C005C004C0032A
:10521E00C002C001C01BC01CC0177474C0E0740073
:10522E00C0E07400C0E09011D4E0C0E0A3E0C0E0A4
:10523E00A3E0C0E0125248025251C001C0068D8256
:10524E008F8322E58124F7F581D001D002D003D0DF
:10525E0004D005D006D0059011D9E0FFBF0103029E
:10526E0052790ABA0400500302515D9011D9E0FF41
:10527E00BF01030252880D02512F9011D9E0FFBFDA
:10528E000102800302529875AA0522AFF0AE83E5A3
:10529E00829011DFF0EEA3F0EFA3F09011CEE0FEBE
:1052AE00A3E0FF9011E2EEF0EFA3F0BE0A05BF00FF
:1052BE000280030252CA7582000253459011E2E049
:1052CE00FEA3E0FF90121CEEF0EFA3F075820675C0
:1052DE008300125907AE82AF838E0474002FFD90A7
:1052EE0011DFE0F9A3E0FAA3E0FB8C828D83E9F0F5
:1052FE00EAA3F0EBA3F074002FFF74032EFE7400EC
:10530E003FFF9011DCE0FBA3E0FCA3E0FD8E828F5B
:10531E0083EBF0ECA3F0EDA3F075AA039011CEE0B1
:10532E00FEA3E0FF8FB08EB79011CE74012EF074F5
:10533E00003FA3F075820122AF83E5829011E6F063
:10534E00EFA3F09011E8E4F0A3F09011E4E0FEA3D7
:10535E00E0FF7D109011E6E0FBA3E0FC339200EC41
:10536E00CB25E0CB33FC9011E6EBF0ECA3F09011E3
:10537E00E8E0FBA3E0CB25E0CB33FC9011E8EBF0AB
:10538E00ECA3F03000129011E8E0FBA3E0FC9011CA
:10539E00E874014BF0ECA3F09011E8E0FBA3E0FC05
:1053AE00C3EB9EEC9F401D9011E8EBC39EF0EC9F6B
:1053BE00A3F09011E6E0FBA3E0FC9011E674014B24
:1053CE00F0ECA3F0DD8E9011E6E0FEA3E08E82F508
:1053DE008322AF82AE83ADF0FC9011EEEFF0EEA320
:1053EE00F0EDA3F0ECA3F09011F2E4F09011EEE0EA
:1053FE00FCA3E0FDA3E0FEA3E0FF7B009011EAE03A
:10540E00F53AA3E0F53BA3E0F53CA3E0F53D2354CC
:10541E0001FA7074C003E53A253AF8E53B33F9E535
:10542E003C33FAE53D33FB9011EAE8F0E9A3F0EAEC
:10543E00A3F0EBA3F09011EAE0F53AA3E0F53BA35D
:10544E00E0F53CA3E0F53DC3EC953AED953BEE95CA
:10545E003CEF953DD0035027E53DC313F53DE53CAC
:10546E0013F53CE53B13F53BE53A13F53A9011EA9B
:10547E00F0E53BA3F0E53CA3F0E53DA3F080090B7E
:10548E009011F2EBF002540A9011F2E0FF9011EE3F
:10549E00E0FBA3E0FCA3E0FDA3E0FE9011EAE0F543
:1054AE003AA3E0F53BA3E0F53CA3E0F53DC3EB9555
:1054BE003AEC953BED953CEE953D40179011EEEB99
:1054CE00C3953AF0EC953BA3F0ED953CA3F0EE9529
:1054DE003DA3F09011EAE0FBA3E0FCA3E0FDA3E006
:1054EE00C313FEED13FDEC13FCEB13FB9011EAF06E
:1054FE00ECA3F0EDA3F0EEA3F08F061FEE708E90EE
:10550E0011EEE0FCA3E0FDA3E0FEA3E08C828D8310
:10551E008EF022AFF0AE83E5829011F6F0EEA3F09E
:10552E00EFA3F09011F6E0FDA3E0FEA3E0FF9011D3
:10553E00F3E0FAA3E0FBA3E0FC8D3A8E3B8F3C8AAE
:10554E00828B838CF0125A58F9A3AA82AB83853AC8
:10555E0082853B83853CF0E91258ECA385823A851F
:10556E00833BE970DA8D828E838FF022AF82AE8319
:10557E00ADF0FC9011FDEFF0EEA3F0EDA3F0ECA377
:10558E00F0901201E4F0A3F0A3F0A3F09011F9E073
:10559E00FCA3E0FDA3E0FEA3E0FF753A209011FD11
:1055AE00E0F8A3E0F9A3E0FAA3E0FB339201E828C8
:1055BE00F8E933F9EA33FAEB33FB9011FDE8F0E941
:1055CE00A3F0EAA3F0EBA3F0901201E0F8A3E0F948
:1055DE00A3E0FAA3E0FBE828F8E933F9EA33FAEBA3
:1055EE0033FB901201E8F0E9A3F0EAA3F0EBA3F08D
:1055FE0030011E901201E0F8A3E0F9A3E0FAA3E057
:10560E00FB901201740148F0E9A3F0EAA3F0EBA3BA
:10561E00F0901201E0F8A3E0F9A3E0FAA3E0FBC3D7
:10562E00E89CE99DEA9EEB9F4031901201E8C39CF5
:10563E00F0E99DA3F0EA9EA3F0EB9FA3F09011FD7D
:10564E00E0F8A3E0F9A3E0FAA3E0FB9011FD7401EA
:10565E0048F0E9A3F0EAA3F0EBA3F0D53A028003F9
:10566E000255AB9011FDE0FCA3E0FDA3E0FEA3E02C
:07567E008C828D838EF02267
:06004100E478FFF6D8FD93
:10568500AC82AD83901206E0FEA3E0FFBE0003608E
:10569500121F0F901205E08C828D831258ECA3DE49
:1056A500FADFF88C828D8322AF83E58290120CF0AD
:1056B500EFA3F0901208E0FDA3E0FEA3E0FF901237
:1056C5000BE0F5347B00EB2DF8E43EF98F02C003C7
:1056D50090120CE0FBA3E0FC853435753600901282
:1056E50022E535F0E536A3F08B828C83C007C00632
:1056F500C005C002C001C000125993AB82AC83D073
:1057050000D001D002D005D006D00774302BFB881D
:105715008289838AF01258ECC374B98BF063F080E8
:1057250095F0D0035015888289838AF0125A58243F
:1057350007FC888289838AF01258EC90120CE0FAF3
:10574500A3E0FC9011E4E535F0E536A3F08A828C00
:1057550083C007C006C005C003125346E582858392
:10576500F0D003D005D006D00790120CF0E5F0A3D9
:10577500F00B90120CE0FAA3E0FC4A60030256CB52
:10578500EB1490120EF0EB2DFBE43EFC8F028B82A6
:105795008C838AF0E41258EC7C0090120EE0FBC377
:1057A500EC64808BF063F08095F05050EC2DF5376C
:1057B500E43EF5388F398537828538838539F0128F
:1057C5005A58F535EB2DF8E43EF98F02C005C006B1
:1057D500C007888289838AF0125A588537828538AE
:1057E500838539F01258EC888289838AF0E5351271
:1057F50058EC0C1BD007D006D00580A322AF83E55B
:1058050082901213F0EFA3F0901213E0FEA3E0FFD5
:1058150030E737901212E0FDBD0A2F90120FE0FB22
:10582500A3E0FCA3E0FD8B828C838DF0742D1258D0
:10583500EC90120F74012BF0E43CA3F0EDA3F09073
:105845001213C3E49EF0E49FA3F0901213E0FEA3AD
:10585500E0FF90120FE0FBA3E0FCA3E0FD90121225
:10586500E0FA901208EBF0ECA3F0EDA3F090120B28
:10587500EAF08E828F830256ADAFF0AE83E582905B
:105885001218F0EEA3F0EFA3F0901218E0FDA3E0DC
:10589500FEA3E0FF8D028E038F048A828B838CF03A
:1058A500125A5860070ABA00F10B80EE901215E003
:1058B500F53AA3E0F53BA3E0F53C853A82853B83C9
:1058C500853CF0125A58F9A385823A85833B8A8232
:1058D5008B838CF0E91258ECA3AA82AB83E970DACA
:1058E5008D828E838FF02220F71130F6138883A8DE
:1058F5008220F509F6A8837583002280FEF280F5E3
:10590500F022AA83AB828BF090121CE0A4F8A9F0D8
:105915008AF0E0A429F98BF0A3E0A429F583888215
:105925002222A882A983AAF0FB88F090121EE0A487
:10593500FCADF089F0E0A42DFDE435F0FE88F0A380
:10594500E0A42DFDE5F03EFEE433FF89F0E0A42E52
:10595500FEE5F03FFF88F0A3E0A42EFEE5F03FFF53
:105965008AF090121EE0A42EFEE5F03FFF8BF0E0DA
:10597500A42FFF8AF0A3E0A42FFF89F0A3E0A42FB2
:10598500FF88F0A3E0A42F8EF08D838C8222AF8355
:10599500E582901224F0EFA3F0901226E4F0901225
:1059A50024E0FEA3E0FF7D00901222E0FBA3E0FCD3
:1059B500235401FA7037ECCB25E0CB33FC9012224F
:1059C500EBF0ECA3F0901222E0FBA3E0FCC3EE9B0E
:1059D500EF9C5011ECC313CB13CBFC901222EBF0D0
:1059E500ECA3F080080D901226EDF080BB901226F6
:1059F500E0FF901224E0FDA3E0FE901222E0FBA35D
:105A0500E0FCC3ED9BEE9C400B901224EDC39BF094
:105A1500EE9CA3F0901222E0FDA3E0C313CD13CDBD
:105A2500FE901222EDF0EEA3F08F061FEE70C390EC
:105A35001224E0FEA3E08E82F58322AA82AB8312B4
:105A45005A586003A380F8C3E5829AF582E5839BE3
:035A5500F58322B4
:10000600E58124FCC3C8C0E0C082E608467006E568
:10001600824583601218E58296F58208E58396424A
