:03000000020034C7
:0303D9000200031C
:030003000203DC19
:1003DC00758149758200758300123C01121AA012B6
:0903EC001AB77582007583002226
:0600470090030374FFF0BA
:1003F500AFF0AE83E582900304F0EEA3F0EFA3F037
:10040500900304E0FDA3E0FEA3E0FF8D828E838FC1
:10041500F0125D48AE82AF838E828F8322AFF0AE3D
:1004250083E58290030CF0EEA3F0EFA3F0900307B1
:10043500E0FDA3E0FEA3E0FF900312EDF0EEA3F0D4
:10044500EFA3F090030CE0FDA3E0FEA3E0FF900313
:100455000FEDF0EEA3F0EFA3F0900312E0FDA3E0A3
:10046500FEA3E0FF90030FE0FAA3E0FBA3E0FC90FE
:10047500030AE0F53BA3E0F53CA83BA93C153B741A
:10048500FFB53B02153CE84970030204B38D828E2B
:10049500838FF0125D60F9A3AD82AE838A828B8370
:1004A5008CF0E9125BF4A3AA82AB8302047E90036D
:1004B5000FEAF0EBA3F0ECA3F090030FE0FDA3E04F
:1004C500FEA3E0FF8D828E838FF022AFF0AE83E531
:1004D5008290031AF0EEA3F0EFA3F0900315E0FD70
:1004E500A3E0FEA3E0FF900318E0FBA3E0FC1BBB29
:1004F500FF011C900320EB2DF0EC3EA3F0EFA3F0E1
:1005050090031AE0FDA3E0FEA3E0FF90031DEDF0CC
:10051500EEA3F0EFA3F0900320E0FDA3E0FEA3E03F
:10052500FF90031DE0FAA3E0FBA3E0FC900318E0B5
:10053500F53BA3E0F53CA83BA93C153B74FFB53B57
:1005450002153CE84970030205708D828E838FF099
:10055500125D60F91DBDFF011E8A828B838CF0E957
:10056500125BF4A3AA82AB8302053B90031DEAF05C
:10057500EBA3F0ECA3F090031DE0FDA3E0FEA3E0E8
:10058500FF8D828E838FF022AFF0AE83E5829003DC
:1005950025F0EEA3F0EFA3F0900323E0FEA3E0FF28
:1005A5008E828F83121FD6AD82AE83AFF090032863
:1005B500EDF0EEA3F0EFA3F0ED4E70030205FE9013
:1005C5000328E0FDA3E0FEA3E0FF900325E0FAA3E6
:1005D500E0FBA3E0FC900323E0F8A3E0F990030718
:1005E500EAF0EBA3F0ECA3F090030AE8F0E9A3F03E
:1005F5008D828E838FF0120422900328E0FDA3E004
:10060500FEA3E0FF8D828E838FF022AFF0AE83E5EF
:1006150082900330F0EEA3F0EFA3F0900330E0FDFD
:10062500A3E0FEA3E0FF900333EDF0EEA3F0EFA30C
:10063500F090032BE0FDA3E0FEA3E0FF900336ED71
:10064500F0EEA3F0EFA3F0900333E0FDA3E0FEA3EB
:10065500E0FF900336E0FAA3E0FBA3E0FC90032E55
:10066500E0F53BA3E0F53CA83BA93C153B74FFB581
:100675003B02153CE84970030206AB8D828E838FE1
:10068500F0125D60F9A3AD82AE838A828B838CF014
:10069500125D60F8A3AA82AB83E9B5000302066C7C
:1006A5007582000206AE75820122AFF0AE83E58247
:1006B50090033CF0EEA3F0EFA3F090033CE0FDA324
:1006C500E0FEA3E0FF900339E0FC90033AE0FAA3D3
:1006D500E0FB901247ECF0901248EAF0EBA3F08DA6
:1006E500828E838FF012598DAD82AE83AFF08D82ED
:1006F5008E838FF022AFF0AE83E58290033FF0EE5C
:10070500A3F0EFA3F090033FE0FDA3E0FEA3E0FF1D
:100715008D828E838FF0125D60FC7B000DBD000124
:100725000E8D828E838FF0125D60FD7F008D077DBB
:1007350000ED2CFCEF3BFB8C828B8322AFF0AE836C
:10074500E582900343F0EEA3F0EFA3F0900342E0BF
:10075500FFBF020280030207B0900343E0FDA3E060
:10076500FEA3E0FF8D828E838FF0125D60FC8C010D
:100775007A007B007C000DBD00010E8D828E838F7B
:10078500F0125D60FD8D007D007E007F008E078D7F
:100795000688057800E829F9ED3AFAEE3BFBEF3CCF
:1007A500FC89828A838BF0EC020936900342E0FFD4
:1007B500BF03028003020847900343E0FDA3E0FE68
:1007C500A3E0FF8D828E838FF0125D60FC8C3B75FC
:1007D5003C00753D00753E0074012DF874003EFB2C
:1007E5008F0488828B838CF0125D60F87C007B001F
:1007F5007A008B028C0388047800E8253BF8EC35F9
:100805003CFCEB353DFBEA353EFA74022DFD7400E8
:100815003EFE8D828E838FF0125D60FD8D017D0021
:100825007E007F008D0789067D007900E928F8EDB7
:100835003CFCEE3BFBEF3AFA88828C838BF0EA02B4
:100845000936900342E0FFBF0402800302091490B9
:100855000343E0FDA3E0FEA3E0FF8D828E838FF0CE
:10086500125D60FC8C3B753C00753D00753E007467
:10087500012DF874003EFB8F0488828B838CF01267
:100885005D60F87C007B007A008B028C038804781D
:1008950000E8253BF53BEC353CF53CEB353DF53DBE
:1008A500EA353EF53E74022DF974003EFB8F04894E
:1008B500828B838CF0125D60F97C007B007A008C62
:1008C5000289037C007900E9253BF9EC353CFCEB1A
:1008D500353DFBEA353EFA74032DFD74003EFE8D71
:1008E500828E838FF0125D60FD8D007D007E007F1E
:1008F50000880778007D007E00E829F9ED3CFCEED4
:100905003BFBEF3AFA89828C838BF0EA0209369039
:100915000343E0FDA3E0FEA3E0FF8D828E838FF00D
:10092500125D60FD7F007E007C008D828F838EF0DE
:10093500EC22AF82AE83ADF0FC90034AEFF0EEA35C
:10094500F0EDA3F0ECA3F090034E7400F090035883
:10095500F0900362F0900346E0FDA3E0FEA3E0FF04
:100965008D828E838FF07400125BF4900349E0FF53
:10097500BF0A028003020CC890034AE0FCA3E0FD15
:10098500A3E0FEA3E0FF90122C7410F07427A3F0EF
:100995007400A3F0A3F08C828D838EF0EFC007C0A6
:1009A50006C005C0041256E8A882A983AAF0FBD0A8
:1009B50004D005D006D00790036CE8F0E9A3F090C9
:1009C500123B7410F07427A3F07400A3F0A3F08C0D
:1009D500828D838EF0EFC007C006C005C004125893
:1009E50082A882A983AAF0FBD004D005D006D0073F
:1009F50090122C7410F07427A3F07400A3F0A3F0E8
:100A0500888289838AF0EBC007C006C005C004123E
:100A150056E8A882A983AAF0FBD004D005D006D059
:100A25000790036EE8F0E9A3F090123B7400F074B0
:100A3500E1A3F074F5A3F07405A3F08C828D838E89
:100A4500F0EF125882AC82AD83AEF0FF900370ECEC
:100A5500F0EDA3F0EC4D7003020A83900370E0FE05
:100A6500A3E0FF9012517462F07403A3F07400A325
:100A7500F0901254740AF08E828F83125B0A9003F1
:100A85006EE0FEA3E0FFEE4F7003020AB590036E21
:100A9500E0FEA3E0FF9012517458F07403A3F074C4
:100AA50000A3F0901254740AF08E828F83125B0AB1
:100AB50090036CE0FEA3E0FFEE4F7003020AE7909F
:100AC500036CE0FEA3E0FF901251744EF07403A393
:100AD500F07400A3F0901254740AF08E828F831282
:100AE5005B0A900370E0FEA3E0FFEE4F7003020B7C
:100AF50096900346E0FDA3E0FEA3E0FF9012357457
:100B050062F07403A3F07400A3F08D828E838FF0DE
:100B15001258299003727400F0900346E0FDA3E09B
:100B2500FEA3E0FF900372E0FC75825875830375A0
:100B3500F000C007C006C005C004125D48AA82AB1C
:100B450083D004D005D006D0077404C39AFA740084
:100B55009BFB8C007900C3E89AE99B4003020B9646
:100B65008D018E028F039012577480F0745DA3F08F
:100B75007480A3F089828A838BF0C007C006C00504
:100B8500C004125B86D004D005D006D0070C020B3A
:100B95002E900346E0FDA3E0FEA3E0FF90125774FC
:100BA50058F07403A3F07400A3F08D828E838FF048
:100BB500125B86900370E0FEA3E0FFEE4F60030238
:100BC5000BD690036EE0FEA3E0FFEE4F7003020C20
:100BD500549003727400F0900346E0FDA3E0FEA379
:100BE500E0FF900372E0FC75824E75830375F0009B
:100BF500C007C006C005C004125D48AA82AB83D0F9
:100C050004D005D006D0077404C39AFA74009BFB80
:100C15008C007900C3E89AE99B4003020C548D01CE
:100C25008E028F039012577480F0745DA3F0748068
:100C3500A3F089828A838BF0C007C006C005C00473
:100C4500125B86D004D005D006D0070C020BEC90C1
:100C55000346E0FDA3E0FEA3E0FF901257744EF0BB
:100C65007403A3F07400A3F08D828E838FF0125B62
:100C750086900370E0FEA3E0FFEE4F6003020E7B5B
:100C850090036EE0FEA3E0FFEE4F6003020E7B9043
:100C9500036CE0FEA3E0FFEE4F6003020E7B9003C2
:100CA50046E0FDA3E0FEA3E0FF9012357480F074EA
:100CB5005DA3F07480A3F08D828E838FF012582986
:100CC500020E7B900349E0FFBF10028003020E6F06
:100CD50090034AE0FCA3E0FDA3E0FEA3E0FF8C0047
:100CE5008D017A007B0090036CE8F0E9A3F08E0497
:100CF5008F0590036EECF0EDA3F0EC4D7003020D43
:100D05002990036EE0FEA3E0FF9012517458F07431
:100D150003A3F07400A3F09012547410F08E828F28
:100D250083125B0A90036CE0FEA3E0FFEE4F7003B5
:100D3500020D5B90036CE0FEA3E0FF901251744E30
:100D4500F07403A3F07400A3F09012547410F08EA5
:100D5500828F83125B0A90036EE0FEA3E0FFEE4FE5
:100D65007003020E0A900346E0FDA3E0FEA3E0FF38
:100D75009012357458F07403A3F07400A3F08D82BB
:100D85008E838FF01258299003727400F0900346F9
:100D9500E0FDA3E0FEA3E0FF900372E0FC75824E48
:100DA50075830375F000C007C006C005C004125D59
:100DB50048AA82AB83D004D005D006D0077404C3FB
:100DC5009AFA74009BFB8C007900C3E89AE99B4072
:100DD50003020E0A8D018E028F039012577480F064
:100DE500745DA3F07480A3F089828A838BF0C007B9
:100DF500C006C005C004125B86D004D005D006D05D
:100E0500070C020DA2900346E0FDA3E0FEA3E0FF60
:100E1500901257744EF07403A3F07400A3F08D8202
:100E25008E838FF0125B8690036EE0FEA3E0FFEEEB
:100E35004F6003020E7B90036CE0FEA3E0FFEE4FD4
:100E45006003020E7B900346E0FDA3E0FEA3E0FFF6
:100E55009012357480F0745DA3F07480A3F08D82D8
:100E65008E838FF0125829020E7B758200758300E0
:100E750075F000020E8C900346E0FDA3E0FEA3E0B2
:100E8500FF8D828E838FF02222AF83E582900373DC
:100E9500F0EFA3F0900373E0FEA3E0FFEE4F6003D5
:100EA500020EB475820075830075F000020F519033
:100EB5000373E0FEA3E0FF74062EFE74003FFF8E71
:100EC500828F83121FD6AD82AE83AFF0900375ED8E
:100ED500F0EEA3F0EFA3F0ED4E7003020F48900380
:100EE50075E0FDA3E0FEA3E0FF8D828E838FF07495
:100EF50000125BF4A3125BF4A3125BF474032DFAE6
:100F050074003EFB8F04900373E0F8A3E0F98A8236
:100F15008B838CF0E8125BF4A3E9125BF474052D66
:100F2500FA74003EFB8F048A828B838CF074FF1267
:100F35005BF474062DFD74003EFE8D828E838FF06A
:100F4500020F5175820075830075F00022AFF0AE77
:100F550083E582900378F0EEA3F0EFA3F090037899
:100F6500E0FDA3E0FEA3E0FFED4E6003020F7A75FE
:100F75008205020FC2900378E0FDA3E0FEA3E0FF27
:100F850074FF2DFD74FF3EFE8D828E838FF0125D02
:100F950060FDBDFF03020FA3758204020FC290031B
:100FA50078E0FDA3E0FEA3E0FFED24FAFDEE34FFBB
:100FB500FE8D828E838FF012232275820022E582B8
:100FC50090037EF0E0FF90037BE0FCA3E0FDA3E04F
:100FD500FE900383ECF0EDA3F0EEA3F0900386748E
:100FE50000F08F8212101FAF828F8222E58290035C
:100FF50082F0E0FF90037FE0FCA3E0FDA3E0FE901C
:101005000383ECF0EDA3F0EEA3F09003867401F0FA
:101015008F8212101FAF828F8222E582900387F0A4
:10102500900383E0FDA3E0FEA3E0FFED4E60030225
:10103500103D758205021162900387E0FF905D8A7D
:10104500E493FEC3EF9E500302106A900383E0FD14
:10105500A3E0FEA3E0FF8D828E838FF0120F527501
:101065008203021162900383E0FDA3E0FEA3E0FF8B
:10107500ED24FAFDEE34FFFE8D828E838FF0125D36
:1010850060FDA3125D60FEA3125D60FFED4E60037F
:101095000210BB900383E0FDA3E0FEA3E0FF74FF15
:1010A5002DFD74FF3EFE8D828E838FF0125D60FDF7
:1010B500BDFF030210D5900383E0FDA3E0FEA3E08E
:1010C500FF8D828E838FF0120F5275820502116299
:1010D500900383E0FDA3E0FEA3E0FF74FF2DFD7404
:1010E500FF3EFE900387E0FC8D828E838FF0EC122D
:1010F5005BF4900386E0FFBF010280030211299093
:101105000383E0FDA3E0FEA3E0FF9003AAEDF0EE6C
:10111500A3F0EFA3F075820075830375F000121636
:101125004902114B900383E0FDA3E0FEA3E0FF908D
:101135000399EDF0EEA3F0EFA3F07582007583033C
:1011450075F0001213D5900387E0FF9003C6740075
:10115500F07480A3F08F8212198475820022E582D3
:10116500900388F090038C7400F0A3F0A3F0900333
:101175008FF0A3F0A3F0900392A2AFE433F0C2AFD7
:10118500900300E0FDA3E0FEA3E0FF900389EDF0EE
:10119500EEA3F0EFA3F0900388E0FF900389E0FC55
:1011A500A3E0FDA3E0FEEC4D700302125D90038900
:1011B500E0FCA3E0FDA3E0FE74FF2CFC74FF3DFD05
:1011C5008C828D838EF0125D60FCECB50702800386
:1011D50002120090038FE0FCA3E0FDA3E0FEEC4DBE
:1011E500600302125D900389E0FCA3E0FDA3E0FE2D
:1011F50090038FECF0EDA3F0EEA3F090038FE0FCED
:10120500A3E0FDA3E0FEEC4D6003021228900389E4
:10121500E0FCA3E0FDA3E0FE90038CECF0EDA3F071
:10122500EEA3F0900389E0FCA3E0FDA3E0FEEC242F
:10123500FAFCED34FFFD8C828D838EF0125D60FC2F
:10124500A3125D60FDA3125D60FE900389ECF0EDD5
:10125500A3F0EEA3F00211A0900389E0FDA3E0FE48
:10126500A3E0FFED4E7003021286900388E0FF9025
:1012750003C67400F07480A3F08F821219840212E1
:101285009A900388E0FF9003C97400F07480A3F07E
:101295008F821219EB90038FE0FDA3E0FEA3E0FF20
:1012A500ED4E70030212E490038FE0FDA3E0FEA370
:1012B500E0FF90038CE0FAA3E0FBA3E0FC9003B011
:1012C500EDF0EEA3F0EFA3F09003B3EAF0EBA3F09B
:1012D500ECA3F075820075830375F0001216D890A3
:1012E5000392E0FFEF24FF92AF90038FE0FDA3E0B0
:1012F500FEA3E0FF8D828E838FF022E5829003941A
:10130500F0900398A2AFE433F0C2AF900300E0FD84
:10131500A3E0FEA3E0FF900395EDF0EEA3F0EFA3AD
:10132500F0900393E0FF900394E0FE900395E0FBBB
:10133500A3E0FCA3E0FDEB4C70030213B990039509
:10134500E0FBA3E0FCA3E0FD74FF2BFB74FF3CFC7A
:101355008B828C838DF0125D60FBEBB506028003FA
:10136500021384900395E0FBA3E0FCA3E0FD8B82D0
:101375008C838DF0125D60FBEBB507030213B9900A
:101385000395E0FBA3E0FCA3E0FDEB24FAFBEC34C2
:10139500FFFC8B828C838DF0125D60FBA3125D6078
:1013A500FCA3125D60FD900395EBF0ECA3F0EDA3BB
:1013B500F0021330900398E0FFEF24FF92AF900303
:1013C50095E0FDA3E0FEA3E0FF8D828E838FF022E2
:1013D500AFF0AE83E58290039CF0EEA3F0EFA3F0AF
:1013E5009003A2A2AFE433F0C2AF900399E0FDA34E
:1013F500E0FEA3E0FFED24FAFDEE34FFFE8D828EC4
:10140500838FF07400125BF4A3125BF4A3125BF4F8
:1014150090039CE0FDA3E0FEA3E0FF8D828E838F09
:10142500F0125D60FDA3125D60FEA3125D60FFED2D
:101435004E600302146890039CE0FDA3E0FEA3E068
:10144500FF900399E0FAA3E0FBA3E0FC8D828E8375
:101455008FF0EA125BF4A3EB125BF4A3EC125BF4DE
:1014650002153C90039CE0FDA3E0FEA3E0FF8D8206
:101475008E838FF0125D60FDA3125D60FEA3125D89
:1014850060FF90039FEDF0EEA3F0EFA3F090039FB4
:10149500E0FDA3E0FEA3E0FFED24FAFDEE34FFFE40
:1014A5008D828E838FF0125D60FDA3125D60FEA3B9
:1014B500125D60FF7400C0E0C0E0C0E08D828E83E5
:1014C5008FF0120006158115811581700302150A2A
:1014D50090039FE0FDA3E0FEA3E0FFED24FAFDEEFF
:1014E50034FFFE8D828E838FF0125D60FDA3125D49
:1014F50060FEA3125D60FF90039FEDF0EEA3F0EF99
:10150500A3F002149290039FE0FDA3E0FEA3E0FF89
:10151500ED24FAFDEE34FFFE900399E0FAA3E0FB1B
:10152500A3E0FC8D828E838FF0EA125BF4A3EB12AD
:101535005BF4A3EC125BF49003A2E0FFEF24FF92AF
:10154500AF22AFF0AE83E5829003A3F0EEA3F0EFF8
:10155500A3F09003A67400F0A3F0A3F09003A9A252
:10156500AFE433F0C2AF9003A3E0FDA3E0FEA3E038
:10157500FF8D828E838FF0125D60FDA3125D60FE8C
:10158500A3125D60FFED4E700302162D9003A3E0DC
:10159500F53BA3E0F53CA3E0F53D853B82853C8327
:1015A500853DF0125D60FAA3125D60FBA3125D60DC
:1015B500FC9003A6EAF0EBA3F0ECA3F08A008B0104
:1015C5008C07E824FAF8E934FFF9888289838FF0DB
:1015D500125D60F8A3125D60F9A3125D60FF853BA3
:1015E50082853C83853DF0E8125BF4A3E9125BF448
:1015F500A3EF125BF48A058B068C07ED24FAFDEE4A
:1016050034FFFE8D828E838FF07400125BF4A3127B
:101615005BF4A3125BF4142AFA74FF3BFB8A828BFA
:10162500838CF074FF125BF49003A9E0FFEF24FFB5
:1016350092AF9003A6E0FDA3E0FEA3E0FF8D828EAE
:10164500838FF022AFF0AE83E5829003ADF0EEA379
:10165500F0EFA3F0A2AFE433F53BC2AF9003AAE0ED
:10166500FCA3E0FDA3E0FE8C018D028E03E924FAC4
:10167500F53CEA34FFF53D8B3E9003ADE0F53FA325
:10168500E0F540A3E0F541853F828540838541F043
:10169500125D60F9A3125D60FAA3125D60FF853CDF
:1016A50082853D83853EF0E9125BF4A3EA125BF483
:1016B500A3EF125BF4853F828540838541F0EC12F0
:1016C5005BF4A3ED125BF4A3EE125BF4E53B24FFA0
:1016D50092AF22AFF0AE83E5829003B6F0EEA3F0B1
:1016E500EFA3F09003B9A2AFE433F0C2AF9003B615
:1016F500E0FDA3E0FEA3E0FF8D828E838FF0125DF7
:1017050060FDA3125D60FEA3125D60FF9003B0E073
:10171500FAA3E0FBA3E0FCC005C006C0078A828BE4
:10172500838CF012000615811581158170028003E6
:101735000217819003B6E0FDA3E0FEA3E0FF90034E
:10174500B0E0FAA3E0FBA3E0FCEA24FAFAEB34FFED
:10175500FB8A828B838CF0125D60FAA3125D60FBBD
:10176500A3125D60FC8D828E838FF0EA125BF4A379
:10177500EB125BF4A3EC125BF40217CF9003B3E01A
:10178500FDA3E0FEA3E0FFED24FAFDEE34FFFE909D
:1017950003B0E0FAA3E0FBA3E0FCEA24FAFAEB3499
:1017A500FFFB8A828B838CF0125D60FAA3125D6069
:1017B500FBA3125D60FC8D828E838FF0EA125BF4D1
:1017C500A3EB125BF4A3EC125BF49003B0E0FDA372
:1017D500E0FEA3E0FF8D028E038F04EA24FAFAEB04
:1017E50034FFFB8A828B838CF07400125BF4A312A6
:1017F5005BF4A3125BF4142DFD74FF3EFE8D828E07
:10180500838FF074FF125BF49003B9E0FFEF24FFC0
:1018150092AF22AFF0AE83E5829003BEF0EEA3F067
:10182500EFA3F09003C47400F09003C5A2AFE433B6
:10183500F0C2AF9003BEE0FDA3E0FEA3E0FF8D8202
:101845008E838FF0125D60FDA3125D60FEA3125DB5
:1018550060FFED4E60030218919003BEE0FDA3E02A
:10186500FEA3E0FF9003BAE0FAA3E0FBA3E0FC8D42
:10187500828E838FF0EA125BF4A3EB125BF4A3EC88
:10188500125BF49003C47401F00219729003BEE078
:10189500FDA3E0FEA3E0FF8D828E838FF0125D60D5
:1018A500FDA3125D60FEA3125D60FF9003C1EDF024
:1018B500EEA3F0EFA3F09003BDE014F0E0FF90037A
:1018C500C1E0FCA3E0FDA3E0FEEC24FAFCED34FF4F
:1018D500FD8C828D838EF0125D60FCA3125D60FD30
:1018E500A3125D60FEEC4D700302192DEF7003022B
:1018F500192D9003C1E0FCA3E0FDA3E0FEEC24FA62
:10190500FCED34FFFD8C828D838EF0125D60FCA3AF
:10191500125D60FDA3125D60FE9003C1ECF0EDA3C6
:10192500F0EEA3F01F0218C39003BDEFF0E0FFEF48
:1019350070030219729003C1E0FDA3E0FEA3E0FF6E
:10194500ED24FAFDEE34FFFE9003BAE0FAA3E0FBC6
:10195500A3E0FC8D828E838FF0EA125BF4A3EB1279
:101965005BF4A3EC125BF49003C47401F09003C51F
:10197500E0FFEF24FF92AF9003C4E0FF8F8222E5E2
:10198500829003C8F0E0FF905D8AE493FEC3EF9E6A
:1019950040030219E7901072E0FDA3E0FEA3E0FF0B
:1019A5009003C8E0FCEC75F002A42DFDEE35F0FEC9
:1019B5008D828E838FF0125D60FBA3125D60FC90BB
:1019C50003C6E0F9A3E0FAE94203EA42048D828EF8
:1019D500838FF0EB125BF4A3EC125BF475820002CB
:1019E50019EA75820322E5829003CBF0E0FF905D52
:1019F5008AE493FEC3EF9E4003021A60A2AFE4336C
:101A0500FFC2AF901072E0FCA3E0FDA3E0FE9003DF
:101A1500CBE0FBEB75F002A42CFCED35F0FD8C82E0
:101A25008D838EF0125D60FAA3125D60FB9003C991
:101A3500E0F8A3E0F9E8F4F8E9F4F9E85202E9522C
:101A4500038C828D838EF0EA125BF4A3EB125BF4B8
:101A5500EF24FF92AF758200021A63758203227527
:101A6500820022E5829003CEF0E0FFBFFF028003F3
:101A7500021A80D2AF758200021A8375820722E5A9
:101A8500829003CFF0E0FFBFFF028003021A9CC2E1
:101A9500AF758200021A9F75820722121F5F90039D
:101AA500007400F0A3F0A3F01223B8123008758279
:101AB5000022121ABE021AB7229003D07400F01247
:101AC50030839003D0E0FF901072E0FCA3E0FDA30B
:101AD500E0FEEF75F002A42CFCED35F0FD8C828D57
:101AE500838EF0125D60FCA3125D60FDEC4D60031A
:101AF500021B070F905D8AE493FEC3EF9E5003021D
:101B05001ACC9003D0EFF0E0FF905D8AE493FEC31A
:101B1500EF9E4003021BD8901072E0FDA3E0FEA3E8
:101B2500E0FF9003D0E0FCEC75F002A4FAABF0EA1C
:101B35002DFDEB3EFE8D828E838FF0125D60F8A346
:101B4500125D60F99003D1E8F0E9A3F08D828E83F0
:101B55008FF07400125BF4A3125BF4900303ECF0B6
:101B6500EA2482F582EB345DF583E493FEA3E493E6
:101B7500FFC003C0029003D1E0C0E0A3E0C0E012C3
:101B85001B8A021B91C006C0078C8222AE82AF83DE
:101B950015811581D002D00390030374FFF09010D6
:101BA50072E0F9A3E0FCA3E0FDEA29F9EB3CFC892E
:101BB500828C838DF0125D60FAA3125D60FBEA42B0
:101BC50006EB420789828C838DF0EE125BF4A3EF5E
:101BD500125BF422AFF0AE83E5829003D7F0EEA35B
:101BE500F0EFA3F09003D7E0F53BA3E0F53CA3E0CD
:101BF500F53D9003D3E0F9A3E0FAA3E0FBA3E0FCF5
:101C050089007D007E007F00853B82853C83853D84
:101C1500F0E8125BF49003D77401253BF0740035AE
:101C25003CA3F0E53DA3F09003D7E0F53BA3E0F539
:101C35003CA3E0F53D8A007D007E007F00853B8268
:101C4500853C83853DF0E8125BF49003D77401254C
:101C55003BF07400353CA3F0E53DA3F09003D7E0DD
:101C6500F53BA3E0F53CA3E0F53D8B007D007E0050
:101C75007F00853B82853C83853DF0E8125BF490CF
:101C850003D77401253BF07400353CA3F0E53DA373
:101C9500F09003D7E0FDA3E0FEA3E0FF8C017C00FC
:101CA5007B007A008D828E838FF0E9125BF49003BE
:101CB500D774012DF074003EA3F0EFA3F09003D785
:101CC500E0FDA3E0FEA3E0FF8D828E838FF022AFBF
:101CD500F0AE83E5829003DEF0EEA3F0EFA3F09083
:101CE50003DEE0F53BA3E0F53CA3E0F53D9003DA28
:101CF500E0F9A3E0FAA3E0FBA3E0FC89007D007E08
:101D0500007F00853B82853C83853DF0E8125BF4CE
:101D15009003DE7401253BF07400353CA3F0E53DEE
:101D2500A3F09003DEE0F53BA3E0F53CA3E0F53D31
:101D35008A007D007E007F00853B82853C83853D52
:101D4500F0E8125BF49003DE7401253BF074003576
:101D55003CA3F0E53DA3F09003DEE0FDA3E0FEA388
:101D6500E0FF8B017C007B007A008D828E838FF0F3
:101D7500E9125BF49003DE74012DF074003EA3F0CC
:101D8500EFA3F09003DEE0FDA3E0FEA3E0FF8D826C
:101D95008E838FF022AFF0AE83E5829003E3F0EE01
:101DA500A3F0EFA3F09003E3E0FDA3E0FEA3E0FFC3
:101DB500ED4E6003021DC2758200021E179003E6F8
:101DC5007400F09003E3E0FDA3E0FEA3E0FF9003C1
:101DD500E1E0FC9003E2E0FB9003E6E0FAC3EA9B56
:101DE5004003021E14C003EA2DF874003EF98F0368
:101DF500888289838BF0125D60F8E8B50405D0030D
:101E0500021E10D003758200021E170A021DE2751C
:0B1E1500820122900303E0FF8F822275
:025D80003000F1
:10004D009003E87400F09003E97442F09003EA74B1
:10005D0058F09003EB742DF09003EC7464F0900362
:10006D00EDF09003EEF09003EF04F09003F0746266
:10007D00F09003F17475F09003F27467F09003F350
:10008D00742DF09003F4746EF09003F504F090036A
:10009D00F67464F09003F704F09003F87400F09098
:1000AD0003FE7414F0741FA3F09004007400F0A309
:0100BD00F052
:101E2000E582900402F0E0FF9003E7EFF0900403F6
:101E30007401F090114EF090114F7403F07404A3EC
:101E4000F07400A3F0758205758303124131758229
:101E5000FF7583FF75F0FF74FF1249549003E7E0AC
:101E6000FF9003C67401F07400A3F08F82121984EE
:101E700022C01D85811DE51D24FCF8E620E003023B
:101E80001EC57582FE75830375F0001246579003D8
:101E9000E7E0FF9010387402F07400A3F090103A5D
:101EA0007488F07413A3F07400A3F0A3F08F82126F
:101EB0002700E51D24FCF8740166FE0886078E8263
:101EC0008F83021F11E51D24FCF8E620E103021FA9
:101ED0000B9003E7E0FF9010387402F07400A3F059
:101EE00090103A7488F07413A3F07400A3F0A3F078
:101EF0008F82122700121F5EE51D24FCF874026613
:101F0000FE0886078E828F83021F117582007583FB
:101F100000D01D22E582900404F0E0FFC374069F08
:101F20005003021F53EF2F2F901F2C73021F5302D9
:101F30001F41021F44021F4A021F4D021F47021F7A
:101F400050021F53021F53021F53021F53021F53FD
:101F5000021F53900404E0FF9003E8EFF022229068
:101F600010037400F0A3F09010057405F07404A33E
:101F7000F07400A3F09004057448F07402A3F0908C
:101F8000064DF07480A3F090064F74B4F07409A36A
:101F9000F022758201758300121FD6AD82AE83AF29
:101FA000F0A2AFE433FCC2AFED24FEF9EE34FFFA49
:101FB0008F03901005E9F0EAA3F0EBA3F08D828E79
:101FC000838FF0C004122322D0049010087401F013
:101FD000EC24FF92AF22AF83E582901009F0EFA3CB
:101FE000F090100B7400F0A3F0A3F0901011F0909B
:101FF0001009E0FEA3E0FF90100974022EF07400B7
:102000003FA3F0901008E0FFEF7003022022901031
:1020100009E0FEA3E0FFC374109E74009F5003020A
:10202000203B901005E0FDA3E0FEA3E0FF90100E22
:10203000EDF0EEA3F0EFA3F002204990100E744FE4
:10204000F07406A3F07400A3F0901009E0FEA3E082
:10205000FF90100EE0FBA3E0FCA3E0FD0BBB000132
:102060000C8B828C838DF0125D6020E70302207957
:102070009010117400F0022172901011E0FDED70CB
:102080000302213090100BE0FBA3E0FCA3E0FD8BEA
:102090003B8C3C8D3D8B008C018D02888289838A2C
:1020A000F0125D60F53EA3125D60547FF53F901025
:1020B0000EE0F8A3E0F9A3E0FA888289838AF0129F
:1020C0005D60F540A3125D60547FF541A840AA41D0
:1020D000E8253EF8EA353FFA853B82853C83853D1D
:1020E000F0E500125BF4A3EA547FC0F0C0E0125D9B
:1020F00060D0F0548045F0D0F0125BF48B828C837A
:102100008DF0125D60FBA3125D60547FFCC3EB9EFB
:10211000EC9F500302217290100BE0FBA3E0FCA3A4
:10212000E0FD90100EEBF0ECA3F0EDA3F00221D057
:1021300090100EE0FBA3E0FCA3E0FD8B828C838D6E
:10214000F0125D60FBA3125D60547FFCC3EB9EEC5C
:102150009F40030221D09010117401F090100EE006
:10216000FBA3E0FCA3E0FD90100BEBF0ECA3F0ED83
:10217000A3F090100EE0FBA3E0FCA3E0FD8B008C2D
:10218000018D028B828C838DF0125D60FBA3125D4A
:1021900060547FFCEB28F8EC39F990100EE8F0E978
:1021A000A3F0EAA3F090100EE0FBA3E0FCA3E0FD97
:1021B0008B828C838DF0125D60FBA3125D60FCEB63
:1021C0004C600302205190100E7400F0A3F0A3F0B5
:1021D00090100EE0FDA3E0FEA3E0FFED4E700302C1
:1021E000230F90100EE0FDA3E0FEA3E0FF8D828E92
:1021F000838FF0125D60FDA3125D60547FFE90102E
:1022000009E0FCA3E0FFEDC39CFDEE9FFE901012E1
:10221000EDF0EEA3F0C3ED9404EE9400500302221F
:102220007590100EE0FDA3E0FEA3E0FF8D028E038B
:102230008F04901009E0F8A3E0F9E82AFAE93BFBE3
:102240008A3B8B3C8C3D901012E0FBA3E0FC853B6D
:1022500082853C83853DF0EB125BF4A3EC125BF4CA
:102260004301808D828E838FF0E8125BF4A3E91224
:102270005BF402229390100EE0FDA3E0FEA3E0FFCA
:102280000DBD00010E8D828E838FF0125D60448043
:10229000125BF4901008E0FFEF700302230390102C
:1022A00005E0FDA3E0FEA3E0FF90100EE0FAA3E03E
:1022B000FBA3E0FCC002C003C0048D828E838FF0BC
:1022C0001200061581158115817002800302230317
:1022D00090100EE0FDA3E0FEA3E0FF8D028E038FC1
:1022E000048D828E838FF0125D60FDA3125D6054B9
:1022F0007FFEED2AFAEE3BFB901005EAF0EBA3F02F
:10230000ECA3F090100EE02402F0A3E03400F0C340
:1023100090100EE0FDA3E0FEA3E0FF8D828E838F80
:10232000F022AFF0AE83E582901014F0EEA3F0EF50
:10233000A3F0901014E0FDA3E0FEA3E0FFED24FE67
:10234000FAEE34FFFB8F04901017EAF0EBA3F0ECE9
:10235000A3F090101AA2AFE433F0C2AF74FF2DFDCA
:1023600074FF3EFE8D828E838FF0125D60547F126B
:102370005BF4901005E0FDA3E0FEA3E0FFC005C004
:1023800006C0078A828B838CF012000615811581A6
:10239000158140030223AD901017E0FDA3E0FEA3DA
:1023A000E0FF901005EDF0EEA3F0EFA3F090101A0F
:1023B000E0FFEF24FF92AF2290101E7400F0A3F014
:1023C000A3F0A3F022E582901028F0E0FF90102205
:1023D000E0FDA3E0FE90102FEDF0EEA3F08F82124F
:1023E00025EEAD82AE83AFF0901029EDF0EEA3F0B4
:1023F000EFA3F0ED4E7003022444901029E0FDA3FA
:10240000E0FEA3E0FF74032DF51074003EF5118F7C
:1024100012901024E0F8A3E0F9A3E0FBA3E0FC8510
:1024200010828511838512F0E8125BF4A3E9125B38
:10243000F4A3EB125BF4A3EC125BF48D828E838F1A
:10244000F00225ED75820E758300121FD6AD82AEA7
:1024500083AFF0901029EDF0EEA3F0EFA3F0ED4E76
:1024600070030225E4901029E0FDA3E0FEA3E0FF45
:1024700074072DFA74003EFB8F04901022E0F8A33D
:10248000E0F98A828B838CF0E8125BF4A3E9125B9B
:10249000F474092DFA74003EFB8F04901028E0F9C3
:1024A0008A828B838CF0E9125BF474032DF510742F
:1024B000003EF5118F12901024E0F8A3E0F9A3E09C
:1024C000FBA3E0FC8510828511838512F0E8125B86
:1024D000F4A3E9125BF4A3EB125BF4A3EC125BF43C
:1024E0008D828E838FF07400125BF4A3125BF4A3D1
:1024F000125BF4740A2DFD74003EFE8D828E838F74
:10250000F07400125BF4A3125BF4A3125BF4A31249
:102510005BF490101BE0FDA3E0FEA3E0FFED4E6036
:102520000302253D901029E0FDA3E0FEA3E0FF900B
:10253000101BEDF0EEA3F0EFA3F00225D090101BDE
:10254000E0FDA3E0FEA3E0FF90102CEDF0EEA3F081
:10255000EFA3F090102CE0FDA3E0FEA3E0FF8D823E
:102560008E838FF0125D60FDA3125D60FEA3125D8D
:1025700060FFED4E70030225A690102CE0FDA3E055
:10258000FEA3E0FF8D828E838FF0125D60FDA312AB
:102590005D60FEA3125D60FF90102CEDF0EEA3F0E5
:1025A000EFA3F002255390102CE0FDA3E0FEA3E082
:1025B000FF901029E0FAA3E0FBA3E0FC8D828E835C
:1025C0008FF0EA125BF4A3EB125BF4A3EC125BF462
:1025D000901029E0FDA3E0FEA3E0FF8D828E838FA3
:1025E000F00225ED75820075830075F00022E5820A
:1025F000901031F090101BE0FDA3E0FEA3E0FF90EF
:102600001032EDF0EEA3F0EFA3F0901031E0FF9068
:10261000102FE0FDA3E0FE901032E0FAA3E0FBA350
:10262000E0FCEA4B70030226A9901032E0FAA3E026
:10263000FBA3E0FC74072AFA74003BFB8A828B83BD
:102640008CF0125D60FAA3125D60FBEAB50506EB43
:10265000B50602800302267C901032E0FAA3E0FB6C
:10266000A3E0FC74092AFA74003BFB8A828B838CFA
:10267000F0125D60FAEAB507030226A9901032E075
:10268000FAA3E0FBA3E0FC8A828B838CF0125D60EE
:10269000FAA3125D60FBA3125D60FC901032EAF0B9
:1026A000EBA3F0ECA3F0022617901032E0FDA3E0BC
:1026B000FEA3E0FF8D828E838FF022AFF0AE83E524
:1026C00082901035F0EEA3F0EFA3F0901035E0FD0E
:1026D000A3E0FEA3E0FFED4E70030226FF9010354D
:1026E000E0FDA3E0FEA3E0FF74072DFD74003EFEB5
:1026F0008D828E838FF07400125BF4A3125BF42240
:10270000E58290103EF0C390103EE0FF901038E05C
:10271000FDA3E0FE90103AE0F9A3E0FAA3E0FBA3EA
:10272000E0FC901022EDF0EEA3F0901024E9F0EA26
:10273000A3F0EBA3F0ECA3F08F821223C5AD82AE21
:1027400083AFF0ED4E700302274F7F000227517FC9
:10275000088F8222E582901045F0901046A2AFE4E7
:1027600033F0C2AF901045E0FF90103FE0FDA3E0D2
:10277000FE901041E0F9A3E0FAA3E0FBA3E0FC9097
:102780001022EDF0EEA3F0901024E9F0EAA3F0EBB4
:10279000A3F0ECA3F08F821223C5AD82AE83AFF01D
:1027A000901047EDF0EEA3F0EFA3F0ED4E700302B2
:1027B00027EC901047E0FDA3E0FEA3E0FF740A2D94
:1027C000FD74003EFE901041E0F9A3E0FAA3E0FBA7
:1027D000A3E0FC8D828E838FF0E9125BF4A3EA12F2
:1027E0005BF4A3EB125BF4A3EC125BF4901046E0F5
:1027F000FFEF24FF92AF901047E0FDA3E0FEA3E0BF
:10280000FFED4E700302280D7F0002280F7F088F16
:102810008222E58290104CF090104DA2AFE433F08C
:10282000C2AF90104CE0FF90104AE0FDA3E0FE9094
:10283000102FEDF0EEA3F08F821225EEAD82AE8365
:10284000AFF090104EEDF0EEA3F0EFA3F0ED4E7070
:102850000302286890104EE0FDA3E0FEA3E0FF8D88
:10286000828E838FF01226BB90104DE0FFEF24FF85
:1028700092AF90104EE0FDA3E0FEA3E0FFED4E709E
:10288000030228897F0002288B7F068F8222E5823F
:10289000901053F09010557400F0A3F0A3F0A3F043
:1028A000901054A2AFE433F0C2AF901053E0FF9009
:1028B0001051E0FDA3E0FE90102FEDF0EEA3F08F9D
:1028C000821225EEAD82AE83AFF0901059EDF0EE9E
:1028D000A3F0EFA3F0ED4E7003022916901059E01B
:1028E000FDA3E0FEA3E0FF74032DFD74003EFE8D0A
:1028F000828E838FF0125D60FDA3125D60FEA312D5
:102900005D60FFA3125D60FC901055EDF0EEA3F04A
:10291000EFA3F0ECA3F0901054E0FFEF24FF92AF90
:10292000901055E0FCA3E0FDA3E0FEA3E0FF8C8245
:102930008D838EF0EF2290105D7400F090105CA2F9
:10294000AFE433F0C2AF90101BE0FDA3E0FEA3E0C4
:10295000FF90105EEDF0EEA3F0EFA3F090105DE0BD
:10296000FF90105EE0FCA3E0FDA3E0FEEC4D7003E1
:102970000229A10F90105EE0FCA3E0FDA3E0FE8C15
:10298000828D838EF0125D60FCA3125D60FDA31248
:102990005D60FE90105EECF0EDA3F0EEA3F0022976
:1029A0006190105DEFF090105CE0FFEF24FF92AFBC
:1029B00090105DE0FF8F8222AF82AE83ADF0FC907D
:1029C0001061EFF0EEA3F0EDA3F0ECA3F090106136
:1029D000E0FCA3E0FDA3E0FEA3E0FF90106BECF0B1
:1029E000EDA3F0EEA3F0EFA3F090101EE0F8A3E04B
:1029F000F9A3E0FAA3E0FB90101EEC28F0ED39A358
:102A0000F0EE3AA3F0EF3BA3F090101BE0FDA3E043
:102A1000FEA3E0FFED4E7003022FF190101BE0FDCE
:102A2000A3E0FEA3E0FF901065EDF0EEA3F0EFA3AE
:102A3000F09010687400F0A3F0A3F0901065E0FD32
:102A4000A3E0FEA3E0FFED4E7003022FF190106FA4
:102A50007400F0A3F0A3F090106DE0FEA3E0FFEE91
:102A60004F6003022BAC90106CE06003022BAC9023
:102A70001065E0FDA3E0FEA3E0FF74032DFD7400EC
:102A80003EFE8D828E838FF0125D60FD90106BE0B4
:102A9000FFC3ED9F5003022ACC901065E0FDA3E038
:102AA000FEA3E0FF74032DFD74003EFE90106BE06A
:102AB000FC8D828E838FF0125D60FBEBC39CFC8DDE
:102AC000828E838FF0EC125BF4022C89901065E00B
:102AD000FDA3E0FEA3E0FF74032DFD74003EFE8D18
:102AE000828E838FF0125D60FDA3125D60FEA312E3
:102AF0005D60FFA3125D60FC90106BE0F8A3E0F94D
:102B0000A3E0FAA3E0FBC3E89DE99EEA9FEB9C40AB
:102B100003022B7F901065E0FDA3E0FEA3E0FF74AD
:102B2000032DFD74003EFE8D828E838FF0125D605A
:102B3000F513A3125D60F514A3125D60F515A312E1
:102B40005D60F51690106BE0F8A3E0FAA3E0FBA33C
:102B5000E0FCE513C398F8E5149AFAE5159BFBE54C
:102B6000169CFC8D828E838FF0E8125BF4A3EA1230
:102B70005BF4A3EB125BF4A3EC125BF4022C8990E0
:102B80001065E0FDA3E0FEA3E0FF74032DFD7400DB
:102B90003EFE8D828E838FF07400125BF4A3125B75
:102BA000F4A3125BF4A3125BF4022C89901065E08D
:102BB000FDA3E0FEA3E0FF74032DFD74003EFE8D37
:102BC000828E838FF0125D60FDA3125D60FEA31202
:102BD0005D60FFA3125D60FC90106BE0F8A3E0F96C
:102BE000A3E0FAA3E0FBC3E89DE99EEA9FEB9C40CB
:102BF00003022C5F901065E0FDA3E0FEA3E0FF74EC
:102C0000032DFD74003EFE8D828E838FF0125D6079
:102C1000F513A3125D60F514A3125D60F515A31200
:102C20005D60F51690106BE0F8A3E0FAA3E0FBA35B
:102C3000E0FCE513C398F8E5149AFAE5159BFBE56B
:102C4000169CFC8D828E838FF0E8125BF4A3EA124F
:102C50005BF4A3EB125BF4A3EC125BF4022C8990FF
:102C60001065E0FDA3E0FEA3E0FF74032DFD7400FA
:102C70003EFE8D828E838FF07400125BF4A3125B94
:102C8000F4A3125BF4A3125BF4901065E0FDA3E0E3
:102C9000FEA3E0FF74032DFD74003EFE8D828E8343
:102CA0008FF0125D60FDA3125D60FEED4E600302C9
:102CB0002DCE901065E0FDA3E0FEA3E0FF74052D8E
:102CC000FD74003EFE8D828E838FF0125D60FDA349
:102CD000125D60FEED4E6003022DCE901065E0FDAA
:102CE000A3E0FEA3E0FF740A2DFD74003EFE8D827A
:102CF0008E838FF0125D60FDA3125D60FEA3125DF6
:102D000060FFA3125D60FCED4E4F4C7003022DCEB0
:102D1000901065E0FDA3E0FEA3E0FF74072DFD74B5
:102D2000003EFE8D828E838FF0125D60FDA3125DEA
:102D300060FEED4E7003022DCE901065E0FDA3E025
:102D4000FEA3E0FF74092DFA74003EFB8F048A8213
:102D50008B838CF0125D60FA74072DF974003EFBD2
:102D60008F0489828B838CF0125D60F9A3125D6001
:102D7000FB9003C6E9F0EBA3F08A82C007C006C04F
:102D800005121984D005D006D00774032DFA7400FB
:102D90003EFB8F04740A2DFD74003EFE8D828E83EF
:102DA0008FF0125D60F9A3125D60FDA3125D60FEFD
:102DB000A3125D60FF8A828B838CF0E9125BF4A31F
:102DC000ED125BF4A3EE125BF4A3EF125BF4901030
:102DD00065E0FDA3E0FEA3E0FF74032DFD74003E5B
:102DE000FE8D828E838FF0125D60FDA3125D60FE0A
:102DF000ED4E6003022E20901065E0FDA3E0FEA3DF
:102E0000E0FF74052DFD74003EFE8D828E838FF0F1
:102E1000125D60FDA3125D60FEED4E7003022E494F
:102E2000901065E0FDA3E0FEA3E0FF74072DFD74A4
:102E3000003EFE8D828E838FF0125D60FDA3125DD9
:102E400060FEED4E6003022EFE901068E0FDA3E0F0
:102E5000FEA3E0FFED4E6003022E88901065E0FDBA
:102E6000A3E0FEA3E0FF8D828E838FF0125D60FDF4
:102E7000A3125D60FEA3125D60FF90101BEDF0EEEB
:102E8000A3F0EFA3F0022EC6901068E0FDA3E0FED1
:102E9000A3E0FF901065E0FAA3E0FBA3E0FC8A82C8
:102EA0008B838CF0125D60FAA3125D60FBA3125D50
:102EB00060FC8D828E838FF0EA125BF4A3EB125BD1
:102EC000F4A3EC125BF4901065E0FDA3E0FEA3E038
:102ED000FF90106FEDF0EEA3F0EFA3F08D828E83E4
:102EE0008FF0125D60FDA3125D60FEA3125D60FFB6
:102EF000901065EDF0EEA3F0EFA3F0022F339010E9
:102F000065E0FDA3E0FEA3E0FF901068EDF0EEA306
:102F1000F0EFA3F08D828E838FF0125D60FDA3121F
:102F20005D60FEA3125D60FF901065EDF0EEA3F012
:102F3000EFA3F090106FE0FDA3E0FEA3E0FFED4EE5
:102F40007003022A3B90106FE0FDA3E0FEA3E0FFB8
:102F500074032DFD74003EFE8D828E838FF0125D12
:102F600060FDA3125D60FEED4E6003022FDA90104B
:102F70006FE0FDA3E0FEA3E0FF74052DFD74003EAD
:102F8000FE8D828E838FF0125D60FDA3125D60FE68
:102F9000ED4E6003022FDA90106FE0FDA3E0FEA378
:102FA000E0FF74092DFA74003EFB8F048A828B8344
:102FB0008CF0125D60FA74072DFD74003EFE8D8268
:102FC0008E838FF0125D60FDA3125D60FE9003C6DC
:102FD000EDF0EEA3F08A8212198490106FE0FDA349
:102FE000E0FEA3E0FF8D828E838FF0122322022A5F
:102FF0003B2290101EE0FCA3E0FDA3E0FEA3E0FF57
:103000008C828D838EF0EF22905D8AE493FFEF75C2
:10301000F002A4FFAEF08F828E83121FD6AD82AE77
:1030200083AFF0901072EDF0EEA3F0EFA3F0905D9F
:103030008AE493FCEC75F002A4FCABF090033974C5
:1030400000F090033AECF0EBA3F08D828E838FF0CA
:103050001206AF7582001246A7758201124DD37514
:0C3060008202121E207582031252A1226F
:095D82001947F74D711EDD5204B2
:1000BE009010757400F0A3F0901077F0A3F09010EC
:0E00CE0079F0A3F090107BF0A3F0A3F0A3F064
:10306C00AEA27F00ACA37D008C057C00EC2EFEEDA7
:10307C003FFF8E828F83229010837400F0A3F01296
:10308C00306CAE82AF8390107FEEF0EFA3F0901017
:10309C0075E0FCA3E0FDEEB50407EFB505030231C6
:1030AC00B1901075E0FEA3E0FF90107FE0FCA3E070
:1030BC00FD901081ECC39EF0ED9FA3F0901075EC89
:1030CC00F0EDA3F0901081E0FEA3E0FF901083E000
:1030DC00FCA3E0FDC374319E74339F400302311393
:1030EC00EE24CFFEEF34CCFF74FE2CFC741F3DFDA0
:1030FC00901077E0FAA3E0FB90107774052AF07437
:10310C00003BA3F00230E0901081EEF0EFA3F090C2
:10311C001083ECF0EDA3F0901081E0FEA3E0FF90A3
:10312C00125EEEF0EFA3F0758205758300125C0F52
:10313C00AE82AF83901077E0FCA3E0FDEC2EFEEDA9
:10314C003FFF8E04EFC423CCC423541F6CCC541FFC
:10315C00CC6CCCFD901083E0FAA3E0FB901083ECD8
:10316C002AF0ED3BA3F090107774075EF07400A387
:10317C00F0901083E0FEA3E0FFEE4F70030231B13C
:10318C00901083E0FEA3E0FF8E828F83C007C00601
:10319C001231B2D006D0077D007C008E828F838DD9
:1031AC00F0EC1229B822AF83E582901085F0EFA3E2
:1031BC00F0901085E0FEA3E0FF901079E0FCA3E016
:1031CC00FD901079EE2CF0EF3DA3F0901079E0FE1D
:1031DC00A3E0FFC3EE94E8EF9403500302325E9039
:1031EC001079E0FEA3E0FF90122674E8F07403A3BC
:1031FC00F08E828F83C007C00612564EAC82AD8310
:10320C00D006D00790107BE0F522A3E0F523A3E0D5
:10321C00F524A3E0F5258C028D037C007D00901035
:10322C007BEA2522F0EB3523A3F0EC3524A3F0ED5B
:10323C003525A3F090126474E8F07403A3F08E8229
:10324C008F83125C9BE5828583F0901079F0E5F01A
:10325C00A3F022AF82AE83ADF0FC901087EFF0EEBE
:10326C00A3F0EDA3F0ECA3F0901087E0FCA3E0FD3D
:10327C00A3E0FEA3E0FF90107BECF0EDA3F0EEA337
:10328C00F0EFA3F02290107BE0FCA3E0FDA3E0FEA6
:10329C00A3E0FF8C828D838EF0EF22AFF0AE83E53E
:1032AC008290108FF0EEA3F0EFA3F090108BE0F56E
:1032BC0026A3E0F527A3E0F528A3E0F52990122C2E
:1032CC007480F07451A3F07401A3F07400A3F08522
:1032DC0026828527838528F0E5291256E885822ADF
:1032EC0085832B85F02CF52D90108FE0FDA3E0FE4F
:1032FC00A3E0FF90122C743CF07400A3F0A3F0A395
:10330C00F0852A82852B83852CF0E52DC007C0061D
:10331C00C0051256E8A982AA83ABF0FCD005D006F2
:10332C00D0078D828E838FF0E9125BF474012DF53A
:10333C002E74003EF52F8F3090122C7410F0740EFA
:10334C00A3F07400A3F0A3F0852A82852B83852C2F
:10335C00F0E52DC007C006C0051256E8A882A98367
:10336C00ABF0FCD005D006D00790123B743CF07447
:10337C0000A3F0A3F0A3F0888289838BF0ECC00744
:10338C00C006C005125882A982AA83ABF0FCD005F6
:10339C00D006D007852E82852F838530F0E9125B0D
:1033AC00F474022DF52E74003EF52F8F3090123BE5
:1033BC007410F0740EA3F07400A3F0A3F0852A82AD
:1033CC00852B83852CF0E52DC007C006C00512584F
:1033DC0082A882A983ABF0FCD005D006D007852E3D
:1033EC0082852F838530F0E8125BF490123B748059
:1033FC00F07451A3F07401A3F07400A3F08526823D
:10340C008527838528F0E529C007C006C00512581A
:10341C0082A982AA83ABF0FCD005D006D00790100D
:10342C0092E9F0EAA3F074052DFD74003EFE8D8246
:10343C008E838FF074D0125BF4A37407125BF4903C
:10344C00108FE0FDA3E0FEA3E0FF74052DFD7400DA
:10345C003EFE8D828E838FF0125D60FBA3125D6049
:10346C00FC9012647490F07401A3F08B828C83C076
:10347C0007C006C005125C9BAB82AC83D005D0069E
:10348C00D007EB4CB40100E433FBEB60030234F6E1
:10349C008D828E838FF0125D60FBA3125D60FC90B9
:1034AC0012647464F07400A3F08B828C83C007C028
:1034BC0006C005125C9BE5828583F0D005D006D052
:1034CC000745F070030234FD8D828E838FF0125D00
:1034DC0060FBA3125D60FC5303037C00EB4CB40156
:1034EC0000E433FBEB70030234FD7B6E7C01023590
:1034FC00017B6D7C01901092E0F9A3E0FAC3E99B8B
:10350C00EA9C50030235EF8D828E838FF0125D6042
:10351C00FBA3125D60FC9012647490F07401A3F034
:10352C008B828C83C007C006C005125C9BAB82AC3F
:10353C0083D005D006D007EB4CB40100E433FBEB91
:10354C0060030235AB8D828E838FF0125D60FBA31E
:10355C00125D60FC9012647464F07400A3F08B82B2
:10356C008C83C007C006C005125C9BE5828583F086
:10357C00D005D006D00745F070030235B28D828E8F
:10358C00838FF0125D60FBA3125D60FC5303037C20
:10359C0000EB4CB40100E433FBEB70030235B27B5F
:1035AC006E7C010235B67B6D7C01901092E0F9A324
:1035BC00E0FA901092E9C39BF0EA9CA3F08D828E06
:1035CC00838FF0125D60FBA3125D60FC0BBB0001EE
:1035DC000C8D828E838FF0EB125BF4A3EC125BF4F8
:1035EC0002345E90108FE0FDA3E0FEA3E0FF7404B4
:1035FC002DFD74003EFE8D828E838FF07400125B65
:10360C00F490108FE0FDA3E0FEA3E0FF74052DFA0B
:10361C0074003EFB8F0474042DFD74003EFE8A8200
:10362C008B838CF0125D60F8A3125D60F9901264CC
:10363C007490F07401A3F088828983C007C006C01F
:10364C0005C004C003C002125C9BA882A983D002EF
:10365C00D003D004D005D006D007E849B40100E46B
:10366C0033F8E860030236DF8A828B838CF0125DBC
:10367C0060F8A3125D60F99012647464F07400A396
:10368C00F088828983C007C006C005C004C003C08F
:10369C0002125C9BE5828583F0D002D003D004D06B
:1036AC0005D006D00745F070030236DA8A828B8388
:1036BC008CF0125D60F8A3125D60F9530003790081
:1036CC00E849B40100E433F8E860030236DF79001E
:1036DC000236E17901C002C003C0048D828E838F53
:1036EC00F0125D60F8901094E8F08982C007C00673
:1036FC00C005C004C003C002123875A982D002D024
:10370C0003D004D005D006D007901092E0F8A3E0C7
:10371C00FC7B00C3E899EC9BD004D003D00250038F
:10372C0002384F8A828B838CF0125D60F8A3125D95
:10373C0060F99012647490F07401A3F0888289830C
:10374C00C007C006C005C004C003C002125C9BA821
:10375C0082A983D002D003D004D005D006D007E8CC
:10376C0049B40100E433F8E860030237E48A828B41
:10377C00838CF0125D60F8A3125D60F99012647492
:10378C0064F07400A3F088828983C007C006C0056A
:10379C00C004C003C002125C9BE5828583F0D0029A
:1037AC00D003D004D005D006D00745F07003023703
:1037BC00DF8A828B838CF0125D60F8A3125D60F956
:1037CC005300037900E849B40100E433F8E86003DE
:1037DC000237E479000237E67901C002C003C00465
:1037EC008D828E838FF0125D60F8901094E8F089D2
:1037FC0082C007C006C005C004C003C002123875E1
:10380C00A982D002D003D004D005D006D0078900FD
:10381C007900901092E0FBA3E0FC901092EBC3981F
:10382C00F0EC99A3F08D828E838FF0125D60FC0C0E
:10383C008D828E838FF0EC125BF4D004D003D00217
:10384C0002362A90108FE0FDA3E0FEA3E0FF740384
:10385C002DFD74003EFE901092E0FBA3E0FC8D82E7
:10386C008E838FF0EB125BF422E582901095F09032
:10387C001096741FF0901094E0FFBF0102800302B9
:10388C00389D901095E0FF901096741C2FF0023824
:10389C00C3901094E0FFC374069F40030238B190AC
:1038AC001094E014F0901094E0FFEF20E003023845
:1038BC00C3901096741EF0901096E0FF8F8222AF8A
:1038CC00F0AE83E582901097F0EEA3F0EFA3F090AA
:1038DC001097E0FDA3E0FEA3E0FF74022DFA740044
:1038EC003EFB8F048A828B838CF0125D60FA9012FF
:1038FC0060EAF07400A3F0A3F0A3F075823C75832A
:10390C000075F0007400C007C006C005125C2F855E
:10391C00823185833285F033F534D005D006D0075B
:10392C0074012DF874003EFB8F0488828B838CF01D
:10393C00125D60F87C007B007A00901260E8253103
:10394C00F0EC3532A3F0EB3533A3F0EA3534A3F0C9
:10395C0075823C75830075F0007400C007C006C00A
:10396C0005125C2F85823185833285F033F534D096
:10397C0005D006D0078D828E838FF0125D60F87AA9
:10398C00007B007C0090109AE82531F0EA3532A3D8
:10399C00F0EB3533A3F0EC3534A3F074032DFA744B
:1039AC00003EFB8F048A828B838CF0125D60FA9050
:1039BC00109EEAF07400A3F074042DFD74003EFE1A
:1039CC008D828E838FF0125D60FD9010A0EDF090D3
:1039DC001097E0FDA3E0FEA3E0FF74052DFD74003D
:1039EC003EFE9010A0E0FC1CEC30E703023AD58DB3
:1039FC00828E838FF0125D60FAA3125D60FB9012D1
:103A0C00647490F07401A3F08A828B83C007C006A3
:103A1C00C005C004125C9BAA82AB83D004D005D035
:103A2C0006D007EA4BB40100E433FAEA6003023A29
:103A3C00A08D828E838FF0125D60FAA3125D60FB05
:103A4C009012647464F07400A3F08A828B83C007B4
:103A5C00C006C005C004125C9BE5828583F0D004CF
:103A6C00D005D006D00745F07003023A9B8D828EAC
:103A7C00838FF0125D60FAA3125D60FB5302037B2F
:103A8C0000EA4BB40100E433FAEA6003023AA07B8B
:103A9C0000023AA27B01901094ECF08B82C007C01C
:103AAC0006C005C004123875AB82D004D005D00610
:103ABC00D0077A0090109EE0F8A3E0F990109EEBEE
:103ACC0028F0EA39A3F00239F3901097E0FDA3E057
:103ADC00FEA3E0FF74052DFD74003EFE8D828E83E7
:103AEC008FF0125D60FDA3125D60FE9010A1EDF0F1
:103AFC00EEA3F09010A1E0FEA3E0FF1EBEFF011F9D
:103B0C00C3EE94D0EF94075003023B9C9012647464
:103B1C0090F07401A3F08E828F83C007C006125CF4
:103B2C009BAC82AD83D006D007EC4DB40100E433DE
:103B3C00FCEC6003023B7C9012647464F07400A390
:103B4C00F08E828F83C007C006125C9BE582858352
:103B5C00F0D006D00745F07003023B8374035EFC83
:103B6C007D00EC4DB40100E433FCEC7003023B83AC
:103B7C007C6E7D01023B877C6D7D0190109EE0FA8E
:103B8C00A3E0FB90109EEC2AF0ED3BA3F0023B0768
:103B9C0090109EE0FEA3E0FF901260EEF0EFA3F019
:103BAC007400A3F0A3F075828075835175F00174D5
:103BBC0000125C2FAC82AD83AEF0FF90109AE0F84F
:103BCC00A3E0F9A3E0FAA3E0FB90109AEC28F0ED47
:103BDC0039A3F0EE3AA3F0EF3BA3F090109AE0FC7F
:103BEC00A3E0FDA3E0FEA3E0FF8C828D838EF0EFBB
:103BFC002275C60022AF83E5829010A3F0EFA3F0EC
:103C0C00AFF174FE5FF5F143F30C4386C09010A343
:103C1C00E0FEA3E0FFBE0006BF0003023C51BE0164
:103C2C0006BF0003023C5ABE0206BF0003023C63FF
:103C3C00BE0306BF0003023C6CBE0406BF000302B9
:103C4C003C75023C7B43C50875C23B023C7B43C5BB
:103C5C000975C23B023C7B43C50A75C23B023C7BE7
:103C6C0043C50A75C2D8023C7B43C50B75C2D8222A
:103C7C00E5829010A5F0E0F5C1E58630E003023C4A
:103C8C0085E58620E103023C85AF8674FD5FF586F1
:103C9C0022AFF0AE83E5829010A6F0EEA3F0EFA376
:103CAC00F0E58630E003023CADE58620E203023C01
:103CBC00AD9010A6E0FDA3E0FEA3E0FF8D828E8305
:103CCC008FF0E5C1125BF422AFF0AE83E582901069
:103CDC00A9F0EEA3F0EFA3F09010A9E0FDA3E0FE95
:103CEC00A3E0FF8D828E838FF0125D607003023D26
:103CFC002B8D828E838FF0125D60FCA3AD82AE8320
:103D0C009010A9EDF0EEA3F0EFA3F08C82C007C0E9
:103D1C0006C005123C7CD005D006D007023CEF90C3
:103D2C0010A9EDF0EEA3F0EFA3F022AFF0AE83E517
:103D3C00829010ACF0EEA3F0EFA3F09010ACE0FD8D
:103D4C00A3E0FEA3E0FF8D828E838FF0C007C00638
:103D5C00C005123C9DD005D006D0078D828E838F76
:103D6C00F0125D60FCA3AD82AE839010ACEDF0EE72
:103D7C00A3F0EFA3F0BC0D028003023D529010ACF7
:103D8C00EDF0EEA3F0EFA3F022AF83E5829010AF3D
:103D9C00F0EFA3F0758230123C7C758258123C7C9B
:103DAC009010AFE0FEA3E0FF7C0074F05FFDEDC46B
:103DBC00540FFC7D008C82C007C006123E58AD82A9
:103DCC00D006D0078D82C007C006123C7CD006D02E
:103DDC00077C00740F5FFD8D048C82C007C0061237
:103DEC003E58AD82D006D0078D82C007C006123C6B
:103DFC007CD006D00774F05EFC7D00EDC4CCC454BE
:103E0C000F6CCC540FCC6CCCFD8C82C007C006124E
:103E1C003E58AD82D006D0078D82C007C006123C3A
:103E2C007CD006D007740F5EFC7D008C82C007C06E
:103E3C0006123E58AD82D006D0078D82C007C00650
:103E4C00123C7CD006D0078E828F8322E5829010A4
:103E5C00B1F0E0FFC374099F5003023E779010B19C
:103E6C00E0FF74302FFF8F82023E9F9010B1E0FF75
:103E7C00BF0A005003023E9C9010B1E0FFC3740FC8
:103E8C009F5003023E9C9010B1E0FF8F82023E9F38
:103E9C007582FF22AFF0AE83E5829010B3F0EEA3F3
:103EAC00F0EFA3F09010B67400F0A3F0A3F0901014
:103EBC00B2E0FFBF0202800302411F9010B3E0FD8D
:103ECC00A3E0FEA3E0FF8D828E838FF0125D60FC79
:103EDC007B000DBD00010E8D828E838FF0125D6014
:103EEC00FD7F008D077D00ED2CFCEF3BFB8C068BE2
:103EFC0007BC0006BB1803023FBDBE0106BF18037A
:103F0C00023FCEBE0006BF2803023FDFBE0106BF44
:103F1C002803023FF0BE0206BF2803024001BE0385
:103F2C0006BF2803024012BE0006BF29030240232D
:103F3C00BE0106BF2903024034BE0206BF2903029C
:103F4C004045BE0306BF2903024056BE0406BF29E6
:103F5C0003024067BE0506BF2903024078BE060671
:103F6C00BF2903024089BE0706BF290302409ABE3F
:103F7C000806BF29030240ABBE0006BF2A0302405D
:103F8C00BCBE0106BF2A030240CDBE0206BF2A03F7
:103F9C000240EFBE0306BF2A030240DEBE0406BF8A
:103FAC002A03024100BE0506BF2A03024111024149
:103FBC001F9010B6748BF0745DA3F07480A3F002A4
:103FCC00411F9010B6748DF0745DA3F07480A3F053
:103FDC0002411F9010B67493F0745DA3F07480A32B
:103FEC00F002411F9010B67495F0745DA3F07480CC
:103FFC00A3F002411F9010B67497F0745DA3F07497
:10400C0080A3F002411F9010B67499F0745DA3F078
:10401C007480A3F002411F9010B6749BF0745DA3E2
:10402C00F07480A3F002411F9010B6749DF0745D83
:10403C00A3F07480A3F002411F9010B6749FF0742B
:10404C005DA3F07480A3F002411F9010B674A1F030
:10405C00745DA3F07480A3F002411F9010B674A39A
:10406C00F0745DA3F07480A3F002411F9010B6743D
:10407C00A5F0745DA3F07480A3F002411F9010B6FC
:10408C0074B9F0745DA3F07480A3F002411F90101A
:10409C00B674BBF0745DA3F07480A3F002411F9062
:1040AC0010B674BDF0745DA3F07480A3F002411FD0
:1040BC009010B674A7F0745DA3F07480A3F0024165
:1040CC001F9010B674A9F0745DA3F07480A3F00275
:1040DC00411F9010B674ADF0745DA3F07480A3F022
:1040EC0002411F9010B674ABF0745DA3F07480A302
:1040FC00F002411F9010B674AFF0745DA3F07480A1
:10410C00A3F002411F9010B674B1F0745DA3F0746B
:10411C0080A3F09010B6E0FDA3E0FEA3E0FF8D823B
:05412C008E838FF022DC
:105D8B000018011805A006A00028012802280328E6
:105D9B00002901290229032904290529002A012A9E
:105DAB00022A032A042A052A08B009B00AB00629D8
:045DBB000729082983
:1000DC009010E67401F09010E774B8F0740BA3F074
:1000EC009010E97403F09010EA14F09010EB14F0F7
:1000FC009010EC7406F09010ED7400F09010EEF08F
:10010C009010EFF09010F0F09010F1F09010F2F0E1
:10011C009010F3F09010F4F09010F5F09010F6F0C1
:10012C009010F7F09010F8F09010F9F09010FAF0A1
:10013C009010FBF09010FCF09010FDF09010FEF081
:10014C009010FFF0901100F0901101F0901102F05E
:10015C00901103F0901104F0901105F0901106F03D
:10016C00901107F0901108F0901109F090110AF01D
:10017C0090112BF0901133F0A3F0901135F0A3F007
:10018C00A3F0901138F090113EF090113F7406F0EE
:10019C007400A3F09011417480F0740CA3F09011D2
:1001AC00437400F0A3F090114574E8F07403A3F0CD
:1001BC009011477400F0A3F0901149F0A3F0901146
:0801CC004BF0A3F090114DF07F
:10413100AF83E582901152F0EFA3F0901154740017
:10414100F0901152E0FEA3E0FFBE0505BF0302801F
:104151000302420F90114EE0FFBF010280030242B1
:10416100069010E6E0FF901155EFF090114FE0FD41
:10417100A3E0FEA3E0FF8D828E838FF0125D60FDD0
:104181009010E6EDF0901155E0FFEF70030241B69B
:104191009010E6E0FFEF60030241B69010BAE0FF35
:1041A100BF020280030242159010B9E0FF8F821214
:1041B1004931024215901155E0FFEF6003024215AB
:1041C1009010E6E0FFEF70030242159010BAE0FF95
:1041D100BF01030241EF9010BAE0FFBF03030241A8
:1041E100EF9010BAE0FFBF04028003024215901065
:1041F100B9E0FF9003C67401F07400A3F08F82123E
:1042010019840242159011547418F002421590114C
:10421100547402F0901154E0FF8F8222AF83E58243
:10422100901159F0EFA3F090115B7400F0901159C7
:10423100E0FEA3E0FFC3EF94035003024635C374CD
:10424100189E74039F5003024635EE240A83F582BB
:10425100EE241D83F583E4738BA8D7063B6A87ACF4
:10426100E014314E7D9AB7BADF03284D7297C6EB41
:10427100104242424343434343434444444444443D
:1042810044444545454545454546901156E0FDA305
:10429100E0FEA3E0FF9010BBE0FC8D828E838FF0E7
:1042A100EC125BF402464F901156E0FDA3E0FEA331
:1042B100E0FF90030774BCF07410A3F07400A3F046
:1042C10090030A7410F07400A3F08D828E838FF036
:1042D10012042202464F901156E0FDA3E0FEA3E036
:1042E100FF90030774CCF07410A3F07400A3F09056
:1042F100030A7410F07400A3F08D828E838FF01284
:10430100042202464F901156E0FDA3E0FEA3E0FF18
:104311009010DCE0F9A3E0FAA3E0FBA3E0FC8D82BE
:104321008E838FF0E9125BF4A3EA125BF4A3EB1224
:104331005BF4A3EC125BF402464F901156E0FDA32F
:10434100E0FEA3E0FF90030774E0F07410A3F074A3
:1043510000A3F090030A7406F07400A3F08D828E1E
:10436100838FF012042202464F901156E0FDA3E024
:10437100FEA3E0FF9010E6E0FC8D828E838FF0ECCF
:10438100125BF402464F901156E0FDA3E0FEA3E05C
:10439100FF9010E7E0FBA3E0FC8D828E838FF0EBB2
:1043A100125BF4A3EC125BF402464F901156E0FD50
:1043B100A3E0FEA3E0FF9010E9E0FC7B009003077F
:1043C10074EAF07410A3F07400A3F090030AECF007
:1043D100EBA3F08D828E838FF012042202464F9060
:1043E1001156E0FDA3E0FEA3E0FF901109E0FC7B84
:1043F10000900307740AF07411A3F07400A3F09005
:10440100030AECF0EBA3F08D828E838FF01204226D
:1044110002464F901156E0FDA3E0FEA3E0FF90118C
:1044210029E0FC8D828E838FF0EC125BF402464F03
:10443100901156E0FDA3E0FEA3E0FF90112AE0FCFD
:104441008D828E838FF0EC125BF402464F901156F1
:10445100E0FDA3E0FEA3E0FF900307742BF07411CD
:10446100A3F07400A3F090030A7406F07400A3F0A3
:104471008D828E838FF012042202464F901156E0F6
:10448100FDA3E0FEA3E0FF901131E0FC8D828E835D
:104491008FF0EC125BF402464F901156E0FDA3E061
:1044A100FEA3E0FF901132E0FC8D828E838FF0EC51
:1044B100125BF402464F02464F901156E0FDA3E015
:1044C100FEA3E0FF901133E0FBA3E0FC8D828E831D
:1044D1008FF0EB125BF4A3EC125BF402464F9011E8
:1044E10056E0FDA3E0FEA3E0FF90113EE0FC7B005F
:1044F1008D828E838FF0EC125BF4A3EB125BF402DE
:10450100464F901156E0FDA3E0FEA3E0FF90113F5E
:10451100E0FBA3E0FC8D828E838FF0EB125BF4A3B2
:10452100EC125BF402464F901156E0FDA3E0FEA3AE
:10453100E0FF901141E0FBA3E0FC8D828E838FF0C0
:10454100EB125BF4A3EC125BF402464F901156E0C0
:10455100FDA3E0FEA3E0FF901143E0FBA3E0FC8D8F
:10456100828E838FF0EB125BF4A3EC125BF40246B4
:104571004F901156E0FDA3E0FEA3E0FF901145E04E
:10458100FBA3E0FC8D828E838FF0EB125BF4A3EC36
:10459100125BF402464F901156E0FDA3E0FEA3E04A
:1045A100FF9003077438F07411A3F07400A3F09026
:1045B100030A7406F07400A3F08D828E838FF012CB
:1045C100042202464F901156E0FDA3E0FEA3E0FF56
:1045D100901147E0FBA3E0FC8D828E838FF0EB12FC
:1045E1005BF4A3EC125BF402464F901156E0FDA37D
:1045F100E0FEA3E0FF901149E0FBA3E0FC8D828E79
:10460100838FF0EB125BF4A3EC125BF402464F9044
:104611001156E0FDA3E0FEA3E0FF90114BE0FBA3E8
:10462100E0FC8D828E838FF0EB125BF4A3EC125BC6
:10463100F402464F901159E0FEA3E0FFC3EE94242B
:10464100EF9400500302464F90115B7402F09011F9
:104651005BE0FF8F8222AFF0AE83E58290115CF0C8
:10466100EEA3F0EFA3F09010BAE0FFEF6003024673
:10467100A390115CE0FDA3E0FEA3E0FFED4E70030B
:1046810002469A90115CE0FDA3E0FEA3E0FF9011C9
:1046910035EDF0EEA3F0EFA3F01249197582000297
:1046A10046A675821122E58290115FF0E0FF90101D
:1046B100B9EFF09010BA7400F09010BB7404F09050
:1046C10003397400F090033A7410F07400A3F0758C
:1046D10082BC75831075F0001206AF900339740027
:1046E100F090033A7410F07400A3F07582CC7583D6
:1046F1001075F0001206AF9010DC7400F0A3F0A367
:10470100F0A3F0901129F090112AF0901131740763
:10471100F09011327400F022C01D85811DE58124C5
:104721000AF581E51D24FCF8E620E00302483390F8
:1047310010E6E0FFEF7003024820A91D099011293E
:10474100E0FFA707AF1D0FEF04F990112AE0FEA7C4
:104751000674022FFE7D007C40900307742BF074D9
:1047610011A3F07400A3F090030A7406F07400A37F
:10477100F08E828D838CF0C007120422D00774085A
:104781002FF9901131E0FEA70674092FF99011322B
:10479100E0FEA7069010B9E0FE901160EFF0740002
:1047A100A3F07440A3F08E82124935E582700302B2
:1047B10048209010BA7406F0901135E0FDA3E0FE98
:1047C100A3E0FFED4E7003024820901135E0FDA3F8
:1047D100E0FEA3E0FF8D828E838FF0125D60FDA36A
:1047E100125D60FEED4E7003024820901135E0FD30
:1047F100A3E0FEA3E0FF8D828E838FF0125D60FD4A
:10480100A3125D60FE9010BAE0FFC006C005124819
:104811001502481CC005C0068F8222D005D006E5CE
:104821001D24FCF8740166FE0886078E828F8302C0
:104831004892E51D24FCF8E620E30302488C124867
:1048410098E58260030248797582BF75835D75F0D2
:1048510080123CD49010B9E0FF9010387408F074C5
:1048610000A3F090103A742CF07401A3F07400A32B
:10487100F0A3F08F82122700E51D24FCF87408666E
:10488100FE0886078E828F830248927582007583A7
:1048910000851D81D01D22AF8EBF01030248A9BF33
:1048A10002030248CC0248DB9010BA7401F0901068
:1048B100B9E0FF9003C67401F07400A3F08F821277
:1048C100198475AA00758E000248E19010BA74022D
:1048D100F075AA00758E000248E175820002491840
:1048E100901135E0FDA3E0FEA3E0FF8D828E838F62
:1048F100F0125D60FDA3125D60FE9010BAE0FFC092
:1049010006C00512490A024911C005C0068F82225C
:10491100D005D0067582012275AA019010B9E0FF79
:104921009003C67408F07400A3F08F8212198422D8
:104931007582002275AA029010B9E0FF9003C67437
:1049410008F07400A3F08F82121984758200227519
:03495100820022BF
:105DBF0047415020626C6520636B65636B65723D74
:065DCF003D3D3D0D0A0000
:1001D400901168740AF09011697400F090116A74B7
:1001E40043F090116B7468F090116C7461F090118D
:1001F4006D7472F090116E7461F090116F7463F00D
:100204009011707474F09011717465F0901172749F
:1002140072F09011737469F09011747473F090110A
:100224007504F09011767469F09011777463F0900E
:1002340011787420F09011797431F090117A74006F
:10024400F090117B740AF090117C7400F090117D91
:100254007443F090117E7468F090117F7461F09093
:1002640011807472F09011817461F0901182746342
:10027400F09011837474F09011847465F09011857A
:100284007472F09011867469F09011877473F09011
:10029400118804F09011897469F090118A7463F0E4
:1002A40090118B7420F090118C7432F090118D7435
:1002B40000F090118E7402F090118F7493F0745DBD
:1002C400A3F07480A3F090119223F0901193740022
:1002D400F0A3F090119574E1F0745DA3F07480A321
:1002E400F09011987402F09011997499F0745DA3D0
:1002F400F07480A3F090119C23F090119D7400F091
:10030400A3F090119F7468F07411A3F07400A3F02B
:100314009011A27402F09011A374DDF0745DA3F047
:100324007480A3F09011A67403F09011A77400F0E8
:10033400A3F09011A97469F07411A3F07400A3F0F0
:100344009011AC7402F09011AD749DF0745DA3F043
:100354007480A3F09011B023F09011B17400F0A355
:10036400F09011B3746AF07411A3F07400A3F090C8
:1003740011B67402F09011B774DFF0745DA3F074D9
:1003840080A3F09011BA7403F09011BB7400F0A331
:0F039400F09011BD747CF07411A3F07400A3F00D
:10495400AF82AE83ADF0FC9011C0EFF0EEA3F0EDAA
:10496400A3F0ECA3F09011C47400F09011C0E0FC2B
:10497400A3E0FDA3E0FEA3E0FFEC20E0030249AEC8
:104984009011DC7405F07400A3F09011DE74D5F07E
:10499400745DA3F07480A3F075828E75831175F035
:1049A4000012517FE5829011C4F09011C4E0FF8F92
:1049B4008222E5829011C9F09011CA7400F090111E
:1049C400C9E0FFBF00028003024A029011C5E0FF64
:1049D400BF010280030249F99011C6E0FDA3E0FE85
:1049E400A3E0FF8D828E838FF0125D60FD901169CC
:1049F400EDF0024A089011CA7418F0024A089011A6
:104A0400CA7402F09011CAE0FF8F8222E5829011ED
:104A1400CEF09011CF7400F09011CEE0FFBF0002F1
:104A24008003024A469011CBE0FDA3E0FEA3E0FF21
:104A3400901169E0FC8D828E838FF0EC125BF4029E
:104A44004A4C9011CF7402F09011CFE0FF8F822274
:104A5400C01D85811D7F00E51D24FBF886040886A2
:104A64000508860674042CFC74003DFD8C828D833D
:104A74008EF0125D60FCEC20E403024A8775820824
:104A8400024C26E51D24F3F8E608467003024A9A10
:104A940075820B024C26E51D24FBF8860408860566
:104AA4000886068C828D838EF0125D60FCBC020247
:104AB4008003024C0AE51D24FBF8860408860508D9
:104AC40086060CBC00010D8C828D838EF0125D6015
:104AD400FCA3125D60FDA3125D60FE8C828D838E4B
:104AE400F0125D60FB7A000CBC00010D8C828D839A
:104AF4008EF0125D60FC7E008C067C00EC2BFBEEDD
:104B04003AFABBF106BABA03024B1BBBF906BABAAE
:104B140003024B84024BEDC007E51D24F5F886041F
:104B24000886050886068C828D838EF07401125BDC
:104B3400F4E51D24F8F88604088605088606E51DB4
:104B440024FBF8860208860308860774072AFA7489
:104B5400003BFB8A828B838FF0125D60FAA3125DA7
:104B640060FBA3125D60FF8A828B838FF0125D600D
:104B7400FA8C828D838EF0EA125BF4D007024C2407
:104B8400C007E51D24F5F886040886050886068C0A
:104B9400828D838EF07401125BF4E51D24F8F8868F
:104BA40004088605088606E51D24FBF886020886A7
:104BB4000308860774072AFA74003BFB8A828B83F6
:104BC4008FF0125D60FAA3125D60FBA3125D60FFBB
:104BD4008A828B838FF0125D60FA8C828D838EF0D3
:104BE400EA125BF4D007024C24E51D24F5F8860490
:104BF4000886050886068C828D838EF07400125B0D
:104C0400F47F0A024C24E51D24F5F8860408860581
:104C14000886068C828D838EF07400125BF47F010B
:104C24008F82D01D22C01D85811D058105810581CE
:104C34007F00E51D24FBF8860408860508860674B3
:104C4400042CFC74003DFD8C828D838EF0125D601B
:104C5400FCEC20E503024C62758208024DCDE51D93
:104C640024FBF886040886050886068C828D838ECC
:104C7400F0125D60FCBC02028003024DC9E51D24F4
:104C8400FBF886040886050886060CBC00010D8C1A
:104C9400828D838EF0125D60FCA3125D60FDA31211
:104CA4005D60FE8C828D838EF0125D60FB7A000C59
:104CB400BC00010D8C828D838EF0125D60FC7E0041
:104CC4008C067C00EC2BFBEE3AFABB0206BA2903F5
:104CD400024DCBBBF106BABA03024CECBBF906BADF
:104CE400BA03024D58024DC4EF6003024DCBC00716
:104CF400E51D24FBF8860408860508860674072C3F
:104D0400FC74003DFD8C828D838EF0A81D08125D1D
:104D140060F6A3125D6008F6A3125D6008F6E51D57
:104D240024F8F886020886030886078A828B838F14
:104D3400F0125D60FEA81D0886820886830886F04E
:104D4400EE125BF48A828B838FF0125D60F5C0D023
:104D540007024DCBEF6003024DCBC007E51D24FBDA
:104D6400F8860408860508860674072CFC74003D42
:104D7400FD8C828D838EF0A81D08125D60F6A3124F
:104D84005D6008F6A3125D6008F6E51D24F8F88658
:104D9400020886030886078A828B838FF0125D607F
:104DA400FEA81D0886820886830886F0EE125BF44E
:104DB4008A828B838FF0125D60F5C2D007024DCBDF
:0F4DC4007F0A024DCB7F018F82851D81D01D227A
:105DD500544A294C0000F0BAF1BAF9BA02DB5D80E9
:0803A3009011D07400F0A3F0EA
:104DD300E5829011D3F0E0FF9011D2EFF09011D063
:104DE3007400F0A3F09003C604F07400A3F08F8264
:104DF30012198422C01D85811DE51D24FCF8E620BF
:104E0300E003024E41C39011D2E0FF9010387401C9
:104E1300F07400A3F090103A7464F07400A3F0A34C
:104E2300F0A3F08F82122700124E4AE51D24FCF8EE
:104E3300740166FE0886078E828F83024E47758251
:104E430000758300D01D22900067E0FCA3E0FDA362
:104E5300E0FEA3E0FF9011D4ECF0EDA3F09011D9A4
:104E63007400F09011DBF0AF8EBF0303024E81BFDD
:104E73000403024E8ABF050302500502517D758E5D
:104E83000075AA0002517D9011D4E0F517A3E0F557
:104E9300189011D9E0FD9011D0E0FBA3E0FC8D0147
:104EA3007A00C3E99BEA64808CF063F08095F0405C
:104EB30003024FF29011DA7400F0ED75F006A4FBD3
:104EC300ACF0E0FAC0058B8274002CF583E0F8A304
:104ED300E0F9A3E0FDEA75F00AA428F8E935F0F952
:104EE3009011D6E8F0E9A3F0EDA3F008B8000109AA
:104EF300888289838DF0125D60F8A3125D60F9A347
:104F0300125D60FD888289838DF0125D60F8A312C3
:104F13005D60F9851782851883E493FDA3E493FF0D
:104F2300E8B50506E9B507028005D005024FCFD0E5
:104F330005C0059011DB7401F08B0674002CFF8E05
:104F4300828F83A3A3A3E0F9A3E0FEA3E0FF8982FA
:104F53008E838FF0125D60F9A3125D60FE90007284
:104F6300E0F519A3E0F51A900065E0FDA3E0FFC0AA
:104F730006C005C004C003C002C0017434C0E0C051
:104F830019C01A7471C0E07400C0E07400C0E0740A
:104F930074C0E07400C0E07400C0E09011D6E0C0BB
:104FA300E0A3E0C0E0A3E0C0E0124FB2024FBBC0F9
:104FB30001C0068D828F8322E58124F4F581D0011F
:104FC300D002D003D004D005D006D0059011DBE089
:104FD300FFBF0103024FE30ABA04005003024EC7A6
:104FE3009011DBE0FFBF0103024FF20D024E9990D7
:104FF30011DBE0FFBF0102800302517D75AA0402A9
:10500300517D9011D4E0F519A3E0F51A9011D9E080
:10501300FD9011D0E0FBA3E0FC8D017A00C3E99B76
:10502300EA64808CF063F08095F0400302516D9048
:1050330011DA7400F0ED75F006A4FBACF0E0FAC0F1
:10504300058B8274002CF583E0F8A3E0F9A3E0FD5F
:10505300EA75F00AA428F8E935F0F99011D6E8F0DA
:10506300E9A3F0EDA3F008B8000109888289838DD4
:10507300F0125D60F8A3125D60F9A3125D60FD8814
:105083008289838DF0125D60F8A3125D60F9851942
:1050930082851A83E493FDA3E493FFE8B50506E94B
:1050A300B507028005D00502514AD005C00590110D
:1050B300DB7401F08B0674002CFF8E828F83A3A315
:1050C300A3E0F9A3E0FEA3E0FF740229F974003E14
:1050D300FE89828E838FF0125D60F9A3125D60FEFC
:1050E300900072E0F51BA3E0F51C900071E0F5174A
:1050F300900065E0FDA3E0FFC006C005C004C00347
:10510300C002C001C01BC01CC0177474C0E074008F
:10511300C0E07400C0E09011D6E0C0E0A3E0C0E0BE
:10512300A3E0C0E012512D025136C001C0068D82AA
:105133008F8322E58124F7F581D001D002D003D0FB
:1051430004D005D006D0059011DBE0FFBF010302B8
:10515300515E0ABA040050030250429011DBE0FF93
:10516300BF010302516D0D0250149011DBE0FFBF2C
:105173000102800302517D75AA052222AFF0AE839E
:10518300E5829011E1F0EEA3F0EFA3F09011D0E0EF
:10519300FEA3E0FF9011E4EEF0EFA3F0BE0A05BF1B
:1051A300000280030251B075820002522B9011E479
:1051B300E0FEA3E0FF90125EEEF0EFA3F07582062F
:1051C300758300125C0FAE82AF838E0474002FFDD3
:1051D3009011E1E0F9A3E0FAA3E0FB8C828D83E96F
:1051E300F0EAA3F0EBA3F074002FFF74032EFE7418
:1051F300003FFF9011DEE0FBA3E0FCA3E0FD8E8205
:105203008F83EBF0ECA3F0EDA3F075AA039011D01C
:10521300E0FEA3E0FF8FB08EB79011D074012EF0A3
:1052230074003FA3F07582012290028974BAF022C0
:10523300AFF0AE83E5829011ECF0EEA3F0EFA3F0B4
:105243009011ECE0FDA3E0FEA3E0FF900290E0FCF0
:105253008D828E838FF0EC125BF49011E6E0FDA358
:10526300E0FEA3E0FF900291E0FC8D828E838FF03D
:10527300EC125BF49011E9E0FDA3E0FEA3E0FF90E4
:105283000292E0FC8D828E838FF0EC125BF422227B
:0E529300222222222222222222222222222231
:1003AB009012057400F0901209F0A3F090120B74E8
:0E03BB0020F090120C7400F090120DF0A3F0E0
:1052A100E582901208F0E0FF901204EFF0758201A0
:1052B1001254DD12522C758203758300123C019049
:1052C10012067400F0A3F0901204E0FF9003C6747C
:1052D10001F07400A3F08F8212198422C01D858110
:1052E1001DE51D24FCF8E620E0030253479012045B
:1052F100E0FF9010387404F07400A3F090103A7439
:105301000AF07400A3F0A3F0A3F08F82122700909B
:105311001204E0FF9010387402F07400A3F09010B2
:105321003A74B8F0740BA3F07400A3F0A3F08F8269
:10533100122700E51D24FCF8740166FE0886078E1D
:10534100828F83025403E51D24FCF8E620E1030269
:1053510053B9901205E0FFBF01028003025371901F
:1053610012057400F0D208A280A208928002537F35
:105371009012057401F0C208A280A20892809012D6
:1053810004E0FF9010387402F07400A3F090103A1A
:1053910074B8F0740BA3F07400A3F0A3F08F821221
:1053A100270012548BE51D24FCF8740266FE088662
:1053B100078E828F83025403E51D24FCF8E620E268
:1053C100030253FD901204E0FF9010387404F0744E
:1053D10000A3F090103A740AF07400A3F0A3F0A3B4
:1053E100F08F82122700125406E51D24FCF8740484
:1053F10066FE0886078E828F8302540375820075CC
:105401008300D01D2290120F7400F0901210F090C2
:105411001211F09011E67410F07412A3F07400A34D
:10542100F09011E97411F07412A3F07400A3F075F7
:10543100820F75831275F00012523390120FE0FF44
:10544100C3741064808FF063F08095F040030254C0
:105451005B90120C7401F002548A90120FE0FFC3AA
:10546100EF64809470400302548A90120CE0FFBFF5
:105471000102800302548A90120C7400F090120D04
:10548100E02401F0A3E03400F0227582E575835D2C
:1054910075F080123CD490120DE0FEA3E0FF8E82E5
:1054A1008F83123D957582EC75835D75F080123C9A
:1054B100D49011C57401F09011C6740DF07412A34B
:1054C100F07400A3F07582001249B690120D7400B9
:0454D100F0A3F02232
:0A5DE500737465703A20000D0A0087
:1054D50022222222222222222222222222222222A7
:0603C90090121D7400F00B
:1054E500E58290121FF0E0FFBF0102800302553DE7
:1054F50090121EE0FFBF0202800302553D90121D6F
:10550500E0FFBF0102800302552790121D7400F0D1
:1055150090122004F0A281901220E024FF928102D3
:10552500553D90121D7401F09012207400F0A28177
:09553500901220E024FF92812273
:0A03CF009012227400F0901223F047
:10553E00E582901224F0E0FF901221EFF09003C666
:10554E007401F07400A3F08F8212198422C01D859D
:10555E00811DE51D24FCF8E620E0030255A1901202
:10556E0021E0FF9010387402F07400A3F090103A0E
:10557E007464F07400A3F0A3F0A3F08F82122700DE
:10558E00E51D24FCF8740166FE0886078E828F8363
:10559E000255EBE51D24FCF8E620E1030255E590EB
:1055AE001221E0FF9010387402F07400A3F09010F6
:1055BE003A7464F07400A3F0A3F0A3F08F82122764
:1055CE00001255EEE51D24FCF8740266FE088607EF
:1055DE008E828F830255EB758200758300D01D225B
:1055EE008590A0901222E0FFBF0102800302563781
:1055FE009012227400F090122504F0A281901225D0
:10560E00E024FF9281901223E02401F09011C574E2
:10561E0001F09011C67423F07412A3F07400A3F07D
:10562E007582001249B602564D9012227401F09006
:10563E0012257400F0A281901225E024FF9281229F
:10564E00AF83E582901228F0EFA3F090122AE4F0D7
:10565E00A3F0901226E0FEA3E0FF7D10901228E04A
:10566E00FBA3E0FC339200ECCB25E0CB33FC901295
:10567E0028EBF0ECA3F090122AE0FBA3E0CB25E0A0
:10568E00CB33FC90122AEBF0ECA3F0300012901208
:10569E002AE0FBA3E0FC90122A74014BF0ECA3F07D
:1056AE0090122AE0FBA3E0FCC3EB9EEC9F401D9002
:1056BE00122AEBC39EF0EC9FA3F0901228E0FBA3FE
:1056CE00E0FC90122874014BF0ECA3F0DD8E9012EA
:1056DE0028E0FEA3E08E82F58322AF82AE83ADF08A
:1056EE00FC901230EFF0EEA3F0EDA3F0ECA3F090EF
:1056FE001234E4F0901230E0FCA3E0FDA3E0FEA330
:10570E00E0FF7B0090122CE0F53BA3E0F53CA3E01C
:10571E00F53DA3E0F53E235401FA7074C003E53B5A
:10572E00253BF8E53C33F9E53D33FAE53E33FB9096
:10573E00122CE8F0E9A3F0EAA3F0EBA3F090122C00
:10574E00E0F53BA3E0F53CA3E0F53DA3E0F53EC359
:10575E00EC953BED953CEE953DEF953ED0035027F5
:10576E00E53EC313F53EE53D13F53DE53C13F53C33
:10577E00E53B13F53B90122CF0E53CA3F0E53DA381
:10578E00F0E53EA3F080090B901234EBF0025712B5
:10579E00901234E0FF901230E0FBA3E0FCA3E0FD9A
:1057AE00A3E0FE90122CE0F53BA3E0F53CA3E0F560
:1057BE003DA3E0F53EC3EB953BEC953CED953DEE00
:1057CE00953E4017901230EBC3953BF0EC953CA301
:1057DE00F0ED953DA3F0EE953EA3F090122CE0FB7C
:1057EE00A3E0FCA3E0FDA3E0C313FEED13FDEC1359
:1057FE00FCEB13FB90122CF0ECA3F0EDA3F0EEA358
:10580E00F08F061FEE708E901230E0FCA3E0FDA329
:10581E00E0FEA3E08C828D838EF022AFF0AE83E5A6
:10582E0082901238F0EEA3F0EFA3F0901238E0FD64
:10583E00A3E0FEA3E0FF901235E0FAA3E0FBA3E0A5
:10584E00FC8D3B8E3C8F3D8A828B838CF0125D608B
:10585E00F9A3AA82AB83853B82853C83853DF0E923
:10586E00125BF4A385823B85833CE970DA8D828ED0
:10587E00838FF022AF82AE83ADF0FC90123FEFF03B
:10588E00EEA3F0EDA3F0ECA3F0901243E4F0A3F03E
:10589E00A3F0A3F090123BE0FCA3E0FDA3E0FEA377
:1058AE00E0FF753B2090123FE0F8A3E0F9A3E0FA89
:1058BE00A3E0FB339201E828F8E933F9EA33FAEB77
:1058CE0033FB90123FE8F0E9A3F0EAA3F0EBA3F06C
:1058DE00901243E0F8A3E0F9A3E0FAA3E0FBE82876
:1058EE00F8E933F9EA33FAEB33FB901243E8F0E9C7
:1058FE00A3F0EAA3F0EBA3F030011E901243E0F800
:10590E00A3E0F9A3E0FAA3E0FB901243740148F080
:10591E00E9A3F0EAA3F0EBA3F0901243E0F8A3E0C2
:10592E00F9A3E0FAA3E0FBC3E89CE99DEA9EEB9F96
:10593E004031901243E8C39CF0E99DA3F0EA9EA388
:10594E00F0EB9FA3F090123FE0F8A3E0F9A3E0FA8A
:10595E00A3E0FB90123F740148F0E9A3F0EAA3F034
:10596E00EBA3F0D53B0280030258B390123FE0FC4C
:0F597E00A3E0FDA3E0FEA3E08C828D838EF022D8
:06004100E478FFF6D8FD93
:10598D00AC82AD83901248E0FEA3E0FFBE00036041
:10599D00121F0F901247E08C828D83125BF4A3DEF1
:1059AD00FADFF88C828D8322AF83E58290124EF060
:1059BD00EFA3F090124AE0FDA3E0FEA3E0FF9012EA
:1059CD004DE0F5357B00EB2DF8E43EF98F02C00379
:1059DD0090124EE0FBA3E0FC853536753700901232
:1059ED0064E536F0E537A3F08B828C83C007C006E3
:1059FD00C005C002C001C000125C9BAB82AC83D05D
:105A0D0000D001D002D005D006D00774302BFB8812
:105A1D008289838AF0125BF4C374B98BF063F080D2
:105A2D0095F0D0035015888289838AF0125D602429
:105A3D0007FC888289838AF0125BF490124EE0FA9B
:105A4D00A3E0FC901226E536F0E537A3F08A828CB0
:105A5D0083C007C006C005C00312564EE58285837C
